{
	"default_workspace/contracts/voting/vote.sol": {
		"vote": {
			"abi": [
				{
					"inputs": [],
					"stateMutability": "nonpayable",
					"type": "constructor"
				},
				{
					"inputs": [
						{
							"internalType": "uint256",
							"name": "",
							"type": "uint256"
						}
					],
					"name": "IphoneFans",
					"outputs": [
						{
							"internalType": "address",
							"name": "",
							"type": "address"
						}
					],
					"stateMutability": "view",
					"type": "function"
				},
				{
					"inputs": [],
					"name": "Iphone_17ProMax",
					"outputs": [
						{
							"internalType": "uint256",
							"name": "",
							"type": "uint256"
						}
					],
					"stateMutability": "view",
					"type": "function"
				},
				{
					"inputs": [],
					"name": "Owner",
					"outputs": [
						{
							"internalType": "address",
							"name": "",
							"type": "address"
						}
					],
					"stateMutability": "view",
					"type": "function"
				},
				{
					"inputs": [
						{
							"internalType": "uint256",
							"name": "",
							"type": "uint256"
						}
					],
					"name": "SamsungFans",
					"outputs": [
						{
							"internalType": "address",
							"name": "",
							"type": "address"
						}
					],
					"stateMutability": "view",
					"type": "function"
				},
				{
					"inputs": [],
					"name": "Samsung_s26",
					"outputs": [
						{
							"internalType": "uint256",
							"name": "",
							"type": "uint256"
						}
					],
					"stateMutability": "view",
					"type": "function"
				},
				{
					"inputs": [],
					"name": "retrive",
					"outputs": [
						{
							"internalType": "uint256",
							"name": "",
							"type": "uint256"
						},
						{
							"internalType": "uint256",
							"name": "",
							"type": "uint256"
						}
					],
					"stateMutability": "view",
					"type": "function"
				},
				{
					"inputs": [
						{
							"internalType": "uint256",
							"name": "VoteNum",
							"type": "uint256"
						}
					],
					"name": "voteing",
					"outputs": [],
					"stateMutability": "nonpayable",
					"type": "function"
				}
			],
			"devdoc": {
				"kind": "dev",
				"methods": {},
				"version": 1
			},
			"evm": {
				"assembly": "    /* \"default_workspace/contracts/voting/vote.sol\":61:1152  contract vote {... */\n  mstore(0x40, 0x80)\n    /* \"default_workspace/contracts/voting/vote.sol\":339:393  constructor(){... */\n  callvalue\n  dup1\n  iszero\n  tag_1\n  jumpi\n  revert(0x00, 0x00)\ntag_1:\n  pop\n    /* \"default_workspace/contracts/voting/vote.sol\":373:383  msg.sender */\n  caller\n    /* \"default_workspace/contracts/voting/vote.sol\":365:370  Owner */\n  0x00\n  0x00\n    /* \"default_workspace/contracts/voting/vote.sol\":365:383  Owner = msg.sender */\n  0x0100\n  exp\n  dup2\n  sload\n  dup2\n  0xffffffffffffffffffffffffffffffffffffffff\n  mul\n  not\n  and\n  swap1\n  dup4\n  0xffffffffffffffffffffffffffffffffffffffff\n  and\n  mul\n  or\n  swap1\n  sstore\n  pop\n    /* \"default_workspace/contracts/voting/vote.sol\":61:1152  contract vote {... */\n  dataSize(sub_0)\n  dup1\n  dataOffset(sub_0)\n  0x00\n  codecopy\n  0x00\n  return\nstop\n\nsub_0: assembly {\n        /* \"default_workspace/contracts/voting/vote.sol\":61:1152  contract vote {... */\n      mstore(0x40, 0x80)\n      callvalue\n      dup1\n      iszero\n      tag_1\n      jumpi\n      revert(0x00, 0x00)\n    tag_1:\n      pop\n      jumpi(tag_2, lt(calldatasize, 0x04))\n      shr(0xe0, calldataload(0x00))\n      dup1\n      0x76ab579f\n      gt\n      tag_10\n      jumpi\n      dup1\n      0x76ab579f\n      eq\n      tag_6\n      jumpi\n      dup1\n      0xa6b7fc5b\n      eq\n      tag_7\n      jumpi\n      dup1\n      0xb4a99a4e\n      eq\n      tag_8\n      jumpi\n      dup1\n      0xef0c487a\n      eq\n      tag_9\n      jumpi\n      jump(tag_2)\n    tag_10:\n      dup1\n      0x300edcb9\n      eq\n      tag_3\n      jumpi\n      dup1\n      0x3fb3c220\n      eq\n      tag_4\n      jumpi\n      dup1\n      0x7235a2aa\n      eq\n      tag_5\n      jumpi\n    tag_2:\n      revert(0x00, 0x00)\n        /* \"default_workspace/contracts/voting/vote.sol\":222:250  address[ ] public IphoneFans */\n    tag_3:\n      tag_11\n      0x04\n      dup1\n      calldatasize\n      sub\n      dup2\n      add\n      swap1\n      tag_12\n      swap2\n      swap1\n      tag_13\n      jump\t// in\n    tag_12:\n      tag_14\n      jump\t// in\n    tag_11:\n      mload(0x40)\n      tag_15\n      swap2\n      swap1\n      tag_16\n      jump\t// in\n    tag_15:\n      mload(0x40)\n      dup1\n      swap2\n      sub\n      swap1\n      return\n        /* \"default_workspace/contracts/voting/vote.sol\":147:173  uint256 public Samsung_s26 */\n    tag_4:\n      tag_17\n      tag_18\n      jump\t// in\n    tag_17:\n      mload(0x40)\n      tag_19\n      swap2\n      swap1\n      tag_20\n      jump\t// in\n    tag_19:\n      mload(0x40)\n      dup1\n      swap2\n      sub\n      swap1\n      return\n        /* \"default_workspace/contracts/voting/vote.sol\":501:919  function voteing(uint256 VoteNum ) public {... */\n    tag_5:\n      tag_21\n      0x04\n      dup1\n      calldatasize\n      sub\n      dup2\n      add\n      swap1\n      tag_22\n      swap2\n      swap1\n      tag_13\n      jump\t// in\n    tag_22:\n      tag_23\n      jump\t// in\n    tag_21:\n      stop\n        /* \"default_workspace/contracts/voting/vote.sol\":257:286  address[ ] public SamsungFans */\n    tag_6:\n      tag_24\n      0x04\n      dup1\n      calldatasize\n      sub\n      dup2\n      add\n      swap1\n      tag_25\n      swap2\n      swap1\n      tag_13\n      jump\t// in\n    tag_25:\n      tag_26\n      jump\t// in\n    tag_24:\n      mload(0x40)\n      tag_27\n      swap2\n      swap1\n      tag_16\n      jump\t// in\n    tag_27:\n      mload(0x40)\n      dup1\n      swap2\n      sub\n      swap1\n      return\n        /* \"default_workspace/contracts/voting/vote.sol\":925:1149  function retrive( ) public view OnlyOwner returns(uint256,uint256){... */\n    tag_7:\n      tag_28\n      tag_29\n      jump\t// in\n    tag_28:\n      mload(0x40)\n      tag_30\n      swap3\n      swap2\n      swap1\n      tag_31\n      jump\t// in\n    tag_30:\n      mload(0x40)\n      dup1\n      swap2\n      sub\n      swap1\n      return\n        /* \"default_workspace/contracts/voting/vote.sol\":82:102  address public Owner */\n    tag_8:\n      tag_32\n      tag_33\n      jump\t// in\n    tag_32:\n      mload(0x40)\n      tag_34\n      swap2\n      swap1\n      tag_16\n      jump\t// in\n    tag_34:\n      mload(0x40)\n      dup1\n      swap2\n      sub\n      swap1\n      return\n        /* \"default_workspace/contracts/voting/vote.sol\":109:139  uint256 public Iphone_17ProMax */\n    tag_9:\n      tag_35\n      tag_36\n      jump\t// in\n    tag_35:\n      mload(0x40)\n      tag_37\n      swap2\n      swap1\n      tag_20\n      jump\t// in\n    tag_37:\n      mload(0x40)\n      dup1\n      swap2\n      sub\n      swap1\n      return\n        /* \"default_workspace/contracts/voting/vote.sol\":222:250  address[ ] public IphoneFans */\n    tag_14:\n      0x04\n      dup2\n      dup2\n      sload\n      dup2\n      lt\n      tag_38\n      jumpi\n      0x00\n      dup1\n      revert\n    tag_38:\n      swap1\n      0x00\n      mstore\n      keccak256(0x00, 0x20)\n      add\n      0x00\n      swap2\n      pop\n      sload\n      swap1\n      0x0100\n      exp\n      swap1\n      div\n      0xffffffffffffffffffffffffffffffffffffffff\n      and\n      dup2\n      jump\t// out\n        /* \"default_workspace/contracts/voting/vote.sol\":147:173  uint256 public Samsung_s26 */\n    tag_18:\n      sload(0x02)\n      dup2\n      jump\t// out\n        /* \"default_workspace/contracts/voting/vote.sol\":501:919  function voteing(uint256 VoteNum ) public {... */\n    tag_23:\n        /* \"default_workspace/contracts/voting/vote.sol\":563:571  hasVoted */\n      0x03\n        /* \"default_workspace/contracts/voting/vote.sol\":563:583  hasVoted[msg.sender] */\n      0x00\n        /* \"default_workspace/contracts/voting/vote.sol\":572:582  msg.sender */\n      caller\n        /* \"default_workspace/contracts/voting/vote.sol\":563:583  hasVoted[msg.sender] */\n      0xffffffffffffffffffffffffffffffffffffffff\n      and\n      0xffffffffffffffffffffffffffffffffffffffff\n      and\n      dup2\n      mstore\n      0x20\n      add\n      swap1\n      dup2\n      mstore\n      0x20\n      add\n      0x00\n      keccak256\n      0x00\n      swap1\n      sload\n      swap1\n      0x0100\n      exp\n      swap1\n      div\n      0xff\n      and\n        /* \"default_workspace/contracts/voting/vote.sol\":562:583  !hasVoted[msg.sender] */\n      iszero\n        /* \"default_workspace/contracts/voting/vote.sol\":554:600  require(!hasVoted[msg.sender],\"already voted\") */\n      tag_41\n      jumpi\n      mload(0x40)\n      0x08c379a000000000000000000000000000000000000000000000000000000000\n      dup2\n      mstore\n      0x04\n      add\n      tag_42\n      swap1\n      tag_43\n      jump\t// in\n    tag_42:\n      mload(0x40)\n      dup1\n      swap2\n      sub\n      swap1\n      revert\n    tag_41:\n        /* \"default_workspace/contracts/voting/vote.sol\":630:631  1 */\n      0x01\n        /* \"default_workspace/contracts/voting/vote.sol\":619:626  VoteNum */\n      dup2\n        /* \"default_workspace/contracts/voting/vote.sol\":619:631  VoteNum == 1 */\n      eq\n        /* \"default_workspace/contracts/voting/vote.sol\":619:647  VoteNum == 1 || VoteNum == 2 */\n      dup1\n      tag_44\n      jumpi\n      pop\n        /* \"default_workspace/contracts/voting/vote.sol\":646:647  2 */\n      0x02\n        /* \"default_workspace/contracts/voting/vote.sol\":635:642  VoteNum */\n      dup2\n        /* \"default_workspace/contracts/voting/vote.sol\":635:647  VoteNum == 2 */\n      eq\n        /* \"default_workspace/contracts/voting/vote.sol\":619:647  VoteNum == 1 || VoteNum == 2 */\n    tag_44:\n        /* \"default_workspace/contracts/voting/vote.sol\":611:660  require(VoteNum == 1 || VoteNum == 2,\"not valid\") */\n      tag_45\n      jumpi\n      mload(0x40)\n      0x08c379a000000000000000000000000000000000000000000000000000000000\n      dup2\n      mstore\n      0x04\n      add\n      tag_46\n      swap1\n      tag_47\n      jump\t// in\n    tag_46:\n      mload(0x40)\n      dup1\n      swap2\n      sub\n      swap1\n      revert\n    tag_45:\n        /* \"default_workspace/contracts/voting/vote.sol\":686:687  1 */\n      0x01\n        /* \"default_workspace/contracts/voting/vote.sol\":675:682  VoteNum */\n      dup2\n        /* \"default_workspace/contracts/voting/vote.sol\":675:687  VoteNum == 1 */\n      sub\n        /* \"default_workspace/contracts/voting/vote.sol\":671:876  if (VoteNum == 1){... */\n      tag_48\n      jumpi\n        /* \"default_workspace/contracts/voting/vote.sol\":703:713  IphoneFans */\n      0x04\n        /* \"default_workspace/contracts/voting/vote.sol\":719:729  msg.sender */\n      caller\n        /* \"default_workspace/contracts/voting/vote.sol\":703:730  IphoneFans.push(msg.sender) */\n      swap1\n      dup1\n      0x01\n      dup2\n      sload\n      add\n      dup1\n      dup3\n      sstore\n      dup1\n      swap2\n      pop\n      pop\n      0x01\n      swap1\n      sub\n      swap1\n      0x00\n      mstore\n      keccak256(0x00, 0x20)\n      add\n      0x00\n      swap1\n      swap2\n      swap1\n      swap2\n      swap1\n      swap2\n      0x0100\n      exp\n      dup2\n      sload\n      dup2\n      0xffffffffffffffffffffffffffffffffffffffff\n      mul\n      not\n      and\n      swap1\n      dup4\n      0xffffffffffffffffffffffffffffffffffffffff\n      and\n      mul\n      or\n      swap1\n      sstore\n      pop\n        /* \"default_workspace/contracts/voting/vote.sol\":745:760  Iphone_17ProMax */\n      0x01\n      0x00\n        /* \"default_workspace/contracts/voting/vote.sol\":745:762  Iphone_17ProMax++ */\n      dup2\n      sload\n      dup1\n      swap3\n      swap2\n      swap1\n      tag_50\n      swap1\n      tag_51\n      jump\t// in\n    tag_50:\n      swap2\n      swap1\n      pop\n      sstore\n      pop\n        /* \"default_workspace/contracts/voting/vote.sol\":671:876  if (VoteNum == 1){... */\n      jump(tag_52)\n    tag_48:\n        /* \"default_workspace/contracts/voting/vote.sol\":804:815  SamsungFans */\n      0x05\n        /* \"default_workspace/contracts/voting/vote.sol\":821:831  msg.sender */\n      caller\n        /* \"default_workspace/contracts/voting/vote.sol\":804:832  SamsungFans.push(msg.sender) */\n      swap1\n      dup1\n      0x01\n      dup2\n      sload\n      add\n      dup1\n      dup3\n      sstore\n      dup1\n      swap2\n      pop\n      pop\n      0x01\n      swap1\n      sub\n      swap1\n      0x00\n      mstore\n      keccak256(0x00, 0x20)\n      add\n      0x00\n      swap1\n      swap2\n      swap1\n      swap2\n      swap1\n      swap2\n      0x0100\n      exp\n      dup2\n      sload\n      dup2\n      0xffffffffffffffffffffffffffffffffffffffff\n      mul\n      not\n      and\n      swap1\n      dup4\n      0xffffffffffffffffffffffffffffffffffffffff\n      and\n      mul\n      or\n      swap1\n      sstore\n      pop\n        /* \"default_workspace/contracts/voting/vote.sol\":847:858  Samsung_s26 */\n      0x02\n      0x00\n        /* \"default_workspace/contracts/voting/vote.sol\":847:860  Samsung_s26++ */\n      dup2\n      sload\n      dup1\n      swap3\n      swap2\n      swap1\n      tag_54\n      swap1\n      tag_51\n      jump\t// in\n    tag_54:\n      swap2\n      swap1\n      pop\n      sstore\n      pop\n        /* \"default_workspace/contracts/voting/vote.sol\":671:876  if (VoteNum == 1){... */\n    tag_52:\n        /* \"default_workspace/contracts/voting/vote.sol\":907:911  true */\n      0x01\n        /* \"default_workspace/contracts/voting/vote.sol\":886:894  hasVoted */\n      0x03\n        /* \"default_workspace/contracts/voting/vote.sol\":886:906  hasVoted[msg.sender] */\n      0x00\n        /* \"default_workspace/contracts/voting/vote.sol\":895:905  msg.sender */\n      caller\n        /* \"default_workspace/contracts/voting/vote.sol\":886:906  hasVoted[msg.sender] */\n      0xffffffffffffffffffffffffffffffffffffffff\n      and\n      0xffffffffffffffffffffffffffffffffffffffff\n      and\n      dup2\n      mstore\n      0x20\n      add\n      swap1\n      dup2\n      mstore\n      0x20\n      add\n      0x00\n      keccak256\n      0x00\n        /* \"default_workspace/contracts/voting/vote.sol\":886:911  hasVoted[msg.sender]=true */\n      0x0100\n      exp\n      dup2\n      sload\n      dup2\n      0xff\n      mul\n      not\n      and\n      swap1\n      dup4\n      iszero\n      iszero\n      mul\n      or\n      swap1\n      sstore\n      pop\n        /* \"default_workspace/contracts/voting/vote.sol\":501:919  function voteing(uint256 VoteNum ) public {... */\n      pop\n      jump\t// out\n        /* \"default_workspace/contracts/voting/vote.sol\":257:286  address[ ] public SamsungFans */\n    tag_26:\n      0x05\n      dup2\n      dup2\n      sload\n      dup2\n      lt\n      tag_55\n      jumpi\n      0x00\n      dup1\n      revert\n    tag_55:\n      swap1\n      0x00\n      mstore\n      keccak256(0x00, 0x20)\n      add\n      0x00\n      swap2\n      pop\n      sload\n      swap1\n      0x0100\n      exp\n      swap1\n      div\n      0xffffffffffffffffffffffffffffffffffffffff\n      and\n      dup2\n      jump\t// out\n        /* \"default_workspace/contracts/voting/vote.sol\":925:1149  function retrive( ) public view OnlyOwner returns(uint256,uint256){... */\n    tag_29:\n        /* \"default_workspace/contracts/voting/vote.sol\":975:982  uint256 */\n      0x00\n        /* \"default_workspace/contracts/voting/vote.sol\":983:990  uint256 */\n      0x00\n        /* \"default_workspace/contracts/voting/vote.sol\":445:455  msg.sender */\n      caller\n        /* \"default_workspace/contracts/voting/vote.sol\":436:455  Owner == msg.sender */\n      0xffffffffffffffffffffffffffffffffffffffff\n      and\n        /* \"default_workspace/contracts/voting/vote.sol\":436:441  Owner */\n      0x00\n      0x00\n      swap1\n      sload\n      swap1\n      0x0100\n      exp\n      swap1\n      div\n      0xffffffffffffffffffffffffffffffffffffffff\n      and\n        /* \"default_workspace/contracts/voting/vote.sol\":436:455  Owner == msg.sender */\n      0xffffffffffffffffffffffffffffffffffffffff\n      and\n      eq\n        /* \"default_workspace/contracts/voting/vote.sol\":428:470  require(Owner == msg.sender,\"not allowed\") */\n      tag_58\n      jumpi\n      mload(0x40)\n      0x08c379a000000000000000000000000000000000000000000000000000000000\n      dup2\n      mstore\n      0x04\n      add\n      tag_59\n      swap1\n      tag_60\n      jump\t// in\n    tag_59:\n      mload(0x40)\n      dup1\n      swap2\n      sub\n      swap1\n      revert\n    tag_58:\n        /* \"default_workspace/contracts/voting/vote.sol\":1002:1022  uint256 iphonevoters */\n      0x00\n        /* \"default_workspace/contracts/voting/vote.sol\":1025:1035  IphoneFans */\n      0x04\n        /* \"default_workspace/contracts/voting/vote.sol\":1025:1042  IphoneFans.length */\n      dup1\n      sload\n      swap1\n      pop\n        /* \"default_workspace/contracts/voting/vote.sol\":1002:1042  uint256 iphonevoters = IphoneFans.length */\n      swap1\n      pop\n        /* \"default_workspace/contracts/voting/vote.sol\":1053:1074  uint256 samsungvoters */\n      0x00\n        /* \"default_workspace/contracts/voting/vote.sol\":1077:1088  SamsungFans */\n      0x05\n        /* \"default_workspace/contracts/voting/vote.sol\":1077:1095  SamsungFans.length */\n      dup1\n      sload\n      swap1\n      pop\n        /* \"default_workspace/contracts/voting/vote.sol\":1053:1095  uint256 samsungvoters = SamsungFans.length */\n      swap1\n      pop\n        /* \"default_workspace/contracts/voting/vote.sol\":1114:1126  iphonevoters */\n      dup2\n        /* \"default_workspace/contracts/voting/vote.sol\":1127:1140  samsungvoters */\n      dup2\n        /* \"default_workspace/contracts/voting/vote.sol\":1106:1141  return (iphonevoters,samsungvoters) */\n      swap4\n      pop\n      swap4\n      pop\n      pop\n      pop\n        /* \"default_workspace/contracts/voting/vote.sol\":925:1149  function retrive( ) public view OnlyOwner returns(uint256,uint256){... */\n      swap1\n      swap2\n      jump\t// out\n        /* \"default_workspace/contracts/voting/vote.sol\":82:102  address public Owner */\n    tag_33:\n      0x00\n      0x00\n      swap1\n      sload\n      swap1\n      0x0100\n      exp\n      swap1\n      div\n      0xffffffffffffffffffffffffffffffffffffffff\n      and\n      dup2\n      jump\t// out\n        /* \"default_workspace/contracts/voting/vote.sol\":109:139  uint256 public Iphone_17ProMax */\n    tag_36:\n      sload(0x01)\n      dup2\n      jump\t// out\n        /* \"#utility.yul\":88:205   */\n    tag_63:\n        /* \"#utility.yul\":197:198   */\n      0x00\n        /* \"#utility.yul\":194:195   */\n      0x00\n        /* \"#utility.yul\":187:199   */\n      revert\n        /* \"#utility.yul\":334:411   */\n    tag_65:\n        /* \"#utility.yul\":371:378   */\n      0x00\n        /* \"#utility.yul\":400:405   */\n      dup2\n        /* \"#utility.yul\":389:405   */\n      swap1\n      pop\n        /* \"#utility.yul\":334:411   */\n      swap2\n      swap1\n      pop\n      jump\t// out\n        /* \"#utility.yul\":417:539   */\n    tag_66:\n        /* \"#utility.yul\":490:514   */\n      tag_86\n        /* \"#utility.yul\":508:513   */\n      dup2\n        /* \"#utility.yul\":490:514   */\n      tag_65\n      jump\t// in\n    tag_86:\n        /* \"#utility.yul\":483:488   */\n      dup2\n        /* \"#utility.yul\":480:515   */\n      eq\n        /* \"#utility.yul\":470:533   */\n      tag_87\n      jumpi\n        /* \"#utility.yul\":529:530   */\n      0x00\n        /* \"#utility.yul\":526:527   */\n      0x00\n        /* \"#utility.yul\":519:531   */\n      revert\n        /* \"#utility.yul\":470:533   */\n    tag_87:\n        /* \"#utility.yul\":417:539   */\n      pop\n      jump\t// out\n        /* \"#utility.yul\":545:684   */\n    tag_67:\n        /* \"#utility.yul\":591:596   */\n      0x00\n        /* \"#utility.yul\":629:635   */\n      dup2\n        /* \"#utility.yul\":616:636   */\n      calldataload\n        /* \"#utility.yul\":607:636   */\n      swap1\n      pop\n        /* \"#utility.yul\":645:678   */\n      tag_89\n        /* \"#utility.yul\":672:677   */\n      dup2\n        /* \"#utility.yul\":645:678   */\n      tag_66\n      jump\t// in\n    tag_89:\n        /* \"#utility.yul\":545:684   */\n      swap3\n      swap2\n      pop\n      pop\n      jump\t// out\n        /* \"#utility.yul\":690:1019   */\n    tag_13:\n        /* \"#utility.yul\":749:755   */\n      0x00\n        /* \"#utility.yul\":798:800   */\n      0x20\n        /* \"#utility.yul\":786:795   */\n      dup3\n        /* \"#utility.yul\":777:784   */\n      dup5\n        /* \"#utility.yul\":773:796   */\n      sub\n        /* \"#utility.yul\":769:801   */\n      slt\n        /* \"#utility.yul\":766:885   */\n      iszero\n      tag_91\n      jumpi\n        /* \"#utility.yul\":804:883   */\n      tag_92\n      tag_63\n      jump\t// in\n    tag_92:\n        /* \"#utility.yul\":766:885   */\n    tag_91:\n        /* \"#utility.yul\":924:925   */\n      0x00\n        /* \"#utility.yul\":949:1002   */\n      tag_93\n        /* \"#utility.yul\":994:1001   */\n      dup5\n        /* \"#utility.yul\":985:991   */\n      dup3\n        /* \"#utility.yul\":974:983   */\n      dup6\n        /* \"#utility.yul\":970:992   */\n      add\n        /* \"#utility.yul\":949:1002   */\n      tag_67\n      jump\t// in\n    tag_93:\n        /* \"#utility.yul\":939:1002   */\n      swap2\n      pop\n        /* \"#utility.yul\":895:1012   */\n      pop\n        /* \"#utility.yul\":690:1019   */\n      swap3\n      swap2\n      pop\n      pop\n      jump\t// out\n        /* \"#utility.yul\":1025:1151   */\n    tag_68:\n        /* \"#utility.yul\":1062:1069   */\n      0x00\n        /* \"#utility.yul\":1102:1144   */\n      0xffffffffffffffffffffffffffffffffffffffff\n        /* \"#utility.yul\":1095:1100   */\n      dup3\n        /* \"#utility.yul\":1091:1145   */\n      and\n        /* \"#utility.yul\":1080:1145   */\n      swap1\n      pop\n        /* \"#utility.yul\":1025:1151   */\n      swap2\n      swap1\n      pop\n      jump\t// out\n        /* \"#utility.yul\":1157:1253   */\n    tag_69:\n        /* \"#utility.yul\":1194:1201   */\n      0x00\n        /* \"#utility.yul\":1223:1247   */\n      tag_96\n        /* \"#utility.yul\":1241:1246   */\n      dup3\n        /* \"#utility.yul\":1223:1247   */\n      tag_68\n      jump\t// in\n    tag_96:\n        /* \"#utility.yul\":1212:1247   */\n      swap1\n      pop\n        /* \"#utility.yul\":1157:1253   */\n      swap2\n      swap1\n      pop\n      jump\t// out\n        /* \"#utility.yul\":1259:1377   */\n    tag_70:\n        /* \"#utility.yul\":1346:1370   */\n      tag_98\n        /* \"#utility.yul\":1364:1369   */\n      dup2\n        /* \"#utility.yul\":1346:1370   */\n      tag_69\n      jump\t// in\n    tag_98:\n        /* \"#utility.yul\":1341:1344   */\n      dup3\n        /* \"#utility.yul\":1334:1371   */\n      mstore\n        /* \"#utility.yul\":1259:1377   */\n      pop\n      pop\n      jump\t// out\n        /* \"#utility.yul\":1383:1605   */\n    tag_16:\n        /* \"#utility.yul\":1476:1480   */\n      0x00\n        /* \"#utility.yul\":1514:1516   */\n      0x20\n        /* \"#utility.yul\":1503:1512   */\n      dup3\n        /* \"#utility.yul\":1499:1517   */\n      add\n        /* \"#utility.yul\":1491:1517   */\n      swap1\n      pop\n        /* \"#utility.yul\":1527:1598   */\n      tag_100\n        /* \"#utility.yul\":1595:1596   */\n      0x00\n        /* \"#utility.yul\":1584:1593   */\n      dup4\n        /* \"#utility.yul\":1580:1597   */\n      add\n        /* \"#utility.yul\":1571:1577   */\n      dup5\n        /* \"#utility.yul\":1527:1598   */\n      tag_70\n      jump\t// in\n    tag_100:\n        /* \"#utility.yul\":1383:1605   */\n      swap3\n      swap2\n      pop\n      pop\n      jump\t// out\n        /* \"#utility.yul\":1611:1729   */\n    tag_71:\n        /* \"#utility.yul\":1698:1722   */\n      tag_102\n        /* \"#utility.yul\":1716:1721   */\n      dup2\n        /* \"#utility.yul\":1698:1722   */\n      tag_65\n      jump\t// in\n    tag_102:\n        /* \"#utility.yul\":1693:1696   */\n      dup3\n        /* \"#utility.yul\":1686:1723   */\n      mstore\n        /* \"#utility.yul\":1611:1729   */\n      pop\n      pop\n      jump\t// out\n        /* \"#utility.yul\":1735:1957   */\n    tag_20:\n        /* \"#utility.yul\":1828:1832   */\n      0x00\n        /* \"#utility.yul\":1866:1868   */\n      0x20\n        /* \"#utility.yul\":1855:1864   */\n      dup3\n        /* \"#utility.yul\":1851:1869   */\n      add\n        /* \"#utility.yul\":1843:1869   */\n      swap1\n      pop\n        /* \"#utility.yul\":1879:1950   */\n      tag_104\n        /* \"#utility.yul\":1947:1948   */\n      0x00\n        /* \"#utility.yul\":1936:1945   */\n      dup4\n        /* \"#utility.yul\":1932:1949   */\n      add\n        /* \"#utility.yul\":1923:1929   */\n      dup5\n        /* \"#utility.yul\":1879:1950   */\n      tag_71\n      jump\t// in\n    tag_104:\n        /* \"#utility.yul\":1735:1957   */\n      swap3\n      swap2\n      pop\n      pop\n      jump\t// out\n        /* \"#utility.yul\":1963:2295   */\n    tag_31:\n        /* \"#utility.yul\":2084:2088   */\n      0x00\n        /* \"#utility.yul\":2122:2124   */\n      0x40\n        /* \"#utility.yul\":2111:2120   */\n      dup3\n        /* \"#utility.yul\":2107:2125   */\n      add\n        /* \"#utility.yul\":2099:2125   */\n      swap1\n      pop\n        /* \"#utility.yul\":2135:2206   */\n      tag_106\n        /* \"#utility.yul\":2203:2204   */\n      0x00\n        /* \"#utility.yul\":2192:2201   */\n      dup4\n        /* \"#utility.yul\":2188:2205   */\n      add\n        /* \"#utility.yul\":2179:2185   */\n      dup6\n        /* \"#utility.yul\":2135:2206   */\n      tag_71\n      jump\t// in\n    tag_106:\n        /* \"#utility.yul\":2216:2288   */\n      tag_107\n        /* \"#utility.yul\":2284:2286   */\n      0x20\n        /* \"#utility.yul\":2273:2282   */\n      dup4\n        /* \"#utility.yul\":2269:2287   */\n      add\n        /* \"#utility.yul\":2260:2266   */\n      dup5\n        /* \"#utility.yul\":2216:2288   */\n      tag_71\n      jump\t// in\n    tag_107:\n        /* \"#utility.yul\":1963:2295   */\n      swap4\n      swap3\n      pop\n      pop\n      pop\n      jump\t// out\n        /* \"#utility.yul\":2301:2470   */\n    tag_72:\n        /* \"#utility.yul\":2385:2396   */\n      0x00\n        /* \"#utility.yul\":2419:2425   */\n      dup3\n        /* \"#utility.yul\":2414:2417   */\n      dup3\n        /* \"#utility.yul\":2407:2426   */\n      mstore\n        /* \"#utility.yul\":2459:2463   */\n      0x20\n        /* \"#utility.yul\":2454:2457   */\n      dup3\n        /* \"#utility.yul\":2450:2464   */\n      add\n        /* \"#utility.yul\":2435:2464   */\n      swap1\n      pop\n        /* \"#utility.yul\":2301:2470   */\n      swap3\n      swap2\n      pop\n      pop\n      jump\t// out\n        /* \"#utility.yul\":2476:2639   */\n    tag_73:\n        /* \"#utility.yul\":2616:2631   */\n      0x616c726561647920766f74656400000000000000000000000000000000000000\n        /* \"#utility.yul\":2612:2613   */\n      0x00\n        /* \"#utility.yul\":2604:2610   */\n      dup3\n        /* \"#utility.yul\":2600:2614   */\n      add\n        /* \"#utility.yul\":2593:2632   */\n      mstore\n        /* \"#utility.yul\":2476:2639   */\n      pop\n      jump\t// out\n        /* \"#utility.yul\":2645:3011   */\n    tag_74:\n        /* \"#utility.yul\":2787:2790   */\n      0x00\n        /* \"#utility.yul\":2808:2875   */\n      tag_111\n        /* \"#utility.yul\":2872:2874   */\n      0x0d\n        /* \"#utility.yul\":2867:2870   */\n      dup4\n        /* \"#utility.yul\":2808:2875   */\n      tag_72\n      jump\t// in\n    tag_111:\n        /* \"#utility.yul\":2801:2875   */\n      swap2\n      pop\n        /* \"#utility.yul\":2884:2977   */\n      tag_112\n        /* \"#utility.yul\":2973:2976   */\n      dup3\n        /* \"#utility.yul\":2884:2977   */\n      tag_73\n      jump\t// in\n    tag_112:\n        /* \"#utility.yul\":3002:3004   */\n      0x20\n        /* \"#utility.yul\":2997:3000   */\n      dup3\n        /* \"#utility.yul\":2993:3005   */\n      add\n        /* \"#utility.yul\":2986:3005   */\n      swap1\n      pop\n        /* \"#utility.yul\":2645:3011   */\n      swap2\n      swap1\n      pop\n      jump\t// out\n        /* \"#utility.yul\":3017:3436   */\n    tag_43:\n        /* \"#utility.yul\":3183:3187   */\n      0x00\n        /* \"#utility.yul\":3221:3223   */\n      0x20\n        /* \"#utility.yul\":3210:3219   */\n      dup3\n        /* \"#utility.yul\":3206:3224   */\n      add\n        /* \"#utility.yul\":3198:3224   */\n      swap1\n      pop\n        /* \"#utility.yul\":3270:3279   */\n      dup2\n        /* \"#utility.yul\":3264:3268   */\n      dup2\n        /* \"#utility.yul\":3260:3280   */\n      sub\n        /* \"#utility.yul\":3256:3257   */\n      0x00\n        /* \"#utility.yul\":3245:3254   */\n      dup4\n        /* \"#utility.yul\":3241:3258   */\n      add\n        /* \"#utility.yul\":3234:3281   */\n      mstore\n        /* \"#utility.yul\":3298:3429   */\n      tag_114\n        /* \"#utility.yul\":3424:3428   */\n      dup2\n        /* \"#utility.yul\":3298:3429   */\n      tag_74\n      jump\t// in\n    tag_114:\n        /* \"#utility.yul\":3290:3429   */\n      swap1\n      pop\n        /* \"#utility.yul\":3017:3436   */\n      swap2\n      swap1\n      pop\n      jump\t// out\n        /* \"#utility.yul\":3442:3601   */\n    tag_75:\n        /* \"#utility.yul\":3582:3593   */\n      0x6e6f742076616c69640000000000000000000000000000000000000000000000\n        /* \"#utility.yul\":3578:3579   */\n      0x00\n        /* \"#utility.yul\":3570:3576   */\n      dup3\n        /* \"#utility.yul\":3566:3580   */\n      add\n        /* \"#utility.yul\":3559:3594   */\n      mstore\n        /* \"#utility.yul\":3442:3601   */\n      pop\n      jump\t// out\n        /* \"#utility.yul\":3607:3972   */\n    tag_76:\n        /* \"#utility.yul\":3749:3752   */\n      0x00\n        /* \"#utility.yul\":3770:3836   */\n      tag_117\n        /* \"#utility.yul\":3834:3835   */\n      0x09\n        /* \"#utility.yul\":3829:3832   */\n      dup4\n        /* \"#utility.yul\":3770:3836   */\n      tag_72\n      jump\t// in\n    tag_117:\n        /* \"#utility.yul\":3763:3836   */\n      swap2\n      pop\n        /* \"#utility.yul\":3845:3938   */\n      tag_118\n        /* \"#utility.yul\":3934:3937   */\n      dup3\n        /* \"#utility.yul\":3845:3938   */\n      tag_75\n      jump\t// in\n    tag_118:\n        /* \"#utility.yul\":3963:3965   */\n      0x20\n        /* \"#utility.yul\":3958:3961   */\n      dup3\n        /* \"#utility.yul\":3954:3966   */\n      add\n        /* \"#utility.yul\":3947:3966   */\n      swap1\n      pop\n        /* \"#utility.yul\":3607:3972   */\n      swap2\n      swap1\n      pop\n      jump\t// out\n        /* \"#utility.yul\":3978:4397   */\n    tag_47:\n        /* \"#utility.yul\":4144:4148   */\n      0x00\n        /* \"#utility.yul\":4182:4184   */\n      0x20\n        /* \"#utility.yul\":4171:4180   */\n      dup3\n        /* \"#utility.yul\":4167:4185   */\n      add\n        /* \"#utility.yul\":4159:4185   */\n      swap1\n      pop\n        /* \"#utility.yul\":4231:4240   */\n      dup2\n        /* \"#utility.yul\":4225:4229   */\n      dup2\n        /* \"#utility.yul\":4221:4241   */\n      sub\n        /* \"#utility.yul\":4217:4218   */\n      0x00\n        /* \"#utility.yul\":4206:4215   */\n      dup4\n        /* \"#utility.yul\":4202:4219   */\n      add\n        /* \"#utility.yul\":4195:4242   */\n      mstore\n        /* \"#utility.yul\":4259:4390   */\n      tag_120\n        /* \"#utility.yul\":4385:4389   */\n      dup2\n        /* \"#utility.yul\":4259:4390   */\n      tag_76\n      jump\t// in\n    tag_120:\n        /* \"#utility.yul\":4251:4390   */\n      swap1\n      pop\n        /* \"#utility.yul\":3978:4397   */\n      swap2\n      swap1\n      pop\n      jump\t// out\n        /* \"#utility.yul\":4403:4583   */\n    tag_77:\n        /* \"#utility.yul\":4451:4528   */\n      0x4e487b7100000000000000000000000000000000000000000000000000000000\n        /* \"#utility.yul\":4448:4449   */\n      0x00\n        /* \"#utility.yul\":4441:4529   */\n      mstore\n        /* \"#utility.yul\":4548:4552   */\n      0x11\n        /* \"#utility.yul\":4545:4546   */\n      0x04\n        /* \"#utility.yul\":4538:4553   */\n      mstore\n        /* \"#utility.yul\":4572:4576   */\n      0x24\n        /* \"#utility.yul\":4569:4570   */\n      0x00\n        /* \"#utility.yul\":4562:4577   */\n      revert\n        /* \"#utility.yul\":4589:4822   */\n    tag_51:\n        /* \"#utility.yul\":4628:4631   */\n      0x00\n        /* \"#utility.yul\":4651:4675   */\n      tag_123\n        /* \"#utility.yul\":4669:4674   */\n      dup3\n        /* \"#utility.yul\":4651:4675   */\n      tag_65\n      jump\t// in\n    tag_123:\n        /* \"#utility.yul\":4642:4675   */\n      swap2\n      pop\n        /* \"#utility.yul\":4697:4763   */\n      0xffffffffffffffffffffffffffffffffffffffffffffffffffffffffffffffff\n        /* \"#utility.yul\":4690:4695   */\n      dup3\n        /* \"#utility.yul\":4687:4764   */\n      sub\n        /* \"#utility.yul\":4684:4787   */\n      tag_124\n      jumpi\n        /* \"#utility.yul\":4767:4785   */\n      tag_125\n      tag_77\n      jump\t// in\n    tag_125:\n        /* \"#utility.yul\":4684:4787   */\n    tag_124:\n        /* \"#utility.yul\":4814:4815   */\n      0x01\n        /* \"#utility.yul\":4807:4812   */\n      dup3\n        /* \"#utility.yul\":4803:4816   */\n      add\n        /* \"#utility.yul\":4796:4816   */\n      swap1\n      pop\n        /* \"#utility.yul\":4589:4822   */\n      swap2\n      swap1\n      pop\n      jump\t// out\n        /* \"#utility.yul\":4828:4989   */\n    tag_78:\n        /* \"#utility.yul\":4968:4981   */\n      0x6e6f7420616c6c6f776564000000000000000000000000000000000000000000\n        /* \"#utility.yul\":4964:4965   */\n      0x00\n        /* \"#utility.yul\":4956:4962   */\n      dup3\n        /* \"#utility.yul\":4952:4966   */\n      add\n        /* \"#utility.yul\":4945:4982   */\n      mstore\n        /* \"#utility.yul\":4828:4989   */\n      pop\n      jump\t// out\n        /* \"#utility.yul\":4995:5361   */\n    tag_79:\n        /* \"#utility.yul\":5137:5140   */\n      0x00\n        /* \"#utility.yul\":5158:5225   */\n      tag_128\n        /* \"#utility.yul\":5222:5224   */\n      0x0b\n        /* \"#utility.yul\":5217:5220   */\n      dup4\n        /* \"#utility.yul\":5158:5225   */\n      tag_72\n      jump\t// in\n    tag_128:\n        /* \"#utility.yul\":5151:5225   */\n      swap2\n      pop\n        /* \"#utility.yul\":5234:5327   */\n      tag_129\n        /* \"#utility.yul\":5323:5326   */\n      dup3\n        /* \"#utility.yul\":5234:5327   */\n      tag_78\n      jump\t// in\n    tag_129:\n        /* \"#utility.yul\":5352:5354   */\n      0x20\n        /* \"#utility.yul\":5347:5350   */\n      dup3\n        /* \"#utility.yul\":5343:5355   */\n      add\n        /* \"#utility.yul\":5336:5355   */\n      swap1\n      pop\n        /* \"#utility.yul\":4995:5361   */\n      swap2\n      swap1\n      pop\n      jump\t// out\n        /* \"#utility.yul\":5367:5786   */\n    tag_60:\n        /* \"#utility.yul\":5533:5537   */\n      0x00\n        /* \"#utility.yul\":5571:5573   */\n      0x20\n        /* \"#utility.yul\":5560:5569   */\n      dup3\n        /* \"#utility.yul\":5556:5574   */\n      add\n        /* \"#utility.yul\":5548:5574   */\n      swap1\n      pop\n        /* \"#utility.yul\":5620:5629   */\n      dup2\n        /* \"#utility.yul\":5614:5618   */\n      dup2\n        /* \"#utility.yul\":5610:5630   */\n      sub\n        /* \"#utility.yul\":5606:5607   */\n      0x00\n        /* \"#utility.yul\":5595:5604   */\n      dup4\n        /* \"#utility.yul\":5591:5608   */\n      add\n        /* \"#utility.yul\":5584:5631   */\n      mstore\n        /* \"#utility.yul\":5648:5779   */\n      tag_131\n        /* \"#utility.yul\":5774:5778   */\n      dup2\n        /* \"#utility.yul\":5648:5779   */\n      tag_79\n      jump\t// in\n    tag_131:\n        /* \"#utility.yul\":5640:5779   */\n      swap1\n      pop\n        /* \"#utility.yul\":5367:5786   */\n      swap2\n      swap1\n      pop\n      jump\t// out\n\n    auxdata: 0xa26469706673582212205df96f651b259230b3de67291f98a8731db55d4bc146d8c17be269ca47b537f764736f6c63430008220033\n}\n",
				"bytecode": {
					"linkReferences": {},
					"object": "6080604052348015600e575f5ffd5b50335f5f6101000a81548173ffffffffffffffffffffffffffffffffffffffff021916908373ffffffffffffffffffffffffffffffffffffffff1602179055506107ef8061005b5f395ff3fe608060405234801561000f575f5ffd5b506004361061007b575f3560e01c806376ab579f1161005957806376ab579f146100e9578063a6b7fc5b14610119578063b4a99a4e14610138578063ef0c487a146101565761007b565b8063300edcb91461007f5780633fb3c220146100af5780637235a2aa146100cd575b5f5ffd5b6100996004803603810190610094919061052b565b610174565b6040516100a69190610595565b60405180910390f35b6100b76101af565b6040516100c491906105bd565b60405180910390f35b6100e760048036038101906100e2919061052b565b6101b5565b005b61010360048036038101906100fe919061052b565b6103e1565b6040516101109190610595565b60405180910390f35b61012161041c565b60405161012f9291906105d6565b60405180910390f35b6101406104ca565b60405161014d9190610595565b60405180910390f35b61015e6104ee565b60405161016b91906105bd565b60405180910390f35b60048181548110610183575f80fd5b905f5260205f20015f915054906101000a900473ffffffffffffffffffffffffffffffffffffffff1681565b60025481565b60035f3373ffffffffffffffffffffffffffffffffffffffff1673ffffffffffffffffffffffffffffffffffffffff1681526020019081526020015f205f9054906101000a900460ff161561023f576040517f08c379a000000000000000000000000000000000000000000000000000000000815260040161023690610657565b60405180910390fd5b600181148061024e5750600281145b61028d576040517f08c379a0000000000000000000000000000000000000000000000000000000008152600401610284906106bf565b60405180910390fd5b6001810361031157600433908060018154018082558091505060019003905f5260205f20015f9091909190916101000a81548173ffffffffffffffffffffffffffffffffffffffff021916908373ffffffffffffffffffffffffffffffffffffffff16021790555060015f8154809291906103079061070a565b9190505550610389565b600533908060018154018082558091505060019003905f5260205f20015f9091909190916101000a81548173ffffffffffffffffffffffffffffffffffffffff021916908373ffffffffffffffffffffffffffffffffffffffff16021790555060025f8154809291906103839061070a565b91905055505b600160035f3373ffffffffffffffffffffffffffffffffffffffff1673ffffffffffffffffffffffffffffffffffffffff1681526020019081526020015f205f6101000a81548160ff02191690831515021790555050565b600581815481106103f0575f80fd5b905f5260205f20015f915054906101000a900473ffffffffffffffffffffffffffffffffffffffff1681565b5f5f3373ffffffffffffffffffffffffffffffffffffffff165f5f9054906101000a900473ffffffffffffffffffffffffffffffffffffffff1673ffffffffffffffffffffffffffffffffffffffff16146104ac576040517f08c379a00000000000000000000000000000000000000000000000000000000081526004016104a39061079b565b60405180910390fd5b5f60048054905090505f600580549050905081819350935050509091565b5f5f9054906101000a900473ffffffffffffffffffffffffffffffffffffffff1681565b60015481565b5f5ffd5b5f819050919050565b61050a816104f8565b8114610514575f5ffd5b50565b5f8135905061052581610501565b92915050565b5f602082840312156105405761053f6104f4565b5b5f61054d84828501610517565b91505092915050565b5f73ffffffffffffffffffffffffffffffffffffffff82169050919050565b5f61057f82610556565b9050919050565b61058f81610575565b82525050565b5f6020820190506105a85f830184610586565b92915050565b6105b7816104f8565b82525050565b5f6020820190506105d05f8301846105ae565b92915050565b5f6040820190506105e95f8301856105ae565b6105f660208301846105ae565b9392505050565b5f82825260208201905092915050565b7f616c726561647920766f746564000000000000000000000000000000000000005f82015250565b5f610641600d836105fd565b915061064c8261060d565b602082019050919050565b5f6020820190508181035f83015261066e81610635565b9050919050565b7f6e6f742076616c696400000000000000000000000000000000000000000000005f82015250565b5f6106a96009836105fd565b91506106b482610675565b602082019050919050565b5f6020820190508181035f8301526106d68161069d565b9050919050565b7f4e487b71000000000000000000000000000000000000000000000000000000005f52601160045260245ffd5b5f610714826104f8565b91507fffffffffffffffffffffffffffffffffffffffffffffffffffffffffffffffff8203610746576107456106dd565b5b600182019050919050565b7f6e6f7420616c6c6f7765640000000000000000000000000000000000000000005f82015250565b5f610785600b836105fd565b915061079082610751565b602082019050919050565b5f6020820190508181035f8301526107b281610779565b905091905056fea26469706673582212205df96f651b259230b3de67291f98a8731db55d4bc146d8c17be269ca47b537f764736f6c63430008220033",
					"opcodes": "PUSH1 0x80 PUSH1 0x40 MSTORE CALLVALUE DUP1 ISZERO PUSH1 0xE JUMPI PUSH0 PUSH0 REVERT JUMPDEST POP CALLER PUSH0 PUSH0 PUSH2 0x100 EXP DUP2 SLOAD DUP2 PUSH20 0xFFFFFFFFFFFFFFFFFFFFFFFFFFFFFFFFFFFFFFFF MUL NOT AND SWAP1 DUP4 PUSH20 0xFFFFFFFFFFFFFFFFFFFFFFFFFFFFFFFFFFFFFFFF AND MUL OR SWAP1 SSTORE POP PUSH2 0x7EF DUP1 PUSH2 0x5B PUSH0 CODECOPY PUSH0 RETURN INVALID PUSH1 0x80 PUSH1 0x40 MSTORE CALLVALUE DUP1 ISZERO PUSH2 0xF JUMPI PUSH0 PUSH0 REVERT JUMPDEST POP PUSH1 0x4 CALLDATASIZE LT PUSH2 0x7B JUMPI PUSH0 CALLDATALOAD PUSH1 0xE0 SHR DUP1 PUSH4 0x76AB579F GT PUSH2 0x59 JUMPI DUP1 PUSH4 0x76AB579F EQ PUSH2 0xE9 JUMPI DUP1 PUSH4 0xA6B7FC5B EQ PUSH2 0x119 JUMPI DUP1 PUSH4 0xB4A99A4E EQ PUSH2 0x138 JUMPI DUP1 PUSH4 0xEF0C487A EQ PUSH2 0x156 JUMPI PUSH2 0x7B JUMP JUMPDEST DUP1 PUSH4 0x300EDCB9 EQ PUSH2 0x7F JUMPI DUP1 PUSH4 0x3FB3C220 EQ PUSH2 0xAF JUMPI DUP1 PUSH4 0x7235A2AA EQ PUSH2 0xCD JUMPI JUMPDEST PUSH0 PUSH0 REVERT JUMPDEST PUSH2 0x99 PUSH1 0x4 DUP1 CALLDATASIZE SUB DUP2 ADD SWAP1 PUSH2 0x94 SWAP2 SWAP1 PUSH2 0x52B JUMP JUMPDEST PUSH2 0x174 JUMP JUMPDEST PUSH1 0x40 MLOAD PUSH2 0xA6 SWAP2 SWAP1 PUSH2 0x595 JUMP JUMPDEST PUSH1 0x40 MLOAD DUP1 SWAP2 SUB SWAP1 RETURN JUMPDEST PUSH2 0xB7 PUSH2 0x1AF JUMP JUMPDEST PUSH1 0x40 MLOAD PUSH2 0xC4 SWAP2 SWAP1 PUSH2 0x5BD JUMP JUMPDEST PUSH1 0x40 MLOAD DUP1 SWAP2 SUB SWAP1 RETURN JUMPDEST PUSH2 0xE7 PUSH1 0x4 DUP1 CALLDATASIZE SUB DUP2 ADD SWAP1 PUSH2 0xE2 SWAP2 SWAP1 PUSH2 0x52B JUMP JUMPDEST PUSH2 0x1B5 JUMP JUMPDEST STOP JUMPDEST PUSH2 0x103 PUSH1 0x4 DUP1 CALLDATASIZE SUB DUP2 ADD SWAP1 PUSH2 0xFE SWAP2 SWAP1 PUSH2 0x52B JUMP JUMPDEST PUSH2 0x3E1 JUMP JUMPDEST PUSH1 0x40 MLOAD PUSH2 0x110 SWAP2 SWAP1 PUSH2 0x595 JUMP JUMPDEST PUSH1 0x40 MLOAD DUP1 SWAP2 SUB SWAP1 RETURN JUMPDEST PUSH2 0x121 PUSH2 0x41C JUMP JUMPDEST PUSH1 0x40 MLOAD PUSH2 0x12F SWAP3 SWAP2 SWAP1 PUSH2 0x5D6 JUMP JUMPDEST PUSH1 0x40 MLOAD DUP1 SWAP2 SUB SWAP1 RETURN JUMPDEST PUSH2 0x140 PUSH2 0x4CA JUMP JUMPDEST PUSH1 0x40 MLOAD PUSH2 0x14D SWAP2 SWAP1 PUSH2 0x595 JUMP JUMPDEST PUSH1 0x40 MLOAD DUP1 SWAP2 SUB SWAP1 RETURN JUMPDEST PUSH2 0x15E PUSH2 0x4EE JUMP JUMPDEST PUSH1 0x40 MLOAD PUSH2 0x16B SWAP2 SWAP1 PUSH2 0x5BD JUMP JUMPDEST PUSH1 0x40 MLOAD DUP1 SWAP2 SUB SWAP1 RETURN JUMPDEST PUSH1 0x4 DUP2 DUP2 SLOAD DUP2 LT PUSH2 0x183 JUMPI PUSH0 DUP1 REVERT JUMPDEST SWAP1 PUSH0 MSTORE PUSH1 0x20 PUSH0 KECCAK256 ADD PUSH0 SWAP2 POP SLOAD SWAP1 PUSH2 0x100 EXP SWAP1 DIV PUSH20 0xFFFFFFFFFFFFFFFFFFFFFFFFFFFFFFFFFFFFFFFF AND DUP2 JUMP JUMPDEST PUSH1 0x2 SLOAD DUP2 JUMP JUMPDEST PUSH1 0x3 PUSH0 CALLER PUSH20 0xFFFFFFFFFFFFFFFFFFFFFFFFFFFFFFFFFFFFFFFF AND PUSH20 0xFFFFFFFFFFFFFFFFFFFFFFFFFFFFFFFFFFFFFFFF AND DUP2 MSTORE PUSH1 0x20 ADD SWAP1 DUP2 MSTORE PUSH1 0x20 ADD PUSH0 KECCAK256 PUSH0 SWAP1 SLOAD SWAP1 PUSH2 0x100 EXP SWAP1 DIV PUSH1 0xFF AND ISZERO PUSH2 0x23F JUMPI PUSH1 0x40 MLOAD PUSH32 0x8C379A000000000000000000000000000000000000000000000000000000000 DUP2 MSTORE PUSH1 0x4 ADD PUSH2 0x236 SWAP1 PUSH2 0x657 JUMP JUMPDEST PUSH1 0x40 MLOAD DUP1 SWAP2 SUB SWAP1 REVERT JUMPDEST PUSH1 0x1 DUP2 EQ DUP1 PUSH2 0x24E JUMPI POP PUSH1 0x2 DUP2 EQ JUMPDEST PUSH2 0x28D JUMPI PUSH1 0x40 MLOAD PUSH32 0x8C379A000000000000000000000000000000000000000000000000000000000 DUP2 MSTORE PUSH1 0x4 ADD PUSH2 0x284 SWAP1 PUSH2 0x6BF JUMP JUMPDEST PUSH1 0x40 MLOAD DUP1 SWAP2 SUB SWAP1 REVERT JUMPDEST PUSH1 0x1 DUP2 SUB PUSH2 0x311 JUMPI PUSH1 0x4 CALLER SWAP1 DUP1 PUSH1 0x1 DUP2 SLOAD ADD DUP1 DUP3 SSTORE DUP1 SWAP2 POP POP PUSH1 0x1 SWAP1 SUB SWAP1 PUSH0 MSTORE PUSH1 0x20 PUSH0 KECCAK256 ADD PUSH0 SWAP1 SWAP2 SWAP1 SWAP2 SWAP1 SWAP2 PUSH2 0x100 EXP DUP2 SLOAD DUP2 PUSH20 0xFFFFFFFFFFFFFFFFFFFFFFFFFFFFFFFFFFFFFFFF MUL NOT AND SWAP1 DUP4 PUSH20 0xFFFFFFFFFFFFFFFFFFFFFFFFFFFFFFFFFFFFFFFF AND MUL OR SWAP1 SSTORE POP PUSH1 0x1 PUSH0 DUP2 SLOAD DUP1 SWAP3 SWAP2 SWAP1 PUSH2 0x307 SWAP1 PUSH2 0x70A JUMP JUMPDEST SWAP2 SWAP1 POP SSTORE POP PUSH2 0x389 JUMP JUMPDEST PUSH1 0x5 CALLER SWAP1 DUP1 PUSH1 0x1 DUP2 SLOAD ADD DUP1 DUP3 SSTORE DUP1 SWAP2 POP POP PUSH1 0x1 SWAP1 SUB SWAP1 PUSH0 MSTORE PUSH1 0x20 PUSH0 KECCAK256 ADD PUSH0 SWAP1 SWAP2 SWAP1 SWAP2 SWAP1 SWAP2 PUSH2 0x100 EXP DUP2 SLOAD DUP2 PUSH20 0xFFFFFFFFFFFFFFFFFFFFFFFFFFFFFFFFFFFFFFFF MUL NOT AND SWAP1 DUP4 PUSH20 0xFFFFFFFFFFFFFFFFFFFFFFFFFFFFFFFFFFFFFFFF AND MUL OR SWAP1 SSTORE POP PUSH1 0x2 PUSH0 DUP2 SLOAD DUP1 SWAP3 SWAP2 SWAP1 PUSH2 0x383 SWAP1 PUSH2 0x70A JUMP JUMPDEST SWAP2 SWAP1 POP SSTORE POP JUMPDEST PUSH1 0x1 PUSH1 0x3 PUSH0 CALLER PUSH20 0xFFFFFFFFFFFFFFFFFFFFFFFFFFFFFFFFFFFFFFFF AND PUSH20 0xFFFFFFFFFFFFFFFFFFFFFFFFFFFFFFFFFFFFFFFF AND DUP2 MSTORE PUSH1 0x20 ADD SWAP1 DUP2 MSTORE PUSH1 0x20 ADD PUSH0 KECCAK256 PUSH0 PUSH2 0x100 EXP DUP2 SLOAD DUP2 PUSH1 0xFF MUL NOT AND SWAP1 DUP4 ISZERO ISZERO MUL OR SWAP1 SSTORE POP POP JUMP JUMPDEST PUSH1 0x5 DUP2 DUP2 SLOAD DUP2 LT PUSH2 0x3F0 JUMPI PUSH0 DUP1 REVERT JUMPDEST SWAP1 PUSH0 MSTORE PUSH1 0x20 PUSH0 KECCAK256 ADD PUSH0 SWAP2 POP SLOAD SWAP1 PUSH2 0x100 EXP SWAP1 DIV PUSH20 0xFFFFFFFFFFFFFFFFFFFFFFFFFFFFFFFFFFFFFFFF AND DUP2 JUMP JUMPDEST PUSH0 PUSH0 CALLER PUSH20 0xFFFFFFFFFFFFFFFFFFFFFFFFFFFFFFFFFFFFFFFF AND PUSH0 PUSH0 SWAP1 SLOAD SWAP1 PUSH2 0x100 EXP SWAP1 DIV PUSH20 0xFFFFFFFFFFFFFFFFFFFFFFFFFFFFFFFFFFFFFFFF AND PUSH20 0xFFFFFFFFFFFFFFFFFFFFFFFFFFFFFFFFFFFFFFFF AND EQ PUSH2 0x4AC JUMPI PUSH1 0x40 MLOAD PUSH32 0x8C379A000000000000000000000000000000000000000000000000000000000 DUP2 MSTORE PUSH1 0x4 ADD PUSH2 0x4A3 SWAP1 PUSH2 0x79B JUMP JUMPDEST PUSH1 0x40 MLOAD DUP1 SWAP2 SUB SWAP1 REVERT JUMPDEST PUSH0 PUSH1 0x4 DUP1 SLOAD SWAP1 POP SWAP1 POP PUSH0 PUSH1 0x5 DUP1 SLOAD SWAP1 POP SWAP1 POP DUP2 DUP2 SWAP4 POP SWAP4 POP POP POP SWAP1 SWAP2 JUMP JUMPDEST PUSH0 PUSH0 SWAP1 SLOAD SWAP1 PUSH2 0x100 EXP SWAP1 DIV PUSH20 0xFFFFFFFFFFFFFFFFFFFFFFFFFFFFFFFFFFFFFFFF AND DUP2 JUMP JUMPDEST PUSH1 0x1 SLOAD DUP2 JUMP JUMPDEST PUSH0 PUSH0 REVERT JUMPDEST PUSH0 DUP2 SWAP1 POP SWAP2 SWAP1 POP JUMP JUMPDEST PUSH2 0x50A DUP2 PUSH2 0x4F8 JUMP JUMPDEST DUP2 EQ PUSH2 0x514 JUMPI PUSH0 PUSH0 REVERT JUMPDEST POP JUMP JUMPDEST PUSH0 DUP2 CALLDATALOAD SWAP1 POP PUSH2 0x525 DUP2 PUSH2 0x501 JUMP JUMPDEST SWAP3 SWAP2 POP POP JUMP JUMPDEST PUSH0 PUSH1 0x20 DUP3 DUP5 SUB SLT ISZERO PUSH2 0x540 JUMPI PUSH2 0x53F PUSH2 0x4F4 JUMP JUMPDEST JUMPDEST PUSH0 PUSH2 0x54D DUP5 DUP3 DUP6 ADD PUSH2 0x517 JUMP JUMPDEST SWAP2 POP POP SWAP3 SWAP2 POP POP JUMP JUMPDEST PUSH0 PUSH20 0xFFFFFFFFFFFFFFFFFFFFFFFFFFFFFFFFFFFFFFFF DUP3 AND SWAP1 POP SWAP2 SWAP1 POP JUMP JUMPDEST PUSH0 PUSH2 0x57F DUP3 PUSH2 0x556 JUMP JUMPDEST SWAP1 POP SWAP2 SWAP1 POP JUMP JUMPDEST PUSH2 0x58F DUP2 PUSH2 0x575 JUMP JUMPDEST DUP3 MSTORE POP POP JUMP JUMPDEST PUSH0 PUSH1 0x20 DUP3 ADD SWAP1 POP PUSH2 0x5A8 PUSH0 DUP4 ADD DUP5 PUSH2 0x586 JUMP JUMPDEST SWAP3 SWAP2 POP POP JUMP JUMPDEST PUSH2 0x5B7 DUP2 PUSH2 0x4F8 JUMP JUMPDEST DUP3 MSTORE POP POP JUMP JUMPDEST PUSH0 PUSH1 0x20 DUP3 ADD SWAP1 POP PUSH2 0x5D0 PUSH0 DUP4 ADD DUP5 PUSH2 0x5AE JUMP JUMPDEST SWAP3 SWAP2 POP POP JUMP JUMPDEST PUSH0 PUSH1 0x40 DUP3 ADD SWAP1 POP PUSH2 0x5E9 PUSH0 DUP4 ADD DUP6 PUSH2 0x5AE JUMP JUMPDEST PUSH2 0x5F6 PUSH1 0x20 DUP4 ADD DUP5 PUSH2 0x5AE JUMP JUMPDEST SWAP4 SWAP3 POP POP POP JUMP JUMPDEST PUSH0 DUP3 DUP3 MSTORE PUSH1 0x20 DUP3 ADD SWAP1 POP SWAP3 SWAP2 POP POP JUMP JUMPDEST PUSH32 0x616C726561647920766F74656400000000000000000000000000000000000000 PUSH0 DUP3 ADD MSTORE POP JUMP JUMPDEST PUSH0 PUSH2 0x641 PUSH1 0xD DUP4 PUSH2 0x5FD JUMP JUMPDEST SWAP2 POP PUSH2 0x64C DUP3 PUSH2 0x60D JUMP JUMPDEST PUSH1 0x20 DUP3 ADD SWAP1 POP SWAP2 SWAP1 POP JUMP JUMPDEST PUSH0 PUSH1 0x20 DUP3 ADD SWAP1 POP DUP2 DUP2 SUB PUSH0 DUP4 ADD MSTORE PUSH2 0x66E DUP2 PUSH2 0x635 JUMP JUMPDEST SWAP1 POP SWAP2 SWAP1 POP JUMP JUMPDEST PUSH32 0x6E6F742076616C69640000000000000000000000000000000000000000000000 PUSH0 DUP3 ADD MSTORE POP JUMP JUMPDEST PUSH0 PUSH2 0x6A9 PUSH1 0x9 DUP4 PUSH2 0x5FD JUMP JUMPDEST SWAP2 POP PUSH2 0x6B4 DUP3 PUSH2 0x675 JUMP JUMPDEST PUSH1 0x20 DUP3 ADD SWAP1 POP SWAP2 SWAP1 POP JUMP JUMPDEST PUSH0 PUSH1 0x20 DUP3 ADD SWAP1 POP DUP2 DUP2 SUB PUSH0 DUP4 ADD MSTORE PUSH2 0x6D6 DUP2 PUSH2 0x69D JUMP JUMPDEST SWAP1 POP SWAP2 SWAP1 POP JUMP JUMPDEST PUSH32 0x4E487B7100000000000000000000000000000000000000000000000000000000 PUSH0 MSTORE PUSH1 0x11 PUSH1 0x4 MSTORE PUSH1 0x24 PUSH0 REVERT JUMPDEST PUSH0 PUSH2 0x714 DUP3 PUSH2 0x4F8 JUMP JUMPDEST SWAP2 POP PUSH32 0xFFFFFFFFFFFFFFFFFFFFFFFFFFFFFFFFFFFFFFFFFFFFFFFFFFFFFFFFFFFFFFFF DUP3 SUB PUSH2 0x746 JUMPI PUSH2 0x745 PUSH2 0x6DD JUMP JUMPDEST JUMPDEST PUSH1 0x1 DUP3 ADD SWAP1 POP SWAP2 SWAP1 POP JUMP JUMPDEST PUSH32 0x6E6F7420616C6C6F776564000000000000000000000000000000000000000000 PUSH0 DUP3 ADD MSTORE POP JUMP JUMPDEST PUSH0 PUSH2 0x785 PUSH1 0xB DUP4 PUSH2 0x5FD JUMP JUMPDEST SWAP2 POP PUSH2 0x790 DUP3 PUSH2 0x751 JUMP JUMPDEST PUSH1 0x20 DUP3 ADD SWAP1 POP SWAP2 SWAP1 POP JUMP JUMPDEST PUSH0 PUSH1 0x20 DUP3 ADD SWAP1 POP DUP2 DUP2 SUB PUSH0 DUP4 ADD MSTORE PUSH2 0x7B2 DUP2 PUSH2 0x779 JUMP JUMPDEST SWAP1 POP SWAP2 SWAP1 POP JUMP INVALID LOG2 PUSH5 0x6970667358 0x22 SLT KECCAK256 TSTORE EXTDELEGATECALL PUSH16 0x651B259230B3DE67291F98A8731DB55D 0x4B 0xC1 CHAINID 0xD8 0xC1 PUSH28 0xE269CA47B537F764736F6C6343000822003300000000000000000000 "
				},
				"gasEstimates": {
					"creation": {
						"codeDepositCost": "406200",
						"executionCost": "24705",
						"totalCost": "430905"
					},
					"external": {
						"IphoneFans(uint256)": "4945",
						"Iphone_17ProMax()": "2491",
						"Owner()": "2551",
						"SamsungFans(uint256)": "4944",
						"Samsung_s26()": "2448",
						"retrive()": "infinite",
						"voteing(uint256)": "infinite"
					}
				},
				"methodIdentifiers": {
					"IphoneFans(uint256)": "300edcb9",
					"Iphone_17ProMax()": "ef0c487a",
					"Owner()": "b4a99a4e",
					"SamsungFans(uint256)": "76ab579f",
					"Samsung_s26()": "3fb3c220",
					"retrive()": "a6b7fc5b",
					"voteing(uint256)": "7235a2aa"
				}
			},
			"storageLayout": {
				"storage": [
					{
						"astId": 3,
						"contract": "default_workspace/contracts/voting/vote.sol:vote",
						"label": "Owner",
						"offset": 0,
						"slot": "0",
						"type": "t_address"
					},
					{
						"astId": 5,
						"contract": "default_workspace/contracts/voting/vote.sol:vote",
						"label": "Iphone_17ProMax",
						"offset": 0,
						"slot": "1",
						"type": "t_uint256"
					},
					{
						"astId": 7,
						"contract": "default_workspace/contracts/voting/vote.sol:vote",
						"label": "Samsung_s26",
						"offset": 0,
						"slot": "2",
						"type": "t_uint256"
					},
					{
						"astId": 11,
						"contract": "default_workspace/contracts/voting/vote.sol:vote",
						"label": "hasVoted",
						"offset": 0,
						"slot": "3",
						"type": "t_mapping(t_address,t_bool)"
					},
					{
						"astId": 14,
						"contract": "default_workspace/contracts/voting/vote.sol:vote",
						"label": "IphoneFans",
						"offset": 0,
						"slot": "4",
						"type": "t_array(t_address)dyn_storage"
					},
					{
						"astId": 17,
						"contract": "default_workspace/contracts/voting/vote.sol:vote",
						"label": "SamsungFans",
						"offset": 0,
						"slot": "5",
						"type": "t_array(t_address)dyn_storage"
					}
				],
				"types": {
					"t_address": {
						"encoding": "inplace",
						"label": "address",
						"numberOfBytes": "20"
					},
					"t_array(t_address)dyn_storage": {
						"base": "t_address",
						"encoding": "dynamic_array",
						"label": "address[]",
						"numberOfBytes": "32"
					},
					"t_bool": {
						"encoding": "inplace",
						"label": "bool",
						"numberOfBytes": "1"
					},
					"t_mapping(t_address,t_bool)": {
						"encoding": "mapping",
						"key": "t_address",
						"label": "mapping(address => bool)",
						"numberOfBytes": "32",
						"value": "t_bool"
					},
					"t_uint256": {
						"encoding": "inplace",
						"label": "uint256",
						"numberOfBytes": "32"
					}
				}
			},
			"userdoc": {
				"kind": "user",
				"methods": {},
				"version": 1
			}
		}
	}
}