{
	"default_workspace/contracts/Fundme/fundme.sol": {
		"FundMe": {
			"abi": [
				{
					"inputs": [],
					"stateMutability": "nonpayable",
					"type": "constructor"
				},
				{
					"inputs": [],
					"name": "deposite",
					"outputs": [],
					"stateMutability": "payable",
					"type": "function"
				},
				{
					"inputs": [
						{
							"internalType": "uint256",
							"name": "",
							"type": "uint256"
						}
					],
					"name": "funders",
					"outputs": [
						{
							"internalType": "address",
							"name": "",
							"type": "address"
						}
					],
					"stateMutability": "view",
					"type": "function"
				},
				{
					"inputs": [],
					"name": "getBalance",
					"outputs": [
						{
							"internalType": "uint256",
							"name": "",
							"type": "uint256"
						}
					],
					"stateMutability": "view",
					"type": "function"
				},
				{
					"inputs": [],
					"name": "getFunders",
					"outputs": [
						{
							"internalType": "address[]",
							"name": "",
							"type": "address[]"
						}
					],
					"stateMutability": "view",
					"type": "function"
				},
				{
					"inputs": [
						{
							"internalType": "address",
							"name": "",
							"type": "address"
						}
					],
					"name": "isFunder",
					"outputs": [
						{
							"internalType": "bool",
							"name": "",
							"type": "bool"
						}
					],
					"stateMutability": "view",
					"type": "function"
				},
				{
					"inputs": [],
					"name": "number_of_deposite",
					"outputs": [
						{
							"internalType": "uint256",
							"name": "",
							"type": "uint256"
						}
					],
					"stateMutability": "view",
					"type": "function"
				},
				{
					"inputs": [],
					"name": "owner",
					"outputs": [
						{
							"internalType": "address",
							"name": "",
							"type": "address"
						}
					],
					"stateMutability": "view",
					"type": "function"
				},
				{
					"inputs": [
						{
							"internalType": "address",
							"name": "",
							"type": "address"
						}
					],
					"name": "user",
					"outputs": [
						{
							"internalType": "uint256",
							"name": "",
							"type": "uint256"
						}
					],
					"stateMutability": "view",
					"type": "function"
				},
				{
					"inputs": [],
					"name": "withdraw",
					"outputs": [],
					"stateMutability": "nonpayable",
					"type": "function"
				}
			],
			"devdoc": {
				"kind": "dev",
				"methods": {},
				"version": 1
			},
			"evm": {
				"assembly": "    /* \"default_workspace/contracts/Fundme/fundme.sol\":60:1104  contract FundMe {... */\n  mstore(0x40, 0x80)\n    /* \"default_workspace/contracts/Fundme/fundme.sol\":160:211  constructor() {... */\n  callvalue\n  dup1\n  iszero\n  tag_1\n  jumpi\n  revert(0x00, 0x00)\ntag_1:\n  pop\n    /* \"default_workspace/contracts/Fundme/fundme.sol\":193:203  msg.sender */\n  caller\n    /* \"default_workspace/contracts/Fundme/fundme.sol\":185:190  owner */\n  0x00\n  0x00\n    /* \"default_workspace/contracts/Fundme/fundme.sol\":185:203  owner = msg.sender */\n  0x0100\n  exp\n  dup2\n  sload\n  dup2\n  0xffffffffffffffffffffffffffffffffffffffff\n  mul\n  not\n  and\n  swap1\n  dup4\n  0xffffffffffffffffffffffffffffffffffffffff\n  and\n  mul\n  or\n  swap1\n  sstore\n  pop\n    /* \"default_workspace/contracts/Fundme/fundme.sol\":60:1104  contract FundMe {... */\n  dataSize(sub_0)\n  dup1\n  dataOffset(sub_0)\n  0x00\n  codecopy\n  0x00\n  return\nstop\n\nsub_0: assembly {\n        /* \"default_workspace/contracts/Fundme/fundme.sol\":60:1104  contract FundMe {... */\n      mstore(0x40, 0x80)\n      jumpi(tag_1, lt(calldatasize, 0x04))\n      shr(0xe0, calldataload(0x00))\n      dup1\n      0x8796c333\n      gt\n      tag_11\n      jumpi\n      dup1\n      0x8796c333\n      eq\n      tag_6\n      jumpi\n      dup1\n      0x8da5cb5b\n      eq\n      tag_7\n      jumpi\n      dup1\n      0xa50ec326\n      eq\n      tag_8\n      jumpi\n      dup1\n      0xdc0d3dff\n      eq\n      tag_9\n      jumpi\n      dup1\n      0xea63a044\n      eq\n      tag_10\n      jumpi\n      jump(tag_1)\n    tag_11:\n      dup1\n      0x12065fe0\n      eq\n      tag_2\n      jumpi\n      dup1\n      0x1ea48870\n      eq\n      tag_3\n      jumpi\n      dup1\n      0x3ccfd60b\n      eq\n      tag_4\n      jumpi\n      dup1\n      0x81e7e20e\n      eq\n      tag_5\n      jumpi\n    tag_1:\n      revert(0x00, 0x00)\n        /* \"default_workspace/contracts/Fundme/fundme.sol\":880:979  function getBalance() public view returns (uint256) {... */\n    tag_2:\n      callvalue\n      dup1\n      iszero\n      tag_12\n      jumpi\n      revert(0x00, 0x00)\n    tag_12:\n      pop\n      tag_13\n      tag_14\n      jump\t// in\n    tag_13:\n      mload(0x40)\n      tag_15\n      swap2\n      swap1\n      tag_16\n      jump\t// in\n    tag_15:\n      mload(0x40)\n      dup1\n      swap2\n      sub\n      swap1\n      return\n        /* \"default_workspace/contracts/Fundme/fundme.sol\":461:501  mapping(address => bool) public isFunder */\n    tag_3:\n      callvalue\n      dup1\n      iszero\n      tag_17\n      jumpi\n      revert(0x00, 0x00)\n    tag_17:\n      pop\n      tag_18\n      0x04\n      dup1\n      calldatasize\n      sub\n      dup2\n      add\n      swap1\n      tag_19\n      swap2\n      swap1\n      tag_20\n      jump\t// in\n    tag_19:\n      tag_21\n      jump\t// in\n    tag_18:\n      mload(0x40)\n      tag_22\n      swap2\n      swap1\n      tag_23\n      jump\t// in\n    tag_22:\n      mload(0x40)\n      dup1\n      swap2\n      sub\n      swap1\n      return\n        /* \"default_workspace/contracts/Fundme/fundme.sol\":541:753  function withdraw() public OnlyOwner {... */\n    tag_4:\n      callvalue\n      dup1\n      iszero\n      tag_24\n      jumpi\n      revert(0x00, 0x00)\n    tag_24:\n      pop\n      tag_25\n      tag_26\n      jump\t// in\n    tag_25:\n      stop\n        /* \"default_workspace/contracts/Fundme/fundme.sol\":112:151  mapping(address => uint256) public user */\n    tag_5:\n      callvalue\n      dup1\n      iszero\n      tag_27\n      jumpi\n      revert(0x00, 0x00)\n    tag_27:\n      pop\n      tag_28\n      0x04\n      dup1\n      calldatasize\n      sub\n      dup2\n      add\n      swap1\n      tag_29\n      swap2\n      swap1\n      tag_20\n      jump\t// in\n    tag_29:\n      tag_30\n      jump\t// in\n    tag_28:\n      mload(0x40)\n      tag_31\n      swap2\n      swap1\n      tag_16\n      jump\t// in\n    tag_31:\n      mload(0x40)\n      dup1\n      swap2\n      sub\n      swap1\n      return\n        /* \"default_workspace/contracts/Fundme/fundme.sol\":765:874  function number_of_deposite() public view OnlyOwner returns (uint256) {... */\n    tag_6:\n      callvalue\n      dup1\n      iszero\n      tag_32\n      jumpi\n      revert(0x00, 0x00)\n    tag_32:\n      pop\n      tag_33\n      tag_34\n      jump\t// in\n    tag_33:\n      mload(0x40)\n      tag_35\n      swap2\n      swap1\n      tag_16\n      jump\t// in\n    tag_35:\n      mload(0x40)\n      dup1\n      swap2\n      sub\n      swap1\n      return\n        /* \"default_workspace/contracts/Fundme/fundme.sol\":83:103  address public owner */\n    tag_7:\n      callvalue\n      dup1\n      iszero\n      tag_36\n      jumpi\n      revert(0x00, 0x00)\n    tag_36:\n      pop\n      tag_37\n      tag_38\n      jump\t// in\n    tag_37:\n      mload(0x40)\n      tag_39\n      swap2\n      swap1\n      tag_40\n      jump\t// in\n    tag_39:\n      mload(0x40)\n      dup1\n      swap2\n      sub\n      swap1\n      return\n        /* \"default_workspace/contracts/Fundme/fundme.sol\":322:455  function deposite() public payable {... */\n    tag_8:\n      tag_41\n      tag_42\n      jump\t// in\n    tag_41:\n      stop\n        /* \"default_workspace/contracts/Fundme/fundme.sol\":508:532  address[] public funders */\n    tag_9:\n      callvalue\n      dup1\n      iszero\n      tag_43\n      jumpi\n      revert(0x00, 0x00)\n    tag_43:\n      pop\n      tag_44\n      0x04\n      dup1\n      calldatasize\n      sub\n      dup2\n      add\n      swap1\n      tag_45\n      swap2\n      swap1\n      tag_46\n      jump\t// in\n    tag_45:\n      tag_47\n      jump\t// in\n    tag_44:\n      mload(0x40)\n      tag_48\n      swap2\n      swap1\n      tag_40\n      jump\t// in\n    tag_48:\n      mload(0x40)\n      dup1\n      swap2\n      sub\n      swap1\n      return\n        /* \"default_workspace/contracts/Fundme/fundme.sol\":991:1085  function getFunders() public view returns (address[] memory) {... */\n    tag_10:\n      callvalue\n      dup1\n      iszero\n      tag_49\n      jumpi\n      revert(0x00, 0x00)\n    tag_49:\n      pop\n      tag_50\n      tag_51\n      jump\t// in\n    tag_50:\n      mload(0x40)\n      tag_52\n      swap2\n      swap1\n      tag_53\n      jump\t// in\n    tag_52:\n      mload(0x40)\n      dup1\n      swap2\n      sub\n      swap1\n      return\n        /* \"default_workspace/contracts/Fundme/fundme.sol\":880:979  function getBalance() public view returns (uint256) {... */\n    tag_14:\n        /* \"default_workspace/contracts/Fundme/fundme.sol\":923:930  uint256 */\n      0x00\n        /* \"default_workspace/contracts/Fundme/fundme.sol\":950:971  address(this).balance */\n      selfbalance\n        /* \"default_workspace/contracts/Fundme/fundme.sol\":943:971  return address(this).balance */\n      swap1\n      pop\n        /* \"default_workspace/contracts/Fundme/fundme.sol\":880:979  function getBalance() public view returns (uint256) {... */\n      swap1\n      jump\t// out\n        /* \"default_workspace/contracts/Fundme/fundme.sol\":461:501  mapping(address => bool) public isFunder */\n    tag_21:\n      mstore(0x20, 0x02)\n      dup1\n      0x00\n      mstore\n      keccak256(0x00, 0x40)\n      0x00\n      swap2\n      pop\n      sload\n      swap1\n      0x0100\n      exp\n      swap1\n      div\n      0xff\n      and\n      dup2\n      jump\t// out\n        /* \"default_workspace/contracts/Fundme/fundme.sol\":541:753  function withdraw() public OnlyOwner {... */\n    tag_26:\n        /* \"default_workspace/contracts/Fundme/fundme.sol\":268:278  msg.sender */\n      caller\n        /* \"default_workspace/contracts/Fundme/fundme.sol\":259:278  owner == msg.sender */\n      0xffffffffffffffffffffffffffffffffffffffff\n      and\n        /* \"default_workspace/contracts/Fundme/fundme.sol\":259:264  owner */\n      0x00\n      0x00\n      swap1\n      sload\n      swap1\n      0x0100\n      exp\n      swap1\n      div\n      0xffffffffffffffffffffffffffffffffffffffff\n      and\n        /* \"default_workspace/contracts/Fundme/fundme.sol\":259:278  owner == msg.sender */\n      0xffffffffffffffffffffffffffffffffffffffff\n      and\n      eq\n        /* \"default_workspace/contracts/Fundme/fundme.sol\":251:294  require(owner == msg.sender, \" only owner\") */\n      tag_56\n      jumpi\n      mload(0x40)\n      0x08c379a000000000000000000000000000000000000000000000000000000000\n      dup2\n      mstore\n      0x04\n      add\n      tag_57\n      swap1\n      tag_58\n      jump\t// in\n    tag_57:\n      mload(0x40)\n      dup1\n      swap2\n      sub\n      swap1\n      revert\n    tag_56:\n        /* \"default_workspace/contracts/Fundme/fundme.sol\":589:604  uint256 balance */\n      0x00\n        /* \"default_workspace/contracts/Fundme/fundme.sol\":607:628  address(this).balance */\n      selfbalance\n        /* \"default_workspace/contracts/Fundme/fundme.sol\":589:628  uint256 balance = address(this).balance */\n      swap1\n      pop\n        /* \"default_workspace/contracts/Fundme/fundme.sol\":640:652  bool success */\n      0x00\n        /* \"default_workspace/contracts/Fundme/fundme.sol\":666:671  owner */\n      0x00\n      0x00\n      swap1\n      sload\n      swap1\n      0x0100\n      exp\n      swap1\n      div\n      0xffffffffffffffffffffffffffffffffffffffff\n      and\n        /* \"default_workspace/contracts/Fundme/fundme.sol\":658:677  payable(owner).call */\n      0xffffffffffffffffffffffffffffffffffffffff\n      and\n        /* \"default_workspace/contracts/Fundme/fundme.sol\":685:692  balance */\n      dup3\n        /* \"default_workspace/contracts/Fundme/fundme.sol\":658:697  payable(owner).call{value: balance}(\"\") */\n      mload(0x40)\n      tag_60\n      swap1\n      tag_61\n      jump\t// in\n    tag_60:\n      0x00\n      mload(0x40)\n      dup1\n      dup4\n      sub\n      dup2\n      dup6\n      dup8\n      gas\n      call\n      swap3\n      pop\n      pop\n      pop\n      returndatasize\n      dup1\n      0x00\n      dup2\n      eq\n      tag_64\n      jumpi\n      mload(0x40)\n      swap2\n      pop\n      and(add(returndatasize, 0x3f), not(0x1f))\n      dup3\n      add\n      0x40\n      mstore\n      returndatasize\n      dup3\n      mstore\n      returndatasize\n      0x00\n      0x20\n      dup5\n      add\n      returndatacopy\n      jump(tag_63)\n    tag_64:\n      0x60\n      swap2\n      pop\n    tag_63:\n      pop\n        /* \"default_workspace/contracts/Fundme/fundme.sol\":639:697  (bool success, ) = payable(owner).call{value: balance}(\"\") */\n      pop\n      swap1\n      pop\n        /* \"default_workspace/contracts/Fundme/fundme.sol\":716:723  success */\n      dup1\n        /* \"default_workspace/contracts/Fundme/fundme.sol\":708:745  require(success, \"transfered failed\") */\n      tag_65\n      jumpi\n      mload(0x40)\n      0x08c379a000000000000000000000000000000000000000000000000000000000\n      dup2\n      mstore\n      0x04\n      add\n      tag_66\n      swap1\n      tag_67\n      jump\t// in\n    tag_66:\n      mload(0x40)\n      dup1\n      swap2\n      sub\n      swap1\n      revert\n    tag_65:\n        /* \"default_workspace/contracts/Fundme/fundme.sol\":578:753  {... */\n      pop\n      pop\n        /* \"default_workspace/contracts/Fundme/fundme.sol\":541:753  function withdraw() public OnlyOwner {... */\n      jump\t// out\n        /* \"default_workspace/contracts/Fundme/fundme.sol\":112:151  mapping(address => uint256) public user */\n    tag_30:\n      mstore(0x20, 0x01)\n      dup1\n      0x00\n      mstore\n      keccak256(0x00, 0x40)\n      0x00\n      swap2\n      pop\n      swap1\n      pop\n      sload\n      dup2\n      jump\t// out\n        /* \"default_workspace/contracts/Fundme/fundme.sol\":765:874  function number_of_deposite() public view OnlyOwner returns (uint256) {... */\n    tag_34:\n        /* \"default_workspace/contracts/Fundme/fundme.sol\":826:833  uint256 */\n      0x00\n        /* \"default_workspace/contracts/Fundme/fundme.sol\":268:278  msg.sender */\n      caller\n        /* \"default_workspace/contracts/Fundme/fundme.sol\":259:278  owner == msg.sender */\n      0xffffffffffffffffffffffffffffffffffffffff\n      and\n        /* \"default_workspace/contracts/Fundme/fundme.sol\":259:264  owner */\n      0x00\n      0x00\n      swap1\n      sload\n      swap1\n      0x0100\n      exp\n      swap1\n      div\n      0xffffffffffffffffffffffffffffffffffffffff\n      and\n        /* \"default_workspace/contracts/Fundme/fundme.sol\":259:278  owner == msg.sender */\n      0xffffffffffffffffffffffffffffffffffffffff\n      and\n      eq\n        /* \"default_workspace/contracts/Fundme/fundme.sol\":251:294  require(owner == msg.sender, \" only owner\") */\n      tag_69\n      jumpi\n      mload(0x40)\n      0x08c379a000000000000000000000000000000000000000000000000000000000\n      dup2\n      mstore\n      0x04\n      add\n      tag_70\n      swap1\n      tag_58\n      jump\t// in\n    tag_70:\n      mload(0x40)\n      dup1\n      swap2\n      sub\n      swap1\n      revert\n    tag_69:\n        /* \"default_workspace/contracts/Fundme/fundme.sol\":849:870  address(this).balance */\n      selfbalance\n        /* \"default_workspace/contracts/Fundme/fundme.sol\":842:870  return address(this).balance */\n      swap1\n      pop\n        /* \"default_workspace/contracts/Fundme/fundme.sol\":765:874  function number_of_deposite() public view OnlyOwner returns (uint256) {... */\n      swap1\n      jump\t// out\n        /* \"default_workspace/contracts/Fundme/fundme.sol\":83:103  address public owner */\n    tag_38:\n      0x00\n      0x00\n      swap1\n      sload\n      swap1\n      0x0100\n      exp\n      swap1\n      div\n      0xffffffffffffffffffffffffffffffffffffffff\n      and\n      dup2\n      jump\t// out\n        /* \"default_workspace/contracts/Fundme/fundme.sol\":322:455  function deposite() public payable {... */\n    tag_42:\n        /* \"default_workspace/contracts/Fundme/fundme.sol\":388:389  0 */\n      0x00\n        /* \"default_workspace/contracts/Fundme/fundme.sol\":376:385  msg.value */\n      callvalue\n        /* \"default_workspace/contracts/Fundme/fundme.sol\":376:389  msg.value > 0 */\n      gt\n        /* \"default_workspace/contracts/Fundme/fundme.sol\":368:407  require(msg.value > 0, \"0 not allowed\") */\n      tag_73\n      jumpi\n      mload(0x40)\n      0x08c379a000000000000000000000000000000000000000000000000000000000\n      dup2\n      mstore\n      0x04\n      add\n      tag_74\n      swap1\n      tag_75\n      jump\t// in\n    tag_74:\n      mload(0x40)\n      dup1\n      swap2\n      sub\n      swap1\n      revert\n    tag_73:\n        /* \"default_workspace/contracts/Fundme/fundme.sol\":438:447  msg.value */\n      callvalue\n        /* \"default_workspace/contracts/Fundme/fundme.sol\":418:422  user */\n      0x01\n        /* \"default_workspace/contracts/Fundme/fundme.sol\":418:434  user[msg.sender] */\n      0x00\n        /* \"default_workspace/contracts/Fundme/fundme.sol\":423:433  msg.sender */\n      caller\n        /* \"default_workspace/contracts/Fundme/fundme.sol\":418:434  user[msg.sender] */\n      0xffffffffffffffffffffffffffffffffffffffff\n      and\n      0xffffffffffffffffffffffffffffffffffffffff\n      and\n      dup2\n      mstore\n      0x20\n      add\n      swap1\n      dup2\n      mstore\n      0x20\n      add\n      0x00\n      keccak256\n      0x00\n        /* \"default_workspace/contracts/Fundme/fundme.sol\":418:447  user[msg.sender] += msg.value */\n      dup3\n      dup3\n      sload\n      tag_76\n      swap2\n      swap1\n      tag_77\n      jump\t// in\n    tag_76:\n      swap3\n      pop\n      pop\n      dup2\n      swap1\n      sstore\n      pop\n        /* \"default_workspace/contracts/Fundme/fundme.sol\":322:455  function deposite() public payable {... */\n      jump\t// out\n        /* \"default_workspace/contracts/Fundme/fundme.sol\":508:532  address[] public funders */\n    tag_47:\n      0x03\n      dup2\n      dup2\n      sload\n      dup2\n      lt\n      tag_78\n      jumpi\n      0x00\n      dup1\n      revert\n    tag_78:\n      swap1\n      0x00\n      mstore\n      keccak256(0x00, 0x20)\n      add\n      0x00\n      swap2\n      pop\n      sload\n      swap1\n      0x0100\n      exp\n      swap1\n      div\n      0xffffffffffffffffffffffffffffffffffffffff\n      and\n      dup2\n      jump\t// out\n        /* \"default_workspace/contracts/Fundme/fundme.sol\":991:1085  function getFunders() public view returns (address[] memory) {... */\n    tag_51:\n        /* \"default_workspace/contracts/Fundme/fundme.sol\":1034:1050  address[] memory */\n      0x60\n        /* \"default_workspace/contracts/Fundme/fundme.sol\":1070:1077  funders */\n      0x03\n        /* \"default_workspace/contracts/Fundme/fundme.sol\":1063:1077  return funders */\n      dup1\n      sload\n      dup1\n      0x20\n      mul\n      0x20\n      add\n      mload(0x40)\n      swap1\n      dup2\n      add\n      0x40\n      mstore\n      dup1\n      swap3\n      swap2\n      swap1\n      dup2\n      dup2\n      mstore\n      0x20\n      add\n      dup3\n      dup1\n      sload\n      dup1\n      iszero\n      tag_81\n      jumpi\n      0x20\n      mul\n      dup3\n      add\n      swap2\n      swap1\n      0x00\n      mstore\n      keccak256(0x00, 0x20)\n      swap1\n    tag_82:\n      dup2\n      0x00\n      swap1\n      sload\n      swap1\n      0x0100\n      exp\n      swap1\n      div\n      0xffffffffffffffffffffffffffffffffffffffff\n      and\n      0xffffffffffffffffffffffffffffffffffffffff\n      and\n      dup2\n      mstore\n      0x20\n      add\n      swap1\n      0x01\n      add\n      swap1\n      dup1\n      dup4\n      gt\n      tag_82\n      jumpi\n    tag_81:\n      pop\n      pop\n      pop\n      pop\n      pop\n      swap1\n      pop\n        /* \"default_workspace/contracts/Fundme/fundme.sol\":991:1085  function getFunders() public view returns (address[] memory) {... */\n      swap1\n      jump\t// out\n        /* \"#utility.yul\":7:84   */\n    tag_83:\n        /* \"#utility.yul\":44:51   */\n      0x00\n        /* \"#utility.yul\":73:78   */\n      dup2\n        /* \"#utility.yul\":62:78   */\n      swap1\n      pop\n        /* \"#utility.yul\":7:84   */\n      swap2\n      swap1\n      pop\n      jump\t// out\n        /* \"#utility.yul\":90:208   */\n    tag_84:\n        /* \"#utility.yul\":177:201   */\n      tag_118\n        /* \"#utility.yul\":195:200   */\n      dup2\n        /* \"#utility.yul\":177:201   */\n      tag_83\n      jump\t// in\n    tag_118:\n        /* \"#utility.yul\":172:175   */\n      dup3\n        /* \"#utility.yul\":165:202   */\n      mstore\n        /* \"#utility.yul\":90:208   */\n      pop\n      pop\n      jump\t// out\n        /* \"#utility.yul\":214:436   */\n    tag_16:\n        /* \"#utility.yul\":307:311   */\n      0x00\n        /* \"#utility.yul\":345:347   */\n      0x20\n        /* \"#utility.yul\":334:343   */\n      dup3\n        /* \"#utility.yul\":330:348   */\n      add\n        /* \"#utility.yul\":322:348   */\n      swap1\n      pop\n        /* \"#utility.yul\":358:429   */\n      tag_120\n        /* \"#utility.yul\":426:427   */\n      0x00\n        /* \"#utility.yul\":415:424   */\n      dup4\n        /* \"#utility.yul\":411:428   */\n      add\n        /* \"#utility.yul\":402:408   */\n      dup5\n        /* \"#utility.yul\":358:429   */\n      tag_84\n      jump\t// in\n    tag_120:\n        /* \"#utility.yul\":214:436   */\n      swap3\n      swap2\n      pop\n      pop\n      jump\t// out\n        /* \"#utility.yul\":523:640   */\n    tag_86:\n        /* \"#utility.yul\":632:633   */\n      0x00\n        /* \"#utility.yul\":629:630   */\n      0x00\n        /* \"#utility.yul\":622:634   */\n      revert\n        /* \"#utility.yul\":769:895   */\n    tag_88:\n        /* \"#utility.yul\":806:813   */\n      0x00\n        /* \"#utility.yul\":846:888   */\n      0xffffffffffffffffffffffffffffffffffffffff\n        /* \"#utility.yul\":839:844   */\n      dup3\n        /* \"#utility.yul\":835:889   */\n      and\n        /* \"#utility.yul\":824:889   */\n      swap1\n      pop\n        /* \"#utility.yul\":769:895   */\n      swap2\n      swap1\n      pop\n      jump\t// out\n        /* \"#utility.yul\":901:997   */\n    tag_89:\n        /* \"#utility.yul\":938:945   */\n      0x00\n        /* \"#utility.yul\":967:991   */\n      tag_126\n        /* \"#utility.yul\":985:990   */\n      dup3\n        /* \"#utility.yul\":967:991   */\n      tag_88\n      jump\t// in\n    tag_126:\n        /* \"#utility.yul\":956:991   */\n      swap1\n      pop\n        /* \"#utility.yul\":901:997   */\n      swap2\n      swap1\n      pop\n      jump\t// out\n        /* \"#utility.yul\":1003:1125   */\n    tag_90:\n        /* \"#utility.yul\":1076:1100   */\n      tag_128\n        /* \"#utility.yul\":1094:1099   */\n      dup2\n        /* \"#utility.yul\":1076:1100   */\n      tag_89\n      jump\t// in\n    tag_128:\n        /* \"#utility.yul\":1069:1074   */\n      dup2\n        /* \"#utility.yul\":1066:1101   */\n      eq\n        /* \"#utility.yul\":1056:1119   */\n      tag_129\n      jumpi\n        /* \"#utility.yul\":1115:1116   */\n      0x00\n        /* \"#utility.yul\":1112:1113   */\n      0x00\n        /* \"#utility.yul\":1105:1117   */\n      revert\n        /* \"#utility.yul\":1056:1119   */\n    tag_129:\n        /* \"#utility.yul\":1003:1125   */\n      pop\n      jump\t// out\n        /* \"#utility.yul\":1131:1270   */\n    tag_91:\n        /* \"#utility.yul\":1177:1182   */\n      0x00\n        /* \"#utility.yul\":1215:1221   */\n      dup2\n        /* \"#utility.yul\":1202:1222   */\n      calldataload\n        /* \"#utility.yul\":1193:1222   */\n      swap1\n      pop\n        /* \"#utility.yul\":1231:1264   */\n      tag_131\n        /* \"#utility.yul\":1258:1263   */\n      dup2\n        /* \"#utility.yul\":1231:1264   */\n      tag_90\n      jump\t// in\n    tag_131:\n        /* \"#utility.yul\":1131:1270   */\n      swap3\n      swap2\n      pop\n      pop\n      jump\t// out\n        /* \"#utility.yul\":1276:1605   */\n    tag_20:\n        /* \"#utility.yul\":1335:1341   */\n      0x00\n        /* \"#utility.yul\":1384:1386   */\n      0x20\n        /* \"#utility.yul\":1372:1381   */\n      dup3\n        /* \"#utility.yul\":1363:1370   */\n      dup5\n        /* \"#utility.yul\":1359:1382   */\n      sub\n        /* \"#utility.yul\":1355:1387   */\n      slt\n        /* \"#utility.yul\":1352:1471   */\n      iszero\n      tag_133\n      jumpi\n        /* \"#utility.yul\":1390:1469   */\n      tag_134\n      tag_86\n      jump\t// in\n    tag_134:\n        /* \"#utility.yul\":1352:1471   */\n    tag_133:\n        /* \"#utility.yul\":1510:1511   */\n      0x00\n        /* \"#utility.yul\":1535:1588   */\n      tag_135\n        /* \"#utility.yul\":1580:1587   */\n      dup5\n        /* \"#utility.yul\":1571:1577   */\n      dup3\n        /* \"#utility.yul\":1560:1569   */\n      dup6\n        /* \"#utility.yul\":1556:1578   */\n      add\n        /* \"#utility.yul\":1535:1588   */\n      tag_91\n      jump\t// in\n    tag_135:\n        /* \"#utility.yul\":1525:1588   */\n      swap2\n      pop\n        /* \"#utility.yul\":1481:1598   */\n      pop\n        /* \"#utility.yul\":1276:1605   */\n      swap3\n      swap2\n      pop\n      pop\n      jump\t// out\n        /* \"#utility.yul\":1611:1701   */\n    tag_92:\n        /* \"#utility.yul\":1645:1652   */\n      0x00\n        /* \"#utility.yul\":1688:1693   */\n      dup2\n        /* \"#utility.yul\":1681:1694   */\n      iszero\n        /* \"#utility.yul\":1674:1695   */\n      iszero\n        /* \"#utility.yul\":1663:1695   */\n      swap1\n      pop\n        /* \"#utility.yul\":1611:1701   */\n      swap2\n      swap1\n      pop\n      jump\t// out\n        /* \"#utility.yul\":1707:1816   */\n    tag_93:\n        /* \"#utility.yul\":1788:1809   */\n      tag_138\n        /* \"#utility.yul\":1803:1808   */\n      dup2\n        /* \"#utility.yul\":1788:1809   */\n      tag_92\n      jump\t// in\n    tag_138:\n        /* \"#utility.yul\":1783:1786   */\n      dup3\n        /* \"#utility.yul\":1776:1810   */\n      mstore\n        /* \"#utility.yul\":1707:1816   */\n      pop\n      pop\n      jump\t// out\n        /* \"#utility.yul\":1822:2032   */\n    tag_23:\n        /* \"#utility.yul\":1909:1913   */\n      0x00\n        /* \"#utility.yul\":1947:1949   */\n      0x20\n        /* \"#utility.yul\":1936:1945   */\n      dup3\n        /* \"#utility.yul\":1932:1950   */\n      add\n        /* \"#utility.yul\":1924:1950   */\n      swap1\n      pop\n        /* \"#utility.yul\":1960:2025   */\n      tag_140\n        /* \"#utility.yul\":2022:2023   */\n      0x00\n        /* \"#utility.yul\":2011:2020   */\n      dup4\n        /* \"#utility.yul\":2007:2024   */\n      add\n        /* \"#utility.yul\":1998:2004   */\n      dup5\n        /* \"#utility.yul\":1960:2025   */\n      tag_93\n      jump\t// in\n    tag_140:\n        /* \"#utility.yul\":1822:2032   */\n      swap3\n      swap2\n      pop\n      pop\n      jump\t// out\n        /* \"#utility.yul\":2038:2156   */\n    tag_94:\n        /* \"#utility.yul\":2125:2149   */\n      tag_142\n        /* \"#utility.yul\":2143:2148   */\n      dup2\n        /* \"#utility.yul\":2125:2149   */\n      tag_89\n      jump\t// in\n    tag_142:\n        /* \"#utility.yul\":2120:2123   */\n      dup3\n        /* \"#utility.yul\":2113:2150   */\n      mstore\n        /* \"#utility.yul\":2038:2156   */\n      pop\n      pop\n      jump\t// out\n        /* \"#utility.yul\":2162:2384   */\n    tag_40:\n        /* \"#utility.yul\":2255:2259   */\n      0x00\n        /* \"#utility.yul\":2293:2295   */\n      0x20\n        /* \"#utility.yul\":2282:2291   */\n      dup3\n        /* \"#utility.yul\":2278:2296   */\n      add\n        /* \"#utility.yul\":2270:2296   */\n      swap1\n      pop\n        /* \"#utility.yul\":2306:2377   */\n      tag_144\n        /* \"#utility.yul\":2374:2375   */\n      0x00\n        /* \"#utility.yul\":2363:2372   */\n      dup4\n        /* \"#utility.yul\":2359:2376   */\n      add\n        /* \"#utility.yul\":2350:2356   */\n      dup5\n        /* \"#utility.yul\":2306:2377   */\n      tag_94\n      jump\t// in\n    tag_144:\n        /* \"#utility.yul\":2162:2384   */\n      swap3\n      swap2\n      pop\n      pop\n      jump\t// out\n        /* \"#utility.yul\":2390:2512   */\n    tag_95:\n        /* \"#utility.yul\":2463:2487   */\n      tag_146\n        /* \"#utility.yul\":2481:2486   */\n      dup2\n        /* \"#utility.yul\":2463:2487   */\n      tag_83\n      jump\t// in\n    tag_146:\n        /* \"#utility.yul\":2456:2461   */\n      dup2\n        /* \"#utility.yul\":2453:2488   */\n      eq\n        /* \"#utility.yul\":2443:2506   */\n      tag_147\n      jumpi\n        /* \"#utility.yul\":2502:2503   */\n      0x00\n        /* \"#utility.yul\":2499:2500   */\n      0x00\n        /* \"#utility.yul\":2492:2504   */\n      revert\n        /* \"#utility.yul\":2443:2506   */\n    tag_147:\n        /* \"#utility.yul\":2390:2512   */\n      pop\n      jump\t// out\n        /* \"#utility.yul\":2518:2657   */\n    tag_96:\n        /* \"#utility.yul\":2564:2569   */\n      0x00\n        /* \"#utility.yul\":2602:2608   */\n      dup2\n        /* \"#utility.yul\":2589:2609   */\n      calldataload\n        /* \"#utility.yul\":2580:2609   */\n      swap1\n      pop\n        /* \"#utility.yul\":2618:2651   */\n      tag_149\n        /* \"#utility.yul\":2645:2650   */\n      dup2\n        /* \"#utility.yul\":2618:2651   */\n      tag_95\n      jump\t// in\n    tag_149:\n        /* \"#utility.yul\":2518:2657   */\n      swap3\n      swap2\n      pop\n      pop\n      jump\t// out\n        /* \"#utility.yul\":2663:2992   */\n    tag_46:\n        /* \"#utility.yul\":2722:2728   */\n      0x00\n        /* \"#utility.yul\":2771:2773   */\n      0x20\n        /* \"#utility.yul\":2759:2768   */\n      dup3\n        /* \"#utility.yul\":2750:2757   */\n      dup5\n        /* \"#utility.yul\":2746:2769   */\n      sub\n        /* \"#utility.yul\":2742:2774   */\n      slt\n        /* \"#utility.yul\":2739:2858   */\n      iszero\n      tag_151\n      jumpi\n        /* \"#utility.yul\":2777:2856   */\n      tag_152\n      tag_86\n      jump\t// in\n    tag_152:\n        /* \"#utility.yul\":2739:2858   */\n    tag_151:\n        /* \"#utility.yul\":2897:2898   */\n      0x00\n        /* \"#utility.yul\":2922:2975   */\n      tag_153\n        /* \"#utility.yul\":2967:2974   */\n      dup5\n        /* \"#utility.yul\":2958:2964   */\n      dup3\n        /* \"#utility.yul\":2947:2956   */\n      dup6\n        /* \"#utility.yul\":2943:2965   */\n      add\n        /* \"#utility.yul\":2922:2975   */\n      tag_96\n      jump\t// in\n    tag_153:\n        /* \"#utility.yul\":2912:2975   */\n      swap2\n      pop\n        /* \"#utility.yul\":2868:2985   */\n      pop\n        /* \"#utility.yul\":2663:2992   */\n      swap3\n      swap2\n      pop\n      pop\n      jump\t// out\n        /* \"#utility.yul\":2998:3112   */\n    tag_97:\n        /* \"#utility.yul\":3065:3071   */\n      0x00\n        /* \"#utility.yul\":3099:3104   */\n      dup2\n        /* \"#utility.yul\":3093:3105   */\n      mload\n        /* \"#utility.yul\":3083:3105   */\n      swap1\n      pop\n        /* \"#utility.yul\":2998:3112   */\n      swap2\n      swap1\n      pop\n      jump\t// out\n        /* \"#utility.yul\":3118:3302   */\n    tag_98:\n        /* \"#utility.yul\":3217:3228   */\n      0x00\n        /* \"#utility.yul\":3251:3257   */\n      dup3\n        /* \"#utility.yul\":3246:3249   */\n      dup3\n        /* \"#utility.yul\":3239:3258   */\n      mstore\n        /* \"#utility.yul\":3291:3295   */\n      0x20\n        /* \"#utility.yul\":3286:3289   */\n      dup3\n        /* \"#utility.yul\":3282:3296   */\n      add\n        /* \"#utility.yul\":3267:3296   */\n      swap1\n      pop\n        /* \"#utility.yul\":3118:3302   */\n      swap3\n      swap2\n      pop\n      pop\n      jump\t// out\n        /* \"#utility.yul\":3308:3440   */\n    tag_99:\n        /* \"#utility.yul\":3375:3379   */\n      0x00\n        /* \"#utility.yul\":3398:3401   */\n      dup2\n        /* \"#utility.yul\":3390:3401   */\n      swap1\n      pop\n        /* \"#utility.yul\":3428:3432   */\n      0x20\n        /* \"#utility.yul\":3423:3426   */\n      dup3\n        /* \"#utility.yul\":3419:3433   */\n      add\n        /* \"#utility.yul\":3411:3433   */\n      swap1\n      pop\n        /* \"#utility.yul\":3308:3440   */\n      swap2\n      swap1\n      pop\n      jump\t// out\n        /* \"#utility.yul\":3446:3554   */\n    tag_100:\n        /* \"#utility.yul\":3523:3547   */\n      tag_158\n        /* \"#utility.yul\":3541:3546   */\n      dup2\n        /* \"#utility.yul\":3523:3547   */\n      tag_89\n      jump\t// in\n    tag_158:\n        /* \"#utility.yul\":3518:3521   */\n      dup3\n        /* \"#utility.yul\":3511:3548   */\n      mstore\n        /* \"#utility.yul\":3446:3554   */\n      pop\n      pop\n      jump\t// out\n        /* \"#utility.yul\":3560:3739   */\n    tag_101:\n        /* \"#utility.yul\":3629:3639   */\n      0x00\n        /* \"#utility.yul\":3650:3696   */\n      tag_160\n        /* \"#utility.yul\":3692:3695   */\n      dup4\n        /* \"#utility.yul\":3684:3690   */\n      dup4\n        /* \"#utility.yul\":3650:3696   */\n      tag_100\n      jump\t// in\n    tag_160:\n        /* \"#utility.yul\":3728:3732   */\n      0x20\n        /* \"#utility.yul\":3723:3726   */\n      dup4\n        /* \"#utility.yul\":3719:3733   */\n      add\n        /* \"#utility.yul\":3705:3733   */\n      swap1\n      pop\n        /* \"#utility.yul\":3560:3739   */\n      swap3\n      swap2\n      pop\n      pop\n      jump\t// out\n        /* \"#utility.yul\":3745:3858   */\n    tag_102:\n        /* \"#utility.yul\":3815:3819   */\n      0x00\n        /* \"#utility.yul\":3847:3851   */\n      0x20\n        /* \"#utility.yul\":3842:3845   */\n      dup3\n        /* \"#utility.yul\":3838:3852   */\n      add\n        /* \"#utility.yul\":3830:3852   */\n      swap1\n      pop\n        /* \"#utility.yul\":3745:3858   */\n      swap2\n      swap1\n      pop\n      jump\t// out\n        /* \"#utility.yul\":3894:4626   */\n    tag_103:\n        /* \"#utility.yul\":4013:4016   */\n      0x00\n        /* \"#utility.yul\":4042:4096   */\n      tag_163\n        /* \"#utility.yul\":4090:4095   */\n      dup3\n        /* \"#utility.yul\":4042:4096   */\n      tag_97\n      jump\t// in\n    tag_163:\n        /* \"#utility.yul\":4112:4198   */\n      tag_164\n        /* \"#utility.yul\":4191:4197   */\n      dup2\n        /* \"#utility.yul\":4186:4189   */\n      dup6\n        /* \"#utility.yul\":4112:4198   */\n      tag_98\n      jump\t// in\n    tag_164:\n        /* \"#utility.yul\":4105:4198   */\n      swap4\n      pop\n        /* \"#utility.yul\":4222:4278   */\n      tag_165\n        /* \"#utility.yul\":4272:4277   */\n      dup4\n        /* \"#utility.yul\":4222:4278   */\n      tag_99\n      jump\t// in\n    tag_165:\n        /* \"#utility.yul\":4301:4308   */\n      dup1\n        /* \"#utility.yul\":4332:4333   */\n      0x00\n        /* \"#utility.yul\":4317:4601   */\n    tag_166:\n        /* \"#utility.yul\":4342:4348   */\n      dup4\n        /* \"#utility.yul\":4339:4340   */\n      dup2\n        /* \"#utility.yul\":4336:4349   */\n      lt\n        /* \"#utility.yul\":4317:4601   */\n      iszero\n      tag_168\n      jumpi\n        /* \"#utility.yul\":4418:4424   */\n      dup2\n        /* \"#utility.yul\":4412:4425   */\n      mload\n        /* \"#utility.yul\":4445:4508   */\n      tag_169\n        /* \"#utility.yul\":4504:4507   */\n      dup9\n        /* \"#utility.yul\":4489:4502   */\n      dup3\n        /* \"#utility.yul\":4445:4508   */\n      tag_101\n      jump\t// in\n    tag_169:\n        /* \"#utility.yul\":4438:4508   */\n      swap8\n      pop\n        /* \"#utility.yul\":4531:4591   */\n      tag_170\n        /* \"#utility.yul\":4584:4590   */\n      dup4\n        /* \"#utility.yul\":4531:4591   */\n      tag_102\n      jump\t// in\n    tag_170:\n        /* \"#utility.yul\":4521:4591   */\n      swap3\n      pop\n        /* \"#utility.yul\":4377:4601   */\n      pop\n        /* \"#utility.yul\":4364:4365   */\n      0x01\n        /* \"#utility.yul\":4361:4362   */\n      dup2\n        /* \"#utility.yul\":4357:4366   */\n      add\n        /* \"#utility.yul\":4352:4366   */\n      swap1\n      pop\n        /* \"#utility.yul\":4317:4601   */\n      jump(tag_166)\n    tag_168:\n        /* \"#utility.yul\":4321:4335   */\n      pop\n        /* \"#utility.yul\":4617:4620   */\n      dup6\n        /* \"#utility.yul\":4610:4620   */\n      swap4\n      pop\n        /* \"#utility.yul\":4018:4626   */\n      pop\n      pop\n      pop\n        /* \"#utility.yul\":3894:4626   */\n      swap3\n      swap2\n      pop\n      pop\n      jump\t// out\n        /* \"#utility.yul\":4632:5005   */\n    tag_53:\n        /* \"#utility.yul\":4775:4779   */\n      0x00\n        /* \"#utility.yul\":4813:4815   */\n      0x20\n        /* \"#utility.yul\":4802:4811   */\n      dup3\n        /* \"#utility.yul\":4798:4816   */\n      add\n        /* \"#utility.yul\":4790:4816   */\n      swap1\n      pop\n        /* \"#utility.yul\":4862:4871   */\n      dup2\n        /* \"#utility.yul\":4856:4860   */\n      dup2\n        /* \"#utility.yul\":4852:4872   */\n      sub\n        /* \"#utility.yul\":4848:4849   */\n      0x00\n        /* \"#utility.yul\":4837:4846   */\n      dup4\n        /* \"#utility.yul\":4833:4850   */\n      add\n        /* \"#utility.yul\":4826:4873   */\n      mstore\n        /* \"#utility.yul\":4890:4998   */\n      tag_172\n        /* \"#utility.yul\":4993:4997   */\n      dup2\n        /* \"#utility.yul\":4984:4990   */\n      dup5\n        /* \"#utility.yul\":4890:4998   */\n      tag_103\n      jump\t// in\n    tag_172:\n        /* \"#utility.yul\":4882:4998   */\n      swap1\n      pop\n        /* \"#utility.yul\":4632:5005   */\n      swap3\n      swap2\n      pop\n      pop\n      jump\t// out\n        /* \"#utility.yul\":5011:5180   */\n    tag_104:\n        /* \"#utility.yul\":5095:5106   */\n      0x00\n        /* \"#utility.yul\":5129:5135   */\n      dup3\n        /* \"#utility.yul\":5124:5127   */\n      dup3\n        /* \"#utility.yul\":5117:5136   */\n      mstore\n        /* \"#utility.yul\":5169:5173   */\n      0x20\n        /* \"#utility.yul\":5164:5167   */\n      dup3\n        /* \"#utility.yul\":5160:5174   */\n      add\n        /* \"#utility.yul\":5145:5174   */\n      swap1\n      pop\n        /* \"#utility.yul\":5011:5180   */\n      swap3\n      swap2\n      pop\n      pop\n      jump\t// out\n        /* \"#utility.yul\":5186:5347   */\n    tag_105:\n        /* \"#utility.yul\":5326:5339   */\n      0x206f6e6c79206f776e6572000000000000000000000000000000000000000000\n        /* \"#utility.yul\":5322:5323   */\n      0x00\n        /* \"#utility.yul\":5314:5320   */\n      dup3\n        /* \"#utility.yul\":5310:5324   */\n      add\n        /* \"#utility.yul\":5303:5340   */\n      mstore\n        /* \"#utility.yul\":5186:5347   */\n      pop\n      jump\t// out\n        /* \"#utility.yul\":5353:5719   */\n    tag_106:\n        /* \"#utility.yul\":5495:5498   */\n      0x00\n        /* \"#utility.yul\":5516:5583   */\n      tag_176\n        /* \"#utility.yul\":5580:5582   */\n      0x0b\n        /* \"#utility.yul\":5575:5578   */\n      dup4\n        /* \"#utility.yul\":5516:5583   */\n      tag_104\n      jump\t// in\n    tag_176:\n        /* \"#utility.yul\":5509:5583   */\n      swap2\n      pop\n        /* \"#utility.yul\":5592:5685   */\n      tag_177\n        /* \"#utility.yul\":5681:5684   */\n      dup3\n        /* \"#utility.yul\":5592:5685   */\n      tag_105\n      jump\t// in\n    tag_177:\n        /* \"#utility.yul\":5710:5712   */\n      0x20\n        /* \"#utility.yul\":5705:5708   */\n      dup3\n        /* \"#utility.yul\":5701:5713   */\n      add\n        /* \"#utility.yul\":5694:5713   */\n      swap1\n      pop\n        /* \"#utility.yul\":5353:5719   */\n      swap2\n      swap1\n      pop\n      jump\t// out\n        /* \"#utility.yul\":5725:6144   */\n    tag_58:\n        /* \"#utility.yul\":5891:5895   */\n      0x00\n        /* \"#utility.yul\":5929:5931   */\n      0x20\n        /* \"#utility.yul\":5918:5927   */\n      dup3\n        /* \"#utility.yul\":5914:5932   */\n      add\n        /* \"#utility.yul\":5906:5932   */\n      swap1\n      pop\n        /* \"#utility.yul\":5978:5987   */\n      dup2\n        /* \"#utility.yul\":5972:5976   */\n      dup2\n        /* \"#utility.yul\":5968:5988   */\n      sub\n        /* \"#utility.yul\":5964:5965   */\n      0x00\n        /* \"#utility.yul\":5953:5962   */\n      dup4\n        /* \"#utility.yul\":5949:5966   */\n      add\n        /* \"#utility.yul\":5942:5989   */\n      mstore\n        /* \"#utility.yul\":6006:6137   */\n      tag_179\n        /* \"#utility.yul\":6132:6136   */\n      dup2\n        /* \"#utility.yul\":6006:6137   */\n      tag_106\n      jump\t// in\n    tag_179:\n        /* \"#utility.yul\":5998:6137   */\n      swap1\n      pop\n        /* \"#utility.yul\":5725:6144   */\n      swap2\n      swap1\n      pop\n      jump\t// out\n        /* \"#utility.yul\":6150:6297   */\n    tag_107:\n        /* \"#utility.yul\":6251:6262   */\n      0x00\n        /* \"#utility.yul\":6288:6291   */\n      dup2\n        /* \"#utility.yul\":6273:6291   */\n      swap1\n      pop\n        /* \"#utility.yul\":6150:6297   */\n      swap3\n      swap2\n      pop\n      pop\n      jump\t// out\n        /* \"#utility.yul\":6303:6417   */\n    tag_108:\n      pop\n      jump\t// out\n        /* \"#utility.yul\":6423:6821   */\n    tag_109:\n        /* \"#utility.yul\":6582:6585   */\n      0x00\n        /* \"#utility.yul\":6603:6686   */\n      tag_183\n        /* \"#utility.yul\":6684:6685   */\n      0x00\n        /* \"#utility.yul\":6679:6682   */\n      dup4\n        /* \"#utility.yul\":6603:6686   */\n      tag_107\n      jump\t// in\n    tag_183:\n        /* \"#utility.yul\":6596:6686   */\n      swap2\n      pop\n        /* \"#utility.yul\":6695:6788   */\n      tag_184\n        /* \"#utility.yul\":6784:6787   */\n      dup3\n        /* \"#utility.yul\":6695:6788   */\n      tag_108\n      jump\t// in\n    tag_184:\n        /* \"#utility.yul\":6813:6814   */\n      0x00\n        /* \"#utility.yul\":6808:6811   */\n      dup3\n        /* \"#utility.yul\":6804:6815   */\n      add\n        /* \"#utility.yul\":6797:6815   */\n      swap1\n      pop\n        /* \"#utility.yul\":6423:6821   */\n      swap2\n      swap1\n      pop\n      jump\t// out\n        /* \"#utility.yul\":6827:7206   */\n    tag_61:\n        /* \"#utility.yul\":7011:7014   */\n      0x00\n        /* \"#utility.yul\":7033:7180   */\n      tag_186\n        /* \"#utility.yul\":7176:7179   */\n      dup3\n        /* \"#utility.yul\":7033:7180   */\n      tag_109\n      jump\t// in\n    tag_186:\n        /* \"#utility.yul\":7026:7180   */\n      swap2\n      pop\n        /* \"#utility.yul\":7197:7200   */\n      dup2\n        /* \"#utility.yul\":7190:7200   */\n      swap1\n      pop\n        /* \"#utility.yul\":6827:7206   */\n      swap2\n      swap1\n      pop\n      jump\t// out\n        /* \"#utility.yul\":7212:7379   */\n    tag_110:\n        /* \"#utility.yul\":7352:7371   */\n      0x7472616e736665726564206661696c6564000000000000000000000000000000\n        /* \"#utility.yul\":7348:7349   */\n      0x00\n        /* \"#utility.yul\":7340:7346   */\n      dup3\n        /* \"#utility.yul\":7336:7350   */\n      add\n        /* \"#utility.yul\":7329:7372   */\n      mstore\n        /* \"#utility.yul\":7212:7379   */\n      pop\n      jump\t// out\n        /* \"#utility.yul\":7385:7751   */\n    tag_111:\n        /* \"#utility.yul\":7527:7530   */\n      0x00\n        /* \"#utility.yul\":7548:7615   */\n      tag_189\n        /* \"#utility.yul\":7612:7614   */\n      0x11\n        /* \"#utility.yul\":7607:7610   */\n      dup4\n        /* \"#utility.yul\":7548:7615   */\n      tag_104\n      jump\t// in\n    tag_189:\n        /* \"#utility.yul\":7541:7615   */\n      swap2\n      pop\n        /* \"#utility.yul\":7624:7717   */\n      tag_190\n        /* \"#utility.yul\":7713:7716   */\n      dup3\n        /* \"#utility.yul\":7624:7717   */\n      tag_110\n      jump\t// in\n    tag_190:\n        /* \"#utility.yul\":7742:7744   */\n      0x20\n        /* \"#utility.yul\":7737:7740   */\n      dup3\n        /* \"#utility.yul\":7733:7745   */\n      add\n        /* \"#utility.yul\":7726:7745   */\n      swap1\n      pop\n        /* \"#utility.yul\":7385:7751   */\n      swap2\n      swap1\n      pop\n      jump\t// out\n        /* \"#utility.yul\":7757:8176   */\n    tag_67:\n        /* \"#utility.yul\":7923:7927   */\n      0x00\n        /* \"#utility.yul\":7961:7963   */\n      0x20\n        /* \"#utility.yul\":7950:7959   */\n      dup3\n        /* \"#utility.yul\":7946:7964   */\n      add\n        /* \"#utility.yul\":7938:7964   */\n      swap1\n      pop\n        /* \"#utility.yul\":8010:8019   */\n      dup2\n        /* \"#utility.yul\":8004:8008   */\n      dup2\n        /* \"#utility.yul\":8000:8020   */\n      sub\n        /* \"#utility.yul\":7996:7997   */\n      0x00\n        /* \"#utility.yul\":7985:7994   */\n      dup4\n        /* \"#utility.yul\":7981:7998   */\n      add\n        /* \"#utility.yul\":7974:8021   */\n      mstore\n        /* \"#utility.yul\":8038:8169   */\n      tag_192\n        /* \"#utility.yul\":8164:8168   */\n      dup2\n        /* \"#utility.yul\":8038:8169   */\n      tag_111\n      jump\t// in\n    tag_192:\n        /* \"#utility.yul\":8030:8169   */\n      swap1\n      pop\n        /* \"#utility.yul\":7757:8176   */\n      swap2\n      swap1\n      pop\n      jump\t// out\n        /* \"#utility.yul\":8182:8345   */\n    tag_112:\n        /* \"#utility.yul\":8322:8337   */\n      0x30206e6f7420616c6c6f77656400000000000000000000000000000000000000\n        /* \"#utility.yul\":8318:8319   */\n      0x00\n        /* \"#utility.yul\":8310:8316   */\n      dup3\n        /* \"#utility.yul\":8306:8320   */\n      add\n        /* \"#utility.yul\":8299:8338   */\n      mstore\n        /* \"#utility.yul\":8182:8345   */\n      pop\n      jump\t// out\n        /* \"#utility.yul\":8351:8717   */\n    tag_113:\n        /* \"#utility.yul\":8493:8496   */\n      0x00\n        /* \"#utility.yul\":8514:8581   */\n      tag_195\n        /* \"#utility.yul\":8578:8580   */\n      0x0d\n        /* \"#utility.yul\":8573:8576   */\n      dup4\n        /* \"#utility.yul\":8514:8581   */\n      tag_104\n      jump\t// in\n    tag_195:\n        /* \"#utility.yul\":8507:8581   */\n      swap2\n      pop\n        /* \"#utility.yul\":8590:8683   */\n      tag_196\n        /* \"#utility.yul\":8679:8682   */\n      dup3\n        /* \"#utility.yul\":8590:8683   */\n      tag_112\n      jump\t// in\n    tag_196:\n        /* \"#utility.yul\":8708:8710   */\n      0x20\n        /* \"#utility.yul\":8703:8706   */\n      dup3\n        /* \"#utility.yul\":8699:8711   */\n      add\n        /* \"#utility.yul\":8692:8711   */\n      swap1\n      pop\n        /* \"#utility.yul\":8351:8717   */\n      swap2\n      swap1\n      pop\n      jump\t// out\n        /* \"#utility.yul\":8723:9142   */\n    tag_75:\n        /* \"#utility.yul\":8889:8893   */\n      0x00\n        /* \"#utility.yul\":8927:8929   */\n      0x20\n        /* \"#utility.yul\":8916:8925   */\n      dup3\n        /* \"#utility.yul\":8912:8930   */\n      add\n        /* \"#utility.yul\":8904:8930   */\n      swap1\n      pop\n        /* \"#utility.yul\":8976:8985   */\n      dup2\n        /* \"#utility.yul\":8970:8974   */\n      dup2\n        /* \"#utility.yul\":8966:8986   */\n      sub\n        /* \"#utility.yul\":8962:8963   */\n      0x00\n        /* \"#utility.yul\":8951:8960   */\n      dup4\n        /* \"#utility.yul\":8947:8964   */\n      add\n        /* \"#utility.yul\":8940:8987   */\n      mstore\n        /* \"#utility.yul\":9004:9135   */\n      tag_198\n        /* \"#utility.yul\":9130:9134   */\n      dup2\n        /* \"#utility.yul\":9004:9135   */\n      tag_113\n      jump\t// in\n    tag_198:\n        /* \"#utility.yul\":8996:9135   */\n      swap1\n      pop\n        /* \"#utility.yul\":8723:9142   */\n      swap2\n      swap1\n      pop\n      jump\t// out\n        /* \"#utility.yul\":9148:9328   */\n    tag_114:\n        /* \"#utility.yul\":9196:9273   */\n      0x4e487b7100000000000000000000000000000000000000000000000000000000\n        /* \"#utility.yul\":9193:9194   */\n      0x00\n        /* \"#utility.yul\":9186:9274   */\n      mstore\n        /* \"#utility.yul\":9293:9297   */\n      0x11\n        /* \"#utility.yul\":9290:9291   */\n      0x04\n        /* \"#utility.yul\":9283:9298   */\n      mstore\n        /* \"#utility.yul\":9317:9321   */\n      0x24\n        /* \"#utility.yul\":9314:9315   */\n      0x00\n        /* \"#utility.yul\":9307:9322   */\n      revert\n        /* \"#utility.yul\":9334:9525   */\n    tag_77:\n        /* \"#utility.yul\":9374:9377   */\n      0x00\n        /* \"#utility.yul\":9393:9413   */\n      tag_201\n        /* \"#utility.yul\":9411:9412   */\n      dup3\n        /* \"#utility.yul\":9393:9413   */\n      tag_83\n      jump\t// in\n    tag_201:\n        /* \"#utility.yul\":9388:9413   */\n      swap2\n      pop\n        /* \"#utility.yul\":9427:9447   */\n      tag_202\n        /* \"#utility.yul\":9445:9446   */\n      dup4\n        /* \"#utility.yul\":9427:9447   */\n      tag_83\n      jump\t// in\n    tag_202:\n        /* \"#utility.yul\":9422:9447   */\n      swap3\n      pop\n        /* \"#utility.yul\":9470:9471   */\n      dup3\n        /* \"#utility.yul\":9467:9468   */\n      dup3\n        /* \"#utility.yul\":9463:9472   */\n      add\n        /* \"#utility.yul\":9456:9472   */\n      swap1\n      pop\n        /* \"#utility.yul\":9491:9494   */\n      dup1\n        /* \"#utility.yul\":9488:9489   */\n      dup3\n        /* \"#utility.yul\":9485:9495   */\n      gt\n        /* \"#utility.yul\":9482:9518   */\n      iszero\n      tag_203\n      jumpi\n        /* \"#utility.yul\":9498:9516   */\n      tag_204\n      tag_114\n      jump\t// in\n    tag_204:\n        /* \"#utility.yul\":9482:9518   */\n    tag_203:\n        /* \"#utility.yul\":9334:9525   */\n      swap3\n      swap2\n      pop\n      pop\n      jump\t// out\n\n    auxdata: 0xa26469706673582212200be460635d2443875e3097c1bfce8b14de85e01a562301d869a2dc693394516064736f6c634300081e0033\n}\n",
				"bytecode": {
					"linkReferences": {},
					"object": "6080604052348015600e575f5ffd5b50335f5f6101000a81548173ffffffffffffffffffffffffffffffffffffffff021916908373ffffffffffffffffffffffffffffffffffffffff160217905550610a128061005b5f395ff3fe608060405260043610610085575f3560e01c80638796c333116100585780638796c333146101415780638da5cb5b1461016b578063a50ec32614610195578063dc0d3dff1461019f578063ea63a044146101db57610085565b806312065fe0146100895780631ea48870146100b35780633ccfd60b146100ef57806381e7e20e14610105575b5f5ffd5b348015610094575f5ffd5b5061009d610205565b6040516100aa91906105ca565b60405180910390f35b3480156100be575f5ffd5b506100d960048036038101906100d49190610641565b61020c565b6040516100e69190610686565b60405180910390f35b3480156100fa575f5ffd5b50610103610229565b005b348015610110575f5ffd5b5061012b60048036038101906101269190610641565b610387565b60405161013891906105ca565b60405180910390f35b34801561014c575f5ffd5b5061015561039c565b60405161016291906105ca565b60405180910390f35b348015610176575f5ffd5b5061017f610431565b60405161018c91906106ae565b60405180910390f35b61019d610455565b005b3480156101aa575f5ffd5b506101c560048036038101906101c091906106f1565b6104ec565b6040516101d291906106ae565b60405180910390f35b3480156101e6575f5ffd5b506101ef610527565b6040516101fc91906107d3565b60405180910390f35b5f47905090565b6002602052805f5260405f205f915054906101000a900460ff1681565b3373ffffffffffffffffffffffffffffffffffffffff165f5f9054906101000a900473ffffffffffffffffffffffffffffffffffffffff1673ffffffffffffffffffffffffffffffffffffffff16146102b7576040517f08c379a00000000000000000000000000000000000000000000000000000000081526004016102ae9061084d565b60405180910390fd5b5f4790505f5f5f9054906101000a900473ffffffffffffffffffffffffffffffffffffffff1673ffffffffffffffffffffffffffffffffffffffff168260405161030090610898565b5f6040518083038185875af1925050503d805f811461033a576040519150601f19603f3d011682016040523d82523d5f602084013e61033f565b606091505b5050905080610383576040517f08c379a000000000000000000000000000000000000000000000000000000000815260040161037a906108f6565b60405180910390fd5b5050565b6001602052805f5260405f205f915090505481565b5f3373ffffffffffffffffffffffffffffffffffffffff165f5f9054906101000a900473ffffffffffffffffffffffffffffffffffffffff1673ffffffffffffffffffffffffffffffffffffffff161461042b576040517f08c379a00000000000000000000000000000000000000000000000000000000081526004016104229061084d565b60405180910390fd5b47905090565b5f5f9054906101000a900473ffffffffffffffffffffffffffffffffffffffff1681565b5f3411610497576040517f08c379a000000000000000000000000000000000000000000000000000000000815260040161048e9061095e565b60405180910390fd5b3460015f3373ffffffffffffffffffffffffffffffffffffffff1673ffffffffffffffffffffffffffffffffffffffff1681526020019081526020015f205f8282546104e391906109a9565b92505081905550565b600381815481106104fb575f80fd5b905f5260205f20015f915054906101000a900473ffffffffffffffffffffffffffffffffffffffff1681565b606060038054806020026020016040519081016040528092919081815260200182805480156105a857602002820191905f5260205f20905b815f9054906101000a900473ffffffffffffffffffffffffffffffffffffffff1673ffffffffffffffffffffffffffffffffffffffff168152602001906001019080831161055f575b5050505050905090565b5f819050919050565b6105c4816105b2565b82525050565b5f6020820190506105dd5f8301846105bb565b92915050565b5f5ffd5b5f73ffffffffffffffffffffffffffffffffffffffff82169050919050565b5f610610826105e7565b9050919050565b61062081610606565b811461062a575f5ffd5b50565b5f8135905061063b81610617565b92915050565b5f60208284031215610656576106556105e3565b5b5f6106638482850161062d565b91505092915050565b5f8115159050919050565b6106808161066c565b82525050565b5f6020820190506106995f830184610677565b92915050565b6106a881610606565b82525050565b5f6020820190506106c15f83018461069f565b92915050565b6106d0816105b2565b81146106da575f5ffd5b50565b5f813590506106eb816106c7565b92915050565b5f60208284031215610706576107056105e3565b5b5f610713848285016106dd565b91505092915050565b5f81519050919050565b5f82825260208201905092915050565b5f819050602082019050919050565b61074e81610606565b82525050565b5f61075f8383610745565b60208301905092915050565b5f602082019050919050565b5f6107818261071c565b61078b8185610726565b935061079683610736565b805f5b838110156107c65781516107ad8882610754565b97506107b88361076b565b925050600181019050610799565b5085935050505092915050565b5f6020820190508181035f8301526107eb8184610777565b905092915050565b5f82825260208201905092915050565b7f206f6e6c79206f776e65720000000000000000000000000000000000000000005f82015250565b5f610837600b836107f3565b915061084282610803565b602082019050919050565b5f6020820190508181035f8301526108648161082b565b9050919050565b5f81905092915050565b50565b5f6108835f8361086b565b915061088e82610875565b5f82019050919050565b5f6108a282610878565b9150819050919050565b7f7472616e736665726564206661696c65640000000000000000000000000000005f82015250565b5f6108e06011836107f3565b91506108eb826108ac565b602082019050919050565b5f6020820190508181035f83015261090d816108d4565b9050919050565b7f30206e6f7420616c6c6f776564000000000000000000000000000000000000005f82015250565b5f610948600d836107f3565b915061095382610914565b602082019050919050565b5f6020820190508181035f8301526109758161093c565b9050919050565b7f4e487b71000000000000000000000000000000000000000000000000000000005f52601160045260245ffd5b5f6109b3826105b2565b91506109be836105b2565b92508282019050808211156109d6576109d561097c565b5b9291505056fea26469706673582212200be460635d2443875e3097c1bfce8b14de85e01a562301d869a2dc693394516064736f6c634300081e0033",
					"opcodes": "PUSH1 0x80 PUSH1 0x40 MSTORE CALLVALUE DUP1 ISZERO PUSH1 0xE JUMPI PUSH0 PUSH0 REVERT JUMPDEST POP CALLER PUSH0 PUSH0 PUSH2 0x100 EXP DUP2 SLOAD DUP2 PUSH20 0xFFFFFFFFFFFFFFFFFFFFFFFFFFFFFFFFFFFFFFFF MUL NOT AND SWAP1 DUP4 PUSH20 0xFFFFFFFFFFFFFFFFFFFFFFFFFFFFFFFFFFFFFFFF AND MUL OR SWAP1 SSTORE POP PUSH2 0xA12 DUP1 PUSH2 0x5B PUSH0 CODECOPY PUSH0 RETURN INVALID PUSH1 0x80 PUSH1 0x40 MSTORE PUSH1 0x4 CALLDATASIZE LT PUSH2 0x85 JUMPI PUSH0 CALLDATALOAD PUSH1 0xE0 SHR DUP1 PUSH4 0x8796C333 GT PUSH2 0x58 JUMPI DUP1 PUSH4 0x8796C333 EQ PUSH2 0x141 JUMPI DUP1 PUSH4 0x8DA5CB5B EQ PUSH2 0x16B JUMPI DUP1 PUSH4 0xA50EC326 EQ PUSH2 0x195 JUMPI DUP1 PUSH4 0xDC0D3DFF EQ PUSH2 0x19F JUMPI DUP1 PUSH4 0xEA63A044 EQ PUSH2 0x1DB JUMPI PUSH2 0x85 JUMP JUMPDEST DUP1 PUSH4 0x12065FE0 EQ PUSH2 0x89 JUMPI DUP1 PUSH4 0x1EA48870 EQ PUSH2 0xB3 JUMPI DUP1 PUSH4 0x3CCFD60B EQ PUSH2 0xEF JUMPI DUP1 PUSH4 0x81E7E20E EQ PUSH2 0x105 JUMPI JUMPDEST PUSH0 PUSH0 REVERT JUMPDEST CALLVALUE DUP1 ISZERO PUSH2 0x94 JUMPI PUSH0 PUSH0 REVERT JUMPDEST POP PUSH2 0x9D PUSH2 0x205 JUMP JUMPDEST PUSH1 0x40 MLOAD PUSH2 0xAA SWAP2 SWAP1 PUSH2 0x5CA JUMP JUMPDEST PUSH1 0x40 MLOAD DUP1 SWAP2 SUB SWAP1 RETURN JUMPDEST CALLVALUE DUP1 ISZERO PUSH2 0xBE JUMPI PUSH0 PUSH0 REVERT JUMPDEST POP PUSH2 0xD9 PUSH1 0x4 DUP1 CALLDATASIZE SUB DUP2 ADD SWAP1 PUSH2 0xD4 SWAP2 SWAP1 PUSH2 0x641 JUMP JUMPDEST PUSH2 0x20C JUMP JUMPDEST PUSH1 0x40 MLOAD PUSH2 0xE6 SWAP2 SWAP1 PUSH2 0x686 JUMP JUMPDEST PUSH1 0x40 MLOAD DUP1 SWAP2 SUB SWAP1 RETURN JUMPDEST CALLVALUE DUP1 ISZERO PUSH2 0xFA JUMPI PUSH0 PUSH0 REVERT JUMPDEST POP PUSH2 0x103 PUSH2 0x229 JUMP JUMPDEST STOP JUMPDEST CALLVALUE DUP1 ISZERO PUSH2 0x110 JUMPI PUSH0 PUSH0 REVERT JUMPDEST POP PUSH2 0x12B PUSH1 0x4 DUP1 CALLDATASIZE SUB DUP2 ADD SWAP1 PUSH2 0x126 SWAP2 SWAP1 PUSH2 0x641 JUMP JUMPDEST PUSH2 0x387 JUMP JUMPDEST PUSH1 0x40 MLOAD PUSH2 0x138 SWAP2 SWAP1 PUSH2 0x5CA JUMP JUMPDEST PUSH1 0x40 MLOAD DUP1 SWAP2 SUB SWAP1 RETURN JUMPDEST CALLVALUE DUP1 ISZERO PUSH2 0x14C JUMPI PUSH0 PUSH0 REVERT JUMPDEST POP PUSH2 0x155 PUSH2 0x39C JUMP JUMPDEST PUSH1 0x40 MLOAD PUSH2 0x162 SWAP2 SWAP1 PUSH2 0x5CA JUMP JUMPDEST PUSH1 0x40 MLOAD DUP1 SWAP2 SUB SWAP1 RETURN JUMPDEST CALLVALUE DUP1 ISZERO PUSH2 0x176 JUMPI PUSH0 PUSH0 REVERT JUMPDEST POP PUSH2 0x17F PUSH2 0x431 JUMP JUMPDEST PUSH1 0x40 MLOAD PUSH2 0x18C SWAP2 SWAP1 PUSH2 0x6AE JUMP JUMPDEST PUSH1 0x40 MLOAD DUP1 SWAP2 SUB SWAP1 RETURN JUMPDEST PUSH2 0x19D PUSH2 0x455 JUMP JUMPDEST STOP JUMPDEST CALLVALUE DUP1 ISZERO PUSH2 0x1AA JUMPI PUSH0 PUSH0 REVERT JUMPDEST POP PUSH2 0x1C5 PUSH1 0x4 DUP1 CALLDATASIZE SUB DUP2 ADD SWAP1 PUSH2 0x1C0 SWAP2 SWAP1 PUSH2 0x6F1 JUMP JUMPDEST PUSH2 0x4EC JUMP JUMPDEST PUSH1 0x40 MLOAD PUSH2 0x1D2 SWAP2 SWAP1 PUSH2 0x6AE JUMP JUMPDEST PUSH1 0x40 MLOAD DUP1 SWAP2 SUB SWAP1 RETURN JUMPDEST CALLVALUE DUP1 ISZERO PUSH2 0x1E6 JUMPI PUSH0 PUSH0 REVERT JUMPDEST POP PUSH2 0x1EF PUSH2 0x527 JUMP JUMPDEST PUSH1 0x40 MLOAD PUSH2 0x1FC SWAP2 SWAP1 PUSH2 0x7D3 JUMP JUMPDEST PUSH1 0x40 MLOAD DUP1 SWAP2 SUB SWAP1 RETURN JUMPDEST PUSH0 SELFBALANCE SWAP1 POP SWAP1 JUMP JUMPDEST PUSH1 0x2 PUSH1 0x20 MSTORE DUP1 PUSH0 MSTORE PUSH1 0x40 PUSH0 KECCAK256 PUSH0 SWAP2 POP SLOAD SWAP1 PUSH2 0x100 EXP SWAP1 DIV PUSH1 0xFF AND DUP2 JUMP JUMPDEST CALLER PUSH20 0xFFFFFFFFFFFFFFFFFFFFFFFFFFFFFFFFFFFFFFFF AND PUSH0 PUSH0 SWAP1 SLOAD SWAP1 PUSH2 0x100 EXP SWAP1 DIV PUSH20 0xFFFFFFFFFFFFFFFFFFFFFFFFFFFFFFFFFFFFFFFF AND PUSH20 0xFFFFFFFFFFFFFFFFFFFFFFFFFFFFFFFFFFFFFFFF AND EQ PUSH2 0x2B7 JUMPI PUSH1 0x40 MLOAD PUSH32 0x8C379A000000000000000000000000000000000000000000000000000000000 DUP2 MSTORE PUSH1 0x4 ADD PUSH2 0x2AE SWAP1 PUSH2 0x84D JUMP JUMPDEST PUSH1 0x40 MLOAD DUP1 SWAP2 SUB SWAP1 REVERT JUMPDEST PUSH0 SELFBALANCE SWAP1 POP PUSH0 PUSH0 PUSH0 SWAP1 SLOAD SWAP1 PUSH2 0x100 EXP SWAP1 DIV PUSH20 0xFFFFFFFFFFFFFFFFFFFFFFFFFFFFFFFFFFFFFFFF AND PUSH20 0xFFFFFFFFFFFFFFFFFFFFFFFFFFFFFFFFFFFFFFFF AND DUP3 PUSH1 0x40 MLOAD PUSH2 0x300 SWAP1 PUSH2 0x898 JUMP JUMPDEST PUSH0 PUSH1 0x40 MLOAD DUP1 DUP4 SUB DUP2 DUP6 DUP8 GAS CALL SWAP3 POP POP POP RETURNDATASIZE DUP1 PUSH0 DUP2 EQ PUSH2 0x33A JUMPI PUSH1 0x40 MLOAD SWAP2 POP PUSH1 0x1F NOT PUSH1 0x3F RETURNDATASIZE ADD AND DUP3 ADD PUSH1 0x40 MSTORE RETURNDATASIZE DUP3 MSTORE RETURNDATASIZE PUSH0 PUSH1 0x20 DUP5 ADD RETURNDATACOPY PUSH2 0x33F JUMP JUMPDEST PUSH1 0x60 SWAP2 POP JUMPDEST POP POP SWAP1 POP DUP1 PUSH2 0x383 JUMPI PUSH1 0x40 MLOAD PUSH32 0x8C379A000000000000000000000000000000000000000000000000000000000 DUP2 MSTORE PUSH1 0x4 ADD PUSH2 0x37A SWAP1 PUSH2 0x8F6 JUMP JUMPDEST PUSH1 0x40 MLOAD DUP1 SWAP2 SUB SWAP1 REVERT JUMPDEST POP POP JUMP JUMPDEST PUSH1 0x1 PUSH1 0x20 MSTORE DUP1 PUSH0 MSTORE PUSH1 0x40 PUSH0 KECCAK256 PUSH0 SWAP2 POP SWAP1 POP SLOAD DUP2 JUMP JUMPDEST PUSH0 CALLER PUSH20 0xFFFFFFFFFFFFFFFFFFFFFFFFFFFFFFFFFFFFFFFF AND PUSH0 PUSH0 SWAP1 SLOAD SWAP1 PUSH2 0x100 EXP SWAP1 DIV PUSH20 0xFFFFFFFFFFFFFFFFFFFFFFFFFFFFFFFFFFFFFFFF AND PUSH20 0xFFFFFFFFFFFFFFFFFFFFFFFFFFFFFFFFFFFFFFFF AND EQ PUSH2 0x42B JUMPI PUSH1 0x40 MLOAD PUSH32 0x8C379A000000000000000000000000000000000000000000000000000000000 DUP2 MSTORE PUSH1 0x4 ADD PUSH2 0x422 SWAP1 PUSH2 0x84D JUMP JUMPDEST PUSH1 0x40 MLOAD DUP1 SWAP2 SUB SWAP1 REVERT JUMPDEST SELFBALANCE SWAP1 POP SWAP1 JUMP JUMPDEST PUSH0 PUSH0 SWAP1 SLOAD SWAP1 PUSH2 0x100 EXP SWAP1 DIV PUSH20 0xFFFFFFFFFFFFFFFFFFFFFFFFFFFFFFFFFFFFFFFF AND DUP2 JUMP JUMPDEST PUSH0 CALLVALUE GT PUSH2 0x497 JUMPI PUSH1 0x40 MLOAD PUSH32 0x8C379A000000000000000000000000000000000000000000000000000000000 DUP2 MSTORE PUSH1 0x4 ADD PUSH2 0x48E SWAP1 PUSH2 0x95E JUMP JUMPDEST PUSH1 0x40 MLOAD DUP1 SWAP2 SUB SWAP1 REVERT JUMPDEST CALLVALUE PUSH1 0x1 PUSH0 CALLER PUSH20 0xFFFFFFFFFFFFFFFFFFFFFFFFFFFFFFFFFFFFFFFF AND PUSH20 0xFFFFFFFFFFFFFFFFFFFFFFFFFFFFFFFFFFFFFFFF AND DUP2 MSTORE PUSH1 0x20 ADD SWAP1 DUP2 MSTORE PUSH1 0x20 ADD PUSH0 KECCAK256 PUSH0 DUP3 DUP3 SLOAD PUSH2 0x4E3 SWAP2 SWAP1 PUSH2 0x9A9 JUMP JUMPDEST SWAP3 POP POP DUP2 SWAP1 SSTORE POP JUMP JUMPDEST PUSH1 0x3 DUP2 DUP2 SLOAD DUP2 LT PUSH2 0x4FB JUMPI PUSH0 DUP1 REVERT JUMPDEST SWAP1 PUSH0 MSTORE PUSH1 0x20 PUSH0 KECCAK256 ADD PUSH0 SWAP2 POP SLOAD SWAP1 PUSH2 0x100 EXP SWAP1 DIV PUSH20 0xFFFFFFFFFFFFFFFFFFFFFFFFFFFFFFFFFFFFFFFF AND DUP2 JUMP JUMPDEST PUSH1 0x60 PUSH1 0x3 DUP1 SLOAD DUP1 PUSH1 0x20 MUL PUSH1 0x20 ADD PUSH1 0x40 MLOAD SWAP1 DUP2 ADD PUSH1 0x40 MSTORE DUP1 SWAP3 SWAP2 SWAP1 DUP2 DUP2 MSTORE PUSH1 0x20 ADD DUP3 DUP1 SLOAD DUP1 ISZERO PUSH2 0x5A8 JUMPI PUSH1 0x20 MUL DUP3 ADD SWAP2 SWAP1 PUSH0 MSTORE PUSH1 0x20 PUSH0 KECCAK256 SWAP1 JUMPDEST DUP2 PUSH0 SWAP1 SLOAD SWAP1 PUSH2 0x100 EXP SWAP1 DIV PUSH20 0xFFFFFFFFFFFFFFFFFFFFFFFFFFFFFFFFFFFFFFFF AND PUSH20 0xFFFFFFFFFFFFFFFFFFFFFFFFFFFFFFFFFFFFFFFF AND DUP2 MSTORE PUSH1 0x20 ADD SWAP1 PUSH1 0x1 ADD SWAP1 DUP1 DUP4 GT PUSH2 0x55F JUMPI JUMPDEST POP POP POP POP POP SWAP1 POP SWAP1 JUMP JUMPDEST PUSH0 DUP2 SWAP1 POP SWAP2 SWAP1 POP JUMP JUMPDEST PUSH2 0x5C4 DUP2 PUSH2 0x5B2 JUMP JUMPDEST DUP3 MSTORE POP POP JUMP JUMPDEST PUSH0 PUSH1 0x20 DUP3 ADD SWAP1 POP PUSH2 0x5DD PUSH0 DUP4 ADD DUP5 PUSH2 0x5BB JUMP JUMPDEST SWAP3 SWAP2 POP POP JUMP JUMPDEST PUSH0 PUSH0 REVERT JUMPDEST PUSH0 PUSH20 0xFFFFFFFFFFFFFFFFFFFFFFFFFFFFFFFFFFFFFFFF DUP3 AND SWAP1 POP SWAP2 SWAP1 POP JUMP JUMPDEST PUSH0 PUSH2 0x610 DUP3 PUSH2 0x5E7 JUMP JUMPDEST SWAP1 POP SWAP2 SWAP1 POP JUMP JUMPDEST PUSH2 0x620 DUP2 PUSH2 0x606 JUMP JUMPDEST DUP2 EQ PUSH2 0x62A JUMPI PUSH0 PUSH0 REVERT JUMPDEST POP JUMP JUMPDEST PUSH0 DUP2 CALLDATALOAD SWAP1 POP PUSH2 0x63B DUP2 PUSH2 0x617 JUMP JUMPDEST SWAP3 SWAP2 POP POP JUMP JUMPDEST PUSH0 PUSH1 0x20 DUP3 DUP5 SUB SLT ISZERO PUSH2 0x656 JUMPI PUSH2 0x655 PUSH2 0x5E3 JUMP JUMPDEST JUMPDEST PUSH0 PUSH2 0x663 DUP5 DUP3 DUP6 ADD PUSH2 0x62D JUMP JUMPDEST SWAP2 POP POP SWAP3 SWAP2 POP POP JUMP JUMPDEST PUSH0 DUP2 ISZERO ISZERO SWAP1 POP SWAP2 SWAP1 POP JUMP JUMPDEST PUSH2 0x680 DUP2 PUSH2 0x66C JUMP JUMPDEST DUP3 MSTORE POP POP JUMP JUMPDEST PUSH0 PUSH1 0x20 DUP3 ADD SWAP1 POP PUSH2 0x699 PUSH0 DUP4 ADD DUP5 PUSH2 0x677 JUMP JUMPDEST SWAP3 SWAP2 POP POP JUMP JUMPDEST PUSH2 0x6A8 DUP2 PUSH2 0x606 JUMP JUMPDEST DUP3 MSTORE POP POP JUMP JUMPDEST PUSH0 PUSH1 0x20 DUP3 ADD SWAP1 POP PUSH2 0x6C1 PUSH0 DUP4 ADD DUP5 PUSH2 0x69F JUMP JUMPDEST SWAP3 SWAP2 POP POP JUMP JUMPDEST PUSH2 0x6D0 DUP2 PUSH2 0x5B2 JUMP JUMPDEST DUP2 EQ PUSH2 0x6DA JUMPI PUSH0 PUSH0 REVERT JUMPDEST POP JUMP JUMPDEST PUSH0 DUP2 CALLDATALOAD SWAP1 POP PUSH2 0x6EB DUP2 PUSH2 0x6C7 JUMP JUMPDEST SWAP3 SWAP2 POP POP JUMP JUMPDEST PUSH0 PUSH1 0x20 DUP3 DUP5 SUB SLT ISZERO PUSH2 0x706 JUMPI PUSH2 0x705 PUSH2 0x5E3 JUMP JUMPDEST JUMPDEST PUSH0 PUSH2 0x713 DUP5 DUP3 DUP6 ADD PUSH2 0x6DD JUMP JUMPDEST SWAP2 POP POP SWAP3 SWAP2 POP POP JUMP JUMPDEST PUSH0 DUP2 MLOAD SWAP1 POP SWAP2 SWAP1 POP JUMP JUMPDEST PUSH0 DUP3 DUP3 MSTORE PUSH1 0x20 DUP3 ADD SWAP1 POP SWAP3 SWAP2 POP POP JUMP JUMPDEST PUSH0 DUP2 SWAP1 POP PUSH1 0x20 DUP3 ADD SWAP1 POP SWAP2 SWAP1 POP JUMP JUMPDEST PUSH2 0x74E DUP2 PUSH2 0x606 JUMP JUMPDEST DUP3 MSTORE POP POP JUMP JUMPDEST PUSH0 PUSH2 0x75F DUP4 DUP4 PUSH2 0x745 JUMP JUMPDEST PUSH1 0x20 DUP4 ADD SWAP1 POP SWAP3 SWAP2 POP POP JUMP JUMPDEST PUSH0 PUSH1 0x20 DUP3 ADD SWAP1 POP SWAP2 SWAP1 POP JUMP JUMPDEST PUSH0 PUSH2 0x781 DUP3 PUSH2 0x71C JUMP JUMPDEST PUSH2 0x78B DUP2 DUP6 PUSH2 0x726 JUMP JUMPDEST SWAP4 POP PUSH2 0x796 DUP4 PUSH2 0x736 JUMP JUMPDEST DUP1 PUSH0 JUMPDEST DUP4 DUP2 LT ISZERO PUSH2 0x7C6 JUMPI DUP2 MLOAD PUSH2 0x7AD DUP9 DUP3 PUSH2 0x754 JUMP JUMPDEST SWAP8 POP PUSH2 0x7B8 DUP4 PUSH2 0x76B JUMP JUMPDEST SWAP3 POP POP PUSH1 0x1 DUP2 ADD SWAP1 POP PUSH2 0x799 JUMP JUMPDEST POP DUP6 SWAP4 POP POP POP POP SWAP3 SWAP2 POP POP JUMP JUMPDEST PUSH0 PUSH1 0x20 DUP3 ADD SWAP1 POP DUP2 DUP2 SUB PUSH0 DUP4 ADD MSTORE PUSH2 0x7EB DUP2 DUP5 PUSH2 0x777 JUMP JUMPDEST SWAP1 POP SWAP3 SWAP2 POP POP JUMP JUMPDEST PUSH0 DUP3 DUP3 MSTORE PUSH1 0x20 DUP3 ADD SWAP1 POP SWAP3 SWAP2 POP POP JUMP JUMPDEST PUSH32 0x206F6E6C79206F776E6572000000000000000000000000000000000000000000 PUSH0 DUP3 ADD MSTORE POP JUMP JUMPDEST PUSH0 PUSH2 0x837 PUSH1 0xB DUP4 PUSH2 0x7F3 JUMP JUMPDEST SWAP2 POP PUSH2 0x842 DUP3 PUSH2 0x803 JUMP JUMPDEST PUSH1 0x20 DUP3 ADD SWAP1 POP SWAP2 SWAP1 POP JUMP JUMPDEST PUSH0 PUSH1 0x20 DUP3 ADD SWAP1 POP DUP2 DUP2 SUB PUSH0 DUP4 ADD MSTORE PUSH2 0x864 DUP2 PUSH2 0x82B JUMP JUMPDEST SWAP1 POP SWAP2 SWAP1 POP JUMP JUMPDEST PUSH0 DUP2 SWAP1 POP SWAP3 SWAP2 POP POP JUMP JUMPDEST POP JUMP JUMPDEST PUSH0 PUSH2 0x883 PUSH0 DUP4 PUSH2 0x86B JUMP JUMPDEST SWAP2 POP PUSH2 0x88E DUP3 PUSH2 0x875 JUMP JUMPDEST PUSH0 DUP3 ADD SWAP1 POP SWAP2 SWAP1 POP JUMP JUMPDEST PUSH0 PUSH2 0x8A2 DUP3 PUSH2 0x878 JUMP JUMPDEST SWAP2 POP DUP2 SWAP1 POP SWAP2 SWAP1 POP JUMP JUMPDEST PUSH32 0x7472616E736665726564206661696C6564000000000000000000000000000000 PUSH0 DUP3 ADD MSTORE POP JUMP JUMPDEST PUSH0 PUSH2 0x8E0 PUSH1 0x11 DUP4 PUSH2 0x7F3 JUMP JUMPDEST SWAP2 POP PUSH2 0x8EB DUP3 PUSH2 0x8AC JUMP JUMPDEST PUSH1 0x20 DUP3 ADD SWAP1 POP SWAP2 SWAP1 POP JUMP JUMPDEST PUSH0 PUSH1 0x20 DUP3 ADD SWAP1 POP DUP2 DUP2 SUB PUSH0 DUP4 ADD MSTORE PUSH2 0x90D DUP2 PUSH2 0x8D4 JUMP JUMPDEST SWAP1 POP SWAP2 SWAP1 POP JUMP JUMPDEST PUSH32 0x30206E6F7420616C6C6F77656400000000000000000000000000000000000000 PUSH0 DUP3 ADD MSTORE POP JUMP JUMPDEST PUSH0 PUSH2 0x948 PUSH1 0xD DUP4 PUSH2 0x7F3 JUMP JUMPDEST SWAP2 POP PUSH2 0x953 DUP3 PUSH2 0x914 JUMP JUMPDEST PUSH1 0x20 DUP3 ADD SWAP1 POP SWAP2 SWAP1 POP JUMP JUMPDEST PUSH0 PUSH1 0x20 DUP3 ADD SWAP1 POP DUP2 DUP2 SUB PUSH0 DUP4 ADD MSTORE PUSH2 0x975 DUP2 PUSH2 0x93C JUMP JUMPDEST SWAP1 POP SWAP2 SWAP1 POP JUMP JUMPDEST PUSH32 0x4E487B7100000000000000000000000000000000000000000000000000000000 PUSH0 MSTORE PUSH1 0x11 PUSH1 0x4 MSTORE PUSH1 0x24 PUSH0 REVERT JUMPDEST PUSH0 PUSH2 0x9B3 DUP3 PUSH2 0x5B2 JUMP JUMPDEST SWAP2 POP PUSH2 0x9BE DUP4 PUSH2 0x5B2 JUMP JUMPDEST SWAP3 POP DUP3 DUP3 ADD SWAP1 POP DUP1 DUP3 GT ISZERO PUSH2 0x9D6 JUMPI PUSH2 0x9D5 PUSH2 0x97C JUMP JUMPDEST JUMPDEST SWAP3 SWAP2 POP POP JUMP INVALID LOG2 PUSH5 0x6970667358 0x22 SLT KECCAK256 SIGNEXTEND RETF PUSH1 0x63 TSTORE 0x24 NUMBER DUP8 MCOPY ADDRESS SWAP8 0xC1 0xBF 0xCE DUP12 EQ 0xDE DUP6 RJUMP 0x1A56 0x23 ADD 0xD8 PUSH10 0xA2DC693394516064736F PUSH13 0x634300081E0033000000000000 "
				},
				"gasEstimates": {
					"creation": {
						"codeDepositCost": "515600",
						"executionCost": "24811",
						"totalCost": "540411"
					},
					"external": {
						"deposite()": "infinite",
						"funders(uint256)": "5010",
						"getBalance()": "335",
						"getFunders()": "infinite",
						"isFunder(address)": "2856",
						"number_of_deposite()": "2597",
						"owner()": "2529",
						"user(address)": "2869",
						"withdraw()": "infinite"
					}
				},
				"methodIdentifiers": {
					"deposite()": "a50ec326",
					"funders(uint256)": "dc0d3dff",
					"getBalance()": "12065fe0",
					"getFunders()": "ea63a044",
					"isFunder(address)": "1ea48870",
					"number_of_deposite()": "8796c333",
					"owner()": "8da5cb5b",
					"user(address)": "81e7e20e",
					"withdraw()": "3ccfd60b"
				}
			},
			"storageLayout": {
				"storage": [
					{
						"astId": 3,
						"contract": "default_workspace/contracts/Fundme/fundme.sol:FundMe",
						"label": "owner",
						"offset": 0,
						"slot": "0",
						"type": "t_address"
					},
					{
						"astId": 7,
						"contract": "default_workspace/contracts/Fundme/fundme.sol:FundMe",
						"label": "user",
						"offset": 0,
						"slot": "1",
						"type": "t_mapping(t_address,t_uint256)"
					},
					{
						"astId": 52,
						"contract": "default_workspace/contracts/Fundme/fundme.sol:FundMe",
						"label": "isFunder",
						"offset": 0,
						"slot": "2",
						"type": "t_mapping(t_address,t_bool)"
					},
					{
						"astId": 55,
						"contract": "default_workspace/contracts/Fundme/fundme.sol:FundMe",
						"label": "funders",
						"offset": 0,
						"slot": "3",
						"type": "t_array(t_address)dyn_storage"
					}
				],
				"types": {
					"t_address": {
						"encoding": "inplace",
						"label": "address",
						"numberOfBytes": "20"
					},
					"t_array(t_address)dyn_storage": {
						"base": "t_address",
						"encoding": "dynamic_array",
						"label": "address[]",
						"numberOfBytes": "32"
					},
					"t_bool": {
						"encoding": "inplace",
						"label": "bool",
						"numberOfBytes": "1"
					},
					"t_mapping(t_address,t_bool)": {
						"encoding": "mapping",
						"key": "t_address",
						"label": "mapping(address => bool)",
						"numberOfBytes": "32",
						"value": "t_bool"
					},
					"t_mapping(t_address,t_uint256)": {
						"encoding": "mapping",
						"key": "t_address",
						"label": "mapping(address => uint256)",
						"numberOfBytes": "32",
						"value": "t_uint256"
					},
					"t_uint256": {
						"encoding": "inplace",
						"label": "uint256",
						"numberOfBytes": "32"
					}
				}
			},
			"userdoc": {
				"kind": "user",
				"methods": {},
				"version": 1
			}
		}
	}
}