{
	"artifacts/build-info/task vote/vote.sol": {
		"voteing": {
			"abi": [
				{
					"inputs": [],
					"stateMutability": "nonpayable",
					"type": "constructor"
				},
				{
					"inputs": [
						{
							"internalType": "address",
							"name": "",
							"type": "address"
						}
					],
					"name": "hasVoted",
					"outputs": [
						{
							"internalType": "bool",
							"name": "",
							"type": "bool"
						}
					],
					"stateMutability": "view",
					"type": "function"
				},
				{
					"inputs": [],
					"name": "number_of_voter",
					"outputs": [
						{
							"internalType": "uint256",
							"name": "",
							"type": "uint256"
						}
					],
					"stateMutability": "view",
					"type": "function"
				},
				{
					"inputs": [],
					"name": "owner",
					"outputs": [
						{
							"internalType": "address",
							"name": "",
							"type": "address"
						}
					],
					"stateMutability": "view",
					"type": "function"
				},
				{
					"inputs": [
						{
							"internalType": "uint8",
							"name": "_id",
							"type": "uint8"
						},
						{
							"internalType": "uint8",
							"name": "_candidateNumber",
							"type": "uint8"
						},
						{
							"internalType": "string",
							"name": "_realAddress",
							"type": "string"
						}
					],
					"name": "store",
					"outputs": [],
					"stateMutability": "nonpayable",
					"type": "function"
				},
				{
					"inputs": [
						{
							"internalType": "uint8",
							"name": "_id",
							"type": "uint8"
						},
						{
							"internalType": "uint8",
							"name": "_candidateNumber",
							"type": "uint8"
						},
						{
							"internalType": "string",
							"name": "_realAddress",
							"type": "string"
						}
					],
					"name": "vote",
					"outputs": [],
					"stateMutability": "nonpayable",
					"type": "function"
				},
				{
					"inputs": [
						{
							"internalType": "uint256",
							"name": "",
							"type": "uint256"
						}
					],
					"name": "voters",
					"outputs": [
						{
							"internalType": "uint8",
							"name": "id",
							"type": "uint8"
						},
						{
							"internalType": "uint8",
							"name": "CandidateNumber",
							"type": "uint8"
						},
						{
							"internalType": "string",
							"name": "RealAddress",
							"type": "string"
						}
					],
					"stateMutability": "view",
					"type": "function"
				}
			],
			"devdoc": {
				"kind": "dev",
				"methods": {},
				"version": 1
			},
			"evm": {
				"assembly": "    /* \"artifacts/build-info/task vote/vote.sol\":69:989  contract voteing {... */\n  mstore(0x40, 0x80)\n    /* \"artifacts/build-info/task vote/vote.sol\":294:345  constructor() {... */\n  callvalue\n  dup1\n  iszero\n  tag_1\n  jumpi\n  revert(0x00, 0x00)\ntag_1:\n  pop\n    /* \"artifacts/build-info/task vote/vote.sol\":327:337  msg.sender */\n  caller\n    /* \"artifacts/build-info/task vote/vote.sol\":319:324  owner */\n  0x02\n  0x00\n    /* \"artifacts/build-info/task vote/vote.sol\":319:337  owner = msg.sender */\n  0x0100\n  exp\n  dup2\n  sload\n  dup2\n  0xffffffffffffffffffffffffffffffffffffffff\n  mul\n  not\n  and\n  swap1\n  dup4\n  0xffffffffffffffffffffffffffffffffffffffff\n  and\n  mul\n  or\n  swap1\n  sstore\n  pop\n    /* \"artifacts/build-info/task vote/vote.sol\":69:989  contract voteing {... */\n  dataSize(sub_0)\n  dup1\n  dataOffset(sub_0)\n  0x00\n  codecopy\n  0x00\n  return\nstop\n\nsub_0: assembly {\n        /* \"artifacts/build-info/task vote/vote.sol\":69:989  contract voteing {... */\n      mstore(0x40, 0x80)\n      callvalue\n      dup1\n      iszero\n      tag_1\n      jumpi\n      revert(0x00, 0x00)\n    tag_1:\n      pop\n      jumpi(tag_2, lt(calldatasize, 0x04))\n      shr(0xe0, calldataload(0x00))\n      dup1\n      0x09eef43e\n      eq\n      tag_3\n      jumpi\n      dup1\n      0x1c5657ef\n      eq\n      tag_4\n      jumpi\n      dup1\n      0x2313d13d\n      eq\n      tag_5\n      jumpi\n      dup1\n      0x3f52cfd5\n      eq\n      tag_6\n      jumpi\n      dup1\n      0x8da5cb5b\n      eq\n      tag_7\n      jumpi\n      dup1\n      0xda58c7d9\n      eq\n      tag_8\n      jumpi\n    tag_2:\n      revert(0x00, 0x00)\n        /* \"artifacts/build-info/task vote/vote.sol\":220:260  mapping(address => bool) public hasVoted */\n    tag_3:\n      tag_9\n      0x04\n      dup1\n      calldatasize\n      sub\n      dup2\n      add\n      swap1\n      tag_10\n      swap2\n      swap1\n      tag_11\n      jump\t// in\n    tag_10:\n      tag_12\n      jump\t// in\n    tag_9:\n      mload(0x40)\n      tag_13\n      swap2\n      swap1\n      tag_14\n      jump\t// in\n    tag_13:\n      mload(0x40)\n      dup1\n      swap2\n      sub\n      swap1\n      return\n        /* \"artifacts/build-info/task vote/vote.sol\":739:986  function vote(uint8 _id, uint8 _candidateNumber, string memory _realAddress) public {... */\n    tag_4:\n      tag_15\n      0x04\n      dup1\n      calldatasize\n      sub\n      dup2\n      add\n      swap1\n      tag_16\n      swap2\n      swap1\n      tag_17\n      jump\t// in\n    tag_16:\n      tag_18\n      jump\t// in\n    tag_15:\n      stop\n        /* \"artifacts/build-info/task vote/vote.sol\":565:732  function store(uint8 _id, uint8 _candidateNumber, string memory _realAddress) public OnlyOwner {... */\n    tag_5:\n      tag_19\n      0x04\n      dup1\n      calldatasize\n      sub\n      dup2\n      add\n      swap1\n      tag_20\n      swap2\n      swap1\n      tag_17\n      jump\t// in\n    tag_20:\n      tag_21\n      jump\t// in\n    tag_19:\n      stop\n        /* \"artifacts/build-info/task vote/vote.sol\":454:558  function number_of_voter() public view OnlyOwner returns (uint256) {... */\n    tag_6:\n      tag_22\n      tag_23\n      jump\t// in\n    tag_22:\n      mload(0x40)\n      tag_24\n      swap2\n      swap1\n      tag_25\n      jump\t// in\n    tag_24:\n      mload(0x40)\n      dup1\n      swap2\n      sub\n      swap1\n      return\n        /* \"artifacts/build-info/task vote/vote.sol\":266:286  address public owner */\n    tag_7:\n      tag_26\n      tag_27\n      jump\t// in\n    tag_26:\n      mload(0x40)\n      tag_28\n      swap2\n      swap1\n      tag_29\n      jump\t// in\n    tag_28:\n      mload(0x40)\n      dup1\n      swap2\n      sub\n      swap1\n      return\n        /* \"artifacts/build-info/task vote/vote.sol\":193:214  voter[] public voters */\n    tag_8:\n      tag_30\n      0x04\n      dup1\n      calldatasize\n      sub\n      dup2\n      add\n      swap1\n      tag_31\n      swap2\n      swap1\n      tag_32\n      jump\t// in\n    tag_31:\n      tag_33\n      jump\t// in\n    tag_30:\n      mload(0x40)\n      tag_34\n      swap4\n      swap3\n      swap2\n      swap1\n      tag_35\n      jump\t// in\n    tag_34:\n      mload(0x40)\n      dup1\n      swap2\n      sub\n      swap1\n      return\n        /* \"artifacts/build-info/task vote/vote.sol\":220:260  mapping(address => bool) public hasVoted */\n    tag_12:\n      mstore(0x20, 0x01)\n      dup1\n      0x00\n      mstore\n      keccak256(0x00, 0x40)\n      0x00\n      swap2\n      pop\n      sload\n      swap1\n      0x0100\n      exp\n      swap1\n      div\n      0xff\n      and\n      dup2\n      jump\t// out\n        /* \"artifacts/build-info/task vote/vote.sol\":739:986  function vote(uint8 _id, uint8 _candidateNumber, string memory _realAddress) public {... */\n    tag_18:\n        /* \"artifacts/build-info/task vote/vote.sol\":842:850  hasVoted */\n      0x01\n        /* \"artifacts/build-info/task vote/vote.sol\":842:862  hasVoted[msg.sender] */\n      0x00\n        /* \"artifacts/build-info/task vote/vote.sol\":851:861  msg.sender */\n      caller\n        /* \"artifacts/build-info/task vote/vote.sol\":842:862  hasVoted[msg.sender] */\n      0xffffffffffffffffffffffffffffffffffffffff\n      and\n      0xffffffffffffffffffffffffffffffffffffffff\n      and\n      dup2\n      mstore\n      0x20\n      add\n      swap1\n      dup2\n      mstore\n      0x20\n      add\n      0x00\n      keccak256\n      0x00\n      swap1\n      sload\n      swap1\n      0x0100\n      exp\n      swap1\n      div\n      0xff\n      and\n        /* \"artifacts/build-info/task vote/vote.sol\":841:862  !hasVoted[msg.sender] */\n      iszero\n        /* \"artifacts/build-info/task vote/vote.sol\":833:890  require(!hasVoted[msg.sender], \"You have already voted!\") */\n      tag_37\n      jumpi\n      mload(0x40)\n      0x08c379a000000000000000000000000000000000000000000000000000000000\n      dup2\n      mstore\n      0x04\n      add\n      tag_38\n      swap1\n      tag_39\n      jump\t// in\n    tag_38:\n      mload(0x40)\n      dup1\n      swap2\n      sub\n      swap1\n      revert\n    tag_37:\n        /* \"artifacts/build-info/task vote/vote.sol\":923:927  true */\n      0x01\n        /* \"artifacts/build-info/task vote/vote.sol\":900:908  hasVoted */\n      dup1\n        /* \"artifacts/build-info/task vote/vote.sol\":900:920  hasVoted[msg.sender] */\n      0x00\n        /* \"artifacts/build-info/task vote/vote.sol\":909:919  msg.sender */\n      caller\n        /* \"artifacts/build-info/task vote/vote.sol\":900:920  hasVoted[msg.sender] */\n      0xffffffffffffffffffffffffffffffffffffffff\n      and\n      0xffffffffffffffffffffffffffffffffffffffff\n      and\n      dup2\n      mstore\n      0x20\n      add\n      swap1\n      dup2\n      mstore\n      0x20\n      add\n      0x00\n      keccak256\n      0x00\n        /* \"artifacts/build-info/task vote/vote.sol\":900:927  hasVoted[msg.sender] = true */\n      0x0100\n      exp\n      dup2\n      sload\n      dup2\n      0xff\n      mul\n      not\n      and\n      swap1\n      dup4\n      iszero\n      iszero\n      mul\n      or\n      swap1\n      sstore\n      pop\n        /* \"artifacts/build-info/task vote/vote.sol\":937:979  store(_id, _candidateNumber, _realAddress) */\n      tag_40\n        /* \"artifacts/build-info/task vote/vote.sol\":943:946  _id */\n      dup4\n        /* \"artifacts/build-info/task vote/vote.sol\":948:964  _candidateNumber */\n      dup4\n        /* \"artifacts/build-info/task vote/vote.sol\":966:978  _realAddress */\n      dup4\n        /* \"artifacts/build-info/task vote/vote.sol\":937:942  store */\n      tag_21\n        /* \"artifacts/build-info/task vote/vote.sol\":937:979  store(_id, _candidateNumber, _realAddress) */\n      jump\t// in\n    tag_40:\n        /* \"artifacts/build-info/task vote/vote.sol\":739:986  function vote(uint8 _id, uint8 _candidateNumber, string memory _realAddress) public {... */\n      pop\n      pop\n      pop\n      jump\t// out\n        /* \"artifacts/build-info/task vote/vote.sol\":565:732  function store(uint8 _id, uint8 _candidateNumber, string memory _realAddress) public OnlyOwner {... */\n    tag_21:\n        /* \"artifacts/build-info/task vote/vote.sol\":401:411  msg.sender */\n      caller\n        /* \"artifacts/build-info/task vote/vote.sol\":392:411  owner == msg.sender */\n      0xffffffffffffffffffffffffffffffffffffffff\n      and\n        /* \"artifacts/build-info/task vote/vote.sol\":392:397  owner */\n      0x02\n      0x00\n      swap1\n      sload\n      swap1\n      0x0100\n      exp\n      swap1\n      div\n      0xffffffffffffffffffffffffffffffffffffffff\n      and\n        /* \"artifacts/build-info/task vote/vote.sol\":392:411  owner == msg.sender */\n      0xffffffffffffffffffffffffffffffffffffffff\n      and\n      eq\n        /* \"artifacts/build-info/task vote/vote.sol\":384:427  require(owner == msg.sender, \" only owner\") */\n      tag_42\n      jumpi\n      mload(0x40)\n      0x08c379a000000000000000000000000000000000000000000000000000000000\n      dup2\n      mstore\n      0x04\n      add\n      tag_43\n      swap1\n      tag_44\n      jump\t// in\n    tag_43:\n      mload(0x40)\n      dup1\n      swap2\n      sub\n      swap1\n      revert\n    tag_42:\n        /* \"artifacts/build-info/task vote/vote.sol\":670:676  voters */\n      0x00\n        /* \"artifacts/build-info/task vote/vote.sol\":682:724  voter(_id, _candidateNumber, _realAddress) */\n      mload(0x40)\n      dup1\n      0x60\n      add\n      0x40\n      mstore\n      dup1\n        /* \"artifacts/build-info/task vote/vote.sol\":688:691  _id */\n      dup6\n        /* \"artifacts/build-info/task vote/vote.sol\":682:724  voter(_id, _candidateNumber, _realAddress) */\n      0xff\n      and\n      dup2\n      mstore\n      0x20\n      add\n        /* \"artifacts/build-info/task vote/vote.sol\":693:709  _candidateNumber */\n      dup5\n        /* \"artifacts/build-info/task vote/vote.sol\":682:724  voter(_id, _candidateNumber, _realAddress) */\n      0xff\n      and\n      dup2\n      mstore\n      0x20\n      add\n        /* \"artifacts/build-info/task vote/vote.sol\":711:723  _realAddress */\n      dup4\n        /* \"artifacts/build-info/task vote/vote.sol\":682:724  voter(_id, _candidateNumber, _realAddress) */\n      dup2\n      mstore\n      pop\n        /* \"artifacts/build-info/task vote/vote.sol\":670:725  voters.push(voter(_id, _candidateNumber, _realAddress)) */\n      swap1\n      dup1\n      0x01\n      dup2\n      sload\n      add\n      dup1\n      dup3\n      sstore\n      dup1\n      swap2\n      pop\n      pop\n      0x01\n      swap1\n      sub\n      swap1\n      0x00\n      mstore\n      keccak256(0x00, 0x20)\n      swap1\n      0x02\n      mul\n      add\n      0x00\n      swap1\n      swap2\n      swap1\n      swap2\n      swap1\n      swap2\n      pop\n      0x00\n      dup3\n      add\n      mload\n      dup2\n      0x00\n      add\n      exp(0x0100, 0x00)\n      dup2\n      sload\n      dup2\n      0xff\n      mul\n      not\n      and\n      swap1\n      dup4\n      0xff\n      and\n      mul\n      or\n      swap1\n      sstore\n      pop\n      0x20\n      dup3\n      add\n      mload\n      dup2\n      0x00\n      add\n      exp(0x0100, 0x01)\n      dup2\n      sload\n      dup2\n      0xff\n      mul\n      not\n      and\n      swap1\n      dup4\n      0xff\n      and\n      mul\n      or\n      swap1\n      sstore\n      pop\n      0x40\n      dup3\n      add\n      mload\n      dup2\n      0x01\n      add\n      swap1\n      dup2\n      tag_47\n      swap2\n      swap1\n      tag_48\n      jump\t// in\n    tag_47:\n      pop\n      pop\n      pop\n        /* \"artifacts/build-info/task vote/vote.sol\":565:732  function store(uint8 _id, uint8 _candidateNumber, string memory _realAddress) public OnlyOwner {... */\n      pop\n      pop\n      pop\n      jump\t// out\n        /* \"artifacts/build-info/task vote/vote.sol\":454:558  function number_of_voter() public view OnlyOwner returns (uint256) {... */\n    tag_23:\n        /* \"artifacts/build-info/task vote/vote.sol\":512:519  uint256 */\n      0x00\n        /* \"artifacts/build-info/task vote/vote.sol\":401:411  msg.sender */\n      caller\n        /* \"artifacts/build-info/task vote/vote.sol\":392:411  owner == msg.sender */\n      0xffffffffffffffffffffffffffffffffffffffff\n      and\n        /* \"artifacts/build-info/task vote/vote.sol\":392:397  owner */\n      0x02\n      0x00\n      swap1\n      sload\n      swap1\n      0x0100\n      exp\n      swap1\n      div\n      0xffffffffffffffffffffffffffffffffffffffff\n      and\n        /* \"artifacts/build-info/task vote/vote.sol\":392:411  owner == msg.sender */\n      0xffffffffffffffffffffffffffffffffffffffff\n      and\n      eq\n        /* \"artifacts/build-info/task vote/vote.sol\":384:427  require(owner == msg.sender, \" only owner\") */\n      tag_50\n      jumpi\n      mload(0x40)\n      0x08c379a000000000000000000000000000000000000000000000000000000000\n      dup2\n      mstore\n      0x04\n      add\n      tag_51\n      swap1\n      tag_44\n      jump\t// in\n    tag_51:\n      mload(0x40)\n      dup1\n      swap2\n      sub\n      swap1\n      revert\n    tag_50:\n        /* \"artifacts/build-info/task vote/vote.sol\":538:544  voters */\n      0x00\n        /* \"artifacts/build-info/task vote/vote.sol\":538:551  voters.length */\n      dup1\n      sload\n      swap1\n      pop\n        /* \"artifacts/build-info/task vote/vote.sol\":531:551  return voters.length */\n      swap1\n      pop\n        /* \"artifacts/build-info/task vote/vote.sol\":454:558  function number_of_voter() public view OnlyOwner returns (uint256) {... */\n      swap1\n      jump\t// out\n        /* \"artifacts/build-info/task vote/vote.sol\":266:286  address public owner */\n    tag_27:\n      0x02\n      0x00\n      swap1\n      sload\n      swap1\n      0x0100\n      exp\n      swap1\n      div\n      0xffffffffffffffffffffffffffffffffffffffff\n      and\n      dup2\n      jump\t// out\n        /* \"artifacts/build-info/task vote/vote.sol\":193:214  voter[] public voters */\n    tag_33:\n      0x00\n      dup2\n      dup2\n      sload\n      dup2\n      lt\n      tag_53\n      jumpi\n      0x00\n      dup1\n      revert\n    tag_53:\n      swap1\n      0x00\n      mstore\n      keccak256(0x00, 0x20)\n      swap1\n      0x02\n      mul\n      add\n      0x00\n      swap2\n      pop\n      swap1\n      pop\n      dup1\n      0x00\n      add\n      0x00\n      swap1\n      sload\n      swap1\n      0x0100\n      exp\n      swap1\n      div\n      0xff\n      and\n      swap1\n      dup1\n      0x00\n      add\n      0x01\n      swap1\n      sload\n      swap1\n      0x0100\n      exp\n      swap1\n      div\n      0xff\n      and\n      swap1\n      dup1\n      0x01\n      add\n      dup1\n      sload\n      tag_55\n      swap1\n      tag_56\n      jump\t// in\n    tag_55:\n      dup1\n      0x1f\n      add\n      0x20\n      dup1\n      swap2\n      div\n      mul\n      0x20\n      add\n      mload(0x40)\n      swap1\n      dup2\n      add\n      0x40\n      mstore\n      dup1\n      swap3\n      swap2\n      swap1\n      dup2\n      dup2\n      mstore\n      0x20\n      add\n      dup3\n      dup1\n      sload\n      tag_57\n      swap1\n      tag_56\n      jump\t// in\n    tag_57:\n      dup1\n      iszero\n      tag_58\n      jumpi\n      dup1\n      0x1f\n      lt\n      tag_59\n      jumpi\n      0x0100\n      dup1\n      dup4\n      sload\n      div\n      mul\n      dup4\n      mstore\n      swap2\n      0x20\n      add\n      swap2\n      jump(tag_58)\n    tag_59:\n      dup3\n      add\n      swap2\n      swap1\n      0x00\n      mstore\n      keccak256(0x00, 0x20)\n      swap1\n    tag_60:\n      dup2\n      sload\n      dup2\n      mstore\n      swap1\n      0x01\n      add\n      swap1\n      0x20\n      add\n      dup1\n      dup4\n      gt\n      tag_60\n      jumpi\n      dup3\n      swap1\n      sub\n      0x1f\n      and\n      dup3\n      add\n      swap2\n    tag_58:\n      pop\n      pop\n      pop\n      pop\n      pop\n      swap1\n      pop\n      dup4\n      jump\t// out\n        /* \"#utility.yul\":7:82   */\n    tag_61:\n        /* \"#utility.yul\":40:46   */\n      0x00\n        /* \"#utility.yul\":73:75   */\n      0x40\n        /* \"#utility.yul\":67:76   */\n      mload\n        /* \"#utility.yul\":57:76   */\n      swap1\n      pop\n        /* \"#utility.yul\":7:82   */\n      swap1\n      jump\t// out\n        /* \"#utility.yul\":88:205   */\n    tag_62:\n        /* \"#utility.yul\":197:198   */\n      0x00\n        /* \"#utility.yul\":194:195   */\n      0x00\n        /* \"#utility.yul\":187:199   */\n      revert\n        /* \"#utility.yul\":211:328   */\n    tag_63:\n        /* \"#utility.yul\":320:321   */\n      0x00\n        /* \"#utility.yul\":317:318   */\n      0x00\n        /* \"#utility.yul\":310:322   */\n      revert\n        /* \"#utility.yul\":334:460   */\n    tag_64:\n        /* \"#utility.yul\":371:378   */\n      0x00\n        /* \"#utility.yul\":411:453   */\n      0xffffffffffffffffffffffffffffffffffffffff\n        /* \"#utility.yul\":404:409   */\n      dup3\n        /* \"#utility.yul\":400:454   */\n      and\n        /* \"#utility.yul\":389:454   */\n      swap1\n      pop\n        /* \"#utility.yul\":334:460   */\n      swap2\n      swap1\n      pop\n      jump\t// out\n        /* \"#utility.yul\":466:562   */\n    tag_65:\n        /* \"#utility.yul\":503:510   */\n      0x00\n        /* \"#utility.yul\":532:556   */\n      tag_119\n        /* \"#utility.yul\":550:555   */\n      dup3\n        /* \"#utility.yul\":532:556   */\n      tag_64\n      jump\t// in\n    tag_119:\n        /* \"#utility.yul\":521:556   */\n      swap1\n      pop\n        /* \"#utility.yul\":466:562   */\n      swap2\n      swap1\n      pop\n      jump\t// out\n        /* \"#utility.yul\":568:690   */\n    tag_66:\n        /* \"#utility.yul\":641:665   */\n      tag_121\n        /* \"#utility.yul\":659:664   */\n      dup2\n        /* \"#utility.yul\":641:665   */\n      tag_65\n      jump\t// in\n    tag_121:\n        /* \"#utility.yul\":634:639   */\n      dup2\n        /* \"#utility.yul\":631:666   */\n      eq\n        /* \"#utility.yul\":621:684   */\n      tag_122\n      jumpi\n        /* \"#utility.yul\":680:681   */\n      0x00\n        /* \"#utility.yul\":677:678   */\n      0x00\n        /* \"#utility.yul\":670:682   */\n      revert\n        /* \"#utility.yul\":621:684   */\n    tag_122:\n        /* \"#utility.yul\":568:690   */\n      pop\n      jump\t// out\n        /* \"#utility.yul\":696:835   */\n    tag_67:\n        /* \"#utility.yul\":742:747   */\n      0x00\n        /* \"#utility.yul\":780:786   */\n      dup2\n        /* \"#utility.yul\":767:787   */\n      calldataload\n        /* \"#utility.yul\":758:787   */\n      swap1\n      pop\n        /* \"#utility.yul\":796:829   */\n      tag_124\n        /* \"#utility.yul\":823:828   */\n      dup2\n        /* \"#utility.yul\":796:829   */\n      tag_66\n      jump\t// in\n    tag_124:\n        /* \"#utility.yul\":696:835   */\n      swap3\n      swap2\n      pop\n      pop\n      jump\t// out\n        /* \"#utility.yul\":841:1170   */\n    tag_11:\n        /* \"#utility.yul\":900:906   */\n      0x00\n        /* \"#utility.yul\":949:951   */\n      0x20\n        /* \"#utility.yul\":937:946   */\n      dup3\n        /* \"#utility.yul\":928:935   */\n      dup5\n        /* \"#utility.yul\":924:947   */\n      sub\n        /* \"#utility.yul\":920:952   */\n      slt\n        /* \"#utility.yul\":917:1036   */\n      iszero\n      tag_126\n      jumpi\n        /* \"#utility.yul\":955:1034   */\n      tag_127\n      tag_62\n      jump\t// in\n    tag_127:\n        /* \"#utility.yul\":917:1036   */\n    tag_126:\n        /* \"#utility.yul\":1075:1076   */\n      0x00\n        /* \"#utility.yul\":1100:1153   */\n      tag_128\n        /* \"#utility.yul\":1145:1152   */\n      dup5\n        /* \"#utility.yul\":1136:1142   */\n      dup3\n        /* \"#utility.yul\":1125:1134   */\n      dup6\n        /* \"#utility.yul\":1121:1143   */\n      add\n        /* \"#utility.yul\":1100:1153   */\n      tag_67\n      jump\t// in\n    tag_128:\n        /* \"#utility.yul\":1090:1153   */\n      swap2\n      pop\n        /* \"#utility.yul\":1046:1163   */\n      pop\n        /* \"#utility.yul\":841:1170   */\n      swap3\n      swap2\n      pop\n      pop\n      jump\t// out\n        /* \"#utility.yul\":1176:1266   */\n    tag_68:\n        /* \"#utility.yul\":1210:1217   */\n      0x00\n        /* \"#utility.yul\":1253:1258   */\n      dup2\n        /* \"#utility.yul\":1246:1259   */\n      iszero\n        /* \"#utility.yul\":1239:1260   */\n      iszero\n        /* \"#utility.yul\":1228:1260   */\n      swap1\n      pop\n        /* \"#utility.yul\":1176:1266   */\n      swap2\n      swap1\n      pop\n      jump\t// out\n        /* \"#utility.yul\":1272:1381   */\n    tag_69:\n        /* \"#utility.yul\":1353:1374   */\n      tag_131\n        /* \"#utility.yul\":1368:1373   */\n      dup2\n        /* \"#utility.yul\":1353:1374   */\n      tag_68\n      jump\t// in\n    tag_131:\n        /* \"#utility.yul\":1348:1351   */\n      dup3\n        /* \"#utility.yul\":1341:1375   */\n      mstore\n        /* \"#utility.yul\":1272:1381   */\n      pop\n      pop\n      jump\t// out\n        /* \"#utility.yul\":1387:1597   */\n    tag_14:\n        /* \"#utility.yul\":1474:1478   */\n      0x00\n        /* \"#utility.yul\":1512:1514   */\n      0x20\n        /* \"#utility.yul\":1501:1510   */\n      dup3\n        /* \"#utility.yul\":1497:1515   */\n      add\n        /* \"#utility.yul\":1489:1515   */\n      swap1\n      pop\n        /* \"#utility.yul\":1525:1590   */\n      tag_133\n        /* \"#utility.yul\":1587:1588   */\n      0x00\n        /* \"#utility.yul\":1576:1585   */\n      dup4\n        /* \"#utility.yul\":1572:1589   */\n      add\n        /* \"#utility.yul\":1563:1569   */\n      dup5\n        /* \"#utility.yul\":1525:1590   */\n      tag_69\n      jump\t// in\n    tag_133:\n        /* \"#utility.yul\":1387:1597   */\n      swap3\n      swap2\n      pop\n      pop\n      jump\t// out\n        /* \"#utility.yul\":1603:1689   */\n    tag_70:\n        /* \"#utility.yul\":1638:1645   */\n      0x00\n        /* \"#utility.yul\":1678:1682   */\n      0xff\n        /* \"#utility.yul\":1671:1676   */\n      dup3\n        /* \"#utility.yul\":1667:1683   */\n      and\n        /* \"#utility.yul\":1656:1683   */\n      swap1\n      pop\n        /* \"#utility.yul\":1603:1689   */\n      swap2\n      swap1\n      pop\n      jump\t// out\n        /* \"#utility.yul\":1695:1813   */\n    tag_71:\n        /* \"#utility.yul\":1766:1788   */\n      tag_136\n        /* \"#utility.yul\":1782:1787   */\n      dup2\n        /* \"#utility.yul\":1766:1788   */\n      tag_70\n      jump\t// in\n    tag_136:\n        /* \"#utility.yul\":1759:1764   */\n      dup2\n        /* \"#utility.yul\":1756:1789   */\n      eq\n        /* \"#utility.yul\":1746:1807   */\n      tag_137\n      jumpi\n        /* \"#utility.yul\":1803:1804   */\n      0x00\n        /* \"#utility.yul\":1800:1801   */\n      0x00\n        /* \"#utility.yul\":1793:1805   */\n      revert\n        /* \"#utility.yul\":1746:1807   */\n    tag_137:\n        /* \"#utility.yul\":1695:1813   */\n      pop\n      jump\t// out\n        /* \"#utility.yul\":1819:1954   */\n    tag_72:\n        /* \"#utility.yul\":1863:1868   */\n      0x00\n        /* \"#utility.yul\":1901:1907   */\n      dup2\n        /* \"#utility.yul\":1888:1908   */\n      calldataload\n        /* \"#utility.yul\":1879:1908   */\n      swap1\n      pop\n        /* \"#utility.yul\":1917:1948   */\n      tag_139\n        /* \"#utility.yul\":1942:1947   */\n      dup2\n        /* \"#utility.yul\":1917:1948   */\n      tag_71\n      jump\t// in\n    tag_139:\n        /* \"#utility.yul\":1819:1954   */\n      swap3\n      swap2\n      pop\n      pop\n      jump\t// out\n        /* \"#utility.yul\":1960:2077   */\n    tag_73:\n        /* \"#utility.yul\":2069:2070   */\n      0x00\n        /* \"#utility.yul\":2066:2067   */\n      0x00\n        /* \"#utility.yul\":2059:2071   */\n      revert\n        /* \"#utility.yul\":2083:2200   */\n    tag_74:\n        /* \"#utility.yul\":2192:2193   */\n      0x00\n        /* \"#utility.yul\":2189:2190   */\n      0x00\n        /* \"#utility.yul\":2182:2194   */\n      revert\n        /* \"#utility.yul\":2206:2308   */\n    tag_75:\n        /* \"#utility.yul\":2247:2253   */\n      0x00\n        /* \"#utility.yul\":2298:2300   */\n      0x1f\n        /* \"#utility.yul\":2294:2301   */\n      not\n        /* \"#utility.yul\":2289:2291   */\n      0x1f\n        /* \"#utility.yul\":2282:2287   */\n      dup4\n        /* \"#utility.yul\":2278:2292   */\n      add\n        /* \"#utility.yul\":2274:2302   */\n      and\n        /* \"#utility.yul\":2264:2302   */\n      swap1\n      pop\n        /* \"#utility.yul\":2206:2308   */\n      swap2\n      swap1\n      pop\n      jump\t// out\n        /* \"#utility.yul\":2314:2494   */\n    tag_76:\n        /* \"#utility.yul\":2362:2439   */\n      0x4e487b7100000000000000000000000000000000000000000000000000000000\n        /* \"#utility.yul\":2359:2360   */\n      0x00\n        /* \"#utility.yul\":2352:2440   */\n      mstore\n        /* \"#utility.yul\":2459:2463   */\n      0x41\n        /* \"#utility.yul\":2456:2457   */\n      0x04\n        /* \"#utility.yul\":2449:2464   */\n      mstore\n        /* \"#utility.yul\":2483:2487   */\n      0x24\n        /* \"#utility.yul\":2480:2481   */\n      0x00\n        /* \"#utility.yul\":2473:2488   */\n      revert\n        /* \"#utility.yul\":2500:2781   */\n    tag_77:\n        /* \"#utility.yul\":2583:2610   */\n      tag_145\n        /* \"#utility.yul\":2605:2609   */\n      dup3\n        /* \"#utility.yul\":2583:2610   */\n      tag_75\n      jump\t// in\n    tag_145:\n        /* \"#utility.yul\":2575:2581   */\n      dup2\n        /* \"#utility.yul\":2571:2611   */\n      add\n        /* \"#utility.yul\":2713:2719   */\n      dup2\n        /* \"#utility.yul\":2701:2711   */\n      dup2\n        /* \"#utility.yul\":2698:2720   */\n      lt\n        /* \"#utility.yul\":2677:2695   */\n      0xffffffffffffffff\n        /* \"#utility.yul\":2665:2675   */\n      dup3\n        /* \"#utility.yul\":2662:2696   */\n      gt\n        /* \"#utility.yul\":2659:2721   */\n      or\n        /* \"#utility.yul\":2656:2744   */\n      iszero\n      tag_146\n      jumpi\n        /* \"#utility.yul\":2724:2742   */\n      tag_147\n      tag_76\n      jump\t// in\n    tag_147:\n        /* \"#utility.yul\":2656:2744   */\n    tag_146:\n        /* \"#utility.yul\":2764:2774   */\n      dup1\n        /* \"#utility.yul\":2760:2762   */\n      0x40\n        /* \"#utility.yul\":2753:2775   */\n      mstore\n        /* \"#utility.yul\":2543:2781   */\n      pop\n        /* \"#utility.yul\":2500:2781   */\n      pop\n      pop\n      jump\t// out\n        /* \"#utility.yul\":2787:2916   */\n    tag_78:\n        /* \"#utility.yul\":2821:2827   */\n      0x00\n        /* \"#utility.yul\":2848:2868   */\n      tag_149\n      tag_61\n      jump\t// in\n    tag_149:\n        /* \"#utility.yul\":2838:2868   */\n      swap1\n      pop\n        /* \"#utility.yul\":2877:2910   */\n      tag_150\n        /* \"#utility.yul\":2905:2909   */\n      dup3\n        /* \"#utility.yul\":2897:2903   */\n      dup3\n        /* \"#utility.yul\":2877:2910   */\n      tag_77\n      jump\t// in\n    tag_150:\n        /* \"#utility.yul\":2787:2916   */\n      swap2\n      swap1\n      pop\n      jump\t// out\n        /* \"#utility.yul\":2922:3230   */\n    tag_79:\n        /* \"#utility.yul\":2984:2988   */\n      0x00\n        /* \"#utility.yul\":3074:3092   */\n      0xffffffffffffffff\n        /* \"#utility.yul\":3066:3072   */\n      dup3\n        /* \"#utility.yul\":3063:3093   */\n      gt\n        /* \"#utility.yul\":3060:3116   */\n      iszero\n      tag_152\n      jumpi\n        /* \"#utility.yul\":3096:3114   */\n      tag_153\n      tag_76\n      jump\t// in\n    tag_153:\n        /* \"#utility.yul\":3060:3116   */\n    tag_152:\n        /* \"#utility.yul\":3134:3163   */\n      tag_154\n        /* \"#utility.yul\":3156:3162   */\n      dup3\n        /* \"#utility.yul\":3134:3163   */\n      tag_75\n      jump\t// in\n    tag_154:\n        /* \"#utility.yul\":3126:3163   */\n      swap1\n      pop\n        /* \"#utility.yul\":3218:3222   */\n      0x20\n        /* \"#utility.yul\":3212:3216   */\n      dup2\n        /* \"#utility.yul\":3208:3223   */\n      add\n        /* \"#utility.yul\":3200:3223   */\n      swap1\n      pop\n        /* \"#utility.yul\":2922:3230   */\n      swap2\n      swap1\n      pop\n      jump\t// out\n        /* \"#utility.yul\":3236:3384   */\n    tag_80:\n        /* \"#utility.yul\":3334:3340   */\n      dup3\n        /* \"#utility.yul\":3329:3332   */\n      dup2\n        /* \"#utility.yul\":3324:3327   */\n      dup4\n        /* \"#utility.yul\":3311:3341   */\n      calldatacopy\n        /* \"#utility.yul\":3375:3376   */\n      0x00\n        /* \"#utility.yul\":3366:3372   */\n      dup4\n        /* \"#utility.yul\":3361:3364   */\n      dup4\n        /* \"#utility.yul\":3357:3373   */\n      add\n        /* \"#utility.yul\":3350:3377   */\n      mstore\n        /* \"#utility.yul\":3236:3384   */\n      pop\n      pop\n      pop\n      jump\t// out\n        /* \"#utility.yul\":3390:3815   */\n    tag_81:\n        /* \"#utility.yul\":3468:3473   */\n      0x00\n        /* \"#utility.yul\":3493:3559   */\n      tag_157\n        /* \"#utility.yul\":3509:3558   */\n      tag_158\n        /* \"#utility.yul\":3551:3557   */\n      dup5\n        /* \"#utility.yul\":3509:3558   */\n      tag_79\n      jump\t// in\n    tag_158:\n        /* \"#utility.yul\":3493:3559   */\n      tag_78\n      jump\t// in\n    tag_157:\n        /* \"#utility.yul\":3484:3559   */\n      swap1\n      pop\n        /* \"#utility.yul\":3582:3588   */\n      dup3\n        /* \"#utility.yul\":3575:3580   */\n      dup2\n        /* \"#utility.yul\":3568:3589   */\n      mstore\n        /* \"#utility.yul\":3620:3624   */\n      0x20\n        /* \"#utility.yul\":3613:3618   */\n      dup2\n        /* \"#utility.yul\":3609:3625   */\n      add\n        /* \"#utility.yul\":3658:3661   */\n      dup5\n        /* \"#utility.yul\":3649:3655   */\n      dup5\n        /* \"#utility.yul\":3644:3647   */\n      dup5\n        /* \"#utility.yul\":3640:3656   */\n      add\n        /* \"#utility.yul\":3637:3662   */\n      gt\n        /* \"#utility.yul\":3634:3746   */\n      iszero\n      tag_159\n      jumpi\n        /* \"#utility.yul\":3665:3744   */\n      tag_160\n      tag_74\n      jump\t// in\n    tag_160:\n        /* \"#utility.yul\":3634:3746   */\n    tag_159:\n        /* \"#utility.yul\":3755:3809   */\n      tag_161\n        /* \"#utility.yul\":3802:3808   */\n      dup5\n        /* \"#utility.yul\":3797:3800   */\n      dup3\n        /* \"#utility.yul\":3792:3795   */\n      dup6\n        /* \"#utility.yul\":3755:3809   */\n      tag_80\n      jump\t// in\n    tag_161:\n        /* \"#utility.yul\":3474:3815   */\n      pop\n        /* \"#utility.yul\":3390:3815   */\n      swap4\n      swap3\n      pop\n      pop\n      pop\n      jump\t// out\n        /* \"#utility.yul\":3835:4175   */\n    tag_82:\n        /* \"#utility.yul\":3891:3896   */\n      0x00\n        /* \"#utility.yul\":3940:3943   */\n      dup3\n        /* \"#utility.yul\":3933:3937   */\n      0x1f\n        /* \"#utility.yul\":3925:3931   */\n      dup4\n        /* \"#utility.yul\":3921:3938   */\n      add\n        /* \"#utility.yul\":3917:3944   */\n      slt\n        /* \"#utility.yul\":3907:4029   */\n      tag_163\n      jumpi\n        /* \"#utility.yul\":3948:4027   */\n      tag_164\n      tag_73\n      jump\t// in\n    tag_164:\n        /* \"#utility.yul\":3907:4029   */\n    tag_163:\n        /* \"#utility.yul\":4065:4071   */\n      dup2\n        /* \"#utility.yul\":4052:4072   */\n      calldataload\n        /* \"#utility.yul\":4090:4169   */\n      tag_165\n        /* \"#utility.yul\":4165:4168   */\n      dup5\n        /* \"#utility.yul\":4157:4163   */\n      dup3\n        /* \"#utility.yul\":4150:4154   */\n      0x20\n        /* \"#utility.yul\":4142:4148   */\n      dup7\n        /* \"#utility.yul\":4138:4155   */\n      add\n        /* \"#utility.yul\":4090:4169   */\n      tag_81\n      jump\t// in\n    tag_165:\n        /* \"#utility.yul\":4081:4169   */\n      swap2\n      pop\n        /* \"#utility.yul\":3897:4175   */\n      pop\n        /* \"#utility.yul\":3835:4175   */\n      swap3\n      swap2\n      pop\n      pop\n      jump\t// out\n        /* \"#utility.yul\":4181:4972   */\n    tag_17:\n        /* \"#utility.yul\":4264:4270   */\n      0x00\n        /* \"#utility.yul\":4272:4278   */\n      0x00\n        /* \"#utility.yul\":4280:4286   */\n      0x00\n        /* \"#utility.yul\":4329:4331   */\n      0x60\n        /* \"#utility.yul\":4317:4326   */\n      dup5\n        /* \"#utility.yul\":4308:4315   */\n      dup7\n        /* \"#utility.yul\":4304:4327   */\n      sub\n        /* \"#utility.yul\":4300:4332   */\n      slt\n        /* \"#utility.yul\":4297:4416   */\n      iszero\n      tag_167\n      jumpi\n        /* \"#utility.yul\":4335:4414   */\n      tag_168\n      tag_62\n      jump\t// in\n    tag_168:\n        /* \"#utility.yul\":4297:4416   */\n    tag_167:\n        /* \"#utility.yul\":4455:4456   */\n      0x00\n        /* \"#utility.yul\":4480:4531   */\n      tag_169\n        /* \"#utility.yul\":4523:4530   */\n      dup7\n        /* \"#utility.yul\":4514:4520   */\n      dup3\n        /* \"#utility.yul\":4503:4512   */\n      dup8\n        /* \"#utility.yul\":4499:4521   */\n      add\n        /* \"#utility.yul\":4480:4531   */\n      tag_72\n      jump\t// in\n    tag_169:\n        /* \"#utility.yul\":4470:4531   */\n      swap4\n      pop\n        /* \"#utility.yul\":4426:4541   */\n      pop\n        /* \"#utility.yul\":4580:4582   */\n      0x20\n        /* \"#utility.yul\":4606:4657   */\n      tag_170\n        /* \"#utility.yul\":4649:4656   */\n      dup7\n        /* \"#utility.yul\":4640:4646   */\n      dup3\n        /* \"#utility.yul\":4629:4638   */\n      dup8\n        /* \"#utility.yul\":4625:4647   */\n      add\n        /* \"#utility.yul\":4606:4657   */\n      tag_72\n      jump\t// in\n    tag_170:\n        /* \"#utility.yul\":4596:4657   */\n      swap3\n      pop\n        /* \"#utility.yul\":4551:4667   */\n      pop\n        /* \"#utility.yul\":4734:4736   */\n      0x40\n        /* \"#utility.yul\":4723:4732   */\n      dup5\n        /* \"#utility.yul\":4719:4737   */\n      add\n        /* \"#utility.yul\":4706:4738   */\n      calldataload\n        /* \"#utility.yul\":4765:4783   */\n      0xffffffffffffffff\n        /* \"#utility.yul\":4757:4763   */\n      dup2\n        /* \"#utility.yul\":4754:4784   */\n      gt\n        /* \"#utility.yul\":4751:4868   */\n      iszero\n      tag_171\n      jumpi\n        /* \"#utility.yul\":4787:4866   */\n      tag_172\n      tag_63\n      jump\t// in\n    tag_172:\n        /* \"#utility.yul\":4751:4868   */\n    tag_171:\n        /* \"#utility.yul\":4892:4955   */\n      tag_173\n        /* \"#utility.yul\":4947:4954   */\n      dup7\n        /* \"#utility.yul\":4938:4944   */\n      dup3\n        /* \"#utility.yul\":4927:4936   */\n      dup8\n        /* \"#utility.yul\":4923:4945   */\n      add\n        /* \"#utility.yul\":4892:4955   */\n      tag_82\n      jump\t// in\n    tag_173:\n        /* \"#utility.yul\":4882:4955   */\n      swap2\n      pop\n        /* \"#utility.yul\":4677:4965   */\n      pop\n        /* \"#utility.yul\":4181:4972   */\n      swap3\n      pop\n      swap3\n      pop\n      swap3\n      jump\t// out\n        /* \"#utility.yul\":4978:5055   */\n    tag_83:\n        /* \"#utility.yul\":5015:5022   */\n      0x00\n        /* \"#utility.yul\":5044:5049   */\n      dup2\n        /* \"#utility.yul\":5033:5049   */\n      swap1\n      pop\n        /* \"#utility.yul\":4978:5055   */\n      swap2\n      swap1\n      pop\n      jump\t// out\n        /* \"#utility.yul\":5061:5179   */\n    tag_84:\n        /* \"#utility.yul\":5148:5172   */\n      tag_176\n        /* \"#utility.yul\":5166:5171   */\n      dup2\n        /* \"#utility.yul\":5148:5172   */\n      tag_83\n      jump\t// in\n    tag_176:\n        /* \"#utility.yul\":5143:5146   */\n      dup3\n        /* \"#utility.yul\":5136:5173   */\n      mstore\n        /* \"#utility.yul\":5061:5179   */\n      pop\n      pop\n      jump\t// out\n        /* \"#utility.yul\":5185:5407   */\n    tag_25:\n        /* \"#utility.yul\":5278:5282   */\n      0x00\n        /* \"#utility.yul\":5316:5318   */\n      0x20\n        /* \"#utility.yul\":5305:5314   */\n      dup3\n        /* \"#utility.yul\":5301:5319   */\n      add\n        /* \"#utility.yul\":5293:5319   */\n      swap1\n      pop\n        /* \"#utility.yul\":5329:5400   */\n      tag_178\n        /* \"#utility.yul\":5397:5398   */\n      0x00\n        /* \"#utility.yul\":5386:5395   */\n      dup4\n        /* \"#utility.yul\":5382:5399   */\n      add\n        /* \"#utility.yul\":5373:5379   */\n      dup5\n        /* \"#utility.yul\":5329:5400   */\n      tag_84\n      jump\t// in\n    tag_178:\n        /* \"#utility.yul\":5185:5407   */\n      swap3\n      swap2\n      pop\n      pop\n      jump\t// out\n        /* \"#utility.yul\":5413:5531   */\n    tag_85:\n        /* \"#utility.yul\":5500:5524   */\n      tag_180\n        /* \"#utility.yul\":5518:5523   */\n      dup2\n        /* \"#utility.yul\":5500:5524   */\n      tag_65\n      jump\t// in\n    tag_180:\n        /* \"#utility.yul\":5495:5498   */\n      dup3\n        /* \"#utility.yul\":5488:5525   */\n      mstore\n        /* \"#utility.yul\":5413:5531   */\n      pop\n      pop\n      jump\t// out\n        /* \"#utility.yul\":5537:5759   */\n    tag_29:\n        /* \"#utility.yul\":5630:5634   */\n      0x00\n        /* \"#utility.yul\":5668:5670   */\n      0x20\n        /* \"#utility.yul\":5657:5666   */\n      dup3\n        /* \"#utility.yul\":5653:5671   */\n      add\n        /* \"#utility.yul\":5645:5671   */\n      swap1\n      pop\n        /* \"#utility.yul\":5681:5752   */\n      tag_182\n        /* \"#utility.yul\":5749:5750   */\n      0x00\n        /* \"#utility.yul\":5738:5747   */\n      dup4\n        /* \"#utility.yul\":5734:5751   */\n      add\n        /* \"#utility.yul\":5725:5731   */\n      dup5\n        /* \"#utility.yul\":5681:5752   */\n      tag_85\n      jump\t// in\n    tag_182:\n        /* \"#utility.yul\":5537:5759   */\n      swap3\n      swap2\n      pop\n      pop\n      jump\t// out\n        /* \"#utility.yul\":5765:5887   */\n    tag_86:\n        /* \"#utility.yul\":5838:5862   */\n      tag_184\n        /* \"#utility.yul\":5856:5861   */\n      dup2\n        /* \"#utility.yul\":5838:5862   */\n      tag_83\n      jump\t// in\n    tag_184:\n        /* \"#utility.yul\":5831:5836   */\n      dup2\n        /* \"#utility.yul\":5828:5863   */\n      eq\n        /* \"#utility.yul\":5818:5881   */\n      tag_185\n      jumpi\n        /* \"#utility.yul\":5877:5878   */\n      0x00\n        /* \"#utility.yul\":5874:5875   */\n      0x00\n        /* \"#utility.yul\":5867:5879   */\n      revert\n        /* \"#utility.yul\":5818:5881   */\n    tag_185:\n        /* \"#utility.yul\":5765:5887   */\n      pop\n      jump\t// out\n        /* \"#utility.yul\":5893:6032   */\n    tag_87:\n        /* \"#utility.yul\":5939:5944   */\n      0x00\n        /* \"#utility.yul\":5977:5983   */\n      dup2\n        /* \"#utility.yul\":5964:5984   */\n      calldataload\n        /* \"#utility.yul\":5955:5984   */\n      swap1\n      pop\n        /* \"#utility.yul\":5993:6026   */\n      tag_187\n        /* \"#utility.yul\":6020:6025   */\n      dup2\n        /* \"#utility.yul\":5993:6026   */\n      tag_86\n      jump\t// in\n    tag_187:\n        /* \"#utility.yul\":5893:6032   */\n      swap3\n      swap2\n      pop\n      pop\n      jump\t// out\n        /* \"#utility.yul\":6038:6367   */\n    tag_32:\n        /* \"#utility.yul\":6097:6103   */\n      0x00\n        /* \"#utility.yul\":6146:6148   */\n      0x20\n        /* \"#utility.yul\":6134:6143   */\n      dup3\n        /* \"#utility.yul\":6125:6132   */\n      dup5\n        /* \"#utility.yul\":6121:6144   */\n      sub\n        /* \"#utility.yul\":6117:6149   */\n      slt\n        /* \"#utility.yul\":6114:6233   */\n      iszero\n      tag_189\n      jumpi\n        /* \"#utility.yul\":6152:6231   */\n      tag_190\n      tag_62\n      jump\t// in\n    tag_190:\n        /* \"#utility.yul\":6114:6233   */\n    tag_189:\n        /* \"#utility.yul\":6272:6273   */\n      0x00\n        /* \"#utility.yul\":6297:6350   */\n      tag_191\n        /* \"#utility.yul\":6342:6349   */\n      dup5\n        /* \"#utility.yul\":6333:6339   */\n      dup3\n        /* \"#utility.yul\":6322:6331   */\n      dup6\n        /* \"#utility.yul\":6318:6340   */\n      add\n        /* \"#utility.yul\":6297:6350   */\n      tag_87\n      jump\t// in\n    tag_191:\n        /* \"#utility.yul\":6287:6350   */\n      swap2\n      pop\n        /* \"#utility.yul\":6243:6360   */\n      pop\n        /* \"#utility.yul\":6038:6367   */\n      swap3\n      swap2\n      pop\n      pop\n      jump\t// out\n        /* \"#utility.yul\":6373:6485   */\n    tag_88:\n        /* \"#utility.yul\":6456:6478   */\n      tag_193\n        /* \"#utility.yul\":6472:6477   */\n      dup2\n        /* \"#utility.yul\":6456:6478   */\n      tag_70\n      jump\t// in\n    tag_193:\n        /* \"#utility.yul\":6451:6454   */\n      dup3\n        /* \"#utility.yul\":6444:6479   */\n      mstore\n        /* \"#utility.yul\":6373:6485   */\n      pop\n      pop\n      jump\t// out\n        /* \"#utility.yul\":6491:6590   */\n    tag_89:\n        /* \"#utility.yul\":6543:6549   */\n      0x00\n        /* \"#utility.yul\":6577:6582   */\n      dup2\n        /* \"#utility.yul\":6571:6583   */\n      mload\n        /* \"#utility.yul\":6561:6583   */\n      swap1\n      pop\n        /* \"#utility.yul\":6491:6590   */\n      swap2\n      swap1\n      pop\n      jump\t// out\n        /* \"#utility.yul\":6596:6765   */\n    tag_90:\n        /* \"#utility.yul\":6680:6691   */\n      0x00\n        /* \"#utility.yul\":6714:6720   */\n      dup3\n        /* \"#utility.yul\":6709:6712   */\n      dup3\n        /* \"#utility.yul\":6702:6721   */\n      mstore\n        /* \"#utility.yul\":6754:6758   */\n      0x20\n        /* \"#utility.yul\":6749:6752   */\n      dup3\n        /* \"#utility.yul\":6745:6759   */\n      add\n        /* \"#utility.yul\":6730:6759   */\n      swap1\n      pop\n        /* \"#utility.yul\":6596:6765   */\n      swap3\n      swap2\n      pop\n      pop\n      jump\t// out\n        /* \"#utility.yul\":6771:6910   */\n    tag_91:\n        /* \"#utility.yul\":6860:6866   */\n      dup3\n        /* \"#utility.yul\":6855:6858   */\n      dup2\n        /* \"#utility.yul\":6850:6853   */\n      dup4\n        /* \"#utility.yul\":6844:6867   */\n      mcopy\n        /* \"#utility.yul\":6901:6902   */\n      0x00\n        /* \"#utility.yul\":6892:6898   */\n      dup4\n        /* \"#utility.yul\":6887:6890   */\n      dup4\n        /* \"#utility.yul\":6883:6899   */\n      add\n        /* \"#utility.yul\":6876:6903   */\n      mstore\n        /* \"#utility.yul\":6771:6910   */\n      pop\n      pop\n      pop\n      jump\t// out\n        /* \"#utility.yul\":6916:7293   */\n    tag_92:\n        /* \"#utility.yul\":7004:7007   */\n      0x00\n        /* \"#utility.yul\":7032:7071   */\n      tag_198\n        /* \"#utility.yul\":7065:7070   */\n      dup3\n        /* \"#utility.yul\":7032:7071   */\n      tag_89\n      jump\t// in\n    tag_198:\n        /* \"#utility.yul\":7087:7158   */\n      tag_199\n        /* \"#utility.yul\":7151:7157   */\n      dup2\n        /* \"#utility.yul\":7146:7149   */\n      dup6\n        /* \"#utility.yul\":7087:7158   */\n      tag_90\n      jump\t// in\n    tag_199:\n        /* \"#utility.yul\":7080:7158   */\n      swap4\n      pop\n        /* \"#utility.yul\":7167:7232   */\n      tag_200\n        /* \"#utility.yul\":7225:7231   */\n      dup2\n        /* \"#utility.yul\":7220:7223   */\n      dup6\n        /* \"#utility.yul\":7213:7217   */\n      0x20\n        /* \"#utility.yul\":7206:7211   */\n      dup7\n        /* \"#utility.yul\":7202:7218   */\n      add\n        /* \"#utility.yul\":7167:7232   */\n      tag_91\n      jump\t// in\n    tag_200:\n        /* \"#utility.yul\":7257:7286   */\n      tag_201\n        /* \"#utility.yul\":7279:7285   */\n      dup2\n        /* \"#utility.yul\":7257:7286   */\n      tag_75\n      jump\t// in\n    tag_201:\n        /* \"#utility.yul\":7252:7255   */\n      dup5\n        /* \"#utility.yul\":7248:7287   */\n      add\n        /* \"#utility.yul\":7241:7287   */\n      swap2\n      pop\n        /* \"#utility.yul\":7008:7293   */\n      pop\n        /* \"#utility.yul\":6916:7293   */\n      swap3\n      swap2\n      pop\n      pop\n      jump\t// out\n        /* \"#utility.yul\":7299:7816   */\n    tag_35:\n        /* \"#utility.yul\":7460:7464   */\n      0x00\n        /* \"#utility.yul\":7498:7500   */\n      0x60\n        /* \"#utility.yul\":7487:7496   */\n      dup3\n        /* \"#utility.yul\":7483:7501   */\n      add\n        /* \"#utility.yul\":7475:7501   */\n      swap1\n      pop\n        /* \"#utility.yul\":7511:7578   */\n      tag_203\n        /* \"#utility.yul\":7575:7576   */\n      0x00\n        /* \"#utility.yul\":7564:7573   */\n      dup4\n        /* \"#utility.yul\":7560:7577   */\n      add\n        /* \"#utility.yul\":7551:7557   */\n      dup7\n        /* \"#utility.yul\":7511:7578   */\n      tag_88\n      jump\t// in\n    tag_203:\n        /* \"#utility.yul\":7588:7656   */\n      tag_204\n        /* \"#utility.yul\":7652:7654   */\n      0x20\n        /* \"#utility.yul\":7641:7650   */\n      dup4\n        /* \"#utility.yul\":7637:7655   */\n      add\n        /* \"#utility.yul\":7628:7634   */\n      dup6\n        /* \"#utility.yul\":7588:7656   */\n      tag_88\n      jump\t// in\n    tag_204:\n        /* \"#utility.yul\":7703:7712   */\n      dup2\n        /* \"#utility.yul\":7697:7701   */\n      dup2\n        /* \"#utility.yul\":7693:7713   */\n      sub\n        /* \"#utility.yul\":7688:7690   */\n      0x40\n        /* \"#utility.yul\":7677:7686   */\n      dup4\n        /* \"#utility.yul\":7673:7691   */\n      add\n        /* \"#utility.yul\":7666:7714   */\n      mstore\n        /* \"#utility.yul\":7731:7809   */\n      tag_205\n        /* \"#utility.yul\":7804:7808   */\n      dup2\n        /* \"#utility.yul\":7795:7801   */\n      dup5\n        /* \"#utility.yul\":7731:7809   */\n      tag_92\n      jump\t// in\n    tag_205:\n        /* \"#utility.yul\":7723:7809   */\n      swap1\n      pop\n        /* \"#utility.yul\":7299:7816   */\n      swap5\n      swap4\n      pop\n      pop\n      pop\n      pop\n      jump\t// out\n        /* \"#utility.yul\":7822:7995   */\n    tag_93:\n        /* \"#utility.yul\":7962:7987   */\n      0x596f75206861766520616c726561647920766f74656421000000000000000000\n        /* \"#utility.yul\":7958:7959   */\n      0x00\n        /* \"#utility.yul\":7950:7956   */\n      dup3\n        /* \"#utility.yul\":7946:7960   */\n      add\n        /* \"#utility.yul\":7939:7988   */\n      mstore\n        /* \"#utility.yul\":7822:7995   */\n      pop\n      jump\t// out\n        /* \"#utility.yul\":8001:8367   */\n    tag_94:\n        /* \"#utility.yul\":8143:8146   */\n      0x00\n        /* \"#utility.yul\":8164:8231   */\n      tag_208\n        /* \"#utility.yul\":8228:8230   */\n      0x17\n        /* \"#utility.yul\":8223:8226   */\n      dup4\n        /* \"#utility.yul\":8164:8231   */\n      tag_90\n      jump\t// in\n    tag_208:\n        /* \"#utility.yul\":8157:8231   */\n      swap2\n      pop\n        /* \"#utility.yul\":8240:8333   */\n      tag_209\n        /* \"#utility.yul\":8329:8332   */\n      dup3\n        /* \"#utility.yul\":8240:8333   */\n      tag_93\n      jump\t// in\n    tag_209:\n        /* \"#utility.yul\":8358:8360   */\n      0x20\n        /* \"#utility.yul\":8353:8356   */\n      dup3\n        /* \"#utility.yul\":8349:8361   */\n      add\n        /* \"#utility.yul\":8342:8361   */\n      swap1\n      pop\n        /* \"#utility.yul\":8001:8367   */\n      swap2\n      swap1\n      pop\n      jump\t// out\n        /* \"#utility.yul\":8373:8792   */\n    tag_39:\n        /* \"#utility.yul\":8539:8543   */\n      0x00\n        /* \"#utility.yul\":8577:8579   */\n      0x20\n        /* \"#utility.yul\":8566:8575   */\n      dup3\n        /* \"#utility.yul\":8562:8580   */\n      add\n        /* \"#utility.yul\":8554:8580   */\n      swap1\n      pop\n        /* \"#utility.yul\":8626:8635   */\n      dup2\n        /* \"#utility.yul\":8620:8624   */\n      dup2\n        /* \"#utility.yul\":8616:8636   */\n      sub\n        /* \"#utility.yul\":8612:8613   */\n      0x00\n        /* \"#utility.yul\":8601:8610   */\n      dup4\n        /* \"#utility.yul\":8597:8614   */\n      add\n        /* \"#utility.yul\":8590:8637   */\n      mstore\n        /* \"#utility.yul\":8654:8785   */\n      tag_211\n        /* \"#utility.yul\":8780:8784   */\n      dup2\n        /* \"#utility.yul\":8654:8785   */\n      tag_94\n      jump\t// in\n    tag_211:\n        /* \"#utility.yul\":8646:8785   */\n      swap1\n      pop\n        /* \"#utility.yul\":8373:8792   */\n      swap2\n      swap1\n      pop\n      jump\t// out\n        /* \"#utility.yul\":8798:8959   */\n    tag_95:\n        /* \"#utility.yul\":8938:8951   */\n      0x206f6e6c79206f776e6572000000000000000000000000000000000000000000\n        /* \"#utility.yul\":8934:8935   */\n      0x00\n        /* \"#utility.yul\":8926:8932   */\n      dup3\n        /* \"#utility.yul\":8922:8936   */\n      add\n        /* \"#utility.yul\":8915:8952   */\n      mstore\n        /* \"#utility.yul\":8798:8959   */\n      pop\n      jump\t// out\n        /* \"#utility.yul\":8965:9331   */\n    tag_96:\n        /* \"#utility.yul\":9107:9110   */\n      0x00\n        /* \"#utility.yul\":9128:9195   */\n      tag_214\n        /* \"#utility.yul\":9192:9194   */\n      0x0b\n        /* \"#utility.yul\":9187:9190   */\n      dup4\n        /* \"#utility.yul\":9128:9195   */\n      tag_90\n      jump\t// in\n    tag_214:\n        /* \"#utility.yul\":9121:9195   */\n      swap2\n      pop\n        /* \"#utility.yul\":9204:9297   */\n      tag_215\n        /* \"#utility.yul\":9293:9296   */\n      dup3\n        /* \"#utility.yul\":9204:9297   */\n      tag_95\n      jump\t// in\n    tag_215:\n        /* \"#utility.yul\":9322:9324   */\n      0x20\n        /* \"#utility.yul\":9317:9320   */\n      dup3\n        /* \"#utility.yul\":9313:9325   */\n      add\n        /* \"#utility.yul\":9306:9325   */\n      swap1\n      pop\n        /* \"#utility.yul\":8965:9331   */\n      swap2\n      swap1\n      pop\n      jump\t// out\n        /* \"#utility.yul\":9337:9756   */\n    tag_44:\n        /* \"#utility.yul\":9503:9507   */\n      0x00\n        /* \"#utility.yul\":9541:9543   */\n      0x20\n        /* \"#utility.yul\":9530:9539   */\n      dup3\n        /* \"#utility.yul\":9526:9544   */\n      add\n        /* \"#utility.yul\":9518:9544   */\n      swap1\n      pop\n        /* \"#utility.yul\":9590:9599   */\n      dup2\n        /* \"#utility.yul\":9584:9588   */\n      dup2\n        /* \"#utility.yul\":9580:9600   */\n      sub\n        /* \"#utility.yul\":9576:9577   */\n      0x00\n        /* \"#utility.yul\":9565:9574   */\n      dup4\n        /* \"#utility.yul\":9561:9578   */\n      add\n        /* \"#utility.yul\":9554:9601   */\n      mstore\n        /* \"#utility.yul\":9618:9749   */\n      tag_217\n        /* \"#utility.yul\":9744:9748   */\n      dup2\n        /* \"#utility.yul\":9618:9749   */\n      tag_96\n      jump\t// in\n    tag_217:\n        /* \"#utility.yul\":9610:9749   */\n      swap1\n      pop\n        /* \"#utility.yul\":9337:9756   */\n      swap2\n      swap1\n      pop\n      jump\t// out\n        /* \"#utility.yul\":9762:9942   */\n    tag_97:\n        /* \"#utility.yul\":9810:9887   */\n      0x4e487b7100000000000000000000000000000000000000000000000000000000\n        /* \"#utility.yul\":9807:9808   */\n      0x00\n        /* \"#utility.yul\":9800:9888   */\n      mstore\n        /* \"#utility.yul\":9907:9911   */\n      0x22\n        /* \"#utility.yul\":9904:9905   */\n      0x04\n        /* \"#utility.yul\":9897:9912   */\n      mstore\n        /* \"#utility.yul\":9931:9935   */\n      0x24\n        /* \"#utility.yul\":9928:9929   */\n      0x00\n        /* \"#utility.yul\":9921:9936   */\n      revert\n        /* \"#utility.yul\":9948:10268   */\n    tag_56:\n        /* \"#utility.yul\":9992:9998   */\n      0x00\n        /* \"#utility.yul\":10029:10030   */\n      0x02\n        /* \"#utility.yul\":10023:10027   */\n      dup3\n        /* \"#utility.yul\":10019:10031   */\n      div\n        /* \"#utility.yul\":10009:10031   */\n      swap1\n      pop\n        /* \"#utility.yul\":10076:10077   */\n      0x01\n        /* \"#utility.yul\":10070:10074   */\n      dup3\n        /* \"#utility.yul\":10066:10078   */\n      and\n        /* \"#utility.yul\":10097:10115   */\n      dup1\n        /* \"#utility.yul\":10087:10168   */\n      tag_220\n      jumpi\n        /* \"#utility.yul\":10153:10157   */\n      0x7f\n        /* \"#utility.yul\":10145:10151   */\n      dup3\n        /* \"#utility.yul\":10141:10158   */\n      and\n        /* \"#utility.yul\":10131:10158   */\n      swap2\n      pop\n        /* \"#utility.yul\":10087:10168   */\n    tag_220:\n        /* \"#utility.yul\":10215:10217   */\n      0x20\n        /* \"#utility.yul\":10207:10213   */\n      dup3\n        /* \"#utility.yul\":10204:10218   */\n      lt\n        /* \"#utility.yul\":10184:10202   */\n      dup2\n        /* \"#utility.yul\":10181:10219   */\n      sub\n        /* \"#utility.yul\":10178:10262   */\n      tag_221\n      jumpi\n        /* \"#utility.yul\":10234:10252   */\n      tag_222\n      tag_97\n      jump\t// in\n    tag_222:\n        /* \"#utility.yul\":10178:10262   */\n    tag_221:\n        /* \"#utility.yul\":9999:10268   */\n      pop\n        /* \"#utility.yul\":9948:10268   */\n      swap2\n      swap1\n      pop\n      jump\t// out\n        /* \"#utility.yul\":10274:10415   */\n    tag_98:\n        /* \"#utility.yul\":10323:10327   */\n      0x00\n        /* \"#utility.yul\":10346:10349   */\n      dup2\n        /* \"#utility.yul\":10338:10349   */\n      swap1\n      pop\n        /* \"#utility.yul\":10369:10372   */\n      dup2\n        /* \"#utility.yul\":10366:10367   */\n      0x00\n        /* \"#utility.yul\":10359:10373   */\n      mstore\n        /* \"#utility.yul\":10403:10407   */\n      0x20\n        /* \"#utility.yul\":10400:10401   */\n      0x00\n        /* \"#utility.yul\":10390:10408   */\n      keccak256\n        /* \"#utility.yul\":10382:10408   */\n      swap1\n      pop\n        /* \"#utility.yul\":10274:10415   */\n      swap2\n      swap1\n      pop\n      jump\t// out\n        /* \"#utility.yul\":10421:10514   */\n    tag_99:\n        /* \"#utility.yul\":10458:10464   */\n      0x00\n        /* \"#utility.yul\":10505:10507   */\n      0x20\n        /* \"#utility.yul\":10500:10502   */\n      0x1f\n        /* \"#utility.yul\":10493:10498   */\n      dup4\n        /* \"#utility.yul\":10489:10503   */\n      add\n        /* \"#utility.yul\":10485:10508   */\n      div\n        /* \"#utility.yul\":10475:10508   */\n      swap1\n      pop\n        /* \"#utility.yul\":10421:10514   */\n      swap2\n      swap1\n      pop\n      jump\t// out\n        /* \"#utility.yul\":10520:10627   */\n    tag_100:\n        /* \"#utility.yul\":10564:10572   */\n      0x00\n        /* \"#utility.yul\":10614:10619   */\n      dup3\n        /* \"#utility.yul\":10608:10612   */\n      dup3\n        /* \"#utility.yul\":10604:10620   */\n      shl\n        /* \"#utility.yul\":10583:10620   */\n      swap1\n      pop\n        /* \"#utility.yul\":10520:10627   */\n      swap3\n      swap2\n      pop\n      pop\n      jump\t// out\n        /* \"#utility.yul\":10633:11026   */\n    tag_101:\n        /* \"#utility.yul\":10702:10708   */\n      0x00\n        /* \"#utility.yul\":10752:10753   */\n      0x08\n        /* \"#utility.yul\":10740:10750   */\n      dup4\n        /* \"#utility.yul\":10736:10754   */\n      mul\n        /* \"#utility.yul\":10775:10872   */\n      tag_227\n        /* \"#utility.yul\":10805:10871   */\n      0xffffffffffffffffffffffffffffffffffffffffffffffffffffffffffffffff\n        /* \"#utility.yul\":10794:10803   */\n      dup3\n        /* \"#utility.yul\":10775:10872   */\n      tag_100\n      jump\t// in\n    tag_227:\n        /* \"#utility.yul\":10893:10932   */\n      tag_228\n        /* \"#utility.yul\":10923:10931   */\n      dup7\n        /* \"#utility.yul\":10912:10921   */\n      dup4\n        /* \"#utility.yul\":10893:10932   */\n      tag_100\n      jump\t// in\n    tag_228:\n        /* \"#utility.yul\":10881:10932   */\n      swap6\n      pop\n        /* \"#utility.yul\":10965:10969   */\n      dup1\n        /* \"#utility.yul\":10961:10970   */\n      not\n        /* \"#utility.yul\":10954:10959   */\n      dup5\n        /* \"#utility.yul\":10950:10971   */\n      and\n        /* \"#utility.yul\":10941:10971   */\n      swap4\n      pop\n        /* \"#utility.yul\":11014:11018   */\n      dup1\n        /* \"#utility.yul\":11004:11012   */\n      dup7\n        /* \"#utility.yul\":11000:11019   */\n      and\n        /* \"#utility.yul\":10993:10998   */\n      dup5\n        /* \"#utility.yul\":10990:11020   */\n      or\n        /* \"#utility.yul\":10980:11020   */\n      swap3\n      pop\n        /* \"#utility.yul\":10709:11026   */\n      pop\n      pop\n        /* \"#utility.yul\":10633:11026   */\n      swap4\n      swap3\n      pop\n      pop\n      pop\n      jump\t// out\n        /* \"#utility.yul\":11032:11092   */\n    tag_102:\n        /* \"#utility.yul\":11060:11063   */\n      0x00\n        /* \"#utility.yul\":11081:11086   */\n      dup2\n        /* \"#utility.yul\":11074:11086   */\n      swap1\n      pop\n        /* \"#utility.yul\":11032:11092   */\n      swap2\n      swap1\n      pop\n      jump\t// out\n        /* \"#utility.yul\":11098:11240   */\n    tag_103:\n        /* \"#utility.yul\":11148:11157   */\n      0x00\n        /* \"#utility.yul\":11181:11234   */\n      tag_231\n        /* \"#utility.yul\":11199:11233   */\n      tag_232\n        /* \"#utility.yul\":11208:11232   */\n      tag_233\n        /* \"#utility.yul\":11226:11231   */\n      dup5\n        /* \"#utility.yul\":11208:11232   */\n      tag_83\n      jump\t// in\n    tag_233:\n        /* \"#utility.yul\":11199:11233   */\n      tag_102\n      jump\t// in\n    tag_232:\n        /* \"#utility.yul\":11181:11234   */\n      tag_83\n      jump\t// in\n    tag_231:\n        /* \"#utility.yul\":11168:11234   */\n      swap1\n      pop\n        /* \"#utility.yul\":11098:11240   */\n      swap2\n      swap1\n      pop\n      jump\t// out\n        /* \"#utility.yul\":11246:11321   */\n    tag_104:\n        /* \"#utility.yul\":11289:11292   */\n      0x00\n        /* \"#utility.yul\":11310:11315   */\n      dup2\n        /* \"#utility.yul\":11303:11315   */\n      swap1\n      pop\n        /* \"#utility.yul\":11246:11321   */\n      swap2\n      swap1\n      pop\n      jump\t// out\n        /* \"#utility.yul\":11327:11596   */\n    tag_105:\n        /* \"#utility.yul\":11437:11476   */\n      tag_236\n        /* \"#utility.yul\":11468:11475   */\n      dup4\n        /* \"#utility.yul\":11437:11476   */\n      tag_103\n      jump\t// in\n    tag_236:\n        /* \"#utility.yul\":11498:11589   */\n      tag_237\n        /* \"#utility.yul\":11547:11588   */\n      tag_238\n        /* \"#utility.yul\":11571:11587   */\n      dup3\n        /* \"#utility.yul\":11547:11588   */\n      tag_104\n      jump\t// in\n    tag_238:\n        /* \"#utility.yul\":11539:11545   */\n      dup5\n        /* \"#utility.yul\":11532:11536   */\n      dup5\n        /* \"#utility.yul\":11526:11537   */\n      sload\n        /* \"#utility.yul\":11498:11589   */\n      tag_101\n      jump\t// in\n    tag_237:\n        /* \"#utility.yul\":11492:11496   */\n      dup3\n        /* \"#utility.yul\":11485:11590   */\n      sstore\n        /* \"#utility.yul\":11403:11596   */\n      pop\n        /* \"#utility.yul\":11327:11596   */\n      pop\n      pop\n      pop\n      jump\t// out\n        /* \"#utility.yul\":11602:11675   */\n    tag_106:\n        /* \"#utility.yul\":11647:11650   */\n      0x00\n        /* \"#utility.yul\":11668:11669   */\n      0x00\n        /* \"#utility.yul\":11661:11669   */\n      swap1\n      pop\n        /* \"#utility.yul\":11602:11675   */\n      swap1\n      jump\t// out\n        /* \"#utility.yul\":11681:11870   */\n    tag_107:\n        /* \"#utility.yul\":11758:11790   */\n      tag_241\n      tag_106\n      jump\t// in\n    tag_241:\n        /* \"#utility.yul\":11799:11864   */\n      tag_242\n        /* \"#utility.yul\":11857:11863   */\n      dup2\n        /* \"#utility.yul\":11849:11855   */\n      dup5\n        /* \"#utility.yul\":11843:11847   */\n      dup5\n        /* \"#utility.yul\":11799:11864   */\n      tag_105\n      jump\t// in\n    tag_242:\n        /* \"#utility.yul\":11734:11870   */\n      pop\n        /* \"#utility.yul\":11681:11870   */\n      pop\n      pop\n      jump\t// out\n        /* \"#utility.yul\":11876:12062   */\n    tag_108:\n        /* \"#utility.yul\":11936:12056   */\n    tag_244:\n        /* \"#utility.yul\":11953:11956   */\n      dup2\n        /* \"#utility.yul\":11946:11951   */\n      dup2\n        /* \"#utility.yul\":11943:11957   */\n      lt\n        /* \"#utility.yul\":11936:12056   */\n      iszero\n      tag_246\n      jumpi\n        /* \"#utility.yul\":12007:12046   */\n      tag_247\n        /* \"#utility.yul\":12044:12045   */\n      0x00\n        /* \"#utility.yul\":12037:12042   */\n      dup3\n        /* \"#utility.yul\":12007:12046   */\n      tag_107\n      jump\t// in\n    tag_247:\n        /* \"#utility.yul\":11980:11981   */\n      0x01\n        /* \"#utility.yul\":11973:11978   */\n      dup2\n        /* \"#utility.yul\":11969:11982   */\n      add\n        /* \"#utility.yul\":11960:11982   */\n      swap1\n      pop\n        /* \"#utility.yul\":11936:12056   */\n      jump(tag_244)\n    tag_246:\n        /* \"#utility.yul\":11876:12062   */\n      pop\n      pop\n      jump\t// out\n        /* \"#utility.yul\":12068:12611   */\n    tag_109:\n        /* \"#utility.yul\":12169:12171   */\n      0x1f\n        /* \"#utility.yul\":12164:12167   */\n      dup3\n        /* \"#utility.yul\":12161:12172   */\n      gt\n        /* \"#utility.yul\":12158:12604   */\n      iszero\n      tag_249\n      jumpi\n        /* \"#utility.yul\":12203:12241   */\n      tag_250\n        /* \"#utility.yul\":12235:12240   */\n      dup2\n        /* \"#utility.yul\":12203:12241   */\n      tag_98\n      jump\t// in\n    tag_250:\n        /* \"#utility.yul\":12287:12316   */\n      tag_251\n        /* \"#utility.yul\":12305:12315   */\n      dup5\n        /* \"#utility.yul\":12287:12316   */\n      tag_99\n      jump\t// in\n    tag_251:\n        /* \"#utility.yul\":12277:12285   */\n      dup2\n        /* \"#utility.yul\":12273:12317   */\n      add\n        /* \"#utility.yul\":12470:12472   */\n      0x20\n        /* \"#utility.yul\":12458:12468   */\n      dup6\n        /* \"#utility.yul\":12455:12473   */\n      lt\n        /* \"#utility.yul\":12452:12501   */\n      iszero\n      tag_252\n      jumpi\n        /* \"#utility.yul\":12491:12499   */\n      dup2\n        /* \"#utility.yul\":12476:12499   */\n      swap1\n      pop\n        /* \"#utility.yul\":12452:12501   */\n    tag_252:\n        /* \"#utility.yul\":12514:12594   */\n      tag_253\n        /* \"#utility.yul\":12570:12592   */\n      tag_254\n        /* \"#utility.yul\":12588:12591   */\n      dup6\n        /* \"#utility.yul\":12570:12592   */\n      tag_99\n      jump\t// in\n    tag_254:\n        /* \"#utility.yul\":12560:12568   */\n      dup4\n        /* \"#utility.yul\":12556:12593   */\n      add\n        /* \"#utility.yul\":12543:12554   */\n      dup3\n        /* \"#utility.yul\":12514:12594   */\n      tag_108\n      jump\t// in\n    tag_253:\n        /* \"#utility.yul\":12173:12604   */\n      pop\n      pop\n        /* \"#utility.yul\":12158:12604   */\n    tag_249:\n        /* \"#utility.yul\":12068:12611   */\n      pop\n      pop\n      pop\n      jump\t// out\n        /* \"#utility.yul\":12617:12734   */\n    tag_110:\n        /* \"#utility.yul\":12671:12679   */\n      0x00\n        /* \"#utility.yul\":12721:12726   */\n      dup3\n        /* \"#utility.yul\":12715:12719   */\n      dup3\n        /* \"#utility.yul\":12711:12727   */\n      shr\n        /* \"#utility.yul\":12690:12727   */\n      swap1\n      pop\n        /* \"#utility.yul\":12617:12734   */\n      swap3\n      swap2\n      pop\n      pop\n      jump\t// out\n        /* \"#utility.yul\":12740:12909   */\n    tag_111:\n        /* \"#utility.yul\":12784:12790   */\n      0x00\n        /* \"#utility.yul\":12817:12868   */\n      tag_257\n        /* \"#utility.yul\":12865:12866   */\n      0x00\n        /* \"#utility.yul\":12861:12867   */\n      not\n        /* \"#utility.yul\":12853:12858   */\n      dup5\n        /* \"#utility.yul\":12850:12851   */\n      0x08\n        /* \"#utility.yul\":12846:12859   */\n      mul\n        /* \"#utility.yul\":12817:12868   */\n      tag_110\n      jump\t// in\n    tag_257:\n        /* \"#utility.yul\":12813:12869   */\n      not\n        /* \"#utility.yul\":12898:12902   */\n      dup1\n        /* \"#utility.yul\":12892:12896   */\n      dup4\n        /* \"#utility.yul\":12888:12903   */\n      and\n        /* \"#utility.yul\":12878:12903   */\n      swap2\n      pop\n        /* \"#utility.yul\":12791:12909   */\n      pop\n        /* \"#utility.yul\":12740:12909   */\n      swap3\n      swap2\n      pop\n      pop\n      jump\t// out\n        /* \"#utility.yul\":12914:13209   */\n    tag_112:\n        /* \"#utility.yul\":12990:12994   */\n      0x00\n        /* \"#utility.yul\":13136:13165   */\n      tag_259\n        /* \"#utility.yul\":13161:13164   */\n      dup4\n        /* \"#utility.yul\":13155:13159   */\n      dup4\n        /* \"#utility.yul\":13136:13165   */\n      tag_111\n      jump\t// in\n    tag_259:\n        /* \"#utility.yul\":13128:13165   */\n      swap2\n      pop\n        /* \"#utility.yul\":13198:13201   */\n      dup3\n        /* \"#utility.yul\":13195:13196   */\n      0x02\n        /* \"#utility.yul\":13191:13202   */\n      mul\n        /* \"#utility.yul\":13185:13189   */\n      dup3\n        /* \"#utility.yul\":13182:13203   */\n      or\n        /* \"#utility.yul\":13174:13203   */\n      swap1\n      pop\n        /* \"#utility.yul\":12914:13209   */\n      swap3\n      swap2\n      pop\n      pop\n      jump\t// out\n        /* \"#utility.yul\":13214:14609   */\n    tag_48:\n        /* \"#utility.yul\":13331:13368   */\n      tag_261\n        /* \"#utility.yul\":13364:13367   */\n      dup3\n        /* \"#utility.yul\":13331:13368   */\n      tag_89\n      jump\t// in\n    tag_261:\n        /* \"#utility.yul\":13433:13451   */\n      0xffffffffffffffff\n        /* \"#utility.yul\":13425:13431   */\n      dup2\n        /* \"#utility.yul\":13422:13452   */\n      gt\n        /* \"#utility.yul\":13419:13475   */\n      iszero\n      tag_262\n      jumpi\n        /* \"#utility.yul\":13455:13473   */\n      tag_263\n      tag_76\n      jump\t// in\n    tag_263:\n        /* \"#utility.yul\":13419:13475   */\n    tag_262:\n        /* \"#utility.yul\":13499:13537   */\n      tag_264\n        /* \"#utility.yul\":13531:13535   */\n      dup3\n        /* \"#utility.yul\":13525:13536   */\n      sload\n        /* \"#utility.yul\":13499:13537   */\n      tag_56\n      jump\t// in\n    tag_264:\n        /* \"#utility.yul\":13584:13651   */\n      tag_265\n        /* \"#utility.yul\":13644:13650   */\n      dup3\n        /* \"#utility.yul\":13636:13642   */\n      dup3\n        /* \"#utility.yul\":13630:13634   */\n      dup6\n        /* \"#utility.yul\":13584:13651   */\n      tag_109\n      jump\t// in\n    tag_265:\n        /* \"#utility.yul\":13678:13679   */\n      0x00\n        /* \"#utility.yul\":13702:13706   */\n      0x20\n        /* \"#utility.yul\":13689:13706   */\n      swap1\n      pop\n        /* \"#utility.yul\":13734:13736   */\n      0x1f\n        /* \"#utility.yul\":13726:13732   */\n      dup4\n        /* \"#utility.yul\":13723:13737   */\n      gt\n        /* \"#utility.yul\":13751:13752   */\n      0x01\n        /* \"#utility.yul\":13746:14364   */\n      dup2\n      eq\n      tag_267\n      jumpi\n        /* \"#utility.yul\":14408:14409   */\n      0x00\n        /* \"#utility.yul\":14425:14431   */\n      dup5\n        /* \"#utility.yul\":14422:14499   */\n      iszero\n      tag_268\n      jumpi\n        /* \"#utility.yul\":14474:14483   */\n      dup3\n        /* \"#utility.yul\":14469:14472   */\n      dup8\n        /* \"#utility.yul\":14465:14484   */\n      add\n        /* \"#utility.yul\":14459:14485   */\n      mload\n        /* \"#utility.yul\":14450:14485   */\n      swap1\n      pop\n        /* \"#utility.yul\":14422:14499   */\n    tag_268:\n        /* \"#utility.yul\":14525:14592   */\n      tag_269\n        /* \"#utility.yul\":14585:14591   */\n      dup6\n        /* \"#utility.yul\":14578:14583   */\n      dup3\n        /* \"#utility.yul\":14525:14592   */\n      tag_112\n      jump\t// in\n    tag_269:\n        /* \"#utility.yul\":14519:14523   */\n      dup7\n        /* \"#utility.yul\":14512:14593   */\n      sstore\n        /* \"#utility.yul\":14381:14603   */\n      pop\n        /* \"#utility.yul\":13716:14603   */\n      jump(tag_266)\n        /* \"#utility.yul\":13746:14364   */\n    tag_267:\n        /* \"#utility.yul\":13798:13802   */\n      0x1f\n        /* \"#utility.yul\":13794:13803   */\n      not\n        /* \"#utility.yul\":13786:13792   */\n      dup5\n        /* \"#utility.yul\":13782:13804   */\n      and\n        /* \"#utility.yul\":13832:13869   */\n      tag_270\n        /* \"#utility.yul\":13864:13868   */\n      dup7\n        /* \"#utility.yul\":13832:13869   */\n      tag_98\n      jump\t// in\n    tag_270:\n        /* \"#utility.yul\":13891:13892   */\n      0x00\n        /* \"#utility.yul\":13905:14113   */\n    tag_271:\n        /* \"#utility.yul\":13919:13926   */\n      dup3\n        /* \"#utility.yul\":13916:13917   */\n      dup2\n        /* \"#utility.yul\":13913:13927   */\n      lt\n        /* \"#utility.yul\":13905:14113   */\n      iszero\n      tag_273\n      jumpi\n        /* \"#utility.yul\":13998:14007   */\n      dup5\n        /* \"#utility.yul\":13993:13996   */\n      dup10\n        /* \"#utility.yul\":13989:14008   */\n      add\n        /* \"#utility.yul\":13983:14009   */\n      mload\n        /* \"#utility.yul\":13975:13981   */\n      dup3\n        /* \"#utility.yul\":13968:14010   */\n      sstore\n        /* \"#utility.yul\":14049:14050   */\n      0x01\n        /* \"#utility.yul\":14041:14047   */\n      dup3\n        /* \"#utility.yul\":14037:14051   */\n      add\n        /* \"#utility.yul\":14027:14051   */\n      swap2\n      pop\n        /* \"#utility.yul\":14096:14098   */\n      0x20\n        /* \"#utility.yul\":14085:14094   */\n      dup6\n        /* \"#utility.yul\":14081:14099   */\n      add\n        /* \"#utility.yul\":14068:14099   */\n      swap5\n      pop\n        /* \"#utility.yul\":13942:13946   */\n      0x20\n        /* \"#utility.yul\":13939:13940   */\n      dup2\n        /* \"#utility.yul\":13935:13947   */\n      add\n        /* \"#utility.yul\":13930:13947   */\n      swap1\n      pop\n        /* \"#utility.yul\":13905:14113   */\n      jump(tag_271)\n    tag_273:\n        /* \"#utility.yul\":14141:14147   */\n      dup7\n        /* \"#utility.yul\":14132:14139   */\n      dup4\n        /* \"#utility.yul\":14129:14148   */\n      lt\n        /* \"#utility.yul\":14126:14305   */\n      iszero\n      tag_274\n      jumpi\n        /* \"#utility.yul\":14199:14208   */\n      dup5\n        /* \"#utility.yul\":14194:14197   */\n      dup10\n        /* \"#utility.yul\":14190:14209   */\n      add\n        /* \"#utility.yul\":14184:14210   */\n      mload\n        /* \"#utility.yul\":14242:14290   */\n      tag_275\n        /* \"#utility.yul\":14284:14288   */\n      0x1f\n        /* \"#utility.yul\":14276:14282   */\n      dup10\n        /* \"#utility.yul\":14272:14289   */\n      and\n        /* \"#utility.yul\":14261:14270   */\n      dup3\n        /* \"#utility.yul\":14242:14290   */\n      tag_111\n      jump\t// in\n    tag_275:\n        /* \"#utility.yul\":14234:14240   */\n      dup4\n        /* \"#utility.yul\":14227:14291   */\n      sstore\n        /* \"#utility.yul\":14149:14305   */\n      pop\n        /* \"#utility.yul\":14126:14305   */\n    tag_274:\n        /* \"#utility.yul\":14351:14352   */\n      0x01\n        /* \"#utility.yul\":14347:14348   */\n      0x02\n        /* \"#utility.yul\":14339:14345   */\n      dup9\n        /* \"#utility.yul\":14335:14349   */\n      mul\n        /* \"#utility.yul\":14331:14353   */\n      add\n        /* \"#utility.yul\":14325:14329   */\n      dup9\n        /* \"#utility.yul\":14318:14354   */\n      sstore\n        /* \"#utility.yul\":13753:14364   */\n      pop\n      pop\n      pop\n        /* \"#utility.yul\":13716:14603   */\n    tag_266:\n      pop\n        /* \"#utility.yul\":13306:14609   */\n      pop\n      pop\n      pop\n        /* \"#utility.yul\":13214:14609   */\n      pop\n      pop\n      jump\t// out\n\n    auxdata: 0xa2646970667358221220ea120e772c52ad8fe8481794af7aa792b14c881e6fe608470c09f3ec232edcfd64736f6c634300081e0033\n}\n",
				"bytecode": {
					"linkReferences": {},
					"object": "6080604052348015600e575f5ffd5b503360025f6101000a81548173ffffffffffffffffffffffffffffffffffffffff021916908373ffffffffffffffffffffffffffffffffffffffff160217905550610cda8061005c5f395ff3fe608060405234801561000f575f5ffd5b5060043610610060575f3560e01c806309eef43e146100645780631c5657ef146100945780632313d13d146100b05780633f52cfd5146100cc5780638da5cb5b146100ea578063da58c7d914610108575b5f5ffd5b61007e60048036038101906100799190610573565b61013a565b60405161008b91906105b8565b60405180910390f35b6100ae60048036038101906100a99190610743565b610157565b005b6100ca60048036038101906100c59190610743565b610245565b005b6100d4610377565b6040516100e191906107c7565b60405180910390f35b6100f2610411565b6040516100ff91906107ef565b60405180910390f35b610122600480360381019061011d9190610832565b610436565b604051610131939291906108cc565b60405180910390f35b6001602052805f5260405f205f915054906101000a900460ff1681565b60015f3373ffffffffffffffffffffffffffffffffffffffff1673ffffffffffffffffffffffffffffffffffffffff1681526020019081526020015f205f9054906101000a900460ff16156101e1576040517f08c379a00000000000000000000000000000000000000000000000000000000081526004016101d890610952565b60405180910390fd5b6001805f3373ffffffffffffffffffffffffffffffffffffffff1673ffffffffffffffffffffffffffffffffffffffff1681526020019081526020015f205f6101000a81548160ff021916908315150217905550610240838383610245565b505050565b3373ffffffffffffffffffffffffffffffffffffffff1660025f9054906101000a900473ffffffffffffffffffffffffffffffffffffffff1673ffffffffffffffffffffffffffffffffffffffff16146102d4576040517f08c379a00000000000000000000000000000000000000000000000000000000081526004016102cb906109ba565b60405180910390fd5b5f60405180606001604052808560ff1681526020018460ff16815260200183815250908060018154018082558091505060019003905f5260205f2090600202015f909190919091505f820151815f015f6101000a81548160ff021916908360ff1602179055506020820151815f0160016101000a81548160ff021916908360ff160217905550604082015181600101908161036f9190610bd5565b505050505050565b5f3373ffffffffffffffffffffffffffffffffffffffff1660025f9054906101000a900473ffffffffffffffffffffffffffffffffffffffff1673ffffffffffffffffffffffffffffffffffffffff1614610407576040517f08c379a00000000000000000000000000000000000000000000000000000000081526004016103fe906109ba565b60405180910390fd5b5f80549050905090565b60025f9054906101000a900473ffffffffffffffffffffffffffffffffffffffff1681565b5f8181548110610444575f80fd5b905f5260205f2090600202015f91509050805f015f9054906101000a900460ff1690805f0160019054906101000a900460ff169080600101805461048790610a05565b80601f01602080910402602001604051908101604052809291908181526020018280546104b390610a05565b80156104fe5780601f106104d5576101008083540402835291602001916104fe565b820191905f5260205f20905b8154815290600101906020018083116104e157829003601f168201915b5050505050905083565b5f604051905090565b5f5ffd5b5f5ffd5b5f73ffffffffffffffffffffffffffffffffffffffff82169050919050565b5f61054282610519565b9050919050565b61055281610538565b811461055c575f5ffd5b50565b5f8135905061056d81610549565b92915050565b5f6020828403121561058857610587610511565b5b5f6105958482850161055f565b91505092915050565b5f8115159050919050565b6105b28161059e565b82525050565b5f6020820190506105cb5f8301846105a9565b92915050565b5f60ff82169050919050565b6105e6816105d1565b81146105f0575f5ffd5b50565b5f81359050610601816105dd565b92915050565b5f5ffd5b5f5ffd5b5f601f19601f8301169050919050565b7f4e487b71000000000000000000000000000000000000000000000000000000005f52604160045260245ffd5b6106558261060f565b810181811067ffffffffffffffff821117156106745761067361061f565b5b80604052505050565b5f610686610508565b9050610692828261064c565b919050565b5f67ffffffffffffffff8211156106b1576106b061061f565b5b6106ba8261060f565b9050602081019050919050565b828183375f83830152505050565b5f6106e76106e284610697565b61067d565b9050828152602081018484840111156107035761070261060b565b5b61070e8482856106c7565b509392505050565b5f82601f83011261072a57610729610607565b5b813561073a8482602086016106d5565b91505092915050565b5f5f5f6060848603121561075a57610759610511565b5b5f610767868287016105f3565b9350506020610778868287016105f3565b925050604084013567ffffffffffffffff81111561079957610798610515565b5b6107a586828701610716565b9150509250925092565b5f819050919050565b6107c1816107af565b82525050565b5f6020820190506107da5f8301846107b8565b92915050565b6107e981610538565b82525050565b5f6020820190506108025f8301846107e0565b92915050565b610811816107af565b811461081b575f5ffd5b50565b5f8135905061082c81610808565b92915050565b5f6020828403121561084757610846610511565b5b5f6108548482850161081e565b91505092915050565b610866816105d1565b82525050565b5f81519050919050565b5f82825260208201905092915050565b8281835e5f83830152505050565b5f61089e8261086c565b6108a88185610876565b93506108b8818560208601610886565b6108c18161060f565b840191505092915050565b5f6060820190506108df5f83018661085d565b6108ec602083018561085d565b81810360408301526108fe8184610894565b9050949350505050565b7f596f75206861766520616c726561647920766f746564210000000000000000005f82015250565b5f61093c601783610876565b915061094782610908565b602082019050919050565b5f6020820190508181035f83015261096981610930565b9050919050565b7f206f6e6c79206f776e65720000000000000000000000000000000000000000005f82015250565b5f6109a4600b83610876565b91506109af82610970565b602082019050919050565b5f6020820190508181035f8301526109d181610998565b9050919050565b7f4e487b71000000000000000000000000000000000000000000000000000000005f52602260045260245ffd5b5f6002820490506001821680610a1c57607f821691505b602082108103610a2f57610a2e6109d8565b5b50919050565b5f819050815f5260205f209050919050565b5f6020601f8301049050919050565b5f82821b905092915050565b5f60088302610a917fffffffffffffffffffffffffffffffffffffffffffffffffffffffffffffffff82610a56565b610a9b8683610a56565b95508019841693508086168417925050509392505050565b5f819050919050565b5f610ad6610ad1610acc846107af565b610ab3565b6107af565b9050919050565b5f819050919050565b610aef83610abc565b610b03610afb82610add565b848454610a62565b825550505050565b5f5f905090565b610b1a610b0b565b610b25818484610ae6565b505050565b5b81811015610b4857610b3d5f82610b12565b600181019050610b2b565b5050565b601f821115610b8d57610b5e81610a35565b610b6784610a47565b81016020851015610b76578190505b610b8a610b8285610a47565b830182610b2a565b50505b505050565b5f82821c905092915050565b5f610bad5f1984600802610b92565b1980831691505092915050565b5f610bc58383610b9e565b9150826002028217905092915050565b610bde8261086c565b67ffffffffffffffff811115610bf757610bf661061f565b5b610c018254610a05565b610c0c828285610b4c565b5f60209050601f831160018114610c3d575f8415610c2b578287015190505b610c358582610bba565b865550610c9c565b601f198416610c4b86610a35565b5f5b82811015610c7257848901518255600182019150602085019450602081019050610c4d565b86831015610c8f5784890151610c8b601f891682610b9e565b8355505b6001600288020188555050505b50505050505056fea2646970667358221220ea120e772c52ad8fe8481794af7aa792b14c881e6fe608470c09f3ec232edcfd64736f6c634300081e0033",
					"opcodes": "PUSH1 0x80 PUSH1 0x40 MSTORE CALLVALUE DUP1 ISZERO PUSH1 0xE JUMPI PUSH0 PUSH0 REVERT JUMPDEST POP CALLER PUSH1 0x2 PUSH0 PUSH2 0x100 EXP DUP2 SLOAD DUP2 PUSH20 0xFFFFFFFFFFFFFFFFFFFFFFFFFFFFFFFFFFFFFFFF MUL NOT AND SWAP1 DUP4 PUSH20 0xFFFFFFFFFFFFFFFFFFFFFFFFFFFFFFFFFFFFFFFF AND MUL OR SWAP1 SSTORE POP PUSH2 0xCDA DUP1 PUSH2 0x5C PUSH0 CODECOPY PUSH0 RETURN INVALID PUSH1 0x80 PUSH1 0x40 MSTORE CALLVALUE DUP1 ISZERO PUSH2 0xF JUMPI PUSH0 PUSH0 REVERT JUMPDEST POP PUSH1 0x4 CALLDATASIZE LT PUSH2 0x60 JUMPI PUSH0 CALLDATALOAD PUSH1 0xE0 SHR DUP1 PUSH4 0x9EEF43E EQ PUSH2 0x64 JUMPI DUP1 PUSH4 0x1C5657EF EQ PUSH2 0x94 JUMPI DUP1 PUSH4 0x2313D13D EQ PUSH2 0xB0 JUMPI DUP1 PUSH4 0x3F52CFD5 EQ PUSH2 0xCC JUMPI DUP1 PUSH4 0x8DA5CB5B EQ PUSH2 0xEA JUMPI DUP1 PUSH4 0xDA58C7D9 EQ PUSH2 0x108 JUMPI JUMPDEST PUSH0 PUSH0 REVERT JUMPDEST PUSH2 0x7E PUSH1 0x4 DUP1 CALLDATASIZE SUB DUP2 ADD SWAP1 PUSH2 0x79 SWAP2 SWAP1 PUSH2 0x573 JUMP JUMPDEST PUSH2 0x13A JUMP JUMPDEST PUSH1 0x40 MLOAD PUSH2 0x8B SWAP2 SWAP1 PUSH2 0x5B8 JUMP JUMPDEST PUSH1 0x40 MLOAD DUP1 SWAP2 SUB SWAP1 RETURN JUMPDEST PUSH2 0xAE PUSH1 0x4 DUP1 CALLDATASIZE SUB DUP2 ADD SWAP1 PUSH2 0xA9 SWAP2 SWAP1 PUSH2 0x743 JUMP JUMPDEST PUSH2 0x157 JUMP JUMPDEST STOP JUMPDEST PUSH2 0xCA PUSH1 0x4 DUP1 CALLDATASIZE SUB DUP2 ADD SWAP1 PUSH2 0xC5 SWAP2 SWAP1 PUSH2 0x743 JUMP JUMPDEST PUSH2 0x245 JUMP JUMPDEST STOP JUMPDEST PUSH2 0xD4 PUSH2 0x377 JUMP JUMPDEST PUSH1 0x40 MLOAD PUSH2 0xE1 SWAP2 SWAP1 PUSH2 0x7C7 JUMP JUMPDEST PUSH1 0x40 MLOAD DUP1 SWAP2 SUB SWAP1 RETURN JUMPDEST PUSH2 0xF2 PUSH2 0x411 JUMP JUMPDEST PUSH1 0x40 MLOAD PUSH2 0xFF SWAP2 SWAP1 PUSH2 0x7EF JUMP JUMPDEST PUSH1 0x40 MLOAD DUP1 SWAP2 SUB SWAP1 RETURN JUMPDEST PUSH2 0x122 PUSH1 0x4 DUP1 CALLDATASIZE SUB DUP2 ADD SWAP1 PUSH2 0x11D SWAP2 SWAP1 PUSH2 0x832 JUMP JUMPDEST PUSH2 0x436 JUMP JUMPDEST PUSH1 0x40 MLOAD PUSH2 0x131 SWAP4 SWAP3 SWAP2 SWAP1 PUSH2 0x8CC JUMP JUMPDEST PUSH1 0x40 MLOAD DUP1 SWAP2 SUB SWAP1 RETURN JUMPDEST PUSH1 0x1 PUSH1 0x20 MSTORE DUP1 PUSH0 MSTORE PUSH1 0x40 PUSH0 KECCAK256 PUSH0 SWAP2 POP SLOAD SWAP1 PUSH2 0x100 EXP SWAP1 DIV PUSH1 0xFF AND DUP2 JUMP JUMPDEST PUSH1 0x1 PUSH0 CALLER PUSH20 0xFFFFFFFFFFFFFFFFFFFFFFFFFFFFFFFFFFFFFFFF AND PUSH20 0xFFFFFFFFFFFFFFFFFFFFFFFFFFFFFFFFFFFFFFFF AND DUP2 MSTORE PUSH1 0x20 ADD SWAP1 DUP2 MSTORE PUSH1 0x20 ADD PUSH0 KECCAK256 PUSH0 SWAP1 SLOAD SWAP1 PUSH2 0x100 EXP SWAP1 DIV PUSH1 0xFF AND ISZERO PUSH2 0x1E1 JUMPI PUSH1 0x40 MLOAD PUSH32 0x8C379A000000000000000000000000000000000000000000000000000000000 DUP2 MSTORE PUSH1 0x4 ADD PUSH2 0x1D8 SWAP1 PUSH2 0x952 JUMP JUMPDEST PUSH1 0x40 MLOAD DUP1 SWAP2 SUB SWAP1 REVERT JUMPDEST PUSH1 0x1 DUP1 PUSH0 CALLER PUSH20 0xFFFFFFFFFFFFFFFFFFFFFFFFFFFFFFFFFFFFFFFF AND PUSH20 0xFFFFFFFFFFFFFFFFFFFFFFFFFFFFFFFFFFFFFFFF AND DUP2 MSTORE PUSH1 0x20 ADD SWAP1 DUP2 MSTORE PUSH1 0x20 ADD PUSH0 KECCAK256 PUSH0 PUSH2 0x100 EXP DUP2 SLOAD DUP2 PUSH1 0xFF MUL NOT AND SWAP1 DUP4 ISZERO ISZERO MUL OR SWAP1 SSTORE POP PUSH2 0x240 DUP4 DUP4 DUP4 PUSH2 0x245 JUMP JUMPDEST POP POP POP JUMP JUMPDEST CALLER PUSH20 0xFFFFFFFFFFFFFFFFFFFFFFFFFFFFFFFFFFFFFFFF AND PUSH1 0x2 PUSH0 SWAP1 SLOAD SWAP1 PUSH2 0x100 EXP SWAP1 DIV PUSH20 0xFFFFFFFFFFFFFFFFFFFFFFFFFFFFFFFFFFFFFFFF AND PUSH20 0xFFFFFFFFFFFFFFFFFFFFFFFFFFFFFFFFFFFFFFFF AND EQ PUSH2 0x2D4 JUMPI PUSH1 0x40 MLOAD PUSH32 0x8C379A000000000000000000000000000000000000000000000000000000000 DUP2 MSTORE PUSH1 0x4 ADD PUSH2 0x2CB SWAP1 PUSH2 0x9BA JUMP JUMPDEST PUSH1 0x40 MLOAD DUP1 SWAP2 SUB SWAP1 REVERT JUMPDEST PUSH0 PUSH1 0x40 MLOAD DUP1 PUSH1 0x60 ADD PUSH1 0x40 MSTORE DUP1 DUP6 PUSH1 0xFF AND DUP2 MSTORE PUSH1 0x20 ADD DUP5 PUSH1 0xFF AND DUP2 MSTORE PUSH1 0x20 ADD DUP4 DUP2 MSTORE POP SWAP1 DUP1 PUSH1 0x1 DUP2 SLOAD ADD DUP1 DUP3 SSTORE DUP1 SWAP2 POP POP PUSH1 0x1 SWAP1 SUB SWAP1 PUSH0 MSTORE PUSH1 0x20 PUSH0 KECCAK256 SWAP1 PUSH1 0x2 MUL ADD PUSH0 SWAP1 SWAP2 SWAP1 SWAP2 SWAP1 SWAP2 POP PUSH0 DUP3 ADD MLOAD DUP2 PUSH0 ADD PUSH0 PUSH2 0x100 EXP DUP2 SLOAD DUP2 PUSH1 0xFF MUL NOT AND SWAP1 DUP4 PUSH1 0xFF AND MUL OR SWAP1 SSTORE POP PUSH1 0x20 DUP3 ADD MLOAD DUP2 PUSH0 ADD PUSH1 0x1 PUSH2 0x100 EXP DUP2 SLOAD DUP2 PUSH1 0xFF MUL NOT AND SWAP1 DUP4 PUSH1 0xFF AND MUL OR SWAP1 SSTORE POP PUSH1 0x40 DUP3 ADD MLOAD DUP2 PUSH1 0x1 ADD SWAP1 DUP2 PUSH2 0x36F SWAP2 SWAP1 PUSH2 0xBD5 JUMP JUMPDEST POP POP POP POP POP POP JUMP JUMPDEST PUSH0 CALLER PUSH20 0xFFFFFFFFFFFFFFFFFFFFFFFFFFFFFFFFFFFFFFFF AND PUSH1 0x2 PUSH0 SWAP1 SLOAD SWAP1 PUSH2 0x100 EXP SWAP1 DIV PUSH20 0xFFFFFFFFFFFFFFFFFFFFFFFFFFFFFFFFFFFFFFFF AND PUSH20 0xFFFFFFFFFFFFFFFFFFFFFFFFFFFFFFFFFFFFFFFF AND EQ PUSH2 0x407 JUMPI PUSH1 0x40 MLOAD PUSH32 0x8C379A000000000000000000000000000000000000000000000000000000000 DUP2 MSTORE PUSH1 0x4 ADD PUSH2 0x3FE SWAP1 PUSH2 0x9BA JUMP JUMPDEST PUSH1 0x40 MLOAD DUP1 SWAP2 SUB SWAP1 REVERT JUMPDEST PUSH0 DUP1 SLOAD SWAP1 POP SWAP1 POP SWAP1 JUMP JUMPDEST PUSH1 0x2 PUSH0 SWAP1 SLOAD SWAP1 PUSH2 0x100 EXP SWAP1 DIV PUSH20 0xFFFFFFFFFFFFFFFFFFFFFFFFFFFFFFFFFFFFFFFF AND DUP2 JUMP JUMPDEST PUSH0 DUP2 DUP2 SLOAD DUP2 LT PUSH2 0x444 JUMPI PUSH0 DUP1 REVERT JUMPDEST SWAP1 PUSH0 MSTORE PUSH1 0x20 PUSH0 KECCAK256 SWAP1 PUSH1 0x2 MUL ADD PUSH0 SWAP2 POP SWAP1 POP DUP1 PUSH0 ADD PUSH0 SWAP1 SLOAD SWAP1 PUSH2 0x100 EXP SWAP1 DIV PUSH1 0xFF AND SWAP1 DUP1 PUSH0 ADD PUSH1 0x1 SWAP1 SLOAD SWAP1 PUSH2 0x100 EXP SWAP1 DIV PUSH1 0xFF AND SWAP1 DUP1 PUSH1 0x1 ADD DUP1 SLOAD PUSH2 0x487 SWAP1 PUSH2 0xA05 JUMP JUMPDEST DUP1 PUSH1 0x1F ADD PUSH1 0x20 DUP1 SWAP2 DIV MUL PUSH1 0x20 ADD PUSH1 0x40 MLOAD SWAP1 DUP2 ADD PUSH1 0x40 MSTORE DUP1 SWAP3 SWAP2 SWAP1 DUP2 DUP2 MSTORE PUSH1 0x20 ADD DUP3 DUP1 SLOAD PUSH2 0x4B3 SWAP1 PUSH2 0xA05 JUMP JUMPDEST DUP1 ISZERO PUSH2 0x4FE JUMPI DUP1 PUSH1 0x1F LT PUSH2 0x4D5 JUMPI PUSH2 0x100 DUP1 DUP4 SLOAD DIV MUL DUP4 MSTORE SWAP2 PUSH1 0x20 ADD SWAP2 PUSH2 0x4FE JUMP JUMPDEST DUP3 ADD SWAP2 SWAP1 PUSH0 MSTORE PUSH1 0x20 PUSH0 KECCAK256 SWAP1 JUMPDEST DUP2 SLOAD DUP2 MSTORE SWAP1 PUSH1 0x1 ADD SWAP1 PUSH1 0x20 ADD DUP1 DUP4 GT PUSH2 0x4E1 JUMPI DUP3 SWAP1 SUB PUSH1 0x1F AND DUP3 ADD SWAP2 JUMPDEST POP POP POP POP POP SWAP1 POP DUP4 JUMP JUMPDEST PUSH0 PUSH1 0x40 MLOAD SWAP1 POP SWAP1 JUMP JUMPDEST PUSH0 PUSH0 REVERT JUMPDEST PUSH0 PUSH0 REVERT JUMPDEST PUSH0 PUSH20 0xFFFFFFFFFFFFFFFFFFFFFFFFFFFFFFFFFFFFFFFF DUP3 AND SWAP1 POP SWAP2 SWAP1 POP JUMP JUMPDEST PUSH0 PUSH2 0x542 DUP3 PUSH2 0x519 JUMP JUMPDEST SWAP1 POP SWAP2 SWAP1 POP JUMP JUMPDEST PUSH2 0x552 DUP2 PUSH2 0x538 JUMP JUMPDEST DUP2 EQ PUSH2 0x55C JUMPI PUSH0 PUSH0 REVERT JUMPDEST POP JUMP JUMPDEST PUSH0 DUP2 CALLDATALOAD SWAP1 POP PUSH2 0x56D DUP2 PUSH2 0x549 JUMP JUMPDEST SWAP3 SWAP2 POP POP JUMP JUMPDEST PUSH0 PUSH1 0x20 DUP3 DUP5 SUB SLT ISZERO PUSH2 0x588 JUMPI PUSH2 0x587 PUSH2 0x511 JUMP JUMPDEST JUMPDEST PUSH0 PUSH2 0x595 DUP5 DUP3 DUP6 ADD PUSH2 0x55F JUMP JUMPDEST SWAP2 POP POP SWAP3 SWAP2 POP POP JUMP JUMPDEST PUSH0 DUP2 ISZERO ISZERO SWAP1 POP SWAP2 SWAP1 POP JUMP JUMPDEST PUSH2 0x5B2 DUP2 PUSH2 0x59E JUMP JUMPDEST DUP3 MSTORE POP POP JUMP JUMPDEST PUSH0 PUSH1 0x20 DUP3 ADD SWAP1 POP PUSH2 0x5CB PUSH0 DUP4 ADD DUP5 PUSH2 0x5A9 JUMP JUMPDEST SWAP3 SWAP2 POP POP JUMP JUMPDEST PUSH0 PUSH1 0xFF DUP3 AND SWAP1 POP SWAP2 SWAP1 POP JUMP JUMPDEST PUSH2 0x5E6 DUP2 PUSH2 0x5D1 JUMP JUMPDEST DUP2 EQ PUSH2 0x5F0 JUMPI PUSH0 PUSH0 REVERT JUMPDEST POP JUMP JUMPDEST PUSH0 DUP2 CALLDATALOAD SWAP1 POP PUSH2 0x601 DUP2 PUSH2 0x5DD JUMP JUMPDEST SWAP3 SWAP2 POP POP JUMP JUMPDEST PUSH0 PUSH0 REVERT JUMPDEST PUSH0 PUSH0 REVERT JUMPDEST PUSH0 PUSH1 0x1F NOT PUSH1 0x1F DUP4 ADD AND SWAP1 POP SWAP2 SWAP1 POP JUMP JUMPDEST PUSH32 0x4E487B7100000000000000000000000000000000000000000000000000000000 PUSH0 MSTORE PUSH1 0x41 PUSH1 0x4 MSTORE PUSH1 0x24 PUSH0 REVERT JUMPDEST PUSH2 0x655 DUP3 PUSH2 0x60F JUMP JUMPDEST DUP2 ADD DUP2 DUP2 LT PUSH8 0xFFFFFFFFFFFFFFFF DUP3 GT OR ISZERO PUSH2 0x674 JUMPI PUSH2 0x673 PUSH2 0x61F JUMP JUMPDEST JUMPDEST DUP1 PUSH1 0x40 MSTORE POP POP POP JUMP JUMPDEST PUSH0 PUSH2 0x686 PUSH2 0x508 JUMP JUMPDEST SWAP1 POP PUSH2 0x692 DUP3 DUP3 PUSH2 0x64C JUMP JUMPDEST SWAP2 SWAP1 POP JUMP JUMPDEST PUSH0 PUSH8 0xFFFFFFFFFFFFFFFF DUP3 GT ISZERO PUSH2 0x6B1 JUMPI PUSH2 0x6B0 PUSH2 0x61F JUMP JUMPDEST JUMPDEST PUSH2 0x6BA DUP3 PUSH2 0x60F JUMP JUMPDEST SWAP1 POP PUSH1 0x20 DUP2 ADD SWAP1 POP SWAP2 SWAP1 POP JUMP JUMPDEST DUP3 DUP2 DUP4 CALLDATACOPY PUSH0 DUP4 DUP4 ADD MSTORE POP POP POP JUMP JUMPDEST PUSH0 PUSH2 0x6E7 PUSH2 0x6E2 DUP5 PUSH2 0x697 JUMP JUMPDEST PUSH2 0x67D JUMP JUMPDEST SWAP1 POP DUP3 DUP2 MSTORE PUSH1 0x20 DUP2 ADD DUP5 DUP5 DUP5 ADD GT ISZERO PUSH2 0x703 JUMPI PUSH2 0x702 PUSH2 0x60B JUMP JUMPDEST JUMPDEST PUSH2 0x70E DUP5 DUP3 DUP6 PUSH2 0x6C7 JUMP JUMPDEST POP SWAP4 SWAP3 POP POP POP JUMP JUMPDEST PUSH0 DUP3 PUSH1 0x1F DUP4 ADD SLT PUSH2 0x72A JUMPI PUSH2 0x729 PUSH2 0x607 JUMP JUMPDEST JUMPDEST DUP2 CALLDATALOAD PUSH2 0x73A DUP5 DUP3 PUSH1 0x20 DUP7 ADD PUSH2 0x6D5 JUMP JUMPDEST SWAP2 POP POP SWAP3 SWAP2 POP POP JUMP JUMPDEST PUSH0 PUSH0 PUSH0 PUSH1 0x60 DUP5 DUP7 SUB SLT ISZERO PUSH2 0x75A JUMPI PUSH2 0x759 PUSH2 0x511 JUMP JUMPDEST JUMPDEST PUSH0 PUSH2 0x767 DUP7 DUP3 DUP8 ADD PUSH2 0x5F3 JUMP JUMPDEST SWAP4 POP POP PUSH1 0x20 PUSH2 0x778 DUP7 DUP3 DUP8 ADD PUSH2 0x5F3 JUMP JUMPDEST SWAP3 POP POP PUSH1 0x40 DUP5 ADD CALLDATALOAD PUSH8 0xFFFFFFFFFFFFFFFF DUP2 GT ISZERO PUSH2 0x799 JUMPI PUSH2 0x798 PUSH2 0x515 JUMP JUMPDEST JUMPDEST PUSH2 0x7A5 DUP7 DUP3 DUP8 ADD PUSH2 0x716 JUMP JUMPDEST SWAP2 POP POP SWAP3 POP SWAP3 POP SWAP3 JUMP JUMPDEST PUSH0 DUP2 SWAP1 POP SWAP2 SWAP1 POP JUMP JUMPDEST PUSH2 0x7C1 DUP2 PUSH2 0x7AF JUMP JUMPDEST DUP3 MSTORE POP POP JUMP JUMPDEST PUSH0 PUSH1 0x20 DUP3 ADD SWAP1 POP PUSH2 0x7DA PUSH0 DUP4 ADD DUP5 PUSH2 0x7B8 JUMP JUMPDEST SWAP3 SWAP2 POP POP JUMP JUMPDEST PUSH2 0x7E9 DUP2 PUSH2 0x538 JUMP JUMPDEST DUP3 MSTORE POP POP JUMP JUMPDEST PUSH0 PUSH1 0x20 DUP3 ADD SWAP1 POP PUSH2 0x802 PUSH0 DUP4 ADD DUP5 PUSH2 0x7E0 JUMP JUMPDEST SWAP3 SWAP2 POP POP JUMP JUMPDEST PUSH2 0x811 DUP2 PUSH2 0x7AF JUMP JUMPDEST DUP2 EQ PUSH2 0x81B JUMPI PUSH0 PUSH0 REVERT JUMPDEST POP JUMP JUMPDEST PUSH0 DUP2 CALLDATALOAD SWAP1 POP PUSH2 0x82C DUP2 PUSH2 0x808 JUMP JUMPDEST SWAP3 SWAP2 POP POP JUMP JUMPDEST PUSH0 PUSH1 0x20 DUP3 DUP5 SUB SLT ISZERO PUSH2 0x847 JUMPI PUSH2 0x846 PUSH2 0x511 JUMP JUMPDEST JUMPDEST PUSH0 PUSH2 0x854 DUP5 DUP3 DUP6 ADD PUSH2 0x81E JUMP JUMPDEST SWAP2 POP POP SWAP3 SWAP2 POP POP JUMP JUMPDEST PUSH2 0x866 DUP2 PUSH2 0x5D1 JUMP JUMPDEST DUP3 MSTORE POP POP JUMP JUMPDEST PUSH0 DUP2 MLOAD SWAP1 POP SWAP2 SWAP1 POP JUMP JUMPDEST PUSH0 DUP3 DUP3 MSTORE PUSH1 0x20 DUP3 ADD SWAP1 POP SWAP3 SWAP2 POP POP JUMP JUMPDEST DUP3 DUP2 DUP4 MCOPY PUSH0 DUP4 DUP4 ADD MSTORE POP POP POP JUMP JUMPDEST PUSH0 PUSH2 0x89E DUP3 PUSH2 0x86C JUMP JUMPDEST PUSH2 0x8A8 DUP2 DUP6 PUSH2 0x876 JUMP JUMPDEST SWAP4 POP PUSH2 0x8B8 DUP2 DUP6 PUSH1 0x20 DUP7 ADD PUSH2 0x886 JUMP JUMPDEST PUSH2 0x8C1 DUP2 PUSH2 0x60F JUMP JUMPDEST DUP5 ADD SWAP2 POP POP SWAP3 SWAP2 POP POP JUMP JUMPDEST PUSH0 PUSH1 0x60 DUP3 ADD SWAP1 POP PUSH2 0x8DF PUSH0 DUP4 ADD DUP7 PUSH2 0x85D JUMP JUMPDEST PUSH2 0x8EC PUSH1 0x20 DUP4 ADD DUP6 PUSH2 0x85D JUMP JUMPDEST DUP2 DUP2 SUB PUSH1 0x40 DUP4 ADD MSTORE PUSH2 0x8FE DUP2 DUP5 PUSH2 0x894 JUMP JUMPDEST SWAP1 POP SWAP5 SWAP4 POP POP POP POP JUMP JUMPDEST PUSH32 0x596F75206861766520616C726561647920766F74656421000000000000000000 PUSH0 DUP3 ADD MSTORE POP JUMP JUMPDEST PUSH0 PUSH2 0x93C PUSH1 0x17 DUP4 PUSH2 0x876 JUMP JUMPDEST SWAP2 POP PUSH2 0x947 DUP3 PUSH2 0x908 JUMP JUMPDEST PUSH1 0x20 DUP3 ADD SWAP1 POP SWAP2 SWAP1 POP JUMP JUMPDEST PUSH0 PUSH1 0x20 DUP3 ADD SWAP1 POP DUP2 DUP2 SUB PUSH0 DUP4 ADD MSTORE PUSH2 0x969 DUP2 PUSH2 0x930 JUMP JUMPDEST SWAP1 POP SWAP2 SWAP1 POP JUMP JUMPDEST PUSH32 0x206F6E6C79206F776E6572000000000000000000000000000000000000000000 PUSH0 DUP3 ADD MSTORE POP JUMP JUMPDEST PUSH0 PUSH2 0x9A4 PUSH1 0xB DUP4 PUSH2 0x876 JUMP JUMPDEST SWAP2 POP PUSH2 0x9AF DUP3 PUSH2 0x970 JUMP JUMPDEST PUSH1 0x20 DUP3 ADD SWAP1 POP SWAP2 SWAP1 POP JUMP JUMPDEST PUSH0 PUSH1 0x20 DUP3 ADD SWAP1 POP DUP2 DUP2 SUB PUSH0 DUP4 ADD MSTORE PUSH2 0x9D1 DUP2 PUSH2 0x998 JUMP JUMPDEST SWAP1 POP SWAP2 SWAP1 POP JUMP JUMPDEST PUSH32 0x4E487B7100000000000000000000000000000000000000000000000000000000 PUSH0 MSTORE PUSH1 0x22 PUSH1 0x4 MSTORE PUSH1 0x24 PUSH0 REVERT JUMPDEST PUSH0 PUSH1 0x2 DUP3 DIV SWAP1 POP PUSH1 0x1 DUP3 AND DUP1 PUSH2 0xA1C JUMPI PUSH1 0x7F DUP3 AND SWAP2 POP JUMPDEST PUSH1 0x20 DUP3 LT DUP2 SUB PUSH2 0xA2F JUMPI PUSH2 0xA2E PUSH2 0x9D8 JUMP JUMPDEST JUMPDEST POP SWAP2 SWAP1 POP JUMP JUMPDEST PUSH0 DUP2 SWAP1 POP DUP2 PUSH0 MSTORE PUSH1 0x20 PUSH0 KECCAK256 SWAP1 POP SWAP2 SWAP1 POP JUMP JUMPDEST PUSH0 PUSH1 0x20 PUSH1 0x1F DUP4 ADD DIV SWAP1 POP SWAP2 SWAP1 POP JUMP JUMPDEST PUSH0 DUP3 DUP3 SHL SWAP1 POP SWAP3 SWAP2 POP POP JUMP JUMPDEST PUSH0 PUSH1 0x8 DUP4 MUL PUSH2 0xA91 PUSH32 0xFFFFFFFFFFFFFFFFFFFFFFFFFFFFFFFFFFFFFFFFFFFFFFFFFFFFFFFFFFFFFFFF DUP3 PUSH2 0xA56 JUMP JUMPDEST PUSH2 0xA9B DUP7 DUP4 PUSH2 0xA56 JUMP JUMPDEST SWAP6 POP DUP1 NOT DUP5 AND SWAP4 POP DUP1 DUP7 AND DUP5 OR SWAP3 POP POP POP SWAP4 SWAP3 POP POP POP JUMP JUMPDEST PUSH0 DUP2 SWAP1 POP SWAP2 SWAP1 POP JUMP JUMPDEST PUSH0 PUSH2 0xAD6 PUSH2 0xAD1 PUSH2 0xACC DUP5 PUSH2 0x7AF JUMP JUMPDEST PUSH2 0xAB3 JUMP JUMPDEST PUSH2 0x7AF JUMP JUMPDEST SWAP1 POP SWAP2 SWAP1 POP JUMP JUMPDEST PUSH0 DUP2 SWAP1 POP SWAP2 SWAP1 POP JUMP JUMPDEST PUSH2 0xAEF DUP4 PUSH2 0xABC JUMP JUMPDEST PUSH2 0xB03 PUSH2 0xAFB DUP3 PUSH2 0xADD JUMP JUMPDEST DUP5 DUP5 SLOAD PUSH2 0xA62 JUMP JUMPDEST DUP3 SSTORE POP POP POP POP JUMP JUMPDEST PUSH0 PUSH0 SWAP1 POP SWAP1 JUMP JUMPDEST PUSH2 0xB1A PUSH2 0xB0B JUMP JUMPDEST PUSH2 0xB25 DUP2 DUP5 DUP5 PUSH2 0xAE6 JUMP JUMPDEST POP POP POP JUMP JUMPDEST JUMPDEST DUP2 DUP2 LT ISZERO PUSH2 0xB48 JUMPI PUSH2 0xB3D PUSH0 DUP3 PUSH2 0xB12 JUMP JUMPDEST PUSH1 0x1 DUP2 ADD SWAP1 POP PUSH2 0xB2B JUMP JUMPDEST POP POP JUMP JUMPDEST PUSH1 0x1F DUP3 GT ISZERO PUSH2 0xB8D JUMPI PUSH2 0xB5E DUP2 PUSH2 0xA35 JUMP JUMPDEST PUSH2 0xB67 DUP5 PUSH2 0xA47 JUMP JUMPDEST DUP2 ADD PUSH1 0x20 DUP6 LT ISZERO PUSH2 0xB76 JUMPI DUP2 SWAP1 POP JUMPDEST PUSH2 0xB8A PUSH2 0xB82 DUP6 PUSH2 0xA47 JUMP JUMPDEST DUP4 ADD DUP3 PUSH2 0xB2A JUMP JUMPDEST POP POP JUMPDEST POP POP POP JUMP JUMPDEST PUSH0 DUP3 DUP3 SHR SWAP1 POP SWAP3 SWAP2 POP POP JUMP JUMPDEST PUSH0 PUSH2 0xBAD PUSH0 NOT DUP5 PUSH1 0x8 MUL PUSH2 0xB92 JUMP JUMPDEST NOT DUP1 DUP4 AND SWAP2 POP POP SWAP3 SWAP2 POP POP JUMP JUMPDEST PUSH0 PUSH2 0xBC5 DUP4 DUP4 PUSH2 0xB9E JUMP JUMPDEST SWAP2 POP DUP3 PUSH1 0x2 MUL DUP3 OR SWAP1 POP SWAP3 SWAP2 POP POP JUMP JUMPDEST PUSH2 0xBDE DUP3 PUSH2 0x86C JUMP JUMPDEST PUSH8 0xFFFFFFFFFFFFFFFF DUP2 GT ISZERO PUSH2 0xBF7 JUMPI PUSH2 0xBF6 PUSH2 0x61F JUMP JUMPDEST JUMPDEST PUSH2 0xC01 DUP3 SLOAD PUSH2 0xA05 JUMP JUMPDEST PUSH2 0xC0C DUP3 DUP3 DUP6 PUSH2 0xB4C JUMP JUMPDEST PUSH0 PUSH1 0x20 SWAP1 POP PUSH1 0x1F DUP4 GT PUSH1 0x1 DUP2 EQ PUSH2 0xC3D JUMPI PUSH0 DUP5 ISZERO PUSH2 0xC2B JUMPI DUP3 DUP8 ADD MLOAD SWAP1 POP JUMPDEST PUSH2 0xC35 DUP6 DUP3 PUSH2 0xBBA JUMP JUMPDEST DUP7 SSTORE POP PUSH2 0xC9C JUMP JUMPDEST PUSH1 0x1F NOT DUP5 AND PUSH2 0xC4B DUP7 PUSH2 0xA35 JUMP JUMPDEST PUSH0 JUMPDEST DUP3 DUP2 LT ISZERO PUSH2 0xC72 JUMPI DUP5 DUP10 ADD MLOAD DUP3 SSTORE PUSH1 0x1 DUP3 ADD SWAP2 POP PUSH1 0x20 DUP6 ADD SWAP5 POP PUSH1 0x20 DUP2 ADD SWAP1 POP PUSH2 0xC4D JUMP JUMPDEST DUP7 DUP4 LT ISZERO PUSH2 0xC8F JUMPI DUP5 DUP10 ADD MLOAD PUSH2 0xC8B PUSH1 0x1F DUP10 AND DUP3 PUSH2 0xB9E JUMP JUMPDEST DUP4 SSTORE POP JUMPDEST PUSH1 0x1 PUSH1 0x2 DUP9 MUL ADD DUP9 SSTORE POP POP POP JUMPDEST POP POP POP POP POP POP JUMP INVALID LOG2 PUSH5 0x6970667358 0x22 SLT KECCAK256 0xEA SLT 0xE PUSH24 0x2C52AD8FE8481794AF7AA792B14C881E6FE608470C09F3EC 0x23 0x2E 0xDC REVERT PUSH5 0x736F6C6343 STOP ADDMOD 0x1E STOP CALLER "
				},
				"gasEstimates": {
					"creation": {
						"codeDepositCost": "658000",
						"executionCost": "24952",
						"totalCost": "682952"
					},
					"external": {
						"hasVoted(address)": "2811",
						"number_of_voter()": "4652",
						"owner()": "2574",
						"store(uint8,uint8,string)": "infinite",
						"vote(uint8,uint8,string)": "infinite",
						"voters(uint256)": "infinite"
					}
				},
				"methodIdentifiers": {
					"hasVoted(address)": "09eef43e",
					"number_of_voter()": "3f52cfd5",
					"owner()": "8da5cb5b",
					"store(uint8,uint8,string)": "2313d13d",
					"vote(uint8,uint8,string)": "1c5657ef",
					"voters(uint256)": "da58c7d9"
				}
			},
			"storageLayout": {
				"storage": [
					{
						"astId": 12,
						"contract": "artifacts/build-info/task vote/vote.sol:voteing",
						"label": "voters",
						"offset": 0,
						"slot": "0",
						"type": "t_array(t_struct(voter)8_storage)dyn_storage"
					},
					{
						"astId": 16,
						"contract": "artifacts/build-info/task vote/vote.sol:voteing",
						"label": "hasVoted",
						"offset": 0,
						"slot": "1",
						"type": "t_mapping(t_address,t_bool)"
					},
					{
						"astId": 18,
						"contract": "artifacts/build-info/task vote/vote.sol:voteing",
						"label": "owner",
						"offset": 0,
						"slot": "2",
						"type": "t_address"
					}
				],
				"types": {
					"t_address": {
						"encoding": "inplace",
						"label": "address",
						"numberOfBytes": "20"
					},
					"t_array(t_struct(voter)8_storage)dyn_storage": {
						"base": "t_struct(voter)8_storage",
						"encoding": "dynamic_array",
						"label": "struct voteing.voter[]",
						"numberOfBytes": "32"
					},
					"t_bool": {
						"encoding": "inplace",
						"label": "bool",
						"numberOfBytes": "1"
					},
					"t_mapping(t_address,t_bool)": {
						"encoding": "mapping",
						"key": "t_address",
						"label": "mapping(address => bool)",
						"numberOfBytes": "32",
						"value": "t_bool"
					},
					"t_string_storage": {
						"encoding": "bytes",
						"label": "string",
						"numberOfBytes": "32"
					},
					"t_struct(voter)8_storage": {
						"encoding": "inplace",
						"label": "struct voteing.voter",
						"members": [
							{
								"astId": 3,
								"contract": "artifacts/build-info/task vote/vote.sol:voteing",
								"label": "id",
								"offset": 0,
								"slot": "0",
								"type": "t_uint8"
							},
							{
								"astId": 5,
								"contract": "artifacts/build-info/task vote/vote.sol:voteing",
								"label": "CandidateNumber",
								"offset": 1,
								"slot": "0",
								"type": "t_uint8"
							},
							{
								"astId": 7,
								"contract": "artifacts/build-info/task vote/vote.sol:voteing",
								"label": "RealAddress",
								"offset": 0,
								"slot": "1",
								"type": "t_string_storage"
							}
						],
						"numberOfBytes": "64"
					},
					"t_uint8": {
						"encoding": "inplace",
						"label": "uint8",
						"numberOfBytes": "1"
					}
				}
			},
			"userdoc": {
				"kind": "user",
				"methods": {},
				"version": 1
			}
		}
	}
}