{
	"data": {
		"bytecode": {
			"linkReferences": {},
			"object": "608060405234801561000f575f5ffd5b5060405161001c9061025e565b604051809103905ff080158015610035573d5f5f3e3d5ffd5b505f5f6101000a81548173ffffffffffffffffffffffffffffffffffffffff021916908373ffffffffffffffffffffffffffffffffffffffff1602179055506040516100809061026b565b604051809103905ff080158015610099573d5f5f3e3d5ffd5b5060015f6101000a81548173ffffffffffffffffffffffffffffffffffffffff021916908373ffffffffffffffffffffffffffffffffffffffff1602179055505f5f9054906101000a900473ffffffffffffffffffffffffffffffffffffffff1660015f9054906101000a900473ffffffffffffffffffffffffffffffffffffffff1660405161012890610278565b6101339291906102c4565b604051809103905ff08015801561014c573d5f5f3e3d5ffd5b5060025f6101000a81548173ffffffffffffffffffffffffffffffffffffffff021916908373ffffffffffffffffffffffffffffffffffffffff1602179055505f6969e10de76676d0800000905060015f9054906101000a900473ffffffffffffffffffffffffffffffffffffffff1673ffffffffffffffffffffffffffffffffffffffff1663a9059cbb60025f9054906101000a900473ffffffffffffffffffffffffffffffffffffffff16836040518363ffffffff1660e01b8152600401610217929190610303565b6020604051808303815f875af1158015610233573d5f5f3e3d5ffd5b505050506040513d601f19601f820116820180604052508101906102579190610363565b505061038e565b612632806105e183390190565b61196480612c1383390190565b61121e8061457783390190565b5f73ffffffffffffffffffffffffffffffffffffffff82169050919050565b5f6102ae82610285565b9050919050565b6102be816102a4565b82525050565b5f6040820190506102d75f8301856102b5565b6102e460208301846102b5565b9392505050565b5f819050919050565b6102fd816102eb565b82525050565b5f6040820190506103165f8301856102b5565b61032360208301846102f4565b9392505050565b5f5ffd5b5f8115159050919050565b6103428161032e565b811461034c575f5ffd5b50565b5f8151905061035d81610339565b92915050565b5f602082840312156103785761037761032a565b5b5f6103858482850161034f565b91505092915050565b6102468061039b5f395ff3fe608060405234801561000f575f5ffd5b506004361061003f575f3560e01c806347ccca02146100435780634cf088d914610061578063fc0c546a1461007f575b5f5ffd5b61004b61009d565b6040516100589190610185565b60405180910390f35b6100696100c1565b60405161007691906101be565b60405180910390f35b6100876100e6565b60405161009491906101f7565b60405180910390f35b5f5f9054906101000a900473ffffffffffffffffffffffffffffffffffffffff1681565b60025f9054906101000a900473ffffffffffffffffffffffffffffffffffffffff1681565b60015f9054906101000a900473ffffffffffffffffffffffffffffffffffffffff1681565b5f73ffffffffffffffffffffffffffffffffffffffff82169050919050565b5f819050919050565b5f61014d6101486101438461010b565b61012a565b61010b565b9050919050565b5f61015e82610133565b9050919050565b5f61016f82610154565b9050919050565b61017f81610165565b82525050565b5f6020820190506101985f830184610176565b92915050565b5f6101a882610154565b9050919050565b6101b88161019e565b82525050565b5f6020820190506101d15f8301846101af565b92915050565b5f6101e182610154565b9050919050565b6101f1816101d7565b82525050565b5f60208201905061020a5f8301846101e8565b9291505056fea264697066735822122074c80a60a26950d094afe3ec59d17022330e31615d7ea206e1f46cf121a32b5664736f6c634300081e0033608060405234801561000f575f5ffd5b50336040518060400160405280600681526020017f4d79204e465400000000000000000000000000000000000000000000000000008152506040518060400160405280600481526020017f4d4e465400000000000000000000000000000000000000000000000000000000815250815f908161008b9190610423565b50806001908161009b9190610423565b5050505f73ffffffffffffffffffffffffffffffffffffffff168173ffffffffffffffffffffffffffffffffffffffff160361010e575f6040517f1e4fbdf70000000000000000000000000000000000000000000000000000000081526004016101059190610531565b60405180910390fd5b61011d8161012360201b60201c565b5061054a565b5f60065f9054906101000a900473ffffffffffffffffffffffffffffffffffffffff1690508160065f6101000a81548173ffffffffffffffffffffffffffffffffffffffff021916908373ffffffffffffffffffffffffffffffffffffffff1602179055508173ffffffffffffffffffffffffffffffffffffffff168173ffffffffffffffffffffffffffffffffffffffff167f8be0079c531659141344cd1fd0a4f28419497f9722a3daafe3b4186f6b6457e060405160405180910390a35050565b5f81519050919050565b7f4e487b71000000000000000000000000000000000000000000000000000000005f52604160045260245ffd5b7f4e487b71000000000000000000000000000000000000000000000000000000005f52602260045260245ffd5b5f600282049050600182168061026157607f821691505b6020821081036102745761027361021d565b5b50919050565b5f819050815f5260205f209050919050565b5f6020601f8301049050919050565b5f82821b905092915050565b5f600883026102d67fffffffffffffffffffffffffffffffffffffffffffffffffffffffffffffffff8261029b565b6102e0868361029b565b95508019841693508086168417925050509392505050565b5f819050919050565b5f819050919050565b5f61032461031f61031a846102f8565b610301565b6102f8565b9050919050565b5f819050919050565b61033d8361030a565b6103516103498261032b565b8484546102a7565b825550505050565b5f5f905090565b610368610359565b610373818484610334565b505050565b5b818110156103965761038b5f82610360565b600181019050610379565b5050565b601f8211156103db576103ac8161027a565b6103b58461028c565b810160208510156103c4578190505b6103d86103d08561028c565b830182610378565b50505b505050565b5f82821c905092915050565b5f6103fb5f19846008026103e0565b1980831691505092915050565b5f61041383836103ec565b9150826002028217905092915050565b61042c826101e6565b67ffffffffffffffff811115610445576104446101f0565b5b61044f825461024a565b61045a82828561039a565b5f60209050601f83116001811461048b575f8415610479578287015190505b6104838582610408565b8655506104ea565b601f1984166104998661027a565b5f5b828110156104c05784890151825560018201915060208501945060208101905061049b565b868310156104dd57848901516104d9601f8916826103ec565b8355505b6001600288020188555050505b505050505050565b5f73ffffffffffffffffffffffffffffffffffffffff82169050919050565b5f61051b826104f2565b9050919050565b61052b81610511565b82525050565b5f6020820190506105445f830184610522565b92915050565b6120db806105575f395ff3fe608060405234801561000f575f5ffd5b5060043610610114575f3560e01c8063715018a6116100a0578063a22cb4651161006f578063a22cb465146102ca578063b88d4fde146102e6578063c87b56dd14610302578063e985e9c514610332578063f2fde38b1461036257610114565b8063715018a61461026657806375794a3c146102705780638da5cb5b1461028e57806395d89b41146102ac57610114565b806323b872dd116100e757806323b872dd146101b257806342842e0e146101ce5780636352211e146101ea5780636a6278421461021a57806370a082311461023657610114565b806301ffc9a71461011857806306fdde0314610148578063081812fc14610166578063095ea7b314610196575b5f5ffd5b610132600480360381019061012d9190611912565b61037e565b60405161013f9190611957565b60405180910390f35b61015061045f565b60405161015d91906119e0565b60405180910390f35b610180600480360381019061017b9190611a33565b6104ee565b60405161018d9190611a9d565b60405180910390f35b6101b060048036038101906101ab9190611ae0565b610509565b005b6101cc60048036038101906101c79190611b1e565b61051f565b005b6101e860048036038101906101e39190611b1e565b61061e565b005b61020460048036038101906101ff9190611a33565b61063d565b6040516102119190611a9d565b60405180910390f35b610234600480360381019061022f9190611b6e565b61064e565b005b610250600480360381019061024b9190611b6e565b610678565b60405161025d9190611ba8565b60405180910390f35b61026e61072e565b005b610278610741565b6040516102859190611ba8565b60405180910390f35b610296610747565b6040516102a39190611a9d565b60405180910390f35b6102b461076f565b6040516102c191906119e0565b60405180910390f35b6102e460048036038101906102df9190611beb565b6107ff565b005b61030060048036038101906102fb9190611d55565b610815565b005b61031c60048036038101906103179190611a33565b61083a565b60405161032991906119e0565b60405180910390f35b61034c60048036038101906103479190611dd5565b6108a0565b6040516103599190611957565b60405180910390f35b61037c60048036038101906103779190611b6e565b61092e565b005b5f7f80ac58cd000000000000000000000000000000000000000000000000000000007bffffffffffffffffffffffffffffffffffffffffffffffffffffffff1916827bffffffffffffffffffffffffffffffffffffffffffffffffffffffff1916148061044857507f5b5e139f000000000000000000000000000000000000000000000000000000007bffffffffffffffffffffffffffffffffffffffffffffffffffffffff1916827bffffffffffffffffffffffffffffffffffffffffffffffffffffffff1916145b806104585750610457826109b2565b5b9050919050565b60605f805461046d90611e40565b80601f016020809104026020016040519081016040528092919081815260200182805461049990611e40565b80156104e45780601f106104bb576101008083540402835291602001916104e4565b820191905f5260205f20905b8154815290600101906020018083116104c757829003601f168201915b5050505050905090565b5f6104f882610a1b565b5061050282610aa1565b9050919050565b61051b8282610516610ada565b610ae1565b5050565b5f73ffffffffffffffffffffffffffffffffffffffff168273ffffffffffffffffffffffffffffffffffffffff160361058f575f6040517f64a0ae920000000000000000000000000000000000000000000000000000000081526004016105869190611a9d565b60405180910390fd5b5f6105a2838361059d610ada565b610af3565b90508373ffffffffffffffffffffffffffffffffffffffff168173ffffffffffffffffffffffffffffffffffffffff1614610618578382826040517f64283d7b00000000000000000000000000000000000000000000000000000000815260040161060f93929190611e70565b60405180910390fd5b50505050565b61063883838360405180602001604052805f815250610815565b505050565b5f61064782610a1b565b9050919050565b610656610cfe565b6106758160075f81548092919061066c90611ed2565b91905055610d85565b50565b5f5f73ffffffffffffffffffffffffffffffffffffffff168273ffffffffffffffffffffffffffffffffffffffff16036106e9575f6040517f89c62b640000000000000000000000000000000000000000000000000000000081526004016106e09190611a9d565b60405180910390fd5b60035f8373ffffffffffffffffffffffffffffffffffffffff1673ffffffffffffffffffffffffffffffffffffffff1681526020019081526020015f20549050919050565b610736610cfe565b61073f5f610da2565b565b60075481565b5f60065f9054906101000a900473ffffffffffffffffffffffffffffffffffffffff16905090565b60606001805461077e90611e40565b80601f01602080910402602001604051908101604052809291908181526020018280546107aa90611e40565b80156107f55780601f106107cc576101008083540402835291602001916107f5565b820191905f5260205f20905b8154815290600101906020018083116107d857829003601f168201915b5050505050905090565b61081161080a610ada565b8383610e65565b5050565b61082084848461051f565b61083461082b610ada565b8585858561103e565b50505050565b606061084582610a1b565b505f61084f6111ea565b90505f81511161086d5760405180602001604052805f815250610898565b8061087784611200565b604051602001610888929190611f53565b6040516020818303038152906040525b915050919050565b5f60055f8473ffffffffffffffffffffffffffffffffffffffff1673ffffffffffffffffffffffffffffffffffffffff1681526020019081526020015f205f8373ffffffffffffffffffffffffffffffffffffffff1673ffffffffffffffffffffffffffffffffffffffff1681526020019081526020015f205f9054906101000a900460ff16905092915050565b610936610cfe565b5f73ffffffffffffffffffffffffffffffffffffffff168173ffffffffffffffffffffffffffffffffffffffff16036109a6575f6040517f1e4fbdf700000000000000000000000000000000000000000000000000000000815260040161099d9190611a9d565b60405180910390fd5b6109af81610da2565b50565b5f7f01ffc9a7000000000000000000000000000000000000000000000000000000007bffffffffffffffffffffffffffffffffffffffffffffffffffffffff1916827bffffffffffffffffffffffffffffffffffffffffffffffffffffffff1916149050919050565b5f5f610a26836112ca565b90505f73ffffffffffffffffffffffffffffffffffffffff168173ffffffffffffffffffffffffffffffffffffffff1603610a9857826040517f7e273289000000000000000000000000000000000000000000000000000000008152600401610a8f9190611ba8565b60405180910390fd5b80915050919050565b5f60045f8381526020019081526020015f205f9054906101000a900473ffffffffffffffffffffffffffffffffffffffff169050919050565b5f33905090565b610aee8383836001611303565b505050565b5f5f610afe846112ca565b90505f73ffffffffffffffffffffffffffffffffffffffff168373ffffffffffffffffffffffffffffffffffffffff1614610b3f57610b3e8184866114c2565b5b5f73ffffffffffffffffffffffffffffffffffffffff168173ffffffffffffffffffffffffffffffffffffffff1614610bca57610b7e5f855f5f611303565b600160035f8373ffffffffffffffffffffffffffffffffffffffff1673ffffffffffffffffffffffffffffffffffffffff1681526020019081526020015f205f82825403925050819055505b5f73ffffffffffffffffffffffffffffffffffffffff168573ffffffffffffffffffffffffffffffffffffffff1614610c4957600160035f8773ffffffffffffffffffffffffffffffffffffffff1673ffffffffffffffffffffffffffffffffffffffff1681526020019081526020015f205f82825401925050819055505b8460025f8681526020019081526020015f205f6101000a81548173ffffffffffffffffffffffffffffffffffffffff021916908373ffffffffffffffffffffffffffffffffffffffff160217905550838573ffffffffffffffffffffffffffffffffffffffff168273ffffffffffffffffffffffffffffffffffffffff167fddf252ad1be2c89b69c2b068fc378daa952ba7f163c4a11628f55a4df523b3ef60405160405180910390a4809150509392505050565b610d06610ada565b73ffffffffffffffffffffffffffffffffffffffff16610d24610747565b73ffffffffffffffffffffffffffffffffffffffff1614610d8357610d47610ada565b6040517f118cdaa7000000000000000000000000000000000000000000000000000000008152600401610d7a9190611a9d565b60405180910390fd5b565b610d9e828260405180602001604052805f815250611585565b5050565b5f60065f9054906101000a900473ffffffffffffffffffffffffffffffffffffffff1690508160065f6101000a81548173ffffffffffffffffffffffffffffffffffffffff021916908373ffffffffffffffffffffffffffffffffffffffff1602179055508173ffffffffffffffffffffffffffffffffffffffff168173ffffffffffffffffffffffffffffffffffffffff167f8be0079c531659141344cd1fd0a4f28419497f9722a3daafe3b4186f6b6457e060405160405180910390a35050565b5f73ffffffffffffffffffffffffffffffffffffffff168373ffffffffffffffffffffffffffffffffffffffff1603610ed5575f6040517fa9fbf51f000000000000000000000000000000000000000000000000000000008152600401610ecc9190611a9d565b60405180910390fd5b5f73ffffffffffffffffffffffffffffffffffffffff168273ffffffffffffffffffffffffffffffffffffffff1603610f4557816040517f5b08ba18000000000000000000000000000000000000000000000000000000008152600401610f3c9190611a9d565b60405180910390fd5b8060055f8573ffffffffffffffffffffffffffffffffffffffff1673ffffffffffffffffffffffffffffffffffffffff1681526020019081526020015f205f8473ffffffffffffffffffffffffffffffffffffffff1673ffffffffffffffffffffffffffffffffffffffff1681526020019081526020015f205f6101000a81548160ff0219169083151502179055508173ffffffffffffffffffffffffffffffffffffffff168373ffffffffffffffffffffffffffffffffffffffff167f17307eab39ab6107e8899845ad3d59bd9653f200f220920489ca2b5937696c31836040516110319190611957565b60405180910390a3505050565b5f8373ffffffffffffffffffffffffffffffffffffffff163b11156111e3578273ffffffffffffffffffffffffffffffffffffffff1663150b7a02868685856040518563ffffffff1660e01b815260040161109c9493929190611fc8565b6020604051808303815f875af19250505080156110d757506040513d601f19601f820116820180604052508101906110d49190612026565b60015b611158573d805f8114611105576040519150601f19603f3d011682016040523d82523d5f602084013e61110a565b606091505b505f81510361115057836040517f64a0ae920000000000000000000000000000000000000000000000000000000081526004016111479190611a9d565b60405180910390fd5b805160208201fd5b63150b7a0260e01b7bffffffffffffffffffffffffffffffffffffffffffffffffffffffff1916817bffffffffffffffffffffffffffffffffffffffffffffffffffffffff1916146111e157836040517f64a0ae920000000000000000000000000000000000000000000000000000000081526004016111d89190611a9d565b60405180910390fd5b505b5050505050565b606060405180602001604052805f815250905090565b60605f600161120e846115a8565b0190505f8167ffffffffffffffff81111561122c5761122b611c31565b5b6040519080825280601f01601f19166020018201604052801561125e5781602001600182028036833780820191505090505b5090505f82602083010190505b6001156112bf578080600190039150507f3031323334353637383961626364656600000000000000000000000000000000600a86061a8153600a85816112b4576112b3612051565b5b0494505f850361126b575b819350505050919050565b5f60025f8381526020019081526020015f205f9054906101000a900473ffffffffffffffffffffffffffffffffffffffff169050919050565b808061133b57505f73ffffffffffffffffffffffffffffffffffffffff168273ffffffffffffffffffffffffffffffffffffffff1614155b1561146d575f61134a84610a1b565b90505f73ffffffffffffffffffffffffffffffffffffffff168373ffffffffffffffffffffffffffffffffffffffff16141580156113b457508273ffffffffffffffffffffffffffffffffffffffff168173ffffffffffffffffffffffffffffffffffffffff1614155b80156113c757506113c581846108a0565b155b1561140957826040517fa9fbf51f0000000000000000000000000000000000000000000000000000000081526004016114009190611a9d565b60405180910390fd5b811561146b57838573ffffffffffffffffffffffffffffffffffffffff168273ffffffffffffffffffffffffffffffffffffffff167f8c5be1e5ebec7d5bd14f71427d1e84f3dd0314c0f7b2291e5b200ac8c7c3b92560405160405180910390a45b505b8360045f8581526020019081526020015f205f6101000a81548173ffffffffffffffffffffffffffffffffffffffff021916908373ffffffffffffffffffffffffffffffffffffffff16021790555050505050565b6114cd8383836116f9565b611580575f73ffffffffffffffffffffffffffffffffffffffff168373ffffffffffffffffffffffffffffffffffffffff160361154157806040517f7e2732890000000000000000000000000000000000000000000000000000000081526004016115389190611ba8565b60405180910390fd5b81816040517f177e802f00000000000000000000000000000000000000000000000000000000815260040161157792919061207e565b60405180910390fd5b505050565b61158f83836117b9565b6115a361159a610ada565b5f85858561103e565b505050565b5f5f5f90507a184f03e93ff9f4daa797ed6e38ed64bf6a1f0100000000000000008310611604577a184f03e93ff9f4daa797ed6e38ed64bf6a1f01000000000000000083816115fa576115f9612051565b5b0492506040810190505b6d04ee2d6d415b85acef81000000008310611641576d04ee2d6d415b85acef8100000000838161163757611636612051565b5b0492506020810190505b662386f26fc10000831061167057662386f26fc10000838161166657611665612051565b5b0492506010810190505b6305f5e1008310611699576305f5e100838161168f5761168e612051565b5b0492506008810190505b61271083106116be5761271083816116b4576116b3612051565b5b0492506004810190505b606483106116e157606483816116d7576116d6612051565b5b0492506002810190505b600a83106116f0576001810190505b80915050919050565b5f5f73ffffffffffffffffffffffffffffffffffffffff168373ffffffffffffffffffffffffffffffffffffffff16141580156117b057508273ffffffffffffffffffffffffffffffffffffffff168473ffffffffffffffffffffffffffffffffffffffff161480611771575061177084846108a0565b5b806117af57508273ffffffffffffffffffffffffffffffffffffffff1661179783610aa1565b73ffffffffffffffffffffffffffffffffffffffff16145b5b90509392505050565b5f73ffffffffffffffffffffffffffffffffffffffff168273ffffffffffffffffffffffffffffffffffffffff1603611829575f6040517f64a0ae920000000000000000000000000000000000000000000000000000000081526004016118209190611a9d565b60405180910390fd5b5f61183583835f610af3565b90505f73ffffffffffffffffffffffffffffffffffffffff168173ffffffffffffffffffffffffffffffffffffffff16146118a7575f6040517f73c6ac6e00000000000000000000000000000000000000000000000000000000815260040161189e9190611a9d565b60405180910390fd5b505050565b5f604051905090565b5f5ffd5b5f5ffd5b5f7fffffffff0000000000000000000000000000000000000000000000000000000082169050919050565b6118f1816118bd565b81146118fb575f5ffd5b50565b5f8135905061190c816118e8565b92915050565b5f60208284031215611927576119266118b5565b5b5f611934848285016118fe565b91505092915050565b5f8115159050919050565b6119518161193d565b82525050565b5f60208201905061196a5f830184611948565b92915050565b5f81519050919050565b5f82825260208201905092915050565b8281835e5f83830152505050565b5f601f19601f8301169050919050565b5f6119b282611970565b6119bc818561197a565b93506119cc81856020860161198a565b6119d581611998565b840191505092915050565b5f6020820190508181035f8301526119f881846119a8565b905092915050565b5f819050919050565b611a1281611a00565b8114611a1c575f5ffd5b50565b5f81359050611a2d81611a09565b92915050565b5f60208284031215611a4857611a476118b5565b5b5f611a5584828501611a1f565b91505092915050565b5f73ffffffffffffffffffffffffffffffffffffffff82169050919050565b5f611a8782611a5e565b9050919050565b611a9781611a7d565b82525050565b5f602082019050611ab05f830184611a8e565b92915050565b611abf81611a7d565b8114611ac9575f5ffd5b50565b5f81359050611ada81611ab6565b92915050565b5f5f60408385031215611af657611af56118b5565b5b5f611b0385828601611acc565b9250506020611b1485828601611a1f565b9150509250929050565b5f5f5f60608486031215611b3557611b346118b5565b5b5f611b4286828701611acc565b9350506020611b5386828701611acc565b9250506040611b6486828701611a1f565b9150509250925092565b5f60208284031215611b8357611b826118b5565b5b5f611b9084828501611acc565b91505092915050565b611ba281611a00565b82525050565b5f602082019050611bbb5f830184611b99565b92915050565b611bca8161193d565b8114611bd4575f5ffd5b50565b5f81359050611be581611bc1565b92915050565b5f5f60408385031215611c0157611c006118b5565b5b5f611c0e85828601611acc565b9250506020611c1f85828601611bd7565b9150509250929050565b5f5ffd5b5f5ffd5b7f4e487b71000000000000000000000000000000000000000000000000000000005f52604160045260245ffd5b611c6782611998565b810181811067ffffffffffffffff82111715611c8657611c85611c31565b5b80604052505050565b5f611c986118ac565b9050611ca48282611c5e565b919050565b5f67ffffffffffffffff821115611cc357611cc2611c31565b5b611ccc82611998565b9050602081019050919050565b828183375f83830152505050565b5f611cf9611cf484611ca9565b611c8f565b905082815260208101848484011115611d1557611d14611c2d565b5b611d20848285611cd9565b509392505050565b5f82601f830112611d3c57611d3b611c29565b5b8135611d4c848260208601611ce7565b91505092915050565b5f5f5f5f60808587031215611d6d57611d6c6118b5565b5b5f611d7a87828801611acc565b9450506020611d8b87828801611acc565b9350506040611d9c87828801611a1f565b925050606085013567ffffffffffffffff811115611dbd57611dbc6118b9565b5b611dc987828801611d28565b91505092959194509250565b5f5f60408385031215611deb57611dea6118b5565b5b5f611df885828601611acc565b9250506020611e0985828601611acc565b9150509250929050565b7f4e487b71000000000000000000000000000000000000000000000000000000005f52602260045260245ffd5b5f6002820490506001821680611e5757607f821691505b602082108103611e6a57611e69611e13565b5b50919050565b5f606082019050611e835f830186611a8e565b611e906020830185611b99565b611e9d6040830184611a8e565b949350505050565b7f4e487b71000000000000000000000000000000000000000000000000000000005f52601160045260245ffd5b5f611edc82611a00565b91507fffffffffffffffffffffffffffffffffffffffffffffffffffffffffffffffff8203611f0e57611f0d611ea5565b5b600182019050919050565b5f81905092915050565b5f611f2d82611970565b611f378185611f19565b9350611f4781856020860161198a565b80840191505092915050565b5f611f5e8285611f23565b9150611f6a8284611f23565b91508190509392505050565b5f81519050919050565b5f82825260208201905092915050565b5f611f9a82611f76565b611fa48185611f80565b9350611fb481856020860161198a565b611fbd81611998565b840191505092915050565b5f608082019050611fdb5f830187611a8e565b611fe86020830186611a8e565b611ff56040830185611b99565b81810360608301526120078184611f90565b905095945050505050565b5f81519050612020816118e8565b92915050565b5f6020828403121561203b5761203a6118b5565b5b5f61204884828501612012565b91505092915050565b7f4e487b71000000000000000000000000000000000000000000000000000000005f52601260045260245ffd5b5f6040820190506120915f830185611a8e565b61209e6020830184611b99565b939250505056fea264697066735822122020fc4de0bb6a24ad4bba8a172c394ef41f2f336f4b0f2689baa7c5b60b587d1564736f6c634300081e0033608060405234801561000f575f5ffd5b50336040518060400160405280600c81526020017f5374616b652052657761726400000000000000000000000000000000000000008152506040518060400160405280600481526020017f5352574400000000000000000000000000000000000000000000000000000000815250816003908161008c91906106dc565b50806004908161009c91906106dc565b5050505f73ffffffffffffffffffffffffffffffffffffffff168173ffffffffffffffffffffffffffffffffffffffff160361010f575f6040517f1e4fbdf700000000000000000000000000000000000000000000000000000000815260040161010691906107ea565b60405180910390fd5b61011e8161013e60201b60201c565b506101393369d3c21bcecceda100000061020160201b60201c565b6108c0565b5f60055f9054906101000a900473ffffffffffffffffffffffffffffffffffffffff1690508160055f6101000a81548173ffffffffffffffffffffffffffffffffffffffff021916908373ffffffffffffffffffffffffffffffffffffffff1602179055508173ffffffffffffffffffffffffffffffffffffffff168173ffffffffffffffffffffffffffffffffffffffff167f8be0079c531659141344cd1fd0a4f28419497f9722a3daafe3b4186f6b6457e060405160405180910390a35050565b5f73ffffffffffffffffffffffffffffffffffffffff168273ffffffffffffffffffffffffffffffffffffffff1603610271575f6040517fec442f0500000000000000000000000000000000000000000000000000000000815260040161026891906107ea565b60405180910390fd5b6102825f838361028660201b60201c565b5050565b5f73ffffffffffffffffffffffffffffffffffffffff168373ffffffffffffffffffffffffffffffffffffffff16036102d6578060025f8282546102ca9190610830565b925050819055506103a4565b5f5f5f8573ffffffffffffffffffffffffffffffffffffffff1673ffffffffffffffffffffffffffffffffffffffff1681526020019081526020015f205490508181101561035f578381836040517fe450d38c00000000000000000000000000000000000000000000000000000000815260040161035693929190610872565b60405180910390fd5b8181035f5f8673ffffffffffffffffffffffffffffffffffffffff1673ffffffffffffffffffffffffffffffffffffffff1681526020019081526020015f2081905550505b5f73ffffffffffffffffffffffffffffffffffffffff168273ffffffffffffffffffffffffffffffffffffffff16036103eb578060025f8282540392505081905550610435565b805f5f8473ffffffffffffffffffffffffffffffffffffffff1673ffffffffffffffffffffffffffffffffffffffff1681526020019081526020015f205f82825401925050819055505b8173ffffffffffffffffffffffffffffffffffffffff168373ffffffffffffffffffffffffffffffffffffffff167fddf252ad1be2c89b69c2b068fc378daa952ba7f163c4a11628f55a4df523b3ef8360405161049291906108a7565b60405180910390a3505050565b5f81519050919050565b7f4e487b71000000000000000000000000000000000000000000000000000000005f52604160045260245ffd5b7f4e487b71000000000000000000000000000000000000000000000000000000005f52602260045260245ffd5b5f600282049050600182168061051a57607f821691505b60208210810361052d5761052c6104d6565b5b50919050565b5f819050815f5260205f209050919050565b5f6020601f8301049050919050565b5f82821b905092915050565b5f6008830261058f7fffffffffffffffffffffffffffffffffffffffffffffffffffffffffffffffff82610554565b6105998683610554565b95508019841693508086168417925050509392505050565b5f819050919050565b5f819050919050565b5f6105dd6105d86105d3846105b1565b6105ba565b6105b1565b9050919050565b5f819050919050565b6105f6836105c3565b61060a610602826105e4565b848454610560565b825550505050565b5f5f905090565b610621610612565b61062c8184846105ed565b505050565b5b8181101561064f576106445f82610619565b600181019050610632565b5050565b601f8211156106945761066581610533565b61066e84610545565b8101602085101561067d578190505b61069161068985610545565b830182610631565b50505b505050565b5f82821c905092915050565b5f6106b45f1984600802610699565b1980831691505092915050565b5f6106cc83836106a5565b9150826002028217905092915050565b6106e58261049f565b67ffffffffffffffff8111156106fe576106fd6104a9565b5b6107088254610503565b610713828285610653565b5f60209050601f831160018114610744575f8415610732578287015190505b61073c85826106c1565b8655506107a3565b601f19841661075286610533565b5f5b8281101561077957848901518255600182019150602085019450602081019050610754565b868310156107965784890151610792601f8916826106a5565b8355505b6001600288020188555050505b505050505050565b5f73ffffffffffffffffffffffffffffffffffffffff82169050919050565b5f6107d4826107ab565b9050919050565b6107e4816107ca565b82525050565b5f6020820190506107fd5f8301846107db565b92915050565b7f4e487b71000000000000000000000000000000000000000000000000000000005f52601160045260245ffd5b5f61083a826105b1565b9150610845836105b1565b925082820190508082111561085d5761085c610803565b5b92915050565b61086c816105b1565b82525050565b5f6060820190506108855f8301866107db565b6108926020830185610863565b61089f6040830184610863565b949350505050565b5f6020820190506108ba5f830184610863565b92915050565b611097806108cd5f395ff3fe608060405234801561000f575f5ffd5b50600436106100cd575f3560e01c8063715018a61161008a57806395d89b411161006457806395d89b4114610201578063a9059cbb1461021f578063dd62ed3e1461024f578063f2fde38b1461027f576100cd565b8063715018a6146101bb5780638da5cb5b146101c5578063902d55a5146101e3576100cd565b806306fdde03146100d1578063095ea7b3146100ef57806318160ddd1461011f57806323b872dd1461013d578063313ce5671461016d57806370a082311461018b575b5f5ffd5b6100d961029b565b6040516100e69190610d10565b60405180910390f35b61010960048036038101906101049190610dc1565b61032b565b6040516101169190610e19565b60405180910390f35b61012761034d565b6040516101349190610e41565b60405180910390f35b61015760048036038101906101529190610e5a565b610356565b6040516101649190610e19565b60405180910390f35b610175610384565b6040516101829190610ec5565b60405180910390f35b6101a560048036038101906101a09190610ede565b61038c565b6040516101b29190610e41565b60405180910390f35b6101c36103d1565b005b6101cd6103e4565b6040516101da9190610f18565b60405180910390f35b6101eb61040c565b6040516101f89190610e41565b60405180910390f35b61020961041a565b6040516102169190610d10565b60405180910390f35b61023960048036038101906102349190610dc1565b6104aa565b6040516102469190610e19565b60405180910390f35b61026960048036038101906102649190610f31565b6104cc565b6040516102769190610e41565b60405180910390f35b61029960048036038101906102949190610ede565b61054e565b005b6060600380546102aa90610f9c565b80601f01602080910402602001604051908101604052809291908181526020018280546102d690610f9c565b80156103215780601f106102f857610100808354040283529160200191610321565b820191905f5260205f20905b81548152906001019060200180831161030457829003601f168201915b5050505050905090565b5f5f6103356105d2565b90506103428185856105d9565b600191505092915050565b5f600254905090565b5f5f6103606105d2565b905061036d8582856105eb565b61037885858561067e565b60019150509392505050565b5f6012905090565b5f5f5f8373ffffffffffffffffffffffffffffffffffffffff1673ffffffffffffffffffffffffffffffffffffffff1681526020019081526020015f20549050919050565b6103d961076e565b6103e25f6107f5565b565b5f60055f9054906101000a900473ffffffffffffffffffffffffffffffffffffffff16905090565b69d3c21bcecceda100000081565b60606004805461042990610f9c565b80601f016020809104026020016040519081016040528092919081815260200182805461045590610f9c565b80156104a05780601f10610477576101008083540402835291602001916104a0565b820191905f5260205f20905b81548152906001019060200180831161048357829003601f168201915b5050505050905090565b5f5f6104b46105d2565b90506104c181858561067e565b600191505092915050565b5f60015f8473ffffffffffffffffffffffffffffffffffffffff1673ffffffffffffffffffffffffffffffffffffffff1681526020019081526020015f205f8373ffffffffffffffffffffffffffffffffffffffff1673ffffffffffffffffffffffffffffffffffffffff1681526020019081526020015f2054905092915050565b61055661076e565b5f73ffffffffffffffffffffffffffffffffffffffff168173ffffffffffffffffffffffffffffffffffffffff16036105c6575f6040517f1e4fbdf70000000000000000000000000000000000000000000000000000000081526004016105bd9190610f18565b60405180910390fd5b6105cf816107f5565b50565b5f33905090565b6105e683838360016108b8565b505050565b5f6105f684846104cc565b90507fffffffffffffffffffffffffffffffffffffffffffffffffffffffffffffffff8110156106785781811015610669578281836040517ffb8f41b200000000000000000000000000000000000000000000000000000000815260040161066093929190610fcc565b60405180910390fd5b61067784848484035f6108b8565b5b50505050565b5f73ffffffffffffffffffffffffffffffffffffffff168373ffffffffffffffffffffffffffffffffffffffff16036106ee575f6040517f96c6fd1e0000000000000000000000000000000000000000000000000000000081526004016106e59190610f18565b60405180910390fd5b5f73ffffffffffffffffffffffffffffffffffffffff168273ffffffffffffffffffffffffffffffffffffffff160361075e575f6040517fec442f050000000000000000000000000000000000000000000000000000000081526004016107559190610f18565b60405180910390fd5b610769838383610a87565b505050565b6107766105d2565b73ffffffffffffffffffffffffffffffffffffffff166107946103e4565b73ffffffffffffffffffffffffffffffffffffffff16146107f3576107b76105d2565b6040517f118cdaa70000000000000000000000000000000000000000000000000000000081526004016107ea9190610f18565b60405180910390fd5b565b5f60055f9054906101000a900473ffffffffffffffffffffffffffffffffffffffff1690508160055f6101000a81548173ffffffffffffffffffffffffffffffffffffffff021916908373ffffffffffffffffffffffffffffffffffffffff1602179055508173ffffffffffffffffffffffffffffffffffffffff168173ffffffffffffffffffffffffffffffffffffffff167f8be0079c531659141344cd1fd0a4f28419497f9722a3daafe3b4186f6b6457e060405160405180910390a35050565b5f73ffffffffffffffffffffffffffffffffffffffff168473ffffffffffffffffffffffffffffffffffffffff1603610928575f6040517fe602df0500000000000000000000000000000000000000000000000000000000815260040161091f9190610f18565b60405180910390fd5b5f73ffffffffffffffffffffffffffffffffffffffff168373ffffffffffffffffffffffffffffffffffffffff1603610998575f6040517f94280d6200000000000000000000000000000000000000000000000000000000815260040161098f9190610f18565b60405180910390fd5b8160015f8673ffffffffffffffffffffffffffffffffffffffff1673ffffffffffffffffffffffffffffffffffffffff1681526020019081526020015f205f8573ffffffffffffffffffffffffffffffffffffffff1673ffffffffffffffffffffffffffffffffffffffff1681526020019081526020015f20819055508015610a81578273ffffffffffffffffffffffffffffffffffffffff168473ffffffffffffffffffffffffffffffffffffffff167f8c5be1e5ebec7d5bd14f71427d1e84f3dd0314c0f7b2291e5b200ac8c7c3b92584604051610a789190610e41565b60405180910390a35b50505050565b5f73ffffffffffffffffffffffffffffffffffffffff168373ffffffffffffffffffffffffffffffffffffffff1603610ad7578060025f828254610acb919061102e565b92505081905550610ba5565b5f5f5f8573ffffffffffffffffffffffffffffffffffffffff1673ffffffffffffffffffffffffffffffffffffffff1681526020019081526020015f2054905081811015610b60578381836040517fe450d38c000000000000000000000000000000000000000000000000000000008152600401610b5793929190610fcc565b60405180910390fd5b8181035f5f8673ffffffffffffffffffffffffffffffffffffffff1673ffffffffffffffffffffffffffffffffffffffff1681526020019081526020015f2081905550505b5f73ffffffffffffffffffffffffffffffffffffffff168273ffffffffffffffffffffffffffffffffffffffff1603610bec578060025f8282540392505081905550610c36565b805f5f8473ffffffffffffffffffffffffffffffffffffffff1673ffffffffffffffffffffffffffffffffffffffff1681526020019081526020015f205f82825401925050819055505b8173ffffffffffffffffffffffffffffffffffffffff168373ffffffffffffffffffffffffffffffffffffffff167fddf252ad1be2c89b69c2b068fc378daa952ba7f163c4a11628f55a4df523b3ef83604051610c939190610e41565b60405180910390a3505050565b5f81519050919050565b5f82825260208201905092915050565b8281835e5f83830152505050565b5f601f19601f8301169050919050565b5f610ce282610ca0565b610cec8185610caa565b9350610cfc818560208601610cba565b610d0581610cc8565b840191505092915050565b5f6020820190508181035f830152610d288184610cd8565b905092915050565b5f5ffd5b5f73ffffffffffffffffffffffffffffffffffffffff82169050919050565b5f610d5d82610d34565b9050919050565b610d6d81610d53565b8114610d77575f5ffd5b50565b5f81359050610d8881610d64565b92915050565b5f819050919050565b610da081610d8e565b8114610daa575f5ffd5b50565b5f81359050610dbb81610d97565b92915050565b5f5f60408385031215610dd757610dd6610d30565b5b5f610de485828601610d7a565b9250506020610df585828601610dad565b9150509250929050565b5f8115159050919050565b610e1381610dff565b82525050565b5f602082019050610e2c5f830184610e0a565b92915050565b610e3b81610d8e565b82525050565b5f602082019050610e545f830184610e32565b92915050565b5f5f5f60608486031215610e7157610e70610d30565b5b5f610e7e86828701610d7a565b9350506020610e8f86828701610d7a565b9250506040610ea086828701610dad565b9150509250925092565b5f60ff82169050919050565b610ebf81610eaa565b82525050565b5f602082019050610ed85f830184610eb6565b92915050565b5f60208284031215610ef357610ef2610d30565b5b5f610f0084828501610d7a565b91505092915050565b610f1281610d53565b82525050565b5f602082019050610f2b5f830184610f09565b92915050565b5f5f60408385031215610f4757610f46610d30565b5b5f610f5485828601610d7a565b9250506020610f6585828601610d7a565b9150509250929050565b7f4e487b71000000000000000000000000000000000000000000000000000000005f52602260045260245ffd5b5f6002820490506001821680610fb357607f821691505b602082108103610fc657610fc5610f6f565b5b50919050565b5f606082019050610fdf5f830186610f09565b610fec6020830185610e32565b610ff96040830184610e32565b949350505050565b7f4e487b71000000000000000000000000000000000000000000000000000000005f52601160045260245ffd5b5f61103882610d8e565b915061104383610d8e565b925082820190508082111561105b5761105a611001565b5b9291505056fea2646970667358221220cc192c191703e6283644c23457e0b1f92ace3bc70526fdb41f393b03b7cd1aa964736f6c634300081e003360c060405234801561000f575f5ffd5b5060405161121e38038061121e833981810160405281019061003191906100fe565b8173ffffffffffffffffffffffffffffffffffffffff1660808173ffffffffffffffffffffffffffffffffffffffff16815250508073ffffffffffffffffffffffffffffffffffffffff1660a08173ffffffffffffffffffffffffffffffffffffffff1681525050505061013c565b5f5ffd5b5f73ffffffffffffffffffffffffffffffffffffffff82169050919050565b5f6100cd826100a4565b9050919050565b6100dd816100c3565b81146100e7575f5ffd5b50565b5f815190506100f8816100d4565b92915050565b5f5f60408385031215610114576101136100a0565b5b5f610121858286016100ea565b9250506020610132858286016100ea565b9150509250929050565b60805160a0516110976101875f395f81816102d8015281816103b10152818161058c0152818161066e015261099101525f818161044d0152818161070f015261083a01526110975ff3fe608060405234801561000f575f5ffd5b5060043610610091575f3560e01c80637dcb2abf116100645780637dcb2abf1461011b5780638141feb31461014b578063a694fc3a14610169578063d5a44f8614610185578063f7c618c1146101b657610091565b8063150b7a02146100955780632e17de78146100c5578063379607f5146100e157806347ccca02146100fd575b5f5ffd5b6100af60048036038101906100aa9190610b8d565b6101d4565b6040516100bc9190610c47565b60405180910390f35b6100df60048036038101906100da9190610c60565b6101e7565b005b6100fb60048036038101906100f69190610c60565b6104da565b005b61010561070d565b6040516101129190610ce6565b60405180910390f35b61013560048036038101906101309190610c60565b610731565b6040516101429190610d0e565b60405180910390f35b61015361082c565b6040516101609190610d0e565b60405180910390f35b610183600480360381019061017e9190610c60565b610838565b005b61019f600480360381019061019a9190610c60565b610951565b6040516101ad929190610d36565b60405180910390f35b6101be61098f565b6040516101cb9190610d7d565b60405180910390f35b5f63150b7a0260e01b9050949350505050565b5f5f5f8381526020019081526020015f2090503373ffffffffffffffffffffffffffffffffffffffff16815f015f9054906101000a900473ffffffffffffffffffffffffffffffffffffffff1673ffffffffffffffffffffffffffffffffffffffff161461028a576040517f08c379a000000000000000000000000000000000000000000000000000000000815260040161028190610df0565b60405180910390fd5b5f61029483610731565b90505f5f8481526020019081526020015f205f5f82015f6101000a81549073ffffffffffffffffffffffffffffffffffffffff0219169055600182015f90555050807f000000000000000000000000000000000000000000000000000000000000000073ffffffffffffffffffffffffffffffffffffffff166370a08231306040518263ffffffff1660e01b815260040161032f9190610e0e565b602060405180830381865afa15801561034a573d5f5f3e3d5ffd5b505050506040513d601f19601f8201168201806040525081019061036e9190610e3b565b10156103af576040517f08c379a00000000000000000000000000000000000000000000000000000000081526004016103a690610eb0565b60405180910390fd5b7f000000000000000000000000000000000000000000000000000000000000000073ffffffffffffffffffffffffffffffffffffffff1663a9059cbb33836040518363ffffffff1660e01b815260040161040a929190610d36565b6020604051808303815f875af1158015610426573d5f5f3e3d5ffd5b505050506040513d601f19601f8201168201806040525081019061044a9190610f03565b507f000000000000000000000000000000000000000000000000000000000000000073ffffffffffffffffffffffffffffffffffffffff166342842e0e3033866040518463ffffffff1660e01b81526004016104a893929190610f2e565b5f604051808303815f87803b1580156104bf575f5ffd5b505af11580156104d1573d5f5f3e3d5ffd5b50505050505050565b5f5f5f8381526020019081526020015f2090503373ffffffffffffffffffffffffffffffffffffffff16815f015f9054906101000a900473ffffffffffffffffffffffffffffffffffffffff1673ffffffffffffffffffffffffffffffffffffffff161461057d576040517f08c379a000000000000000000000000000000000000000000000000000000000815260040161057490610df0565b60405180910390fd5b5f61058783610731565b9050807f000000000000000000000000000000000000000000000000000000000000000073ffffffffffffffffffffffffffffffffffffffff166370a08231306040518263ffffffff1660e01b81526004016105e39190610e0e565b602060405180830381865afa1580156105fe573d5f5f3e3d5ffd5b505050506040513d601f19601f820116820180604052508101906106229190610e3b565b1015610663576040517f08c379a000000000000000000000000000000000000000000000000000000000815260040161065a90610eb0565b60405180910390fd5b4282600101819055507f000000000000000000000000000000000000000000000000000000000000000073ffffffffffffffffffffffffffffffffffffffff1663a9059cbb33836040518363ffffffff1660e01b81526004016106c7929190610d36565b6020604051808303815f875af11580156106e3573d5f5f3e3d5ffd5b505050506040513d601f19601f820116820180604052508101906107079190610f03565b50505050565b7f000000000000000000000000000000000000000000000000000000000000000081565b5f5f5f5f8481526020019081526020015f206040518060400160405290815f82015f9054906101000a900473ffffffffffffffffffffffffffffffffffffffff1673ffffffffffffffffffffffffffffffffffffffff1673ffffffffffffffffffffffffffffffffffffffff16815260200160018201548152505090505f73ffffffffffffffffffffffffffffffffffffffff16815f015173ffffffffffffffffffffffffffffffffffffffff16036107ed575f915050610827565b5f8160200151426107fe9190610f90565b905062015180678ac7230489e80000826108189190610fc3565b6108229190611031565b925050505b919050565b678ac7230489e8000081565b7f000000000000000000000000000000000000000000000000000000000000000073ffffffffffffffffffffffffffffffffffffffff166342842e0e3330846040518463ffffffff1660e01b815260040161089593929190610f2e565b5f604051808303815f87803b1580156108ac575f5ffd5b505af11580156108be573d5f5f3e3d5ffd5b5050505060405180604001604052803373ffffffffffffffffffffffffffffffffffffffff168152602001428152505f5f8381526020019081526020015f205f820151815f015f6101000a81548173ffffffffffffffffffffffffffffffffffffffff021916908373ffffffffffffffffffffffffffffffffffffffff1602179055506020820151816001015590505050565b5f602052805f5260405f205f91509050805f015f9054906101000a900473ffffffffffffffffffffffffffffffffffffffff16908060010154905082565b7f000000000000000000000000000000000000000000000000000000000000000081565b5f604051905090565b5f5ffd5b5f5ffd5b5f73ffffffffffffffffffffffffffffffffffffffff82169050919050565b5f6109ed826109c4565b9050919050565b6109fd816109e3565b8114610a07575f5ffd5b50565b5f81359050610a18816109f4565b92915050565b5f819050919050565b610a3081610a1e565b8114610a3a575f5ffd5b50565b5f81359050610a4b81610a27565b92915050565b5f5ffd5b5f5ffd5b5f601f19601f8301169050919050565b7f4e487b71000000000000000000000000000000000000000000000000000000005f52604160045260245ffd5b610a9f82610a59565b810181811067ffffffffffffffff82111715610abe57610abd610a69565b5b80604052505050565b5f610ad06109b3565b9050610adc8282610a96565b919050565b5f67ffffffffffffffff821115610afb57610afa610a69565b5b610b0482610a59565b9050602081019050919050565b828183375f83830152505050565b5f610b31610b2c84610ae1565b610ac7565b905082815260208101848484011115610b4d57610b4c610a55565b5b610b58848285610b11565b509392505050565b5f82601f830112610b7457610b73610a51565b5b8135610b84848260208601610b1f565b91505092915050565b5f5f5f5f60808587031215610ba557610ba46109bc565b5b5f610bb287828801610a0a565b9450506020610bc387828801610a0a565b9350506040610bd487828801610a3d565b925050606085013567ffffffffffffffff811115610bf557610bf46109c0565b5b610c0187828801610b60565b91505092959194509250565b5f7fffffffff0000000000000000000000000000000000000000000000000000000082169050919050565b610c4181610c0d565b82525050565b5f602082019050610c5a5f830184610c38565b92915050565b5f60208284031215610c7557610c746109bc565b5b5f610c8284828501610a3d565b91505092915050565b5f819050919050565b5f610cae610ca9610ca4846109c4565b610c8b565b6109c4565b9050919050565b5f610cbf82610c94565b9050919050565b5f610cd082610cb5565b9050919050565b610ce081610cc6565b82525050565b5f602082019050610cf95f830184610cd7565b92915050565b610d0881610a1e565b82525050565b5f602082019050610d215f830184610cff565b92915050565b610d30816109e3565b82525050565b5f604082019050610d495f830185610d27565b610d566020830184610cff565b9392505050565b5f610d6782610cb5565b9050919050565b610d7781610d5d565b82525050565b5f602082019050610d905f830184610d6e565b92915050565b5f82825260208201905092915050565b7f4e6f74206f776e657200000000000000000000000000000000000000000000005f82015250565b5f610dda600983610d96565b9150610de582610da6565b602082019050919050565b5f6020820190508181035f830152610e0781610dce565b9050919050565b5f602082019050610e215f830184610d27565b92915050565b5f81519050610e3581610a27565b92915050565b5f60208284031215610e5057610e4f6109bc565b5b5f610e5d84828501610e27565b91505092915050565b7f496e73756666696369656e742072657761726420706f6f6c00000000000000005f82015250565b5f610e9a601883610d96565b9150610ea582610e66565b602082019050919050565b5f6020820190508181035f830152610ec781610e8e565b9050919050565b5f8115159050919050565b610ee281610ece565b8114610eec575f5ffd5b50565b5f81519050610efd81610ed9565b92915050565b5f60208284031215610f1857610f176109bc565b5b5f610f2584828501610eef565b91505092915050565b5f606082019050610f415f830186610d27565b610f4e6020830185610d27565b610f5b6040830184610cff565b949350505050565b7f4e487b71000000000000000000000000000000000000000000000000000000005f52601160045260245ffd5b5f610f9a82610a1e565b9150610fa583610a1e565b9250828203905081811115610fbd57610fbc610f63565b5b92915050565b5f610fcd82610a1e565b9150610fd883610a1e565b9250828202610fe681610a1e565b91508282048414831517610ffd57610ffc610f63565b5b5092915050565b7f4e487b71000000000000000000000000000000000000000000000000000000005f52601260045260245ffd5b5f61103b82610a1e565b915061104683610a1e565b92508261105657611055611004565b5b82820490509291505056fea2646970667358221220c8a2c1da9fb1c70c1058d21be2b5953cfe66fe1914b953a7642a64787bac8c0c64736f6c634300081e0033",
			"opcodes": "PUSH1 0x80 PUSH1 0x40 MSTORE CALLVALUE DUP1 ISZERO PUSH2 0xF JUMPI PUSH0 PUSH0 REVERT JUMPDEST POP PUSH1 0x40 MLOAD PUSH2 0x1C SWAP1 PUSH2 0x25E JUMP JUMPDEST PUSH1 0x40 MLOAD DUP1 SWAP2 SUB SWAP1 PUSH0 CREATE DUP1 ISZERO DUP1 ISZERO PUSH2 0x35 JUMPI RETURNDATASIZE PUSH0 PUSH0 RETURNDATACOPY RETURNDATASIZE PUSH0 REVERT JUMPDEST POP PUSH0 PUSH0 PUSH2 0x100 EXP DUP2 SLOAD DUP2 PUSH20 0xFFFFFFFFFFFFFFFFFFFFFFFFFFFFFFFFFFFFFFFF MUL NOT AND SWAP1 DUP4 PUSH20 0xFFFFFFFFFFFFFFFFFFFFFFFFFFFFFFFFFFFFFFFF AND MUL OR SWAP1 SSTORE POP PUSH1 0x40 MLOAD PUSH2 0x80 SWAP1 PUSH2 0x26B JUMP JUMPDEST PUSH1 0x40 MLOAD DUP1 SWAP2 SUB SWAP1 PUSH0 CREATE DUP1 ISZERO DUP1 ISZERO PUSH2 0x99 JUMPI RETURNDATASIZE PUSH0 PUSH0 RETURNDATACOPY RETURNDATASIZE PUSH0 REVERT JUMPDEST POP PUSH1 0x1 PUSH0 PUSH2 0x100 EXP DUP2 SLOAD DUP2 PUSH20 0xFFFFFFFFFFFFFFFFFFFFFFFFFFFFFFFFFFFFFFFF MUL NOT AND SWAP1 DUP4 PUSH20 0xFFFFFFFFFFFFFFFFFFFFFFFFFFFFFFFFFFFFFFFF AND MUL OR SWAP1 SSTORE POP PUSH0 PUSH0 SWAP1 SLOAD SWAP1 PUSH2 0x100 EXP SWAP1 DIV PUSH20 0xFFFFFFFFFFFFFFFFFFFFFFFFFFFFFFFFFFFFFFFF AND PUSH1 0x1 PUSH0 SWAP1 SLOAD SWAP1 PUSH2 0x100 EXP SWAP1 DIV PUSH20 0xFFFFFFFFFFFFFFFFFFFFFFFFFFFFFFFFFFFFFFFF AND PUSH1 0x40 MLOAD PUSH2 0x128 SWAP1 PUSH2 0x278 JUMP JUMPDEST PUSH2 0x133 SWAP3 SWAP2 SWAP1 PUSH2 0x2C4 JUMP JUMPDEST PUSH1 0x40 MLOAD DUP1 SWAP2 SUB SWAP1 PUSH0 CREATE DUP1 ISZERO DUP1 ISZERO PUSH2 0x14C JUMPI RETURNDATASIZE PUSH0 PUSH0 RETURNDATACOPY RETURNDATASIZE PUSH0 REVERT JUMPDEST POP PUSH1 0x2 PUSH0 PUSH2 0x100 EXP DUP2 SLOAD DUP2 PUSH20 0xFFFFFFFFFFFFFFFFFFFFFFFFFFFFFFFFFFFFFFFF MUL NOT AND SWAP1 DUP4 PUSH20 0xFFFFFFFFFFFFFFFFFFFFFFFFFFFFFFFFFFFFFFFF AND MUL OR SWAP1 SSTORE POP PUSH0 PUSH10 0x69E10DE76676D0800000 SWAP1 POP PUSH1 0x1 PUSH0 SWAP1 SLOAD SWAP1 PUSH2 0x100 EXP SWAP1 DIV PUSH20 0xFFFFFFFFFFFFFFFFFFFFFFFFFFFFFFFFFFFFFFFF AND PUSH20 0xFFFFFFFFFFFFFFFFFFFFFFFFFFFFFFFFFFFFFFFF AND PUSH4 0xA9059CBB PUSH1 0x2 PUSH0 SWAP1 SLOAD SWAP1 PUSH2 0x100 EXP SWAP1 DIV PUSH20 0xFFFFFFFFFFFFFFFFFFFFFFFFFFFFFFFFFFFFFFFF AND DUP4 PUSH1 0x40 MLOAD DUP4 PUSH4 0xFFFFFFFF AND PUSH1 0xE0 SHL DUP2 MSTORE PUSH1 0x4 ADD PUSH2 0x217 SWAP3 SWAP2 SWAP1 PUSH2 0x303 JUMP JUMPDEST PUSH1 0x20 PUSH1 0x40 MLOAD DUP1 DUP4 SUB DUP2 PUSH0 DUP8 GAS CALL ISZERO DUP1 ISZERO PUSH2 0x233 JUMPI RETURNDATASIZE PUSH0 PUSH0 RETURNDATACOPY RETURNDATASIZE PUSH0 REVERT JUMPDEST POP POP POP POP PUSH1 0x40 MLOAD RETURNDATASIZE PUSH1 0x1F NOT PUSH1 0x1F DUP3 ADD AND DUP3 ADD DUP1 PUSH1 0x40 MSTORE POP DUP2 ADD SWAP1 PUSH2 0x257 SWAP2 SWAP1 PUSH2 0x363 JUMP JUMPDEST POP POP PUSH2 0x38E JUMP JUMPDEST PUSH2 0x2632 DUP1 PUSH2 0x5E1 DUP4 CODECOPY ADD SWAP1 JUMP JUMPDEST PUSH2 0x1964 DUP1 PUSH2 0x2C13 DUP4 CODECOPY ADD SWAP1 JUMP JUMPDEST PUSH2 0x121E DUP1 PUSH2 0x4577 DUP4 CODECOPY ADD SWAP1 JUMP JUMPDEST PUSH0 PUSH20 0xFFFFFFFFFFFFFFFFFFFFFFFFFFFFFFFFFFFFFFFF DUP3 AND SWAP1 POP SWAP2 SWAP1 POP JUMP JUMPDEST PUSH0 PUSH2 0x2AE DUP3 PUSH2 0x285 JUMP JUMPDEST SWAP1 POP SWAP2 SWAP1 POP JUMP JUMPDEST PUSH2 0x2BE DUP2 PUSH2 0x2A4 JUMP JUMPDEST DUP3 MSTORE POP POP JUMP JUMPDEST PUSH0 PUSH1 0x40 DUP3 ADD SWAP1 POP PUSH2 0x2D7 PUSH0 DUP4 ADD DUP6 PUSH2 0x2B5 JUMP JUMPDEST PUSH2 0x2E4 PUSH1 0x20 DUP4 ADD DUP5 PUSH2 0x2B5 JUMP JUMPDEST SWAP4 SWAP3 POP POP POP JUMP JUMPDEST PUSH0 DUP2 SWAP1 POP SWAP2 SWAP1 POP JUMP JUMPDEST PUSH2 0x2FD DUP2 PUSH2 0x2EB JUMP JUMPDEST DUP3 MSTORE POP POP JUMP JUMPDEST PUSH0 PUSH1 0x40 DUP3 ADD SWAP1 POP PUSH2 0x316 PUSH0 DUP4 ADD DUP6 PUSH2 0x2B5 JUMP JUMPDEST PUSH2 0x323 PUSH1 0x20 DUP4 ADD DUP5 PUSH2 0x2F4 JUMP JUMPDEST SWAP4 SWAP3 POP POP POP JUMP JUMPDEST PUSH0 PUSH0 REVERT JUMPDEST PUSH0 DUP2 ISZERO ISZERO SWAP1 POP SWAP2 SWAP1 POP JUMP JUMPDEST PUSH2 0x342 DUP2 PUSH2 0x32E JUMP JUMPDEST DUP2 EQ PUSH2 0x34C JUMPI PUSH0 PUSH0 REVERT JUMPDEST POP JUMP JUMPDEST PUSH0 DUP2 MLOAD SWAP1 POP PUSH2 0x35D DUP2 PUSH2 0x339 JUMP JUMPDEST SWAP3 SWAP2 POP POP JUMP JUMPDEST PUSH0 PUSH1 0x20 DUP3 DUP5 SUB SLT ISZERO PUSH2 0x378 JUMPI PUSH2 0x377 PUSH2 0x32A JUMP JUMPDEST JUMPDEST PUSH0 PUSH2 0x385 DUP5 DUP3 DUP6 ADD PUSH2 0x34F JUMP JUMPDEST SWAP2 POP POP SWAP3 SWAP2 POP POP JUMP JUMPDEST PUSH2 0x246 DUP1 PUSH2 0x39B PUSH0 CODECOPY PUSH0 RETURN INVALID PUSH1 0x80 PUSH1 0x40 MSTORE CALLVALUE DUP1 ISZERO PUSH2 0xF JUMPI PUSH0 PUSH0 REVERT JUMPDEST POP PUSH1 0x4 CALLDATASIZE LT PUSH2 0x3F JUMPI PUSH0 CALLDATALOAD PUSH1 0xE0 SHR DUP1 PUSH4 0x47CCCA02 EQ PUSH2 0x43 JUMPI DUP1 PUSH4 0x4CF088D9 EQ PUSH2 0x61 JUMPI DUP1 PUSH4 0xFC0C546A EQ PUSH2 0x7F JUMPI JUMPDEST PUSH0 PUSH0 REVERT JUMPDEST PUSH2 0x4B PUSH2 0x9D JUMP JUMPDEST PUSH1 0x40 MLOAD PUSH2 0x58 SWAP2 SWAP1 PUSH2 0x185 JUMP JUMPDEST PUSH1 0x40 MLOAD DUP1 SWAP2 SUB SWAP1 RETURN JUMPDEST PUSH2 0x69 PUSH2 0xC1 JUMP JUMPDEST PUSH1 0x40 MLOAD PUSH2 0x76 SWAP2 SWAP1 PUSH2 0x1BE JUMP JUMPDEST PUSH1 0x40 MLOAD DUP1 SWAP2 SUB SWAP1 RETURN JUMPDEST PUSH2 0x87 PUSH2 0xE6 JUMP JUMPDEST PUSH1 0x40 MLOAD PUSH2 0x94 SWAP2 SWAP1 PUSH2 0x1F7 JUMP JUMPDEST PUSH1 0x40 MLOAD DUP1 SWAP2 SUB SWAP1 RETURN JUMPDEST PUSH0 PUSH0 SWAP1 SLOAD SWAP1 PUSH2 0x100 EXP SWAP1 DIV PUSH20 0xFFFFFFFFFFFFFFFFFFFFFFFFFFFFFFFFFFFFFFFF AND DUP2 JUMP JUMPDEST PUSH1 0x2 PUSH0 SWAP1 SLOAD SWAP1 PUSH2 0x100 EXP SWAP1 DIV PUSH20 0xFFFFFFFFFFFFFFFFFFFFFFFFFFFFFFFFFFFFFFFF AND DUP2 JUMP JUMPDEST PUSH1 0x1 PUSH0 SWAP1 SLOAD SWAP1 PUSH2 0x100 EXP SWAP1 DIV PUSH20 0xFFFFFFFFFFFFFFFFFFFFFFFFFFFFFFFFFFFFFFFF AND DUP2 JUMP JUMPDEST PUSH0 PUSH20 0xFFFFFFFFFFFFFFFFFFFFFFFFFFFFFFFFFFFFFFFF DUP3 AND SWAP1 POP SWAP2 SWAP1 POP JUMP JUMPDEST PUSH0 DUP2 SWAP1 POP SWAP2 SWAP1 POP JUMP JUMPDEST PUSH0 PUSH2 0x14D PUSH2 0x148 PUSH2 0x143 DUP5 PUSH2 0x10B JUMP JUMPDEST PUSH2 0x12A JUMP JUMPDEST PUSH2 0x10B JUMP JUMPDEST SWAP1 POP SWAP2 SWAP1 POP JUMP JUMPDEST PUSH0 PUSH2 0x15E DUP3 PUSH2 0x133 JUMP JUMPDEST SWAP1 POP SWAP2 SWAP1 POP JUMP JUMPDEST PUSH0 PUSH2 0x16F DUP3 PUSH2 0x154 JUMP JUMPDEST SWAP1 POP SWAP2 SWAP1 POP JUMP JUMPDEST PUSH2 0x17F DUP2 PUSH2 0x165 JUMP JUMPDEST DUP3 MSTORE POP POP JUMP JUMPDEST PUSH0 PUSH1 0x20 DUP3 ADD SWAP1 POP PUSH2 0x198 PUSH0 DUP4 ADD DUP5 PUSH2 0x176 JUMP JUMPDEST SWAP3 SWAP2 POP POP JUMP JUMPDEST PUSH0 PUSH2 0x1A8 DUP3 PUSH2 0x154 JUMP JUMPDEST SWAP1 POP SWAP2 SWAP1 POP JUMP JUMPDEST PUSH2 0x1B8 DUP2 PUSH2 0x19E JUMP JUMPDEST DUP3 MSTORE POP POP JUMP JUMPDEST PUSH0 PUSH1 0x20 DUP3 ADD SWAP1 POP PUSH2 0x1D1 PUSH0 DUP4 ADD DUP5 PUSH2 0x1AF JUMP JUMPDEST SWAP3 SWAP2 POP POP JUMP JUMPDEST PUSH0 PUSH2 0x1E1 DUP3 PUSH2 0x154 JUMP JUMPDEST SWAP1 POP SWAP2 SWAP1 POP JUMP JUMPDEST PUSH2 0x1F1 DUP2 PUSH2 0x1D7 JUMP JUMPDEST DUP3 MSTORE POP POP JUMP JUMPDEST PUSH0 PUSH1 0x20 DUP3 ADD SWAP1 POP PUSH2 0x20A PUSH0 DUP4 ADD DUP5 PUSH2 0x1E8 JUMP JUMPDEST SWAP3 SWAP2 POP POP JUMP INVALID LOG2 PUSH5 0x6970667358 0x22 SLT KECCAK256 PUSH21 0xC80A60A26950D094AFE3EC59D17022330E31615D7E LOG2 MOD RJUMPI 0xF46C CALL 0x21 LOG3 0x2B JUMP PUSH5 0x736F6C6343 STOP ADDMOD 0x1E STOP CALLER PUSH1 0x80 PUSH1 0x40 MSTORE CALLVALUE DUP1 ISZERO PUSH2 0xF JUMPI PUSH0 PUSH0 REVERT JUMPDEST POP CALLER PUSH1 0x40 MLOAD DUP1 PUSH1 0x40 ADD PUSH1 0x40 MSTORE DUP1 PUSH1 0x6 DUP2 MSTORE PUSH1 0x20 ADD PUSH32 0x4D79204E46540000000000000000000000000000000000000000000000000000 DUP2 MSTORE POP PUSH1 0x40 MLOAD DUP1 PUSH1 0x40 ADD PUSH1 0x40 MSTORE DUP1 PUSH1 0x4 DUP2 MSTORE PUSH1 0x20 ADD PUSH32 0x4D4E465400000000000000000000000000000000000000000000000000000000 DUP2 MSTORE POP DUP2 PUSH0 SWAP1 DUP2 PUSH2 0x8B SWAP2 SWAP1 PUSH2 0x423 JUMP JUMPDEST POP DUP1 PUSH1 0x1 SWAP1 DUP2 PUSH2 0x9B SWAP2 SWAP1 PUSH2 0x423 JUMP JUMPDEST POP POP POP PUSH0 PUSH20 0xFFFFFFFFFFFFFFFFFFFFFFFFFFFFFFFFFFFFFFFF AND DUP2 PUSH20 0xFFFFFFFFFFFFFFFFFFFFFFFFFFFFFFFFFFFFFFFF AND SUB PUSH2 0x10E JUMPI PUSH0 PUSH1 0x40 MLOAD PUSH32 0x1E4FBDF700000000000000000000000000000000000000000000000000000000 DUP2 MSTORE PUSH1 0x4 ADD PUSH2 0x105 SWAP2 SWAP1 PUSH2 0x531 JUMP JUMPDEST PUSH1 0x40 MLOAD DUP1 SWAP2 SUB SWAP1 REVERT JUMPDEST PUSH2 0x11D DUP2 PUSH2 0x123 PUSH1 0x20 SHL PUSH1 0x20 SHR JUMP JUMPDEST POP PUSH2 0x54A JUMP JUMPDEST PUSH0 PUSH1 0x6 PUSH0 SWAP1 SLOAD SWAP1 PUSH2 0x100 EXP SWAP1 DIV PUSH20 0xFFFFFFFFFFFFFFFFFFFFFFFFFFFFFFFFFFFFFFFF AND SWAP1 POP DUP2 PUSH1 0x6 PUSH0 PUSH2 0x100 EXP DUP2 SLOAD DUP2 PUSH20 0xFFFFFFFFFFFFFFFFFFFFFFFFFFFFFFFFFFFFFFFF MUL NOT AND SWAP1 DUP4 PUSH20 0xFFFFFFFFFFFFFFFFFFFFFFFFFFFFFFFFFFFFFFFF AND MUL OR SWAP1 SSTORE POP DUP2 PUSH20 0xFFFFFFFFFFFFFFFFFFFFFFFFFFFFFFFFFFFFFFFF AND DUP2 PUSH20 0xFFFFFFFFFFFFFFFFFFFFFFFFFFFFFFFFFFFFFFFF AND PUSH32 0x8BE0079C531659141344CD1FD0A4F28419497F9722A3DAAFE3B4186F6B6457E0 PUSH1 0x40 MLOAD PUSH1 0x40 MLOAD DUP1 SWAP2 SUB SWAP1 LOG3 POP POP JUMP JUMPDEST PUSH0 DUP2 MLOAD SWAP1 POP SWAP2 SWAP1 POP JUMP JUMPDEST PUSH32 0x4E487B7100000000000000000000000000000000000000000000000000000000 PUSH0 MSTORE PUSH1 0x41 PUSH1 0x4 MSTORE PUSH1 0x24 PUSH0 REVERT JUMPDEST PUSH32 0x4E487B7100000000000000000000000000000000000000000000000000000000 PUSH0 MSTORE PUSH1 0x22 PUSH1 0x4 MSTORE PUSH1 0x24 PUSH0 REVERT JUMPDEST PUSH0 PUSH1 0x2 DUP3 DIV SWAP1 POP PUSH1 0x1 DUP3 AND DUP1 PUSH2 0x261 JUMPI PUSH1 0x7F DUP3 AND SWAP2 POP JUMPDEST PUSH1 0x20 DUP3 LT DUP2 SUB PUSH2 0x274 JUMPI PUSH2 0x273 PUSH2 0x21D JUMP JUMPDEST JUMPDEST POP SWAP2 SWAP1 POP JUMP JUMPDEST PUSH0 DUP2 SWAP1 POP DUP2 PUSH0 MSTORE PUSH1 0x20 PUSH0 KECCAK256 SWAP1 POP SWAP2 SWAP1 POP JUMP JUMPDEST PUSH0 PUSH1 0x20 PUSH1 0x1F DUP4 ADD DIV SWAP1 POP SWAP2 SWAP1 POP JUMP JUMPDEST PUSH0 DUP3 DUP3 SHL SWAP1 POP SWAP3 SWAP2 POP POP JUMP JUMPDEST PUSH0 PUSH1 0x8 DUP4 MUL PUSH2 0x2D6 PUSH32 0xFFFFFFFFFFFFFFFFFFFFFFFFFFFFFFFFFFFFFFFFFFFFFFFFFFFFFFFFFFFFFFFF DUP3 PUSH2 0x29B JUMP JUMPDEST PUSH2 0x2E0 DUP7 DUP4 PUSH2 0x29B JUMP JUMPDEST SWAP6 POP DUP1 NOT DUP5 AND SWAP4 POP DUP1 DUP7 AND DUP5 OR SWAP3 POP POP POP SWAP4 SWAP3 POP POP POP JUMP JUMPDEST PUSH0 DUP2 SWAP1 POP SWAP2 SWAP1 POP JUMP JUMPDEST PUSH0 DUP2 SWAP1 POP SWAP2 SWAP1 POP JUMP JUMPDEST PUSH0 PUSH2 0x324 PUSH2 0x31F PUSH2 0x31A DUP5 PUSH2 0x2F8 JUMP JUMPDEST PUSH2 0x301 JUMP JUMPDEST PUSH2 0x2F8 JUMP JUMPDEST SWAP1 POP SWAP2 SWAP1 POP JUMP JUMPDEST PUSH0 DUP2 SWAP1 POP SWAP2 SWAP1 POP JUMP JUMPDEST PUSH2 0x33D DUP4 PUSH2 0x30A JUMP JUMPDEST PUSH2 0x351 PUSH2 0x349 DUP3 PUSH2 0x32B JUMP JUMPDEST DUP5 DUP5 SLOAD PUSH2 0x2A7 JUMP JUMPDEST DUP3 SSTORE POP POP POP POP JUMP JUMPDEST PUSH0 PUSH0 SWAP1 POP SWAP1 JUMP JUMPDEST PUSH2 0x368 PUSH2 0x359 JUMP JUMPDEST PUSH2 0x373 DUP2 DUP5 DUP5 PUSH2 0x334 JUMP JUMPDEST POP POP POP JUMP JUMPDEST JUMPDEST DUP2 DUP2 LT ISZERO PUSH2 0x396 JUMPI PUSH2 0x38B PUSH0 DUP3 PUSH2 0x360 JUMP JUMPDEST PUSH1 0x1 DUP2 ADD SWAP1 POP PUSH2 0x379 JUMP JUMPDEST POP POP JUMP JUMPDEST PUSH1 0x1F DUP3 GT ISZERO PUSH2 0x3DB JUMPI PUSH2 0x3AC DUP2 PUSH2 0x27A JUMP JUMPDEST PUSH2 0x3B5 DUP5 PUSH2 0x28C JUMP JUMPDEST DUP2 ADD PUSH1 0x20 DUP6 LT ISZERO PUSH2 0x3C4 JUMPI DUP2 SWAP1 POP JUMPDEST PUSH2 0x3D8 PUSH2 0x3D0 DUP6 PUSH2 0x28C JUMP JUMPDEST DUP4 ADD DUP3 PUSH2 0x378 JUMP JUMPDEST POP POP JUMPDEST POP POP POP JUMP JUMPDEST PUSH0 DUP3 DUP3 SHR SWAP1 POP SWAP3 SWAP2 POP POP JUMP JUMPDEST PUSH0 PUSH2 0x3FB PUSH0 NOT DUP5 PUSH1 0x8 MUL PUSH2 0x3E0 JUMP JUMPDEST NOT DUP1 DUP4 AND SWAP2 POP POP SWAP3 SWAP2 POP POP JUMP JUMPDEST PUSH0 PUSH2 0x413 DUP4 DUP4 PUSH2 0x3EC JUMP JUMPDEST SWAP2 POP DUP3 PUSH1 0x2 MUL DUP3 OR SWAP1 POP SWAP3 SWAP2 POP POP JUMP JUMPDEST PUSH2 0x42C DUP3 PUSH2 0x1E6 JUMP JUMPDEST PUSH8 0xFFFFFFFFFFFFFFFF DUP2 GT ISZERO PUSH2 0x445 JUMPI PUSH2 0x444 PUSH2 0x1F0 JUMP JUMPDEST JUMPDEST PUSH2 0x44F DUP3 SLOAD PUSH2 0x24A JUMP JUMPDEST PUSH2 0x45A DUP3 DUP3 DUP6 PUSH2 0x39A JUMP JUMPDEST PUSH0 PUSH1 0x20 SWAP1 POP PUSH1 0x1F DUP4 GT PUSH1 0x1 DUP2 EQ PUSH2 0x48B JUMPI PUSH0 DUP5 ISZERO PUSH2 0x479 JUMPI DUP3 DUP8 ADD MLOAD SWAP1 POP JUMPDEST PUSH2 0x483 DUP6 DUP3 PUSH2 0x408 JUMP JUMPDEST DUP7 SSTORE POP PUSH2 0x4EA JUMP JUMPDEST PUSH1 0x1F NOT DUP5 AND PUSH2 0x499 DUP7 PUSH2 0x27A JUMP JUMPDEST PUSH0 JUMPDEST DUP3 DUP2 LT ISZERO PUSH2 0x4C0 JUMPI DUP5 DUP10 ADD MLOAD DUP3 SSTORE PUSH1 0x1 DUP3 ADD SWAP2 POP PUSH1 0x20 DUP6 ADD SWAP5 POP PUSH1 0x20 DUP2 ADD SWAP1 POP PUSH2 0x49B JUMP JUMPDEST DUP7 DUP4 LT ISZERO PUSH2 0x4DD JUMPI DUP5 DUP10 ADD MLOAD PUSH2 0x4D9 PUSH1 0x1F DUP10 AND DUP3 PUSH2 0x3EC JUMP JUMPDEST DUP4 SSTORE POP JUMPDEST PUSH1 0x1 PUSH1 0x2 DUP9 MUL ADD DUP9 SSTORE POP POP POP JUMPDEST POP POP POP POP POP POP JUMP JUMPDEST PUSH0 PUSH20 0xFFFFFFFFFFFFFFFFFFFFFFFFFFFFFFFFFFFFFFFF DUP3 AND SWAP1 POP SWAP2 SWAP1 POP JUMP JUMPDEST PUSH0 PUSH2 0x51B DUP3 PUSH2 0x4F2 JUMP JUMPDEST SWAP1 POP SWAP2 SWAP1 POP JUMP JUMPDEST PUSH2 0x52B DUP2 PUSH2 0x511 JUMP JUMPDEST DUP3 MSTORE POP POP JUMP JUMPDEST PUSH0 PUSH1 0x20 DUP3 ADD SWAP1 POP PUSH2 0x544 PUSH0 DUP4 ADD DUP5 PUSH2 0x522 JUMP JUMPDEST SWAP3 SWAP2 POP POP JUMP JUMPDEST PUSH2 0x20DB DUP1 PUSH2 0x557 PUSH0 CODECOPY PUSH0 RETURN INVALID PUSH1 0x80 PUSH1 0x40 MSTORE CALLVALUE DUP1 ISZERO PUSH2 0xF JUMPI PUSH0 PUSH0 REVERT JUMPDEST POP PUSH1 0x4 CALLDATASIZE LT PUSH2 0x114 JUMPI PUSH0 CALLDATALOAD PUSH1 0xE0 SHR DUP1 PUSH4 0x715018A6 GT PUSH2 0xA0 JUMPI DUP1 PUSH4 0xA22CB465 GT PUSH2 0x6F JUMPI DUP1 PUSH4 0xA22CB465 EQ PUSH2 0x2CA JUMPI DUP1 PUSH4 0xB88D4FDE EQ PUSH2 0x2E6 JUMPI DUP1 PUSH4 0xC87B56DD EQ PUSH2 0x302 JUMPI DUP1 PUSH4 0xE985E9C5 EQ PUSH2 0x332 JUMPI DUP1 PUSH4 0xF2FDE38B EQ PUSH2 0x362 JUMPI PUSH2 0x114 JUMP JUMPDEST DUP1 PUSH4 0x715018A6 EQ PUSH2 0x266 JUMPI DUP1 PUSH4 0x75794A3C EQ PUSH2 0x270 JUMPI DUP1 PUSH4 0x8DA5CB5B EQ PUSH2 0x28E JUMPI DUP1 PUSH4 0x95D89B41 EQ PUSH2 0x2AC JUMPI PUSH2 0x114 JUMP JUMPDEST DUP1 PUSH4 0x23B872DD GT PUSH2 0xE7 JUMPI DUP1 PUSH4 0x23B872DD EQ PUSH2 0x1B2 JUMPI DUP1 PUSH4 0x42842E0E EQ PUSH2 0x1CE JUMPI DUP1 PUSH4 0x6352211E EQ PUSH2 0x1EA JUMPI DUP1 PUSH4 0x6A627842 EQ PUSH2 0x21A JUMPI DUP1 PUSH4 0x70A08231 EQ PUSH2 0x236 JUMPI PUSH2 0x114 JUMP JUMPDEST DUP1 PUSH4 0x1FFC9A7 EQ PUSH2 0x118 JUMPI DUP1 PUSH4 0x6FDDE03 EQ PUSH2 0x148 JUMPI DUP1 PUSH4 0x81812FC EQ PUSH2 0x166 JUMPI DUP1 PUSH4 0x95EA7B3 EQ PUSH2 0x196 JUMPI JUMPDEST PUSH0 PUSH0 REVERT JUMPDEST PUSH2 0x132 PUSH1 0x4 DUP1 CALLDATASIZE SUB DUP2 ADD SWAP1 PUSH2 0x12D SWAP2 SWAP1 PUSH2 0x1912 JUMP JUMPDEST PUSH2 0x37E JUMP JUMPDEST PUSH1 0x40 MLOAD PUSH2 0x13F SWAP2 SWAP1 PUSH2 0x1957 JUMP JUMPDEST PUSH1 0x40 MLOAD DUP1 SWAP2 SUB SWAP1 RETURN JUMPDEST PUSH2 0x150 PUSH2 0x45F JUMP JUMPDEST PUSH1 0x40 MLOAD PUSH2 0x15D SWAP2 SWAP1 PUSH2 0x19E0 JUMP JUMPDEST PUSH1 0x40 MLOAD DUP1 SWAP2 SUB SWAP1 RETURN JUMPDEST PUSH2 0x180 PUSH1 0x4 DUP1 CALLDATASIZE SUB DUP2 ADD SWAP1 PUSH2 0x17B SWAP2 SWAP1 PUSH2 0x1A33 JUMP JUMPDEST PUSH2 0x4EE JUMP JUMPDEST PUSH1 0x40 MLOAD PUSH2 0x18D SWAP2 SWAP1 PUSH2 0x1A9D JUMP JUMPDEST PUSH1 0x40 MLOAD DUP1 SWAP2 SUB SWAP1 RETURN JUMPDEST PUSH2 0x1B0 PUSH1 0x4 DUP1 CALLDATASIZE SUB DUP2 ADD SWAP1 PUSH2 0x1AB SWAP2 SWAP1 PUSH2 0x1AE0 JUMP JUMPDEST PUSH2 0x509 JUMP JUMPDEST STOP JUMPDEST PUSH2 0x1CC PUSH1 0x4 DUP1 CALLDATASIZE SUB DUP2 ADD SWAP1 PUSH2 0x1C7 SWAP2 SWAP1 PUSH2 0x1B1E JUMP JUMPDEST PUSH2 0x51F JUMP JUMPDEST STOP JUMPDEST PUSH2 0x1E8 PUSH1 0x4 DUP1 CALLDATASIZE SUB DUP2 ADD SWAP1 PUSH2 0x1E3 SWAP2 SWAP1 PUSH2 0x1B1E JUMP JUMPDEST PUSH2 0x61E JUMP JUMPDEST STOP JUMPDEST PUSH2 0x204 PUSH1 0x4 DUP1 CALLDATASIZE SUB DUP2 ADD SWAP1 PUSH2 0x1FF SWAP2 SWAP1 PUSH2 0x1A33 JUMP JUMPDEST PUSH2 0x63D JUMP JUMPDEST PUSH1 0x40 MLOAD PUSH2 0x211 SWAP2 SWAP1 PUSH2 0x1A9D JUMP JUMPDEST PUSH1 0x40 MLOAD DUP1 SWAP2 SUB SWAP1 RETURN JUMPDEST PUSH2 0x234 PUSH1 0x4 DUP1 CALLDATASIZE SUB DUP2 ADD SWAP1 PUSH2 0x22F SWAP2 SWAP1 PUSH2 0x1B6E JUMP JUMPDEST PUSH2 0x64E JUMP JUMPDEST STOP JUMPDEST PUSH2 0x250 PUSH1 0x4 DUP1 CALLDATASIZE SUB DUP2 ADD SWAP1 PUSH2 0x24B SWAP2 SWAP1 PUSH2 0x1B6E JUMP JUMPDEST PUSH2 0x678 JUMP JUMPDEST PUSH1 0x40 MLOAD PUSH2 0x25D SWAP2 SWAP1 PUSH2 0x1BA8 JUMP JUMPDEST PUSH1 0x40 MLOAD DUP1 SWAP2 SUB SWAP1 RETURN JUMPDEST PUSH2 0x26E PUSH2 0x72E JUMP JUMPDEST STOP JUMPDEST PUSH2 0x278 PUSH2 0x741 JUMP JUMPDEST PUSH1 0x40 MLOAD PUSH2 0x285 SWAP2 SWAP1 PUSH2 0x1BA8 JUMP JUMPDEST PUSH1 0x40 MLOAD DUP1 SWAP2 SUB SWAP1 RETURN JUMPDEST PUSH2 0x296 PUSH2 0x747 JUMP JUMPDEST PUSH1 0x40 MLOAD PUSH2 0x2A3 SWAP2 SWAP1 PUSH2 0x1A9D JUMP JUMPDEST PUSH1 0x40 MLOAD DUP1 SWAP2 SUB SWAP1 RETURN JUMPDEST PUSH2 0x2B4 PUSH2 0x76F JUMP JUMPDEST PUSH1 0x40 MLOAD PUSH2 0x2C1 SWAP2 SWAP1 PUSH2 0x19E0 JUMP JUMPDEST PUSH1 0x40 MLOAD DUP1 SWAP2 SUB SWAP1 RETURN JUMPDEST PUSH2 0x2E4 PUSH1 0x4 DUP1 CALLDATASIZE SUB DUP2 ADD SWAP1 PUSH2 0x2DF SWAP2 SWAP1 PUSH2 0x1BEB JUMP JUMPDEST PUSH2 0x7FF JUMP JUMPDEST STOP JUMPDEST PUSH2 0x300 PUSH1 0x4 DUP1 CALLDATASIZE SUB DUP2 ADD SWAP1 PUSH2 0x2FB SWAP2 SWAP1 PUSH2 0x1D55 JUMP JUMPDEST PUSH2 0x815 JUMP JUMPDEST STOP JUMPDEST PUSH2 0x31C PUSH1 0x4 DUP1 CALLDATASIZE SUB DUP2 ADD SWAP1 PUSH2 0x317 SWAP2 SWAP1 PUSH2 0x1A33 JUMP JUMPDEST PUSH2 0x83A JUMP JUMPDEST PUSH1 0x40 MLOAD PUSH2 0x329 SWAP2 SWAP1 PUSH2 0x19E0 JUMP JUMPDEST PUSH1 0x40 MLOAD DUP1 SWAP2 SUB SWAP1 RETURN JUMPDEST PUSH2 0x34C PUSH1 0x4 DUP1 CALLDATASIZE SUB DUP2 ADD SWAP1 PUSH2 0x347 SWAP2 SWAP1 PUSH2 0x1DD5 JUMP JUMPDEST PUSH2 0x8A0 JUMP JUMPDEST PUSH1 0x40 MLOAD PUSH2 0x359 SWAP2 SWAP1 PUSH2 0x1957 JUMP JUMPDEST PUSH1 0x40 MLOAD DUP1 SWAP2 SUB SWAP1 RETURN JUMPDEST PUSH2 0x37C PUSH1 0x4 DUP1 CALLDATASIZE SUB DUP2 ADD SWAP1 PUSH2 0x377 SWAP2 SWAP1 PUSH2 0x1B6E JUMP JUMPDEST PUSH2 0x92E JUMP JUMPDEST STOP JUMPDEST PUSH0 PUSH32 0x80AC58CD00000000000000000000000000000000000000000000000000000000 PUSH28 0xFFFFFFFFFFFFFFFFFFFFFFFFFFFFFFFFFFFFFFFFFFFFFFFFFFFFFFFF NOT AND DUP3 PUSH28 0xFFFFFFFFFFFFFFFFFFFFFFFFFFFFFFFFFFFFFFFFFFFFFFFFFFFFFFFF NOT AND EQ DUP1 PUSH2 0x448 JUMPI POP PUSH32 0x5B5E139F00000000000000000000000000000000000000000000000000000000 PUSH28 0xFFFFFFFFFFFFFFFFFFFFFFFFFFFFFFFFFFFFFFFFFFFFFFFFFFFFFFFF NOT AND DUP3 PUSH28 0xFFFFFFFFFFFFFFFFFFFFFFFFFFFFFFFFFFFFFFFFFFFFFFFFFFFFFFFF NOT AND EQ JUMPDEST DUP1 PUSH2 0x458 JUMPI POP PUSH2 0x457 DUP3 PUSH2 0x9B2 JUMP JUMPDEST JUMPDEST SWAP1 POP SWAP2 SWAP1 POP JUMP JUMPDEST PUSH1 0x60 PUSH0 DUP1 SLOAD PUSH2 0x46D SWAP1 PUSH2 0x1E40 JUMP JUMPDEST DUP1 PUSH1 0x1F ADD PUSH1 0x20 DUP1 SWAP2 DIV MUL PUSH1 0x20 ADD PUSH1 0x40 MLOAD SWAP1 DUP2 ADD PUSH1 0x40 MSTORE DUP1 SWAP3 SWAP2 SWAP1 DUP2 DUP2 MSTORE PUSH1 0x20 ADD DUP3 DUP1 SLOAD PUSH2 0x499 SWAP1 PUSH2 0x1E40 JUMP JUMPDEST DUP1 ISZERO PUSH2 0x4E4 JUMPI DUP1 PUSH1 0x1F LT PUSH2 0x4BB JUMPI PUSH2 0x100 DUP1 DUP4 SLOAD DIV MUL DUP4 MSTORE SWAP2 PUSH1 0x20 ADD SWAP2 PUSH2 0x4E4 JUMP JUMPDEST DUP3 ADD SWAP2 SWAP1 PUSH0 MSTORE PUSH1 0x20 PUSH0 KECCAK256 SWAP1 JUMPDEST DUP2 SLOAD DUP2 MSTORE SWAP1 PUSH1 0x1 ADD SWAP1 PUSH1 0x20 ADD DUP1 DUP4 GT PUSH2 0x4C7 JUMPI DUP3 SWAP1 SUB PUSH1 0x1F AND DUP3 ADD SWAP2 JUMPDEST POP POP POP POP POP SWAP1 POP SWAP1 JUMP JUMPDEST PUSH0 PUSH2 0x4F8 DUP3 PUSH2 0xA1B JUMP JUMPDEST POP PUSH2 0x502 DUP3 PUSH2 0xAA1 JUMP JUMPDEST SWAP1 POP SWAP2 SWAP1 POP JUMP JUMPDEST PUSH2 0x51B DUP3 DUP3 PUSH2 0x516 PUSH2 0xADA JUMP JUMPDEST PUSH2 0xAE1 JUMP JUMPDEST POP POP JUMP JUMPDEST PUSH0 PUSH20 0xFFFFFFFFFFFFFFFFFFFFFFFFFFFFFFFFFFFFFFFF AND DUP3 PUSH20 0xFFFFFFFFFFFFFFFFFFFFFFFFFFFFFFFFFFFFFFFF AND SUB PUSH2 0x58F JUMPI PUSH0 PUSH1 0x40 MLOAD PUSH32 0x64A0AE9200000000000000000000000000000000000000000000000000000000 DUP2 MSTORE PUSH1 0x4 ADD PUSH2 0x586 SWAP2 SWAP1 PUSH2 0x1A9D JUMP JUMPDEST PUSH1 0x40 MLOAD DUP1 SWAP2 SUB SWAP1 REVERT JUMPDEST PUSH0 PUSH2 0x5A2 DUP4 DUP4 PUSH2 0x59D PUSH2 0xADA JUMP JUMPDEST PUSH2 0xAF3 JUMP JUMPDEST SWAP1 POP DUP4 PUSH20 0xFFFFFFFFFFFFFFFFFFFFFFFFFFFFFFFFFFFFFFFF AND DUP2 PUSH20 0xFFFFFFFFFFFFFFFFFFFFFFFFFFFFFFFFFFFFFFFF AND EQ PUSH2 0x618 JUMPI DUP4 DUP3 DUP3 PUSH1 0x40 MLOAD PUSH32 0x64283D7B00000000000000000000000000000000000000000000000000000000 DUP2 MSTORE PUSH1 0x4 ADD PUSH2 0x60F SWAP4 SWAP3 SWAP2 SWAP1 PUSH2 0x1E70 JUMP JUMPDEST PUSH1 0x40 MLOAD DUP1 SWAP2 SUB SWAP1 REVERT JUMPDEST POP POP POP POP JUMP JUMPDEST PUSH2 0x638 DUP4 DUP4 DUP4 PUSH1 0x40 MLOAD DUP1 PUSH1 0x20 ADD PUSH1 0x40 MSTORE DUP1 PUSH0 DUP2 MSTORE POP PUSH2 0x815 JUMP JUMPDEST POP POP POP JUMP JUMPDEST PUSH0 PUSH2 0x647 DUP3 PUSH2 0xA1B JUMP JUMPDEST SWAP1 POP SWAP2 SWAP1 POP JUMP JUMPDEST PUSH2 0x656 PUSH2 0xCFE JUMP JUMPDEST PUSH2 0x675 DUP2 PUSH1 0x7 PUSH0 DUP2 SLOAD DUP1 SWAP3 SWAP2 SWAP1 PUSH2 0x66C SWAP1 PUSH2 0x1ED2 JUMP JUMPDEST SWAP2 SWAP1 POP SSTORE PUSH2 0xD85 JUMP JUMPDEST POP JUMP JUMPDEST PUSH0 PUSH0 PUSH20 0xFFFFFFFFFFFFFFFFFFFFFFFFFFFFFFFFFFFFFFFF AND DUP3 PUSH20 0xFFFFFFFFFFFFFFFFFFFFFFFFFFFFFFFFFFFFFFFF AND SUB PUSH2 0x6E9 JUMPI PUSH0 PUSH1 0x40 MLOAD PUSH32 0x89C62B6400000000000000000000000000000000000000000000000000000000 DUP2 MSTORE PUSH1 0x4 ADD PUSH2 0x6E0 SWAP2 SWAP1 PUSH2 0x1A9D JUMP JUMPDEST PUSH1 0x40 MLOAD DUP1 SWAP2 SUB SWAP1 REVERT JUMPDEST PUSH1 0x3 PUSH0 DUP4 PUSH20 0xFFFFFFFFFFFFFFFFFFFFFFFFFFFFFFFFFFFFFFFF AND PUSH20 0xFFFFFFFFFFFFFFFFFFFFFFFFFFFFFFFFFFFFFFFF AND DUP2 MSTORE PUSH1 0x20 ADD SWAP1 DUP2 MSTORE PUSH1 0x20 ADD PUSH0 KECCAK256 SLOAD SWAP1 POP SWAP2 SWAP1 POP JUMP JUMPDEST PUSH2 0x736 PUSH2 0xCFE JUMP JUMPDEST PUSH2 0x73F PUSH0 PUSH2 0xDA2 JUMP JUMPDEST JUMP JUMPDEST PUSH1 0x7 SLOAD DUP2 JUMP JUMPDEST PUSH0 PUSH1 0x6 PUSH0 SWAP1 SLOAD SWAP1 PUSH2 0x100 EXP SWAP1 DIV PUSH20 0xFFFFFFFFFFFFFFFFFFFFFFFFFFFFFFFFFFFFFFFF AND SWAP1 POP SWAP1 JUMP JUMPDEST PUSH1 0x60 PUSH1 0x1 DUP1 SLOAD PUSH2 0x77E SWAP1 PUSH2 0x1E40 JUMP JUMPDEST DUP1 PUSH1 0x1F ADD PUSH1 0x20 DUP1 SWAP2 DIV MUL PUSH1 0x20 ADD PUSH1 0x40 MLOAD SWAP1 DUP2 ADD PUSH1 0x40 MSTORE DUP1 SWAP3 SWAP2 SWAP1 DUP2 DUP2 MSTORE PUSH1 0x20 ADD DUP3 DUP1 SLOAD PUSH2 0x7AA SWAP1 PUSH2 0x1E40 JUMP JUMPDEST DUP1 ISZERO PUSH2 0x7F5 JUMPI DUP1 PUSH1 0x1F LT PUSH2 0x7CC JUMPI PUSH2 0x100 DUP1 DUP4 SLOAD DIV MUL DUP4 MSTORE SWAP2 PUSH1 0x20 ADD SWAP2 PUSH2 0x7F5 JUMP JUMPDEST DUP3 ADD SWAP2 SWAP1 PUSH0 MSTORE PUSH1 0x20 PUSH0 KECCAK256 SWAP1 JUMPDEST DUP2 SLOAD DUP2 MSTORE SWAP1 PUSH1 0x1 ADD SWAP1 PUSH1 0x20 ADD DUP1 DUP4 GT PUSH2 0x7D8 JUMPI DUP3 SWAP1 SUB PUSH1 0x1F AND DUP3 ADD SWAP2 JUMPDEST POP POP POP POP POP SWAP1 POP SWAP1 JUMP JUMPDEST PUSH2 0x811 PUSH2 0x80A PUSH2 0xADA JUMP JUMPDEST DUP4 DUP4 PUSH2 0xE65 JUMP JUMPDEST POP POP JUMP JUMPDEST PUSH2 0x820 DUP5 DUP5 DUP5 PUSH2 0x51F JUMP JUMPDEST PUSH2 0x834 PUSH2 0x82B PUSH2 0xADA JUMP JUMPDEST DUP6 DUP6 DUP6 DUP6 PUSH2 0x103E JUMP JUMPDEST POP POP POP POP JUMP JUMPDEST PUSH1 0x60 PUSH2 0x845 DUP3 PUSH2 0xA1B JUMP JUMPDEST POP PUSH0 PUSH2 0x84F PUSH2 0x11EA JUMP JUMPDEST SWAP1 POP PUSH0 DUP2 MLOAD GT PUSH2 0x86D JUMPI PUSH1 0x40 MLOAD DUP1 PUSH1 0x20 ADD PUSH1 0x40 MSTORE DUP1 PUSH0 DUP2 MSTORE POP PUSH2 0x898 JUMP JUMPDEST DUP1 PUSH2 0x877 DUP5 PUSH2 0x1200 JUMP JUMPDEST PUSH1 0x40 MLOAD PUSH1 0x20 ADD PUSH2 0x888 SWAP3 SWAP2 SWAP1 PUSH2 0x1F53 JUMP JUMPDEST PUSH1 0x40 MLOAD PUSH1 0x20 DUP2 DUP4 SUB SUB DUP2 MSTORE SWAP1 PUSH1 0x40 MSTORE JUMPDEST SWAP2 POP POP SWAP2 SWAP1 POP JUMP JUMPDEST PUSH0 PUSH1 0x5 PUSH0 DUP5 PUSH20 0xFFFFFFFFFFFFFFFFFFFFFFFFFFFFFFFFFFFFFFFF AND PUSH20 0xFFFFFFFFFFFFFFFFFFFFFFFFFFFFFFFFFFFFFFFF AND DUP2 MSTORE PUSH1 0x20 ADD SWAP1 DUP2 MSTORE PUSH1 0x20 ADD PUSH0 KECCAK256 PUSH0 DUP4 PUSH20 0xFFFFFFFFFFFFFFFFFFFFFFFFFFFFFFFFFFFFFFFF AND PUSH20 0xFFFFFFFFFFFFFFFFFFFFFFFFFFFFFFFFFFFFFFFF AND DUP2 MSTORE PUSH1 0x20 ADD SWAP1 DUP2 MSTORE PUSH1 0x20 ADD PUSH0 KECCAK256 PUSH0 SWAP1 SLOAD SWAP1 PUSH2 0x100 EXP SWAP1 DIV PUSH1 0xFF AND SWAP1 POP SWAP3 SWAP2 POP POP JUMP JUMPDEST PUSH2 0x936 PUSH2 0xCFE JUMP JUMPDEST PUSH0 PUSH20 0xFFFFFFFFFFFFFFFFFFFFFFFFFFFFFFFFFFFFFFFF AND DUP2 PUSH20 0xFFFFFFFFFFFFFFFFFFFFFFFFFFFFFFFFFFFFFFFF AND SUB PUSH2 0x9A6 JUMPI PUSH0 PUSH1 0x40 MLOAD PUSH32 0x1E4FBDF700000000000000000000000000000000000000000000000000000000 DUP2 MSTORE PUSH1 0x4 ADD PUSH2 0x99D SWAP2 SWAP1 PUSH2 0x1A9D JUMP JUMPDEST PUSH1 0x40 MLOAD DUP1 SWAP2 SUB SWAP1 REVERT JUMPDEST PUSH2 0x9AF DUP2 PUSH2 0xDA2 JUMP JUMPDEST POP JUMP JUMPDEST PUSH0 PUSH32 0x1FFC9A700000000000000000000000000000000000000000000000000000000 PUSH28 0xFFFFFFFFFFFFFFFFFFFFFFFFFFFFFFFFFFFFFFFFFFFFFFFFFFFFFFFF NOT AND DUP3 PUSH28 0xFFFFFFFFFFFFFFFFFFFFFFFFFFFFFFFFFFFFFFFFFFFFFFFFFFFFFFFF NOT AND EQ SWAP1 POP SWAP2 SWAP1 POP JUMP JUMPDEST PUSH0 PUSH0 PUSH2 0xA26 DUP4 PUSH2 0x12CA JUMP JUMPDEST SWAP1 POP PUSH0 PUSH20 0xFFFFFFFFFFFFFFFFFFFFFFFFFFFFFFFFFFFFFFFF AND DUP2 PUSH20 0xFFFFFFFFFFFFFFFFFFFFFFFFFFFFFFFFFFFFFFFF AND SUB PUSH2 0xA98 JUMPI DUP3 PUSH1 0x40 MLOAD PUSH32 0x7E27328900000000000000000000000000000000000000000000000000000000 DUP2 MSTORE PUSH1 0x4 ADD PUSH2 0xA8F SWAP2 SWAP1 PUSH2 0x1BA8 JUMP JUMPDEST PUSH1 0x40 MLOAD DUP1 SWAP2 SUB SWAP1 REVERT JUMPDEST DUP1 SWAP2 POP POP SWAP2 SWAP1 POP JUMP JUMPDEST PUSH0 PUSH1 0x4 PUSH0 DUP4 DUP2 MSTORE PUSH1 0x20 ADD SWAP1 DUP2 MSTORE PUSH1 0x20 ADD PUSH0 KECCAK256 PUSH0 SWAP1 SLOAD SWAP1 PUSH2 0x100 EXP SWAP1 DIV PUSH20 0xFFFFFFFFFFFFFFFFFFFFFFFFFFFFFFFFFFFFFFFF AND SWAP1 POP SWAP2 SWAP1 POP JUMP JUMPDEST PUSH0 CALLER SWAP1 POP SWAP1 JUMP JUMPDEST PUSH2 0xAEE DUP4 DUP4 DUP4 PUSH1 0x1 PUSH2 0x1303 JUMP JUMPDEST POP POP POP JUMP JUMPDEST PUSH0 PUSH0 PUSH2 0xAFE DUP5 PUSH2 0x12CA JUMP JUMPDEST SWAP1 POP PUSH0 PUSH20 0xFFFFFFFFFFFFFFFFFFFFFFFFFFFFFFFFFFFFFFFF AND DUP4 PUSH20 0xFFFFFFFFFFFFFFFFFFFFFFFFFFFFFFFFFFFFFFFF AND EQ PUSH2 0xB3F JUMPI PUSH2 0xB3E DUP2 DUP5 DUP7 PUSH2 0x14C2 JUMP JUMPDEST JUMPDEST PUSH0 PUSH20 0xFFFFFFFFFFFFFFFFFFFFFFFFFFFFFFFFFFFFFFFF AND DUP2 PUSH20 0xFFFFFFFFFFFFFFFFFFFFFFFFFFFFFFFFFFFFFFFF AND EQ PUSH2 0xBCA JUMPI PUSH2 0xB7E PUSH0 DUP6 PUSH0 PUSH0 PUSH2 0x1303 JUMP JUMPDEST PUSH1 0x1 PUSH1 0x3 PUSH0 DUP4 PUSH20 0xFFFFFFFFFFFFFFFFFFFFFFFFFFFFFFFFFFFFFFFF AND PUSH20 0xFFFFFFFFFFFFFFFFFFFFFFFFFFFFFFFFFFFFFFFF AND DUP2 MSTORE PUSH1 0x20 ADD SWAP1 DUP2 MSTORE PUSH1 0x20 ADD PUSH0 KECCAK256 PUSH0 DUP3 DUP3 SLOAD SUB SWAP3 POP POP DUP2 SWAP1 SSTORE POP JUMPDEST PUSH0 PUSH20 0xFFFFFFFFFFFFFFFFFFFFFFFFFFFFFFFFFFFFFFFF AND DUP6 PUSH20 0xFFFFFFFFFFFFFFFFFFFFFFFFFFFFFFFFFFFFFFFF AND EQ PUSH2 0xC49 JUMPI PUSH1 0x1 PUSH1 0x3 PUSH0 DUP8 PUSH20 0xFFFFFFFFFFFFFFFFFFFFFFFFFFFFFFFFFFFFFFFF AND PUSH20 0xFFFFFFFFFFFFFFFFFFFFFFFFFFFFFFFFFFFFFFFF AND DUP2 MSTORE PUSH1 0x20 ADD SWAP1 DUP2 MSTORE PUSH1 0x20 ADD PUSH0 KECCAK256 PUSH0 DUP3 DUP3 SLOAD ADD SWAP3 POP POP DUP2 SWAP1 SSTORE POP JUMPDEST DUP5 PUSH1 0x2 PUSH0 DUP7 DUP2 MSTORE PUSH1 0x20 ADD SWAP1 DUP2 MSTORE PUSH1 0x20 ADD PUSH0 KECCAK256 PUSH0 PUSH2 0x100 EXP DUP2 SLOAD DUP2 PUSH20 0xFFFFFFFFFFFFFFFFFFFFFFFFFFFFFFFFFFFFFFFF MUL NOT AND SWAP1 DUP4 PUSH20 0xFFFFFFFFFFFFFFFFFFFFFFFFFFFFFFFFFFFFFFFF AND MUL OR SWAP1 SSTORE POP DUP4 DUP6 PUSH20 0xFFFFFFFFFFFFFFFFFFFFFFFFFFFFFFFFFFFFFFFF AND DUP3 PUSH20 0xFFFFFFFFFFFFFFFFFFFFFFFFFFFFFFFFFFFFFFFF AND PUSH32 0xDDF252AD1BE2C89B69C2B068FC378DAA952BA7F163C4A11628F55A4DF523B3EF PUSH1 0x40 MLOAD PUSH1 0x40 MLOAD DUP1 SWAP2 SUB SWAP1 LOG4 DUP1 SWAP2 POP POP SWAP4 SWAP3 POP POP POP JUMP JUMPDEST PUSH2 0xD06 PUSH2 0xADA JUMP JUMPDEST PUSH20 0xFFFFFFFFFFFFFFFFFFFFFFFFFFFFFFFFFFFFFFFF AND PUSH2 0xD24 PUSH2 0x747 JUMP JUMPDEST PUSH20 0xFFFFFFFFFFFFFFFFFFFFFFFFFFFFFFFFFFFFFFFF AND EQ PUSH2 0xD83 JUMPI PUSH2 0xD47 PUSH2 0xADA JUMP JUMPDEST PUSH1 0x40 MLOAD PUSH32 0x118CDAA700000000000000000000000000000000000000000000000000000000 DUP2 MSTORE PUSH1 0x4 ADD PUSH2 0xD7A SWAP2 SWAP1 PUSH2 0x1A9D JUMP JUMPDEST PUSH1 0x40 MLOAD DUP1 SWAP2 SUB SWAP1 REVERT JUMPDEST JUMP JUMPDEST PUSH2 0xD9E DUP3 DUP3 PUSH1 0x40 MLOAD DUP1 PUSH1 0x20 ADD PUSH1 0x40 MSTORE DUP1 PUSH0 DUP2 MSTORE POP PUSH2 0x1585 JUMP JUMPDEST POP POP JUMP JUMPDEST PUSH0 PUSH1 0x6 PUSH0 SWAP1 SLOAD SWAP1 PUSH2 0x100 EXP SWAP1 DIV PUSH20 0xFFFFFFFFFFFFFFFFFFFFFFFFFFFFFFFFFFFFFFFF AND SWAP1 POP DUP2 PUSH1 0x6 PUSH0 PUSH2 0x100 EXP DUP2 SLOAD DUP2 PUSH20 0xFFFFFFFFFFFFFFFFFFFFFFFFFFFFFFFFFFFFFFFF MUL NOT AND SWAP1 DUP4 PUSH20 0xFFFFFFFFFFFFFFFFFFFFFFFFFFFFFFFFFFFFFFFF AND MUL OR SWAP1 SSTORE POP DUP2 PUSH20 0xFFFFFFFFFFFFFFFFFFFFFFFFFFFFFFFFFFFFFFFF AND DUP2 PUSH20 0xFFFFFFFFFFFFFFFFFFFFFFFFFFFFFFFFFFFFFFFF AND PUSH32 0x8BE0079C531659141344CD1FD0A4F28419497F9722A3DAAFE3B4186F6B6457E0 PUSH1 0x40 MLOAD PUSH1 0x40 MLOAD DUP1 SWAP2 SUB SWAP1 LOG3 POP POP JUMP JUMPDEST PUSH0 PUSH20 0xFFFFFFFFFFFFFFFFFFFFFFFFFFFFFFFFFFFFFFFF AND DUP4 PUSH20 0xFFFFFFFFFFFFFFFFFFFFFFFFFFFFFFFFFFFFFFFF AND SUB PUSH2 0xED5 JUMPI PUSH0 PUSH1 0x40 MLOAD PUSH32 0xA9FBF51F00000000000000000000000000000000000000000000000000000000 DUP2 MSTORE PUSH1 0x4 ADD PUSH2 0xECC SWAP2 SWAP1 PUSH2 0x1A9D JUMP JUMPDEST PUSH1 0x40 MLOAD DUP1 SWAP2 SUB SWAP1 REVERT JUMPDEST PUSH0 PUSH20 0xFFFFFFFFFFFFFFFFFFFFFFFFFFFFFFFFFFFFFFFF AND DUP3 PUSH20 0xFFFFFFFFFFFFFFFFFFFFFFFFFFFFFFFFFFFFFFFF AND SUB PUSH2 0xF45 JUMPI DUP2 PUSH1 0x40 MLOAD PUSH32 0x5B08BA1800000000000000000000000000000000000000000000000000000000 DUP2 MSTORE PUSH1 0x4 ADD PUSH2 0xF3C SWAP2 SWAP1 PUSH2 0x1A9D JUMP JUMPDEST PUSH1 0x40 MLOAD DUP1 SWAP2 SUB SWAP1 REVERT JUMPDEST DUP1 PUSH1 0x5 PUSH0 DUP6 PUSH20 0xFFFFFFFFFFFFFFFFFFFFFFFFFFFFFFFFFFFFFFFF AND PUSH20 0xFFFFFFFFFFFFFFFFFFFFFFFFFFFFFFFFFFFFFFFF AND DUP2 MSTORE PUSH1 0x20 ADD SWAP1 DUP2 MSTORE PUSH1 0x20 ADD PUSH0 KECCAK256 PUSH0 DUP5 PUSH20 0xFFFFFFFFFFFFFFFFFFFFFFFFFFFFFFFFFFFFFFFF AND PUSH20 0xFFFFFFFFFFFFFFFFFFFFFFFFFFFFFFFFFFFFFFFF AND DUP2 MSTORE PUSH1 0x20 ADD SWAP1 DUP2 MSTORE PUSH1 0x20 ADD PUSH0 KECCAK256 PUSH0 PUSH2 0x100 EXP DUP2 SLOAD DUP2 PUSH1 0xFF MUL NOT AND SWAP1 DUP4 ISZERO ISZERO MUL OR SWAP1 SSTORE POP DUP2 PUSH20 0xFFFFFFFFFFFFFFFFFFFFFFFFFFFFFFFFFFFFFFFF AND DUP4 PUSH20 0xFFFFFFFFFFFFFFFFFFFFFFFFFFFFFFFFFFFFFFFF AND PUSH32 0x17307EAB39AB6107E8899845AD3D59BD9653F200F220920489CA2B5937696C31 DUP4 PUSH1 0x40 MLOAD PUSH2 0x1031 SWAP2 SWAP1 PUSH2 0x1957 JUMP JUMPDEST PUSH1 0x40 MLOAD DUP1 SWAP2 SUB SWAP1 LOG3 POP POP POP JUMP JUMPDEST PUSH0 DUP4 PUSH20 0xFFFFFFFFFFFFFFFFFFFFFFFFFFFFFFFFFFFFFFFF AND EXTCODESIZE GT ISZERO PUSH2 0x11E3 JUMPI DUP3 PUSH20 0xFFFFFFFFFFFFFFFFFFFFFFFFFFFFFFFFFFFFFFFF AND PUSH4 0x150B7A02 DUP7 DUP7 DUP6 DUP6 PUSH1 0x40 MLOAD DUP6 PUSH4 0xFFFFFFFF AND PUSH1 0xE0 SHL DUP2 MSTORE PUSH1 0x4 ADD PUSH2 0x109C SWAP5 SWAP4 SWAP3 SWAP2 SWAP1 PUSH2 0x1FC8 JUMP JUMPDEST PUSH1 0x20 PUSH1 0x40 MLOAD DUP1 DUP4 SUB DUP2 PUSH0 DUP8 GAS CALL SWAP3 POP POP POP DUP1 ISZERO PUSH2 0x10D7 JUMPI POP PUSH1 0x40 MLOAD RETURNDATASIZE PUSH1 0x1F NOT PUSH1 0x1F DUP3 ADD AND DUP3 ADD DUP1 PUSH1 0x40 MSTORE POP DUP2 ADD SWAP1 PUSH2 0x10D4 SWAP2 SWAP1 PUSH2 0x2026 JUMP JUMPDEST PUSH1 0x1 JUMPDEST PUSH2 0x1158 JUMPI RETURNDATASIZE DUP1 PUSH0 DUP2 EQ PUSH2 0x1105 JUMPI PUSH1 0x40 MLOAD SWAP2 POP PUSH1 0x1F NOT PUSH1 0x3F RETURNDATASIZE ADD AND DUP3 ADD PUSH1 0x40 MSTORE RETURNDATASIZE DUP3 MSTORE RETURNDATASIZE PUSH0 PUSH1 0x20 DUP5 ADD RETURNDATACOPY PUSH2 0x110A JUMP JUMPDEST PUSH1 0x60 SWAP2 POP JUMPDEST POP PUSH0 DUP2 MLOAD SUB PUSH2 0x1150 JUMPI DUP4 PUSH1 0x40 MLOAD PUSH32 0x64A0AE9200000000000000000000000000000000000000000000000000000000 DUP2 MSTORE PUSH1 0x4 ADD PUSH2 0x1147 SWAP2 SWAP1 PUSH2 0x1A9D JUMP JUMPDEST PUSH1 0x40 MLOAD DUP1 SWAP2 SUB SWAP1 REVERT JUMPDEST DUP1 MLOAD PUSH1 0x20 DUP3 ADD REVERT JUMPDEST PUSH4 0x150B7A02 PUSH1 0xE0 SHL PUSH28 0xFFFFFFFFFFFFFFFFFFFFFFFFFFFFFFFFFFFFFFFFFFFFFFFFFFFFFFFF NOT AND DUP2 PUSH28 0xFFFFFFFFFFFFFFFFFFFFFFFFFFFFFFFFFFFFFFFFFFFFFFFFFFFFFFFF NOT AND EQ PUSH2 0x11E1 JUMPI DUP4 PUSH1 0x40 MLOAD PUSH32 0x64A0AE9200000000000000000000000000000000000000000000000000000000 DUP2 MSTORE PUSH1 0x4 ADD PUSH2 0x11D8 SWAP2 SWAP1 PUSH2 0x1A9D JUMP JUMPDEST PUSH1 0x40 MLOAD DUP1 SWAP2 SUB SWAP1 REVERT JUMPDEST POP JUMPDEST POP POP POP POP POP JUMP JUMPDEST PUSH1 0x60 PUSH1 0x40 MLOAD DUP1 PUSH1 0x20 ADD PUSH1 0x40 MSTORE DUP1 PUSH0 DUP2 MSTORE POP SWAP1 POP SWAP1 JUMP JUMPDEST PUSH1 0x60 PUSH0 PUSH1 0x1 PUSH2 0x120E DUP5 PUSH2 0x15A8 JUMP JUMPDEST ADD SWAP1 POP PUSH0 DUP2 PUSH8 0xFFFFFFFFFFFFFFFF DUP2 GT ISZERO PUSH2 0x122C JUMPI PUSH2 0x122B PUSH2 0x1C31 JUMP JUMPDEST JUMPDEST PUSH1 0x40 MLOAD SWAP1 DUP1 DUP3 MSTORE DUP1 PUSH1 0x1F ADD PUSH1 0x1F NOT AND PUSH1 0x20 ADD DUP3 ADD PUSH1 0x40 MSTORE DUP1 ISZERO PUSH2 0x125E JUMPI DUP2 PUSH1 0x20 ADD PUSH1 0x1 DUP3 MUL DUP1 CALLDATASIZE DUP4 CALLDATACOPY DUP1 DUP3 ADD SWAP2 POP POP SWAP1 POP JUMPDEST POP SWAP1 POP PUSH0 DUP3 PUSH1 0x20 DUP4 ADD ADD SWAP1 POP JUMPDEST PUSH1 0x1 ISZERO PUSH2 0x12BF JUMPI DUP1 DUP1 PUSH1 0x1 SWAP1 SUB SWAP2 POP POP PUSH32 0x3031323334353637383961626364656600000000000000000000000000000000 PUSH1 0xA DUP7 MOD BYTE DUP2 MSTORE8 PUSH1 0xA DUP6 DUP2 PUSH2 0x12B4 JUMPI PUSH2 0x12B3 PUSH2 0x2051 JUMP JUMPDEST JUMPDEST DIV SWAP5 POP PUSH0 DUP6 SUB PUSH2 0x126B JUMPI JUMPDEST DUP2 SWAP4 POP POP POP POP SWAP2 SWAP1 POP JUMP JUMPDEST PUSH0 PUSH1 0x2 PUSH0 DUP4 DUP2 MSTORE PUSH1 0x20 ADD SWAP1 DUP2 MSTORE PUSH1 0x20 ADD PUSH0 KECCAK256 PUSH0 SWAP1 SLOAD SWAP1 PUSH2 0x100 EXP SWAP1 DIV PUSH20 0xFFFFFFFFFFFFFFFFFFFFFFFFFFFFFFFFFFFFFFFF AND SWAP1 POP SWAP2 SWAP1 POP JUMP JUMPDEST DUP1 DUP1 PUSH2 0x133B JUMPI POP PUSH0 PUSH20 0xFFFFFFFFFFFFFFFFFFFFFFFFFFFFFFFFFFFFFFFF AND DUP3 PUSH20 0xFFFFFFFFFFFFFFFFFFFFFFFFFFFFFFFFFFFFFFFF AND EQ ISZERO JUMPDEST ISZERO PUSH2 0x146D JUMPI PUSH0 PUSH2 0x134A DUP5 PUSH2 0xA1B JUMP JUMPDEST SWAP1 POP PUSH0 PUSH20 0xFFFFFFFFFFFFFFFFFFFFFFFFFFFFFFFFFFFFFFFF AND DUP4 PUSH20 0xFFFFFFFFFFFFFFFFFFFFFFFFFFFFFFFFFFFFFFFF AND EQ ISZERO DUP1 ISZERO PUSH2 0x13B4 JUMPI POP DUP3 PUSH20 0xFFFFFFFFFFFFFFFFFFFFFFFFFFFFFFFFFFFFFFFF AND DUP2 PUSH20 0xFFFFFFFFFFFFFFFFFFFFFFFFFFFFFFFFFFFFFFFF AND EQ ISZERO JUMPDEST DUP1 ISZERO PUSH2 0x13C7 JUMPI POP PUSH2 0x13C5 DUP2 DUP5 PUSH2 0x8A0 JUMP JUMPDEST ISZERO JUMPDEST ISZERO PUSH2 0x1409 JUMPI DUP3 PUSH1 0x40 MLOAD PUSH32 0xA9FBF51F00000000000000000000000000000000000000000000000000000000 DUP2 MSTORE PUSH1 0x4 ADD PUSH2 0x1400 SWAP2 SWAP1 PUSH2 0x1A9D JUMP JUMPDEST PUSH1 0x40 MLOAD DUP1 SWAP2 SUB SWAP1 REVERT JUMPDEST DUP2 ISZERO PUSH2 0x146B JUMPI DUP4 DUP6 PUSH20 0xFFFFFFFFFFFFFFFFFFFFFFFFFFFFFFFFFFFFFFFF AND DUP3 PUSH20 0xFFFFFFFFFFFFFFFFFFFFFFFFFFFFFFFFFFFFFFFF AND PUSH32 0x8C5BE1E5EBEC7D5BD14F71427D1E84F3DD0314C0F7B2291E5B200AC8C7C3B925 PUSH1 0x40 MLOAD PUSH1 0x40 MLOAD DUP1 SWAP2 SUB SWAP1 LOG4 JUMPDEST POP JUMPDEST DUP4 PUSH1 0x4 PUSH0 DUP6 DUP2 MSTORE PUSH1 0x20 ADD SWAP1 DUP2 MSTORE PUSH1 0x20 ADD PUSH0 KECCAK256 PUSH0 PUSH2 0x100 EXP DUP2 SLOAD DUP2 PUSH20 0xFFFFFFFFFFFFFFFFFFFFFFFFFFFFFFFFFFFFFFFF MUL NOT AND SWAP1 DUP4 PUSH20 0xFFFFFFFFFFFFFFFFFFFFFFFFFFFFFFFFFFFFFFFF AND MUL OR SWAP1 SSTORE POP POP POP POP POP JUMP JUMPDEST PUSH2 0x14CD DUP4 DUP4 DUP4 PUSH2 0x16F9 JUMP JUMPDEST PUSH2 0x1580 JUMPI PUSH0 PUSH20 0xFFFFFFFFFFFFFFFFFFFFFFFFFFFFFFFFFFFFFFFF AND DUP4 PUSH20 0xFFFFFFFFFFFFFFFFFFFFFFFFFFFFFFFFFFFFFFFF AND SUB PUSH2 0x1541 JUMPI DUP1 PUSH1 0x40 MLOAD PUSH32 0x7E27328900000000000000000000000000000000000000000000000000000000 DUP2 MSTORE PUSH1 0x4 ADD PUSH2 0x1538 SWAP2 SWAP1 PUSH2 0x1BA8 JUMP JUMPDEST PUSH1 0x40 MLOAD DUP1 SWAP2 SUB SWAP1 REVERT JUMPDEST DUP2 DUP2 PUSH1 0x40 MLOAD PUSH32 0x177E802F00000000000000000000000000000000000000000000000000000000 DUP2 MSTORE PUSH1 0x4 ADD PUSH2 0x1577 SWAP3 SWAP2 SWAP1 PUSH2 0x207E JUMP JUMPDEST PUSH1 0x40 MLOAD DUP1 SWAP2 SUB SWAP1 REVERT JUMPDEST POP POP POP JUMP JUMPDEST PUSH2 0x158F DUP4 DUP4 PUSH2 0x17B9 JUMP JUMPDEST PUSH2 0x15A3 PUSH2 0x159A PUSH2 0xADA JUMP JUMPDEST PUSH0 DUP6 DUP6 DUP6 PUSH2 0x103E JUMP JUMPDEST POP POP POP JUMP JUMPDEST PUSH0 PUSH0 PUSH0 SWAP1 POP PUSH27 0x184F03E93FF9F4DAA797ED6E38ED64BF6A1F010000000000000000 DUP4 LT PUSH2 0x1604 JUMPI PUSH27 0x184F03E93FF9F4DAA797ED6E38ED64BF6A1F010000000000000000 DUP4 DUP2 PUSH2 0x15FA JUMPI PUSH2 0x15F9 PUSH2 0x2051 JUMP JUMPDEST JUMPDEST DIV SWAP3 POP PUSH1 0x40 DUP2 ADD SWAP1 POP JUMPDEST PUSH14 0x4EE2D6D415B85ACEF8100000000 DUP4 LT PUSH2 0x1641 JUMPI PUSH14 0x4EE2D6D415B85ACEF8100000000 DUP4 DUP2 PUSH2 0x1637 JUMPI PUSH2 0x1636 PUSH2 0x2051 JUMP JUMPDEST JUMPDEST DIV SWAP3 POP PUSH1 0x20 DUP2 ADD SWAP1 POP JUMPDEST PUSH7 0x2386F26FC10000 DUP4 LT PUSH2 0x1670 JUMPI PUSH7 0x2386F26FC10000 DUP4 DUP2 PUSH2 0x1666 JUMPI PUSH2 0x1665 PUSH2 0x2051 JUMP JUMPDEST JUMPDEST DIV SWAP3 POP PUSH1 0x10 DUP2 ADD SWAP1 POP JUMPDEST PUSH4 0x5F5E100 DUP4 LT PUSH2 0x1699 JUMPI PUSH4 0x5F5E100 DUP4 DUP2 PUSH2 0x168F JUMPI PUSH2 0x168E PUSH2 0x2051 JUMP JUMPDEST JUMPDEST DIV SWAP3 POP PUSH1 0x8 DUP2 ADD SWAP1 POP JUMPDEST PUSH2 0x2710 DUP4 LT PUSH2 0x16BE JUMPI PUSH2 0x2710 DUP4 DUP2 PUSH2 0x16B4 JUMPI PUSH2 0x16B3 PUSH2 0x2051 JUMP JUMPDEST JUMPDEST DIV SWAP3 POP PUSH1 0x4 DUP2 ADD SWAP1 POP JUMPDEST PUSH1 0x64 DUP4 LT PUSH2 0x16E1 JUMPI PUSH1 0x64 DUP4 DUP2 PUSH2 0x16D7 JUMPI PUSH2 0x16D6 PUSH2 0x2051 JUMP JUMPDEST JUMPDEST DIV SWAP3 POP PUSH1 0x2 DUP2 ADD SWAP1 POP JUMPDEST PUSH1 0xA DUP4 LT PUSH2 0x16F0 JUMPI PUSH1 0x1 DUP2 ADD SWAP1 POP JUMPDEST DUP1 SWAP2 POP POP SWAP2 SWAP1 POP JUMP JUMPDEST PUSH0 PUSH0 PUSH20 0xFFFFFFFFFFFFFFFFFFFFFFFFFFFFFFFFFFFFFFFF AND DUP4 PUSH20 0xFFFFFFFFFFFFFFFFFFFFFFFFFFFFFFFFFFFFFFFF AND EQ ISZERO DUP1 ISZERO PUSH2 0x17B0 JUMPI POP DUP3 PUSH20 0xFFFFFFFFFFFFFFFFFFFFFFFFFFFFFFFFFFFFFFFF AND DUP5 PUSH20 0xFFFFFFFFFFFFFFFFFFFFFFFFFFFFFFFFFFFFFFFF AND EQ DUP1 PUSH2 0x1771 JUMPI POP PUSH2 0x1770 DUP5 DUP5 PUSH2 0x8A0 JUMP JUMPDEST JUMPDEST DUP1 PUSH2 0x17AF JUMPI POP DUP3 PUSH20 0xFFFFFFFFFFFFFFFFFFFFFFFFFFFFFFFFFFFFFFFF AND PUSH2 0x1797 DUP4 PUSH2 0xAA1 JUMP JUMPDEST PUSH20 0xFFFFFFFFFFFFFFFFFFFFFFFFFFFFFFFFFFFFFFFF AND EQ JUMPDEST JUMPDEST SWAP1 POP SWAP4 SWAP3 POP POP POP JUMP JUMPDEST PUSH0 PUSH20 0xFFFFFFFFFFFFFFFFFFFFFFFFFFFFFFFFFFFFFFFF AND DUP3 PUSH20 0xFFFFFFFFFFFFFFFFFFFFFFFFFFFFFFFFFFFFFFFF AND SUB PUSH2 0x1829 JUMPI PUSH0 PUSH1 0x40 MLOAD PUSH32 0x64A0AE9200000000000000000000000000000000000000000000000000000000 DUP2 MSTORE PUSH1 0x4 ADD PUSH2 0x1820 SWAP2 SWAP1 PUSH2 0x1A9D JUMP JUMPDEST PUSH1 0x40 MLOAD DUP1 SWAP2 SUB SWAP1 REVERT JUMPDEST PUSH0 PUSH2 0x1835 DUP4 DUP4 PUSH0 PUSH2 0xAF3 JUMP JUMPDEST SWAP1 POP PUSH0 PUSH20 0xFFFFFFFFFFFFFFFFFFFFFFFFFFFFFFFFFFFFFFFF AND DUP2 PUSH20 0xFFFFFFFFFFFFFFFFFFFFFFFFFFFFFFFFFFFFFFFF AND EQ PUSH2 0x18A7 JUMPI PUSH0 PUSH1 0x40 MLOAD PUSH32 0x73C6AC6E00000000000000000000000000000000000000000000000000000000 DUP2 MSTORE PUSH1 0x4 ADD PUSH2 0x189E SWAP2 SWAP1 PUSH2 0x1A9D JUMP JUMPDEST PUSH1 0x40 MLOAD DUP1 SWAP2 SUB SWAP1 REVERT JUMPDEST POP POP POP JUMP JUMPDEST PUSH0 PUSH1 0x40 MLOAD SWAP1 POP SWAP1 JUMP JUMPDEST PUSH0 PUSH0 REVERT JUMPDEST PUSH0 PUSH0 REVERT JUMPDEST PUSH0 PUSH32 0xFFFFFFFF00000000000000000000000000000000000000000000000000000000 DUP3 AND SWAP1 POP SWAP2 SWAP1 POP JUMP JUMPDEST PUSH2 0x18F1 DUP2 PUSH2 0x18BD JUMP JUMPDEST DUP2 EQ PUSH2 0x18FB JUMPI PUSH0 PUSH0 REVERT JUMPDEST POP JUMP JUMPDEST PUSH0 DUP2 CALLDATALOAD SWAP1 POP PUSH2 0x190C DUP2 PUSH2 0x18E8 JUMP JUMPDEST SWAP3 SWAP2 POP POP JUMP JUMPDEST PUSH0 PUSH1 0x20 DUP3 DUP5 SUB SLT ISZERO PUSH2 0x1927 JUMPI PUSH2 0x1926 PUSH2 0x18B5 JUMP JUMPDEST JUMPDEST PUSH0 PUSH2 0x1934 DUP5 DUP3 DUP6 ADD PUSH2 0x18FE JUMP JUMPDEST SWAP2 POP POP SWAP3 SWAP2 POP POP JUMP JUMPDEST PUSH0 DUP2 ISZERO ISZERO SWAP1 POP SWAP2 SWAP1 POP JUMP JUMPDEST PUSH2 0x1951 DUP2 PUSH2 0x193D JUMP JUMPDEST DUP3 MSTORE POP POP JUMP JUMPDEST PUSH0 PUSH1 0x20 DUP3 ADD SWAP1 POP PUSH2 0x196A PUSH0 DUP4 ADD DUP5 PUSH2 0x1948 JUMP JUMPDEST SWAP3 SWAP2 POP POP JUMP JUMPDEST PUSH0 DUP2 MLOAD SWAP1 POP SWAP2 SWAP1 POP JUMP JUMPDEST PUSH0 DUP3 DUP3 MSTORE PUSH1 0x20 DUP3 ADD SWAP1 POP SWAP3 SWAP2 POP POP JUMP JUMPDEST DUP3 DUP2 DUP4 MCOPY PUSH0 DUP4 DUP4 ADD MSTORE POP POP POP JUMP JUMPDEST PUSH0 PUSH1 0x1F NOT PUSH1 0x1F DUP4 ADD AND SWAP1 POP SWAP2 SWAP1 POP JUMP JUMPDEST PUSH0 PUSH2 0x19B2 DUP3 PUSH2 0x1970 JUMP JUMPDEST PUSH2 0x19BC DUP2 DUP6 PUSH2 0x197A JUMP JUMPDEST SWAP4 POP PUSH2 0x19CC DUP2 DUP6 PUSH1 0x20 DUP7 ADD PUSH2 0x198A JUMP JUMPDEST PUSH2 0x19D5 DUP2 PUSH2 0x1998 JUMP JUMPDEST DUP5 ADD SWAP2 POP POP SWAP3 SWAP2 POP POP JUMP JUMPDEST PUSH0 PUSH1 0x20 DUP3 ADD SWAP1 POP DUP2 DUP2 SUB PUSH0 DUP4 ADD MSTORE PUSH2 0x19F8 DUP2 DUP5 PUSH2 0x19A8 JUMP JUMPDEST SWAP1 POP SWAP3 SWAP2 POP POP JUMP JUMPDEST PUSH0 DUP2 SWAP1 POP SWAP2 SWAP1 POP JUMP JUMPDEST PUSH2 0x1A12 DUP2 PUSH2 0x1A00 JUMP JUMPDEST DUP2 EQ PUSH2 0x1A1C JUMPI PUSH0 PUSH0 REVERT JUMPDEST POP JUMP JUMPDEST PUSH0 DUP2 CALLDATALOAD SWAP1 POP PUSH2 0x1A2D DUP2 PUSH2 0x1A09 JUMP JUMPDEST SWAP3 SWAP2 POP POP JUMP JUMPDEST PUSH0 PUSH1 0x20 DUP3 DUP5 SUB SLT ISZERO PUSH2 0x1A48 JUMPI PUSH2 0x1A47 PUSH2 0x18B5 JUMP JUMPDEST JUMPDEST PUSH0 PUSH2 0x1A55 DUP5 DUP3 DUP6 ADD PUSH2 0x1A1F JUMP JUMPDEST SWAP2 POP POP SWAP3 SWAP2 POP POP JUMP JUMPDEST PUSH0 PUSH20 0xFFFFFFFFFFFFFFFFFFFFFFFFFFFFFFFFFFFFFFFF DUP3 AND SWAP1 POP SWAP2 SWAP1 POP JUMP JUMPDEST PUSH0 PUSH2 0x1A87 DUP3 PUSH2 0x1A5E JUMP JUMPDEST SWAP1 POP SWAP2 SWAP1 POP JUMP JUMPDEST PUSH2 0x1A97 DUP2 PUSH2 0x1A7D JUMP JUMPDEST DUP3 MSTORE POP POP JUMP JUMPDEST PUSH0 PUSH1 0x20 DUP3 ADD SWAP1 POP PUSH2 0x1AB0 PUSH0 DUP4 ADD DUP5 PUSH2 0x1A8E JUMP JUMPDEST SWAP3 SWAP2 POP POP JUMP JUMPDEST PUSH2 0x1ABF DUP2 PUSH2 0x1A7D JUMP JUMPDEST DUP2 EQ PUSH2 0x1AC9 JUMPI PUSH0 PUSH0 REVERT JUMPDEST POP JUMP JUMPDEST PUSH0 DUP2 CALLDATALOAD SWAP1 POP PUSH2 0x1ADA DUP2 PUSH2 0x1AB6 JUMP JUMPDEST SWAP3 SWAP2 POP POP JUMP JUMPDEST PUSH0 PUSH0 PUSH1 0x40 DUP4 DUP6 SUB SLT ISZERO PUSH2 0x1AF6 JUMPI PUSH2 0x1AF5 PUSH2 0x18B5 JUMP JUMPDEST JUMPDEST PUSH0 PUSH2 0x1B03 DUP6 DUP3 DUP7 ADD PUSH2 0x1ACC JUMP JUMPDEST SWAP3 POP POP PUSH1 0x20 PUSH2 0x1B14 DUP6 DUP3 DUP7 ADD PUSH2 0x1A1F JUMP JUMPDEST SWAP2 POP POP SWAP3 POP SWAP3 SWAP1 POP JUMP JUMPDEST PUSH0 PUSH0 PUSH0 PUSH1 0x60 DUP5 DUP7 SUB SLT ISZERO PUSH2 0x1B35 JUMPI PUSH2 0x1B34 PUSH2 0x18B5 JUMP JUMPDEST JUMPDEST PUSH0 PUSH2 0x1B42 DUP7 DUP3 DUP8 ADD PUSH2 0x1ACC JUMP JUMPDEST SWAP4 POP POP PUSH1 0x20 PUSH2 0x1B53 DUP7 DUP3 DUP8 ADD PUSH2 0x1ACC JUMP JUMPDEST SWAP3 POP POP PUSH1 0x40 PUSH2 0x1B64 DUP7 DUP3 DUP8 ADD PUSH2 0x1A1F JUMP JUMPDEST SWAP2 POP POP SWAP3 POP SWAP3 POP SWAP3 JUMP JUMPDEST PUSH0 PUSH1 0x20 DUP3 DUP5 SUB SLT ISZERO PUSH2 0x1B83 JUMPI PUSH2 0x1B82 PUSH2 0x18B5 JUMP JUMPDEST JUMPDEST PUSH0 PUSH2 0x1B90 DUP5 DUP3 DUP6 ADD PUSH2 0x1ACC JUMP JUMPDEST SWAP2 POP POP SWAP3 SWAP2 POP POP JUMP JUMPDEST PUSH2 0x1BA2 DUP2 PUSH2 0x1A00 JUMP JUMPDEST DUP3 MSTORE POP POP JUMP JUMPDEST PUSH0 PUSH1 0x20 DUP3 ADD SWAP1 POP PUSH2 0x1BBB PUSH0 DUP4 ADD DUP5 PUSH2 0x1B99 JUMP JUMPDEST SWAP3 SWAP2 POP POP JUMP JUMPDEST PUSH2 0x1BCA DUP2 PUSH2 0x193D JUMP JUMPDEST DUP2 EQ PUSH2 0x1BD4 JUMPI PUSH0 PUSH0 REVERT JUMPDEST POP JUMP JUMPDEST PUSH0 DUP2 CALLDATALOAD SWAP1 POP PUSH2 0x1BE5 DUP2 PUSH2 0x1BC1 JUMP JUMPDEST SWAP3 SWAP2 POP POP JUMP JUMPDEST PUSH0 PUSH0 PUSH1 0x40 DUP4 DUP6 SUB SLT ISZERO PUSH2 0x1C01 JUMPI PUSH2 0x1C00 PUSH2 0x18B5 JUMP JUMPDEST JUMPDEST PUSH0 PUSH2 0x1C0E DUP6 DUP3 DUP7 ADD PUSH2 0x1ACC JUMP JUMPDEST SWAP3 POP POP PUSH1 0x20 PUSH2 0x1C1F DUP6 DUP3 DUP7 ADD PUSH2 0x1BD7 JUMP JUMPDEST SWAP2 POP POP SWAP3 POP SWAP3 SWAP1 POP JUMP JUMPDEST PUSH0 PUSH0 REVERT JUMPDEST PUSH0 PUSH0 REVERT JUMPDEST PUSH32 0x4E487B7100000000000000000000000000000000000000000000000000000000 PUSH0 MSTORE PUSH1 0x41 PUSH1 0x4 MSTORE PUSH1 0x24 PUSH0 REVERT JUMPDEST PUSH2 0x1C67 DUP3 PUSH2 0x1998 JUMP JUMPDEST DUP2 ADD DUP2 DUP2 LT PUSH8 0xFFFFFFFFFFFFFFFF DUP3 GT OR ISZERO PUSH2 0x1C86 JUMPI PUSH2 0x1C85 PUSH2 0x1C31 JUMP JUMPDEST JUMPDEST DUP1 PUSH1 0x40 MSTORE POP POP POP JUMP JUMPDEST PUSH0 PUSH2 0x1C98 PUSH2 0x18AC JUMP JUMPDEST SWAP1 POP PUSH2 0x1CA4 DUP3 DUP3 PUSH2 0x1C5E JUMP JUMPDEST SWAP2 SWAP1 POP JUMP JUMPDEST PUSH0 PUSH8 0xFFFFFFFFFFFFFFFF DUP3 GT ISZERO PUSH2 0x1CC3 JUMPI PUSH2 0x1CC2 PUSH2 0x1C31 JUMP JUMPDEST JUMPDEST PUSH2 0x1CCC DUP3 PUSH2 0x1998 JUMP JUMPDEST SWAP1 POP PUSH1 0x20 DUP2 ADD SWAP1 POP SWAP2 SWAP1 POP JUMP JUMPDEST DUP3 DUP2 DUP4 CALLDATACOPY PUSH0 DUP4 DUP4 ADD MSTORE POP POP POP JUMP JUMPDEST PUSH0 PUSH2 0x1CF9 PUSH2 0x1CF4 DUP5 PUSH2 0x1CA9 JUMP JUMPDEST PUSH2 0x1C8F JUMP JUMPDEST SWAP1 POP DUP3 DUP2 MSTORE PUSH1 0x20 DUP2 ADD DUP5 DUP5 DUP5 ADD GT ISZERO PUSH2 0x1D15 JUMPI PUSH2 0x1D14 PUSH2 0x1C2D JUMP JUMPDEST JUMPDEST PUSH2 0x1D20 DUP5 DUP3 DUP6 PUSH2 0x1CD9 JUMP JUMPDEST POP SWAP4 SWAP3 POP POP POP JUMP JUMPDEST PUSH0 DUP3 PUSH1 0x1F DUP4 ADD SLT PUSH2 0x1D3C JUMPI PUSH2 0x1D3B PUSH2 0x1C29 JUMP JUMPDEST JUMPDEST DUP2 CALLDATALOAD PUSH2 0x1D4C DUP5 DUP3 PUSH1 0x20 DUP7 ADD PUSH2 0x1CE7 JUMP JUMPDEST SWAP2 POP POP SWAP3 SWAP2 POP POP JUMP JUMPDEST PUSH0 PUSH0 PUSH0 PUSH0 PUSH1 0x80 DUP6 DUP8 SUB SLT ISZERO PUSH2 0x1D6D JUMPI PUSH2 0x1D6C PUSH2 0x18B5 JUMP JUMPDEST JUMPDEST PUSH0 PUSH2 0x1D7A DUP8 DUP3 DUP9 ADD PUSH2 0x1ACC JUMP JUMPDEST SWAP5 POP POP PUSH1 0x20 PUSH2 0x1D8B DUP8 DUP3 DUP9 ADD PUSH2 0x1ACC JUMP JUMPDEST SWAP4 POP POP PUSH1 0x40 PUSH2 0x1D9C DUP8 DUP3 DUP9 ADD PUSH2 0x1A1F JUMP JUMPDEST SWAP3 POP POP PUSH1 0x60 DUP6 ADD CALLDATALOAD PUSH8 0xFFFFFFFFFFFFFFFF DUP2 GT ISZERO PUSH2 0x1DBD JUMPI PUSH2 0x1DBC PUSH2 0x18B9 JUMP JUMPDEST JUMPDEST PUSH2 0x1DC9 DUP8 DUP3 DUP9 ADD PUSH2 0x1D28 JUMP JUMPDEST SWAP2 POP POP SWAP3 SWAP6 SWAP2 SWAP5 POP SWAP3 POP JUMP JUMPDEST PUSH0 PUSH0 PUSH1 0x40 DUP4 DUP6 SUB SLT ISZERO PUSH2 0x1DEB JUMPI PUSH2 0x1DEA PUSH2 0x18B5 JUMP JUMPDEST JUMPDEST PUSH0 PUSH2 0x1DF8 DUP6 DUP3 DUP7 ADD PUSH2 0x1ACC JUMP JUMPDEST SWAP3 POP POP PUSH1 0x20 PUSH2 0x1E09 DUP6 DUP3 DUP7 ADD PUSH2 0x1ACC JUMP JUMPDEST SWAP2 POP POP SWAP3 POP SWAP3 SWAP1 POP JUMP JUMPDEST PUSH32 0x4E487B7100000000000000000000000000000000000000000000000000000000 PUSH0 MSTORE PUSH1 0x22 PUSH1 0x4 MSTORE PUSH1 0x24 PUSH0 REVERT JUMPDEST PUSH0 PUSH1 0x2 DUP3 DIV SWAP1 POP PUSH1 0x1 DUP3 AND DUP1 PUSH2 0x1E57 JUMPI PUSH1 0x7F DUP3 AND SWAP2 POP JUMPDEST PUSH1 0x20 DUP3 LT DUP2 SUB PUSH2 0x1E6A JUMPI PUSH2 0x1E69 PUSH2 0x1E13 JUMP JUMPDEST JUMPDEST POP SWAP2 SWAP1 POP JUMP JUMPDEST PUSH0 PUSH1 0x60 DUP3 ADD SWAP1 POP PUSH2 0x1E83 PUSH0 DUP4 ADD DUP7 PUSH2 0x1A8E JUMP JUMPDEST PUSH2 0x1E90 PUSH1 0x20 DUP4 ADD DUP6 PUSH2 0x1B99 JUMP JUMPDEST PUSH2 0x1E9D PUSH1 0x40 DUP4 ADD DUP5 PUSH2 0x1A8E JUMP JUMPDEST SWAP5 SWAP4 POP POP POP POP JUMP JUMPDEST PUSH32 0x4E487B7100000000000000000000000000000000000000000000000000000000 PUSH0 MSTORE PUSH1 0x11 PUSH1 0x4 MSTORE PUSH1 0x24 PUSH0 REVERT JUMPDEST PUSH0 PUSH2 0x1EDC DUP3 PUSH2 0x1A00 JUMP JUMPDEST SWAP2 POP PUSH32 0xFFFFFFFFFFFFFFFFFFFFFFFFFFFFFFFFFFFFFFFFFFFFFFFFFFFFFFFFFFFFFFFF DUP3 SUB PUSH2 0x1F0E JUMPI PUSH2 0x1F0D PUSH2 0x1EA5 JUMP JUMPDEST JUMPDEST PUSH1 0x1 DUP3 ADD SWAP1 POP SWAP2 SWAP1 POP JUMP JUMPDEST PUSH0 DUP2 SWAP1 POP SWAP3 SWAP2 POP POP JUMP JUMPDEST PUSH0 PUSH2 0x1F2D DUP3 PUSH2 0x1970 JUMP JUMPDEST PUSH2 0x1F37 DUP2 DUP6 PUSH2 0x1F19 JUMP JUMPDEST SWAP4 POP PUSH2 0x1F47 DUP2 DUP6 PUSH1 0x20 DUP7 ADD PUSH2 0x198A JUMP JUMPDEST DUP1 DUP5 ADD SWAP2 POP POP SWAP3 SWAP2 POP POP JUMP JUMPDEST PUSH0 PUSH2 0x1F5E DUP3 DUP6 PUSH2 0x1F23 JUMP JUMPDEST SWAP2 POP PUSH2 0x1F6A DUP3 DUP5 PUSH2 0x1F23 JUMP JUMPDEST SWAP2 POP DUP2 SWAP1 POP SWAP4 SWAP3 POP POP POP JUMP JUMPDEST PUSH0 DUP2 MLOAD SWAP1 POP SWAP2 SWAP1 POP JUMP JUMPDEST PUSH0 DUP3 DUP3 MSTORE PUSH1 0x20 DUP3 ADD SWAP1 POP SWAP3 SWAP2 POP POP JUMP JUMPDEST PUSH0 PUSH2 0x1F9A DUP3 PUSH2 0x1F76 JUMP JUMPDEST PUSH2 0x1FA4 DUP2 DUP6 PUSH2 0x1F80 JUMP JUMPDEST SWAP4 POP PUSH2 0x1FB4 DUP2 DUP6 PUSH1 0x20 DUP7 ADD PUSH2 0x198A JUMP JUMPDEST PUSH2 0x1FBD DUP2 PUSH2 0x1998 JUMP JUMPDEST DUP5 ADD SWAP2 POP POP SWAP3 SWAP2 POP POP JUMP JUMPDEST PUSH0 PUSH1 0x80 DUP3 ADD SWAP1 POP PUSH2 0x1FDB PUSH0 DUP4 ADD DUP8 PUSH2 0x1A8E JUMP JUMPDEST PUSH2 0x1FE8 PUSH1 0x20 DUP4 ADD DUP7 PUSH2 0x1A8E JUMP JUMPDEST PUSH2 0x1FF5 PUSH1 0x40 DUP4 ADD DUP6 PUSH2 0x1B99 JUMP JUMPDEST DUP2 DUP2 SUB PUSH1 0x60 DUP4 ADD MSTORE PUSH2 0x2007 DUP2 DUP5 PUSH2 0x1F90 JUMP JUMPDEST SWAP1 POP SWAP6 SWAP5 POP POP POP POP POP JUMP JUMPDEST PUSH0 DUP2 MLOAD SWAP1 POP PUSH2 0x2020 DUP2 PUSH2 0x18E8 JUMP JUMPDEST SWAP3 SWAP2 POP POP JUMP JUMPDEST PUSH0 PUSH1 0x20 DUP3 DUP5 SUB SLT ISZERO PUSH2 0x203B JUMPI PUSH2 0x203A PUSH2 0x18B5 JUMP JUMPDEST JUMPDEST PUSH0 PUSH2 0x2048 DUP5 DUP3 DUP6 ADD PUSH2 0x2012 JUMP JUMPDEST SWAP2 POP POP SWAP3 SWAP2 POP POP JUMP JUMPDEST PUSH32 0x4E487B7100000000000000000000000000000000000000000000000000000000 PUSH0 MSTORE PUSH1 0x12 PUSH1 0x4 MSTORE PUSH1 0x24 PUSH0 REVERT JUMPDEST PUSH0 PUSH1 0x40 DUP3 ADD SWAP1 POP PUSH2 0x2091 PUSH0 DUP4 ADD DUP6 PUSH2 0x1A8E JUMP JUMPDEST PUSH2 0x209E PUSH1 0x20 DUP4 ADD DUP5 PUSH2 0x1B99 JUMP JUMPDEST SWAP4 SWAP3 POP POP POP JUMP INVALID LOG2 PUSH5 0x6970667358 0x22 SLT KECCAK256 KECCAK256 0xFC 0x4D RJUMP 0xBB6A 0x24 0xAD 0x4B 0xBA DUP11 OR 0x2C CODECOPY 0x4E DELEGATECALL 0x1F 0x2F CALLER PUSH16 0x4B0F2689BAA7C5B60B587D1564736F6C PUSH4 0x4300081E STOP CALLER PUSH1 0x80 PUSH1 0x40 MSTORE CALLVALUE DUP1 ISZERO PUSH2 0xF JUMPI PUSH0 PUSH0 REVERT JUMPDEST POP CALLER PUSH1 0x40 MLOAD DUP1 PUSH1 0x40 ADD PUSH1 0x40 MSTORE DUP1 PUSH1 0xC DUP2 MSTORE PUSH1 0x20 ADD PUSH32 0x5374616B65205265776172640000000000000000000000000000000000000000 DUP2 MSTORE POP PUSH1 0x40 MLOAD DUP1 PUSH1 0x40 ADD PUSH1 0x40 MSTORE DUP1 PUSH1 0x4 DUP2 MSTORE PUSH1 0x20 ADD PUSH32 0x5352574400000000000000000000000000000000000000000000000000000000 DUP2 MSTORE POP DUP2 PUSH1 0x3 SWAP1 DUP2 PUSH2 0x8C SWAP2 SWAP1 PUSH2 0x6DC JUMP JUMPDEST POP DUP1 PUSH1 0x4 SWAP1 DUP2 PUSH2 0x9C SWAP2 SWAP1 PUSH2 0x6DC JUMP JUMPDEST POP POP POP PUSH0 PUSH20 0xFFFFFFFFFFFFFFFFFFFFFFFFFFFFFFFFFFFFFFFF AND DUP2 PUSH20 0xFFFFFFFFFFFFFFFFFFFFFFFFFFFFFFFFFFFFFFFF AND SUB PUSH2 0x10F JUMPI PUSH0 PUSH1 0x40 MLOAD PUSH32 0x1E4FBDF700000000000000000000000000000000000000000000000000000000 DUP2 MSTORE PUSH1 0x4 ADD PUSH2 0x106 SWAP2 SWAP1 PUSH2 0x7EA JUMP JUMPDEST PUSH1 0x40 MLOAD DUP1 SWAP2 SUB SWAP1 REVERT JUMPDEST PUSH2 0x11E DUP2 PUSH2 0x13E PUSH1 0x20 SHL PUSH1 0x20 SHR JUMP JUMPDEST POP PUSH2 0x139 CALLER PUSH10 0xD3C21BCECCEDA1000000 PUSH2 0x201 PUSH1 0x20 SHL PUSH1 0x20 SHR JUMP JUMPDEST PUSH2 0x8C0 JUMP JUMPDEST PUSH0 PUSH1 0x5 PUSH0 SWAP1 SLOAD SWAP1 PUSH2 0x100 EXP SWAP1 DIV PUSH20 0xFFFFFFFFFFFFFFFFFFFFFFFFFFFFFFFFFFFFFFFF AND SWAP1 POP DUP2 PUSH1 0x5 PUSH0 PUSH2 0x100 EXP DUP2 SLOAD DUP2 PUSH20 0xFFFFFFFFFFFFFFFFFFFFFFFFFFFFFFFFFFFFFFFF MUL NOT AND SWAP1 DUP4 PUSH20 0xFFFFFFFFFFFFFFFFFFFFFFFFFFFFFFFFFFFFFFFF AND MUL OR SWAP1 SSTORE POP DUP2 PUSH20 0xFFFFFFFFFFFFFFFFFFFFFFFFFFFFFFFFFFFFFFFF AND DUP2 PUSH20 0xFFFFFFFFFFFFFFFFFFFFFFFFFFFFFFFFFFFFFFFF AND PUSH32 0x8BE0079C531659141344CD1FD0A4F28419497F9722A3DAAFE3B4186F6B6457E0 PUSH1 0x40 MLOAD PUSH1 0x40 MLOAD DUP1 SWAP2 SUB SWAP1 LOG3 POP POP JUMP JUMPDEST PUSH0 PUSH20 0xFFFFFFFFFFFFFFFFFFFFFFFFFFFFFFFFFFFFFFFF AND DUP3 PUSH20 0xFFFFFFFFFFFFFFFFFFFFFFFFFFFFFFFFFFFFFFFF AND SUB PUSH2 0x271 JUMPI PUSH0 PUSH1 0x40 MLOAD PUSH32 0xEC442F0500000000000000000000000000000000000000000000000000000000 DUP2 MSTORE PUSH1 0x4 ADD PUSH2 0x268 SWAP2 SWAP1 PUSH2 0x7EA JUMP JUMPDEST PUSH1 0x40 MLOAD DUP1 SWAP2 SUB SWAP1 REVERT JUMPDEST PUSH2 0x282 PUSH0 DUP4 DUP4 PUSH2 0x286 PUSH1 0x20 SHL PUSH1 0x20 SHR JUMP JUMPDEST POP POP JUMP JUMPDEST PUSH0 PUSH20 0xFFFFFFFFFFFFFFFFFFFFFFFFFFFFFFFFFFFFFFFF AND DUP4 PUSH20 0xFFFFFFFFFFFFFFFFFFFFFFFFFFFFFFFFFFFFFFFF AND SUB PUSH2 0x2D6 JUMPI DUP1 PUSH1 0x2 PUSH0 DUP3 DUP3 SLOAD PUSH2 0x2CA SWAP2 SWAP1 PUSH2 0x830 JUMP JUMPDEST SWAP3 POP POP DUP2 SWAP1 SSTORE POP PUSH2 0x3A4 JUMP JUMPDEST PUSH0 PUSH0 PUSH0 DUP6 PUSH20 0xFFFFFFFFFFFFFFFFFFFFFFFFFFFFFFFFFFFFFFFF AND PUSH20 0xFFFFFFFFFFFFFFFFFFFFFFFFFFFFFFFFFFFFFFFF AND DUP2 MSTORE PUSH1 0x20 ADD SWAP1 DUP2 MSTORE PUSH1 0x20 ADD PUSH0 KECCAK256 SLOAD SWAP1 POP DUP2 DUP2 LT ISZERO PUSH2 0x35F JUMPI DUP4 DUP2 DUP4 PUSH1 0x40 MLOAD PUSH32 0xE450D38C00000000000000000000000000000000000000000000000000000000 DUP2 MSTORE PUSH1 0x4 ADD PUSH2 0x356 SWAP4 SWAP3 SWAP2 SWAP1 PUSH2 0x872 JUMP JUMPDEST PUSH1 0x40 MLOAD DUP1 SWAP2 SUB SWAP1 REVERT JUMPDEST DUP2 DUP2 SUB PUSH0 PUSH0 DUP7 PUSH20 0xFFFFFFFFFFFFFFFFFFFFFFFFFFFFFFFFFFFFFFFF AND PUSH20 0xFFFFFFFFFFFFFFFFFFFFFFFFFFFFFFFFFFFFFFFF AND DUP2 MSTORE PUSH1 0x20 ADD SWAP1 DUP2 MSTORE PUSH1 0x20 ADD PUSH0 KECCAK256 DUP2 SWAP1 SSTORE POP POP JUMPDEST PUSH0 PUSH20 0xFFFFFFFFFFFFFFFFFFFFFFFFFFFFFFFFFFFFFFFF AND DUP3 PUSH20 0xFFFFFFFFFFFFFFFFFFFFFFFFFFFFFFFFFFFFFFFF AND SUB PUSH2 0x3EB JUMPI DUP1 PUSH1 0x2 PUSH0 DUP3 DUP3 SLOAD SUB SWAP3 POP POP DUP2 SWAP1 SSTORE POP PUSH2 0x435 JUMP JUMPDEST DUP1 PUSH0 PUSH0 DUP5 PUSH20 0xFFFFFFFFFFFFFFFFFFFFFFFFFFFFFFFFFFFFFFFF AND PUSH20 0xFFFFFFFFFFFFFFFFFFFFFFFFFFFFFFFFFFFFFFFF AND DUP2 MSTORE PUSH1 0x20 ADD SWAP1 DUP2 MSTORE PUSH1 0x20 ADD PUSH0 KECCAK256 PUSH0 DUP3 DUP3 SLOAD ADD SWAP3 POP POP DUP2 SWAP1 SSTORE POP JUMPDEST DUP2 PUSH20 0xFFFFFFFFFFFFFFFFFFFFFFFFFFFFFFFFFFFFFFFF AND DUP4 PUSH20 0xFFFFFFFFFFFFFFFFFFFFFFFFFFFFFFFFFFFFFFFF AND PUSH32 0xDDF252AD1BE2C89B69C2B068FC378DAA952BA7F163C4A11628F55A4DF523B3EF DUP4 PUSH1 0x40 MLOAD PUSH2 0x492 SWAP2 SWAP1 PUSH2 0x8A7 JUMP JUMPDEST PUSH1 0x40 MLOAD DUP1 SWAP2 SUB SWAP1 LOG3 POP POP POP JUMP JUMPDEST PUSH0 DUP2 MLOAD SWAP1 POP SWAP2 SWAP1 POP JUMP JUMPDEST PUSH32 0x4E487B7100000000000000000000000000000000000000000000000000000000 PUSH0 MSTORE PUSH1 0x41 PUSH1 0x4 MSTORE PUSH1 0x24 PUSH0 REVERT JUMPDEST PUSH32 0x4E487B7100000000000000000000000000000000000000000000000000000000 PUSH0 MSTORE PUSH1 0x22 PUSH1 0x4 MSTORE PUSH1 0x24 PUSH0 REVERT JUMPDEST PUSH0 PUSH1 0x2 DUP3 DIV SWAP1 POP PUSH1 0x1 DUP3 AND DUP1 PUSH2 0x51A JUMPI PUSH1 0x7F DUP3 AND SWAP2 POP JUMPDEST PUSH1 0x20 DUP3 LT DUP2 SUB PUSH2 0x52D JUMPI PUSH2 0x52C PUSH2 0x4D6 JUMP JUMPDEST JUMPDEST POP SWAP2 SWAP1 POP JUMP JUMPDEST PUSH0 DUP2 SWAP1 POP DUP2 PUSH0 MSTORE PUSH1 0x20 PUSH0 KECCAK256 SWAP1 POP SWAP2 SWAP1 POP JUMP JUMPDEST PUSH0 PUSH1 0x20 PUSH1 0x1F DUP4 ADD DIV SWAP1 POP SWAP2 SWAP1 POP JUMP JUMPDEST PUSH0 DUP3 DUP3 SHL SWAP1 POP SWAP3 SWAP2 POP POP JUMP JUMPDEST PUSH0 PUSH1 0x8 DUP4 MUL PUSH2 0x58F PUSH32 0xFFFFFFFFFFFFFFFFFFFFFFFFFFFFFFFFFFFFFFFFFFFFFFFFFFFFFFFFFFFFFFFF DUP3 PUSH2 0x554 JUMP JUMPDEST PUSH2 0x599 DUP7 DUP4 PUSH2 0x554 JUMP JUMPDEST SWAP6 POP DUP1 NOT DUP5 AND SWAP4 POP DUP1 DUP7 AND DUP5 OR SWAP3 POP POP POP SWAP4 SWAP3 POP POP POP JUMP JUMPDEST PUSH0 DUP2 SWAP1 POP SWAP2 SWAP1 POP JUMP JUMPDEST PUSH0 DUP2 SWAP1 POP SWAP2 SWAP1 POP JUMP JUMPDEST PUSH0 PUSH2 0x5DD PUSH2 0x5D8 PUSH2 0x5D3 DUP5 PUSH2 0x5B1 JUMP JUMPDEST PUSH2 0x5BA JUMP JUMPDEST PUSH2 0x5B1 JUMP JUMPDEST SWAP1 POP SWAP2 SWAP1 POP JUMP JUMPDEST PUSH0 DUP2 SWAP1 POP SWAP2 SWAP1 POP JUMP JUMPDEST PUSH2 0x5F6 DUP4 PUSH2 0x5C3 JUMP JUMPDEST PUSH2 0x60A PUSH2 0x602 DUP3 PUSH2 0x5E4 JUMP JUMPDEST DUP5 DUP5 SLOAD PUSH2 0x560 JUMP JUMPDEST DUP3 SSTORE POP POP POP POP JUMP JUMPDEST PUSH0 PUSH0 SWAP1 POP SWAP1 JUMP JUMPDEST PUSH2 0x621 PUSH2 0x612 JUMP JUMPDEST PUSH2 0x62C DUP2 DUP5 DUP5 PUSH2 0x5ED JUMP JUMPDEST POP POP POP JUMP JUMPDEST JUMPDEST DUP2 DUP2 LT ISZERO PUSH2 0x64F JUMPI PUSH2 0x644 PUSH0 DUP3 PUSH2 0x619 JUMP JUMPDEST PUSH1 0x1 DUP2 ADD SWAP1 POP PUSH2 0x632 JUMP JUMPDEST POP POP JUMP JUMPDEST PUSH1 0x1F DUP3 GT ISZERO PUSH2 0x694 JUMPI PUSH2 0x665 DUP2 PUSH2 0x533 JUMP JUMPDEST PUSH2 0x66E DUP5 PUSH2 0x545 JUMP JUMPDEST DUP2 ADD PUSH1 0x20 DUP6 LT ISZERO PUSH2 0x67D JUMPI DUP2 SWAP1 POP JUMPDEST PUSH2 0x691 PUSH2 0x689 DUP6 PUSH2 0x545 JUMP JUMPDEST DUP4 ADD DUP3 PUSH2 0x631 JUMP JUMPDEST POP POP JUMPDEST POP POP POP JUMP JUMPDEST PUSH0 DUP3 DUP3 SHR SWAP1 POP SWAP3 SWAP2 POP POP JUMP JUMPDEST PUSH0 PUSH2 0x6B4 PUSH0 NOT DUP5 PUSH1 0x8 MUL PUSH2 0x699 JUMP JUMPDEST NOT DUP1 DUP4 AND SWAP2 POP POP SWAP3 SWAP2 POP POP JUMP JUMPDEST PUSH0 PUSH2 0x6CC DUP4 DUP4 PUSH2 0x6A5 JUMP JUMPDEST SWAP2 POP DUP3 PUSH1 0x2 MUL DUP3 OR SWAP1 POP SWAP3 SWAP2 POP POP JUMP JUMPDEST PUSH2 0x6E5 DUP3 PUSH2 0x49F JUMP JUMPDEST PUSH8 0xFFFFFFFFFFFFFFFF DUP2 GT ISZERO PUSH2 0x6FE JUMPI PUSH2 0x6FD PUSH2 0x4A9 JUMP JUMPDEST JUMPDEST PUSH2 0x708 DUP3 SLOAD PUSH2 0x503 JUMP JUMPDEST PUSH2 0x713 DUP3 DUP3 DUP6 PUSH2 0x653 JUMP JUMPDEST PUSH0 PUSH1 0x20 SWAP1 POP PUSH1 0x1F DUP4 GT PUSH1 0x1 DUP2 EQ PUSH2 0x744 JUMPI PUSH0 DUP5 ISZERO PUSH2 0x732 JUMPI DUP3 DUP8 ADD MLOAD SWAP1 POP JUMPDEST PUSH2 0x73C DUP6 DUP3 PUSH2 0x6C1 JUMP JUMPDEST DUP7 SSTORE POP PUSH2 0x7A3 JUMP JUMPDEST PUSH1 0x1F NOT DUP5 AND PUSH2 0x752 DUP7 PUSH2 0x533 JUMP JUMPDEST PUSH0 JUMPDEST DUP3 DUP2 LT ISZERO PUSH2 0x779 JUMPI DUP5 DUP10 ADD MLOAD DUP3 SSTORE PUSH1 0x1 DUP3 ADD SWAP2 POP PUSH1 0x20 DUP6 ADD SWAP5 POP PUSH1 0x20 DUP2 ADD SWAP1 POP PUSH2 0x754 JUMP JUMPDEST DUP7 DUP4 LT ISZERO PUSH2 0x796 JUMPI DUP5 DUP10 ADD MLOAD PUSH2 0x792 PUSH1 0x1F DUP10 AND DUP3 PUSH2 0x6A5 JUMP JUMPDEST DUP4 SSTORE POP JUMPDEST PUSH1 0x1 PUSH1 0x2 DUP9 MUL ADD DUP9 SSTORE POP POP POP JUMPDEST POP POP POP POP POP POP JUMP JUMPDEST PUSH0 PUSH20 0xFFFFFFFFFFFFFFFFFFFFFFFFFFFFFFFFFFFFFFFF DUP3 AND SWAP1 POP SWAP2 SWAP1 POP JUMP JUMPDEST PUSH0 PUSH2 0x7D4 DUP3 PUSH2 0x7AB JUMP JUMPDEST SWAP1 POP SWAP2 SWAP1 POP JUMP JUMPDEST PUSH2 0x7E4 DUP2 PUSH2 0x7CA JUMP JUMPDEST DUP3 MSTORE POP POP JUMP JUMPDEST PUSH0 PUSH1 0x20 DUP3 ADD SWAP1 POP PUSH2 0x7FD PUSH0 DUP4 ADD DUP5 PUSH2 0x7DB JUMP JUMPDEST SWAP3 SWAP2 POP POP JUMP JUMPDEST PUSH32 0x4E487B7100000000000000000000000000000000000000000000000000000000 PUSH0 MSTORE PUSH1 0x11 PUSH1 0x4 MSTORE PUSH1 0x24 PUSH0 REVERT JUMPDEST PUSH0 PUSH2 0x83A DUP3 PUSH2 0x5B1 JUMP JUMPDEST SWAP2 POP PUSH2 0x845 DUP4 PUSH2 0x5B1 JUMP JUMPDEST SWAP3 POP DUP3 DUP3 ADD SWAP1 POP DUP1 DUP3 GT ISZERO PUSH2 0x85D JUMPI PUSH2 0x85C PUSH2 0x803 JUMP JUMPDEST JUMPDEST SWAP3 SWAP2 POP POP JUMP JUMPDEST PUSH2 0x86C DUP2 PUSH2 0x5B1 JUMP JUMPDEST DUP3 MSTORE POP POP JUMP JUMPDEST PUSH0 PUSH1 0x60 DUP3 ADD SWAP1 POP PUSH2 0x885 PUSH0 DUP4 ADD DUP7 PUSH2 0x7DB JUMP JUMPDEST PUSH2 0x892 PUSH1 0x20 DUP4 ADD DUP6 PUSH2 0x863 JUMP JUMPDEST PUSH2 0x89F PUSH1 0x40 DUP4 ADD DUP5 PUSH2 0x863 JUMP JUMPDEST SWAP5 SWAP4 POP POP POP POP JUMP JUMPDEST PUSH0 PUSH1 0x20 DUP3 ADD SWAP1 POP PUSH2 0x8BA PUSH0 DUP4 ADD DUP5 PUSH2 0x863 JUMP JUMPDEST SWAP3 SWAP2 POP POP JUMP JUMPDEST PUSH2 0x1097 DUP1 PUSH2 0x8CD PUSH0 CODECOPY PUSH0 RETURN INVALID PUSH1 0x80 PUSH1 0x40 MSTORE CALLVALUE DUP1 ISZERO PUSH2 0xF JUMPI PUSH0 PUSH0 REVERT JUMPDEST POP PUSH1 0x4 CALLDATASIZE LT PUSH2 0xCD JUMPI PUSH0 CALLDATALOAD PUSH1 0xE0 SHR DUP1 PUSH4 0x715018A6 GT PUSH2 0x8A JUMPI DUP1 PUSH4 0x95D89B41 GT PUSH2 0x64 JUMPI DUP1 PUSH4 0x95D89B41 EQ PUSH2 0x201 JUMPI DUP1 PUSH4 0xA9059CBB EQ PUSH2 0x21F JUMPI DUP1 PUSH4 0xDD62ED3E EQ PUSH2 0x24F JUMPI DUP1 PUSH4 0xF2FDE38B EQ PUSH2 0x27F JUMPI PUSH2 0xCD JUMP JUMPDEST DUP1 PUSH4 0x715018A6 EQ PUSH2 0x1BB JUMPI DUP1 PUSH4 0x8DA5CB5B EQ PUSH2 0x1C5 JUMPI DUP1 PUSH4 0x902D55A5 EQ PUSH2 0x1E3 JUMPI PUSH2 0xCD JUMP JUMPDEST DUP1 PUSH4 0x6FDDE03 EQ PUSH2 0xD1 JUMPI DUP1 PUSH4 0x95EA7B3 EQ PUSH2 0xEF JUMPI DUP1 PUSH4 0x18160DDD EQ PUSH2 0x11F JUMPI DUP1 PUSH4 0x23B872DD EQ PUSH2 0x13D JUMPI DUP1 PUSH4 0x313CE567 EQ PUSH2 0x16D JUMPI DUP1 PUSH4 0x70A08231 EQ PUSH2 0x18B JUMPI JUMPDEST PUSH0 PUSH0 REVERT JUMPDEST PUSH2 0xD9 PUSH2 0x29B JUMP JUMPDEST PUSH1 0x40 MLOAD PUSH2 0xE6 SWAP2 SWAP1 PUSH2 0xD10 JUMP JUMPDEST PUSH1 0x40 MLOAD DUP1 SWAP2 SUB SWAP1 RETURN JUMPDEST PUSH2 0x109 PUSH1 0x4 DUP1 CALLDATASIZE SUB DUP2 ADD SWAP1 PUSH2 0x104 SWAP2 SWAP1 PUSH2 0xDC1 JUMP JUMPDEST PUSH2 0x32B JUMP JUMPDEST PUSH1 0x40 MLOAD PUSH2 0x116 SWAP2 SWAP1 PUSH2 0xE19 JUMP JUMPDEST PUSH1 0x40 MLOAD DUP1 SWAP2 SUB SWAP1 RETURN JUMPDEST PUSH2 0x127 PUSH2 0x34D JUMP JUMPDEST PUSH1 0x40 MLOAD PUSH2 0x134 SWAP2 SWAP1 PUSH2 0xE41 JUMP JUMPDEST PUSH1 0x40 MLOAD DUP1 SWAP2 SUB SWAP1 RETURN JUMPDEST PUSH2 0x157 PUSH1 0x4 DUP1 CALLDATASIZE SUB DUP2 ADD SWAP1 PUSH2 0x152 SWAP2 SWAP1 PUSH2 0xE5A JUMP JUMPDEST PUSH2 0x356 JUMP JUMPDEST PUSH1 0x40 MLOAD PUSH2 0x164 SWAP2 SWAP1 PUSH2 0xE19 JUMP JUMPDEST PUSH1 0x40 MLOAD DUP1 SWAP2 SUB SWAP1 RETURN JUMPDEST PUSH2 0x175 PUSH2 0x384 JUMP JUMPDEST PUSH1 0x40 MLOAD PUSH2 0x182 SWAP2 SWAP1 PUSH2 0xEC5 JUMP JUMPDEST PUSH1 0x40 MLOAD DUP1 SWAP2 SUB SWAP1 RETURN JUMPDEST PUSH2 0x1A5 PUSH1 0x4 DUP1 CALLDATASIZE SUB DUP2 ADD SWAP1 PUSH2 0x1A0 SWAP2 SWAP1 PUSH2 0xEDE JUMP JUMPDEST PUSH2 0x38C JUMP JUMPDEST PUSH1 0x40 MLOAD PUSH2 0x1B2 SWAP2 SWAP1 PUSH2 0xE41 JUMP JUMPDEST PUSH1 0x40 MLOAD DUP1 SWAP2 SUB SWAP1 RETURN JUMPDEST PUSH2 0x1C3 PUSH2 0x3D1 JUMP JUMPDEST STOP JUMPDEST PUSH2 0x1CD PUSH2 0x3E4 JUMP JUMPDEST PUSH1 0x40 MLOAD PUSH2 0x1DA SWAP2 SWAP1 PUSH2 0xF18 JUMP JUMPDEST PUSH1 0x40 MLOAD DUP1 SWAP2 SUB SWAP1 RETURN JUMPDEST PUSH2 0x1EB PUSH2 0x40C JUMP JUMPDEST PUSH1 0x40 MLOAD PUSH2 0x1F8 SWAP2 SWAP1 PUSH2 0xE41 JUMP JUMPDEST PUSH1 0x40 MLOAD DUP1 SWAP2 SUB SWAP1 RETURN JUMPDEST PUSH2 0x209 PUSH2 0x41A JUMP JUMPDEST PUSH1 0x40 MLOAD PUSH2 0x216 SWAP2 SWAP1 PUSH2 0xD10 JUMP JUMPDEST PUSH1 0x40 MLOAD DUP1 SWAP2 SUB SWAP1 RETURN JUMPDEST PUSH2 0x239 PUSH1 0x4 DUP1 CALLDATASIZE SUB DUP2 ADD SWAP1 PUSH2 0x234 SWAP2 SWAP1 PUSH2 0xDC1 JUMP JUMPDEST PUSH2 0x4AA JUMP JUMPDEST PUSH1 0x40 MLOAD PUSH2 0x246 SWAP2 SWAP1 PUSH2 0xE19 JUMP JUMPDEST PUSH1 0x40 MLOAD DUP1 SWAP2 SUB SWAP1 RETURN JUMPDEST PUSH2 0x269 PUSH1 0x4 DUP1 CALLDATASIZE SUB DUP2 ADD SWAP1 PUSH2 0x264 SWAP2 SWAP1 PUSH2 0xF31 JUMP JUMPDEST PUSH2 0x4CC JUMP JUMPDEST PUSH1 0x40 MLOAD PUSH2 0x276 SWAP2 SWAP1 PUSH2 0xE41 JUMP JUMPDEST PUSH1 0x40 MLOAD DUP1 SWAP2 SUB SWAP1 RETURN JUMPDEST PUSH2 0x299 PUSH1 0x4 DUP1 CALLDATASIZE SUB DUP2 ADD SWAP1 PUSH2 0x294 SWAP2 SWAP1 PUSH2 0xEDE JUMP JUMPDEST PUSH2 0x54E JUMP JUMPDEST STOP JUMPDEST PUSH1 0x60 PUSH1 0x3 DUP1 SLOAD PUSH2 0x2AA SWAP1 PUSH2 0xF9C JUMP JUMPDEST DUP1 PUSH1 0x1F ADD PUSH1 0x20 DUP1 SWAP2 DIV MUL PUSH1 0x20 ADD PUSH1 0x40 MLOAD SWAP1 DUP2 ADD PUSH1 0x40 MSTORE DUP1 SWAP3 SWAP2 SWAP1 DUP2 DUP2 MSTORE PUSH1 0x20 ADD DUP3 DUP1 SLOAD PUSH2 0x2D6 SWAP1 PUSH2 0xF9C JUMP JUMPDEST DUP1 ISZERO PUSH2 0x321 JUMPI DUP1 PUSH1 0x1F LT PUSH2 0x2F8 JUMPI PUSH2 0x100 DUP1 DUP4 SLOAD DIV MUL DUP4 MSTORE SWAP2 PUSH1 0x20 ADD SWAP2 PUSH2 0x321 JUMP JUMPDEST DUP3 ADD SWAP2 SWAP1 PUSH0 MSTORE PUSH1 0x20 PUSH0 KECCAK256 SWAP1 JUMPDEST DUP2 SLOAD DUP2 MSTORE SWAP1 PUSH1 0x1 ADD SWAP1 PUSH1 0x20 ADD DUP1 DUP4 GT PUSH2 0x304 JUMPI DUP3 SWAP1 SUB PUSH1 0x1F AND DUP3 ADD SWAP2 JUMPDEST POP POP POP POP POP SWAP1 POP SWAP1 JUMP JUMPDEST PUSH0 PUSH0 PUSH2 0x335 PUSH2 0x5D2 JUMP JUMPDEST SWAP1 POP PUSH2 0x342 DUP2 DUP6 DUP6 PUSH2 0x5D9 JUMP JUMPDEST PUSH1 0x1 SWAP2 POP POP SWAP3 SWAP2 POP POP JUMP JUMPDEST PUSH0 PUSH1 0x2 SLOAD SWAP1 POP SWAP1 JUMP JUMPDEST PUSH0 PUSH0 PUSH2 0x360 PUSH2 0x5D2 JUMP JUMPDEST SWAP1 POP PUSH2 0x36D DUP6 DUP3 DUP6 PUSH2 0x5EB JUMP JUMPDEST PUSH2 0x378 DUP6 DUP6 DUP6 PUSH2 0x67E JUMP JUMPDEST PUSH1 0x1 SWAP2 POP POP SWAP4 SWAP3 POP POP POP JUMP JUMPDEST PUSH0 PUSH1 0x12 SWAP1 POP SWAP1 JUMP JUMPDEST PUSH0 PUSH0 PUSH0 DUP4 PUSH20 0xFFFFFFFFFFFFFFFFFFFFFFFFFFFFFFFFFFFFFFFF AND PUSH20 0xFFFFFFFFFFFFFFFFFFFFFFFFFFFFFFFFFFFFFFFF AND DUP2 MSTORE PUSH1 0x20 ADD SWAP1 DUP2 MSTORE PUSH1 0x20 ADD PUSH0 KECCAK256 SLOAD SWAP1 POP SWAP2 SWAP1 POP JUMP JUMPDEST PUSH2 0x3D9 PUSH2 0x76E JUMP JUMPDEST PUSH2 0x3E2 PUSH0 PUSH2 0x7F5 JUMP JUMPDEST JUMP JUMPDEST PUSH0 PUSH1 0x5 PUSH0 SWAP1 SLOAD SWAP1 PUSH2 0x100 EXP SWAP1 DIV PUSH20 0xFFFFFFFFFFFFFFFFFFFFFFFFFFFFFFFFFFFFFFFF AND SWAP1 POP SWAP1 JUMP JUMPDEST PUSH10 0xD3C21BCECCEDA1000000 DUP2 JUMP JUMPDEST PUSH1 0x60 PUSH1 0x4 DUP1 SLOAD PUSH2 0x429 SWAP1 PUSH2 0xF9C JUMP JUMPDEST DUP1 PUSH1 0x1F ADD PUSH1 0x20 DUP1 SWAP2 DIV MUL PUSH1 0x20 ADD PUSH1 0x40 MLOAD SWAP1 DUP2 ADD PUSH1 0x40 MSTORE DUP1 SWAP3 SWAP2 SWAP1 DUP2 DUP2 MSTORE PUSH1 0x20 ADD DUP3 DUP1 SLOAD PUSH2 0x455 SWAP1 PUSH2 0xF9C JUMP JUMPDEST DUP1 ISZERO PUSH2 0x4A0 JUMPI DUP1 PUSH1 0x1F LT PUSH2 0x477 JUMPI PUSH2 0x100 DUP1 DUP4 SLOAD DIV MUL DUP4 MSTORE SWAP2 PUSH1 0x20 ADD SWAP2 PUSH2 0x4A0 JUMP JUMPDEST DUP3 ADD SWAP2 SWAP1 PUSH0 MSTORE PUSH1 0x20 PUSH0 KECCAK256 SWAP1 JUMPDEST DUP2 SLOAD DUP2 MSTORE SWAP1 PUSH1 0x1 ADD SWAP1 PUSH1 0x20 ADD DUP1 DUP4 GT PUSH2 0x483 JUMPI DUP3 SWAP1 SUB PUSH1 0x1F AND DUP3 ADD SWAP2 JUMPDEST POP POP POP POP POP SWAP1 POP SWAP1 JUMP JUMPDEST PUSH0 PUSH0 PUSH2 0x4B4 PUSH2 0x5D2 JUMP JUMPDEST SWAP1 POP PUSH2 0x4C1 DUP2 DUP6 DUP6 PUSH2 0x67E JUMP JUMPDEST PUSH1 0x1 SWAP2 POP POP SWAP3 SWAP2 POP POP JUMP JUMPDEST PUSH0 PUSH1 0x1 PUSH0 DUP5 PUSH20 0xFFFFFFFFFFFFFFFFFFFFFFFFFFFFFFFFFFFFFFFF AND PUSH20 0xFFFFFFFFFFFFFFFFFFFFFFFFFFFFFFFFFFFFFFFF AND DUP2 MSTORE PUSH1 0x20 ADD SWAP1 DUP2 MSTORE PUSH1 0x20 ADD PUSH0 KECCAK256 PUSH0 DUP4 PUSH20 0xFFFFFFFFFFFFFFFFFFFFFFFFFFFFFFFFFFFFFFFF AND PUSH20 0xFFFFFFFFFFFFFFFFFFFFFFFFFFFFFFFFFFFFFFFF AND DUP2 MSTORE PUSH1 0x20 ADD SWAP1 DUP2 MSTORE PUSH1 0x20 ADD PUSH0 KECCAK256 SLOAD SWAP1 POP SWAP3 SWAP2 POP POP JUMP JUMPDEST PUSH2 0x556 PUSH2 0x76E JUMP JUMPDEST PUSH0 PUSH20 0xFFFFFFFFFFFFFFFFFFFFFFFFFFFFFFFFFFFFFFFF AND DUP2 PUSH20 0xFFFFFFFFFFFFFFFFFFFFFFFFFFFFFFFFFFFFFFFF AND SUB PUSH2 0x5C6 JUMPI PUSH0 PUSH1 0x40 MLOAD PUSH32 0x1E4FBDF700000000000000000000000000000000000000000000000000000000 DUP2 MSTORE PUSH1 0x4 ADD PUSH2 0x5BD SWAP2 SWAP1 PUSH2 0xF18 JUMP JUMPDEST PUSH1 0x40 MLOAD DUP1 SWAP2 SUB SWAP1 REVERT JUMPDEST PUSH2 0x5CF DUP2 PUSH2 0x7F5 JUMP JUMPDEST POP JUMP JUMPDEST PUSH0 CALLER SWAP1 POP SWAP1 JUMP JUMPDEST PUSH2 0x5E6 DUP4 DUP4 DUP4 PUSH1 0x1 PUSH2 0x8B8 JUMP JUMPDEST POP POP POP JUMP JUMPDEST PUSH0 PUSH2 0x5F6 DUP5 DUP5 PUSH2 0x4CC JUMP JUMPDEST SWAP1 POP PUSH32 0xFFFFFFFFFFFFFFFFFFFFFFFFFFFFFFFFFFFFFFFFFFFFFFFFFFFFFFFFFFFFFFFF DUP2 LT ISZERO PUSH2 0x678 JUMPI DUP2 DUP2 LT ISZERO PUSH2 0x669 JUMPI DUP3 DUP2 DUP4 PUSH1 0x40 MLOAD PUSH32 0xFB8F41B200000000000000000000000000000000000000000000000000000000 DUP2 MSTORE PUSH1 0x4 ADD PUSH2 0x660 SWAP4 SWAP3 SWAP2 SWAP1 PUSH2 0xFCC JUMP JUMPDEST PUSH1 0x40 MLOAD DUP1 SWAP2 SUB SWAP1 REVERT JUMPDEST PUSH2 0x677 DUP5 DUP5 DUP5 DUP5 SUB PUSH0 PUSH2 0x8B8 JUMP JUMPDEST JUMPDEST POP POP POP POP JUMP JUMPDEST PUSH0 PUSH20 0xFFFFFFFFFFFFFFFFFFFFFFFFFFFFFFFFFFFFFFFF AND DUP4 PUSH20 0xFFFFFFFFFFFFFFFFFFFFFFFFFFFFFFFFFFFFFFFF AND SUB PUSH2 0x6EE JUMPI PUSH0 PUSH1 0x40 MLOAD PUSH32 0x96C6FD1E00000000000000000000000000000000000000000000000000000000 DUP2 MSTORE PUSH1 0x4 ADD PUSH2 0x6E5 SWAP2 SWAP1 PUSH2 0xF18 JUMP JUMPDEST PUSH1 0x40 MLOAD DUP1 SWAP2 SUB SWAP1 REVERT JUMPDEST PUSH0 PUSH20 0xFFFFFFFFFFFFFFFFFFFFFFFFFFFFFFFFFFFFFFFF AND DUP3 PUSH20 0xFFFFFFFFFFFFFFFFFFFFFFFFFFFFFFFFFFFFFFFF AND SUB PUSH2 0x75E JUMPI PUSH0 PUSH1 0x40 MLOAD PUSH32 0xEC442F0500000000000000000000000000000000000000000000000000000000 DUP2 MSTORE PUSH1 0x4 ADD PUSH2 0x755 SWAP2 SWAP1 PUSH2 0xF18 JUMP JUMPDEST PUSH1 0x40 MLOAD DUP1 SWAP2 SUB SWAP1 REVERT JUMPDEST PUSH2 0x769 DUP4 DUP4 DUP4 PUSH2 0xA87 JUMP JUMPDEST POP POP POP JUMP JUMPDEST PUSH2 0x776 PUSH2 0x5D2 JUMP JUMPDEST PUSH20 0xFFFFFFFFFFFFFFFFFFFFFFFFFFFFFFFFFFFFFFFF AND PUSH2 0x794 PUSH2 0x3E4 JUMP JUMPDEST PUSH20 0xFFFFFFFFFFFFFFFFFFFFFFFFFFFFFFFFFFFFFFFF AND EQ PUSH2 0x7F3 JUMPI PUSH2 0x7B7 PUSH2 0x5D2 JUMP JUMPDEST PUSH1 0x40 MLOAD PUSH32 0x118CDAA700000000000000000000000000000000000000000000000000000000 DUP2 MSTORE PUSH1 0x4 ADD PUSH2 0x7EA SWAP2 SWAP1 PUSH2 0xF18 JUMP JUMPDEST PUSH1 0x40 MLOAD DUP1 SWAP2 SUB SWAP1 REVERT JUMPDEST JUMP JUMPDEST PUSH0 PUSH1 0x5 PUSH0 SWAP1 SLOAD SWAP1 PUSH2 0x100 EXP SWAP1 DIV PUSH20 0xFFFFFFFFFFFFFFFFFFFFFFFFFFFFFFFFFFFFFFFF AND SWAP1 POP DUP2 PUSH1 0x5 PUSH0 PUSH2 0x100 EXP DUP2 SLOAD DUP2 PUSH20 0xFFFFFFFFFFFFFFFFFFFFFFFFFFFFFFFFFFFFFFFF MUL NOT AND SWAP1 DUP4 PUSH20 0xFFFFFFFFFFFFFFFFFFFFFFFFFFFFFFFFFFFFFFFF AND MUL OR SWAP1 SSTORE POP DUP2 PUSH20 0xFFFFFFFFFFFFFFFFFFFFFFFFFFFFFFFFFFFFFFFF AND DUP2 PUSH20 0xFFFFFFFFFFFFFFFFFFFFFFFFFFFFFFFFFFFFFFFF AND PUSH32 0x8BE0079C531659141344CD1FD0A4F28419497F9722A3DAAFE3B4186F6B6457E0 PUSH1 0x40 MLOAD PUSH1 0x40 MLOAD DUP1 SWAP2 SUB SWAP1 LOG3 POP POP JUMP JUMPDEST PUSH0 PUSH20 0xFFFFFFFFFFFFFFFFFFFFFFFFFFFFFFFFFFFFFFFF AND DUP5 PUSH20 0xFFFFFFFFFFFFFFFFFFFFFFFFFFFFFFFFFFFFFFFF AND SUB PUSH2 0x928 JUMPI PUSH0 PUSH1 0x40 MLOAD PUSH32 0xE602DF0500000000000000000000000000000000000000000000000000000000 DUP2 MSTORE PUSH1 0x4 ADD PUSH2 0x91F SWAP2 SWAP1 PUSH2 0xF18 JUMP JUMPDEST PUSH1 0x40 MLOAD DUP1 SWAP2 SUB SWAP1 REVERT JUMPDEST PUSH0 PUSH20 0xFFFFFFFFFFFFFFFFFFFFFFFFFFFFFFFFFFFFFFFF AND DUP4 PUSH20 0xFFFFFFFFFFFFFFFFFFFFFFFFFFFFFFFFFFFFFFFF AND SUB PUSH2 0x998 JUMPI PUSH0 PUSH1 0x40 MLOAD PUSH32 0x94280D6200000000000000000000000000000000000000000000000000000000 DUP2 MSTORE PUSH1 0x4 ADD PUSH2 0x98F SWAP2 SWAP1 PUSH2 0xF18 JUMP JUMPDEST PUSH1 0x40 MLOAD DUP1 SWAP2 SUB SWAP1 REVERT JUMPDEST DUP2 PUSH1 0x1 PUSH0 DUP7 PUSH20 0xFFFFFFFFFFFFFFFFFFFFFFFFFFFFFFFFFFFFFFFF AND PUSH20 0xFFFFFFFFFFFFFFFFFFFFFFFFFFFFFFFFFFFFFFFF AND DUP2 MSTORE PUSH1 0x20 ADD SWAP1 DUP2 MSTORE PUSH1 0x20 ADD PUSH0 KECCAK256 PUSH0 DUP6 PUSH20 0xFFFFFFFFFFFFFFFFFFFFFFFFFFFFFFFFFFFFFFFF AND PUSH20 0xFFFFFFFFFFFFFFFFFFFFFFFFFFFFFFFFFFFFFFFF AND DUP2 MSTORE PUSH1 0x20 ADD SWAP1 DUP2 MSTORE PUSH1 0x20 ADD PUSH0 KECCAK256 DUP2 SWAP1 SSTORE POP DUP1 ISZERO PUSH2 0xA81 JUMPI DUP3 PUSH20 0xFFFFFFFFFFFFFFFFFFFFFFFFFFFFFFFFFFFFFFFF AND DUP5 PUSH20 0xFFFFFFFFFFFFFFFFFFFFFFFFFFFFFFFFFFFFFFFF AND PUSH32 0x8C5BE1E5EBEC7D5BD14F71427D1E84F3DD0314C0F7B2291E5B200AC8C7C3B925 DUP5 PUSH1 0x40 MLOAD PUSH2 0xA78 SWAP2 SWAP1 PUSH2 0xE41 JUMP JUMPDEST PUSH1 0x40 MLOAD DUP1 SWAP2 SUB SWAP1 LOG3 JUMPDEST POP POP POP POP JUMP JUMPDEST PUSH0 PUSH20 0xFFFFFFFFFFFFFFFFFFFFFFFFFFFFFFFFFFFFFFFF AND DUP4 PUSH20 0xFFFFFFFFFFFFFFFFFFFFFFFFFFFFFFFFFFFFFFFF AND SUB PUSH2 0xAD7 JUMPI DUP1 PUSH1 0x2 PUSH0 DUP3 DUP3 SLOAD PUSH2 0xACB SWAP2 SWAP1 PUSH2 0x102E JUMP JUMPDEST SWAP3 POP POP DUP2 SWAP1 SSTORE POP PUSH2 0xBA5 JUMP JUMPDEST PUSH0 PUSH0 PUSH0 DUP6 PUSH20 0xFFFFFFFFFFFFFFFFFFFFFFFFFFFFFFFFFFFFFFFF AND PUSH20 0xFFFFFFFFFFFFFFFFFFFFFFFFFFFFFFFFFFFFFFFF AND DUP2 MSTORE PUSH1 0x20 ADD SWAP1 DUP2 MSTORE PUSH1 0x20 ADD PUSH0 KECCAK256 SLOAD SWAP1 POP DUP2 DUP2 LT ISZERO PUSH2 0xB60 JUMPI DUP4 DUP2 DUP4 PUSH1 0x40 MLOAD PUSH32 0xE450D38C00000000000000000000000000000000000000000000000000000000 DUP2 MSTORE PUSH1 0x4 ADD PUSH2 0xB57 SWAP4 SWAP3 SWAP2 SWAP1 PUSH2 0xFCC JUMP JUMPDEST PUSH1 0x40 MLOAD DUP1 SWAP2 SUB SWAP1 REVERT JUMPDEST DUP2 DUP2 SUB PUSH0 PUSH0 DUP7 PUSH20 0xFFFFFFFFFFFFFFFFFFFFFFFFFFFFFFFFFFFFFFFF AND PUSH20 0xFFFFFFFFFFFFFFFFFFFFFFFFFFFFFFFFFFFFFFFF AND DUP2 MSTORE PUSH1 0x20 ADD SWAP1 DUP2 MSTORE PUSH1 0x20 ADD PUSH0 KECCAK256 DUP2 SWAP1 SSTORE POP POP JUMPDEST PUSH0 PUSH20 0xFFFFFFFFFFFFFFFFFFFFFFFFFFFFFFFFFFFFFFFF AND DUP3 PUSH20 0xFFFFFFFFFFFFFFFFFFFFFFFFFFFFFFFFFFFFFFFF AND SUB PUSH2 0xBEC JUMPI DUP1 PUSH1 0x2 PUSH0 DUP3 DUP3 SLOAD SUB SWAP3 POP POP DUP2 SWAP1 SSTORE POP PUSH2 0xC36 JUMP JUMPDEST DUP1 PUSH0 PUSH0 DUP5 PUSH20 0xFFFFFFFFFFFFFFFFFFFFFFFFFFFFFFFFFFFFFFFF AND PUSH20 0xFFFFFFFFFFFFFFFFFFFFFFFFFFFFFFFFFFFFFFFF AND DUP2 MSTORE PUSH1 0x20 ADD SWAP1 DUP2 MSTORE PUSH1 0x20 ADD PUSH0 KECCAK256 PUSH0 DUP3 DUP3 SLOAD ADD SWAP3 POP POP DUP2 SWAP1 SSTORE POP JUMPDEST DUP2 PUSH20 0xFFFFFFFFFFFFFFFFFFFFFFFFFFFFFFFFFFFFFFFF AND DUP4 PUSH20 0xFFFFFFFFFFFFFFFFFFFFFFFFFFFFFFFFFFFFFFFF AND PUSH32 0xDDF252AD1BE2C89B69C2B068FC378DAA952BA7F163C4A11628F55A4DF523B3EF DUP4 PUSH1 0x40 MLOAD PUSH2 0xC93 SWAP2 SWAP1 PUSH2 0xE41 JUMP JUMPDEST PUSH1 0x40 MLOAD DUP1 SWAP2 SUB SWAP1 LOG3 POP POP POP JUMP JUMPDEST PUSH0 DUP2 MLOAD SWAP1 POP SWAP2 SWAP1 POP JUMP JUMPDEST PUSH0 DUP3 DUP3 MSTORE PUSH1 0x20 DUP3 ADD SWAP1 POP SWAP3 SWAP2 POP POP JUMP JUMPDEST DUP3 DUP2 DUP4 MCOPY PUSH0 DUP4 DUP4 ADD MSTORE POP POP POP JUMP JUMPDEST PUSH0 PUSH1 0x1F NOT PUSH1 0x1F DUP4 ADD AND SWAP1 POP SWAP2 SWAP1 POP JUMP JUMPDEST PUSH0 PUSH2 0xCE2 DUP3 PUSH2 0xCA0 JUMP JUMPDEST PUSH2 0xCEC DUP2 DUP6 PUSH2 0xCAA JUMP JUMPDEST SWAP4 POP PUSH2 0xCFC DUP2 DUP6 PUSH1 0x20 DUP7 ADD PUSH2 0xCBA JUMP JUMPDEST PUSH2 0xD05 DUP2 PUSH2 0xCC8 JUMP JUMPDEST DUP5 ADD SWAP2 POP POP SWAP3 SWAP2 POP POP JUMP JUMPDEST PUSH0 PUSH1 0x20 DUP3 ADD SWAP1 POP DUP2 DUP2 SUB PUSH0 DUP4 ADD MSTORE PUSH2 0xD28 DUP2 DUP5 PUSH2 0xCD8 JUMP JUMPDEST SWAP1 POP SWAP3 SWAP2 POP POP JUMP JUMPDEST PUSH0 PUSH0 REVERT JUMPDEST PUSH0 PUSH20 0xFFFFFFFFFFFFFFFFFFFFFFFFFFFFFFFFFFFFFFFF DUP3 AND SWAP1 POP SWAP2 SWAP1 POP JUMP JUMPDEST PUSH0 PUSH2 0xD5D DUP3 PUSH2 0xD34 JUMP JUMPDEST SWAP1 POP SWAP2 SWAP1 POP JUMP JUMPDEST PUSH2 0xD6D DUP2 PUSH2 0xD53 JUMP JUMPDEST DUP2 EQ PUSH2 0xD77 JUMPI PUSH0 PUSH0 REVERT JUMPDEST POP JUMP JUMPDEST PUSH0 DUP2 CALLDATALOAD SWAP1 POP PUSH2 0xD88 DUP2 PUSH2 0xD64 JUMP JUMPDEST SWAP3 SWAP2 POP POP JUMP JUMPDEST PUSH0 DUP2 SWAP1 POP SWAP2 SWAP1 POP JUMP JUMPDEST PUSH2 0xDA0 DUP2 PUSH2 0xD8E JUMP JUMPDEST DUP2 EQ PUSH2 0xDAA JUMPI PUSH0 PUSH0 REVERT JUMPDEST POP JUMP JUMPDEST PUSH0 DUP2 CALLDATALOAD SWAP1 POP PUSH2 0xDBB DUP2 PUSH2 0xD97 JUMP JUMPDEST SWAP3 SWAP2 POP POP JUMP JUMPDEST PUSH0 PUSH0 PUSH1 0x40 DUP4 DUP6 SUB SLT ISZERO PUSH2 0xDD7 JUMPI PUSH2 0xDD6 PUSH2 0xD30 JUMP JUMPDEST JUMPDEST PUSH0 PUSH2 0xDE4 DUP6 DUP3 DUP7 ADD PUSH2 0xD7A JUMP JUMPDEST SWAP3 POP POP PUSH1 0x20 PUSH2 0xDF5 DUP6 DUP3 DUP7 ADD PUSH2 0xDAD JUMP JUMPDEST SWAP2 POP POP SWAP3 POP SWAP3 SWAP1 POP JUMP JUMPDEST PUSH0 DUP2 ISZERO ISZERO SWAP1 POP SWAP2 SWAP1 POP JUMP JUMPDEST PUSH2 0xE13 DUP2 PUSH2 0xDFF JUMP JUMPDEST DUP3 MSTORE POP POP JUMP JUMPDEST PUSH0 PUSH1 0x20 DUP3 ADD SWAP1 POP PUSH2 0xE2C PUSH0 DUP4 ADD DUP5 PUSH2 0xE0A JUMP JUMPDEST SWAP3 SWAP2 POP POP JUMP JUMPDEST PUSH2 0xE3B DUP2 PUSH2 0xD8E JUMP JUMPDEST DUP3 MSTORE POP POP JUMP JUMPDEST PUSH0 PUSH1 0x20 DUP3 ADD SWAP1 POP PUSH2 0xE54 PUSH0 DUP4 ADD DUP5 PUSH2 0xE32 JUMP JUMPDEST SWAP3 SWAP2 POP POP JUMP JUMPDEST PUSH0 PUSH0 PUSH0 PUSH1 0x60 DUP5 DUP7 SUB SLT ISZERO PUSH2 0xE71 JUMPI PUSH2 0xE70 PUSH2 0xD30 JUMP JUMPDEST JUMPDEST PUSH0 PUSH2 0xE7E DUP7 DUP3 DUP8 ADD PUSH2 0xD7A JUMP JUMPDEST SWAP4 POP POP PUSH1 0x20 PUSH2 0xE8F DUP7 DUP3 DUP8 ADD PUSH2 0xD7A JUMP JUMPDEST SWAP3 POP POP PUSH1 0x40 PUSH2 0xEA0 DUP7 DUP3 DUP8 ADD PUSH2 0xDAD JUMP JUMPDEST SWAP2 POP POP SWAP3 POP SWAP3 POP SWAP3 JUMP JUMPDEST PUSH0 PUSH1 0xFF DUP3 AND SWAP1 POP SWAP2 SWAP1 POP JUMP JUMPDEST PUSH2 0xEBF DUP2 PUSH2 0xEAA JUMP JUMPDEST DUP3 MSTORE POP POP JUMP JUMPDEST PUSH0 PUSH1 0x20 DUP3 ADD SWAP1 POP PUSH2 0xED8 PUSH0 DUP4 ADD DUP5 PUSH2 0xEB6 JUMP JUMPDEST SWAP3 SWAP2 POP POP JUMP JUMPDEST PUSH0 PUSH1 0x20 DUP3 DUP5 SUB SLT ISZERO PUSH2 0xEF3 JUMPI PUSH2 0xEF2 PUSH2 0xD30 JUMP JUMPDEST JUMPDEST PUSH0 PUSH2 0xF00 DUP5 DUP3 DUP6 ADD PUSH2 0xD7A JUMP JUMPDEST SWAP2 POP POP SWAP3 SWAP2 POP POP JUMP JUMPDEST PUSH2 0xF12 DUP2 PUSH2 0xD53 JUMP JUMPDEST DUP3 MSTORE POP POP JUMP JUMPDEST PUSH0 PUSH1 0x20 DUP3 ADD SWAP1 POP PUSH2 0xF2B PUSH0 DUP4 ADD DUP5 PUSH2 0xF09 JUMP JUMPDEST SWAP3 SWAP2 POP POP JUMP JUMPDEST PUSH0 PUSH0 PUSH1 0x40 DUP4 DUP6 SUB SLT ISZERO PUSH2 0xF47 JUMPI PUSH2 0xF46 PUSH2 0xD30 JUMP JUMPDEST JUMPDEST PUSH0 PUSH2 0xF54 DUP6 DUP3 DUP7 ADD PUSH2 0xD7A JUMP JUMPDEST SWAP3 POP POP PUSH1 0x20 PUSH2 0xF65 DUP6 DUP3 DUP7 ADD PUSH2 0xD7A JUMP JUMPDEST SWAP2 POP POP SWAP3 POP SWAP3 SWAP1 POP JUMP JUMPDEST PUSH32 0x4E487B7100000000000000000000000000000000000000000000000000000000 PUSH0 MSTORE PUSH1 0x22 PUSH1 0x4 MSTORE PUSH1 0x24 PUSH0 REVERT JUMPDEST PUSH0 PUSH1 0x2 DUP3 DIV SWAP1 POP PUSH1 0x1 DUP3 AND DUP1 PUSH2 0xFB3 JUMPI PUSH1 0x7F DUP3 AND SWAP2 POP JUMPDEST PUSH1 0x20 DUP3 LT DUP2 SUB PUSH2 0xFC6 JUMPI PUSH2 0xFC5 PUSH2 0xF6F JUMP JUMPDEST JUMPDEST POP SWAP2 SWAP1 POP JUMP JUMPDEST PUSH0 PUSH1 0x60 DUP3 ADD SWAP1 POP PUSH2 0xFDF PUSH0 DUP4 ADD DUP7 PUSH2 0xF09 JUMP JUMPDEST PUSH2 0xFEC PUSH1 0x20 DUP4 ADD DUP6 PUSH2 0xE32 JUMP JUMPDEST PUSH2 0xFF9 PUSH1 0x40 DUP4 ADD DUP5 PUSH2 0xE32 JUMP JUMPDEST SWAP5 SWAP4 POP POP POP POP JUMP JUMPDEST PUSH32 0x4E487B7100000000000000000000000000000000000000000000000000000000 PUSH0 MSTORE PUSH1 0x11 PUSH1 0x4 MSTORE PUSH1 0x24 PUSH0 REVERT JUMPDEST PUSH0 PUSH2 0x1038 DUP3 PUSH2 0xD8E JUMP JUMPDEST SWAP2 POP PUSH2 0x1043 DUP4 PUSH2 0xD8E JUMP JUMPDEST SWAP3 POP DUP3 DUP3 ADD SWAP1 POP DUP1 DUP3 GT ISZERO PUSH2 0x105B JUMPI PUSH2 0x105A PUSH2 0x1001 JUMP JUMPDEST JUMPDEST SWAP3 SWAP2 POP POP JUMP INVALID LOG2 PUSH5 0x6970667358 0x22 SLT KECCAK256 0xCC NOT 0x2C NOT OR SUB DUPN 0x28 CALLDATASIZE PREVRANDAO 0xC2 CALLVALUE JUMPI RJUMP 0xB1F9 0x2A 0xCE EXTCODESIZE 0xC7 SDIV 0x26 REVERT 0xB4 0x1F CODECOPY EXTCODESIZE SUB 0xB7 0xCD BYTE 0xA9 PUSH5 0x736F6C6343 STOP ADDMOD 0x1E STOP CALLER PUSH1 0xC0 PUSH1 0x40 MSTORE CALLVALUE DUP1 ISZERO PUSH2 0xF JUMPI PUSH0 PUSH0 REVERT JUMPDEST POP PUSH1 0x40 MLOAD PUSH2 0x121E CODESIZE SUB DUP1 PUSH2 0x121E DUP4 CODECOPY DUP2 DUP2 ADD PUSH1 0x40 MSTORE DUP2 ADD SWAP1 PUSH2 0x31 SWAP2 SWAP1 PUSH2 0xFE JUMP JUMPDEST DUP2 PUSH20 0xFFFFFFFFFFFFFFFFFFFFFFFFFFFFFFFFFFFFFFFF AND PUSH1 0x80 DUP2 PUSH20 0xFFFFFFFFFFFFFFFFFFFFFFFFFFFFFFFFFFFFFFFF AND DUP2 MSTORE POP POP DUP1 PUSH20 0xFFFFFFFFFFFFFFFFFFFFFFFFFFFFFFFFFFFFFFFF AND PUSH1 0xA0 DUP2 PUSH20 0xFFFFFFFFFFFFFFFFFFFFFFFFFFFFFFFFFFFFFFFF AND DUP2 MSTORE POP POP POP POP PUSH2 0x13C JUMP JUMPDEST PUSH0 PUSH0 REVERT JUMPDEST PUSH0 PUSH20 0xFFFFFFFFFFFFFFFFFFFFFFFFFFFFFFFFFFFFFFFF DUP3 AND SWAP1 POP SWAP2 SWAP1 POP JUMP JUMPDEST PUSH0 PUSH2 0xCD DUP3 PUSH2 0xA4 JUMP JUMPDEST SWAP1 POP SWAP2 SWAP1 POP JUMP JUMPDEST PUSH2 0xDD DUP2 PUSH2 0xC3 JUMP JUMPDEST DUP2 EQ PUSH2 0xE7 JUMPI PUSH0 PUSH0 REVERT JUMPDEST POP JUMP JUMPDEST PUSH0 DUP2 MLOAD SWAP1 POP PUSH2 0xF8 DUP2 PUSH2 0xD4 JUMP JUMPDEST SWAP3 SWAP2 POP POP JUMP JUMPDEST PUSH0 PUSH0 PUSH1 0x40 DUP4 DUP6 SUB SLT ISZERO PUSH2 0x114 JUMPI PUSH2 0x113 PUSH2 0xA0 JUMP JUMPDEST JUMPDEST PUSH0 PUSH2 0x121 DUP6 DUP3 DUP7 ADD PUSH2 0xEA JUMP JUMPDEST SWAP3 POP POP PUSH1 0x20 PUSH2 0x132 DUP6 DUP3 DUP7 ADD PUSH2 0xEA JUMP JUMPDEST SWAP2 POP POP SWAP3 POP SWAP3 SWAP1 POP JUMP JUMPDEST PUSH1 0x80 MLOAD PUSH1 0xA0 MLOAD PUSH2 0x1097 PUSH2 0x187 PUSH0 CODECOPY PUSH0 DUP2 DUP2 PUSH2 0x2D8 ADD MSTORE DUP2 DUP2 PUSH2 0x3B1 ADD MSTORE DUP2 DUP2 PUSH2 0x58C ADD MSTORE DUP2 DUP2 PUSH2 0x66E ADD MSTORE PUSH2 0x991 ADD MSTORE PUSH0 DUP2 DUP2 PUSH2 0x44D ADD MSTORE DUP2 DUP2 PUSH2 0x70F ADD MSTORE PUSH2 0x83A ADD MSTORE PUSH2 0x1097 PUSH0 RETURN INVALID PUSH1 0x80 PUSH1 0x40 MSTORE CALLVALUE DUP1 ISZERO PUSH2 0xF JUMPI PUSH0 PUSH0 REVERT JUMPDEST POP PUSH1 0x4 CALLDATASIZE LT PUSH2 0x91 JUMPI PUSH0 CALLDATALOAD PUSH1 0xE0 SHR DUP1 PUSH4 0x7DCB2ABF GT PUSH2 0x64 JUMPI DUP1 PUSH4 0x7DCB2ABF EQ PUSH2 0x11B JUMPI DUP1 PUSH4 0x8141FEB3 EQ PUSH2 0x14B JUMPI DUP1 PUSH4 0xA694FC3A EQ PUSH2 0x169 JUMPI DUP1 PUSH4 0xD5A44F86 EQ PUSH2 0x185 JUMPI DUP1 PUSH4 0xF7C618C1 EQ PUSH2 0x1B6 JUMPI PUSH2 0x91 JUMP JUMPDEST DUP1 PUSH4 0x150B7A02 EQ PUSH2 0x95 JUMPI DUP1 PUSH4 0x2E17DE78 EQ PUSH2 0xC5 JUMPI DUP1 PUSH4 0x379607F5 EQ PUSH2 0xE1 JUMPI DUP1 PUSH4 0x47CCCA02 EQ PUSH2 0xFD JUMPI JUMPDEST PUSH0 PUSH0 REVERT JUMPDEST PUSH2 0xAF PUSH1 0x4 DUP1 CALLDATASIZE SUB DUP2 ADD SWAP1 PUSH2 0xAA SWAP2 SWAP1 PUSH2 0xB8D JUMP JUMPDEST PUSH2 0x1D4 JUMP JUMPDEST PUSH1 0x40 MLOAD PUSH2 0xBC SWAP2 SWAP1 PUSH2 0xC47 JUMP JUMPDEST PUSH1 0x40 MLOAD DUP1 SWAP2 SUB SWAP1 RETURN JUMPDEST PUSH2 0xDF PUSH1 0x4 DUP1 CALLDATASIZE SUB DUP2 ADD SWAP1 PUSH2 0xDA SWAP2 SWAP1 PUSH2 0xC60 JUMP JUMPDEST PUSH2 0x1E7 JUMP JUMPDEST STOP JUMPDEST PUSH2 0xFB PUSH1 0x4 DUP1 CALLDATASIZE SUB DUP2 ADD SWAP1 PUSH2 0xF6 SWAP2 SWAP1 PUSH2 0xC60 JUMP JUMPDEST PUSH2 0x4DA JUMP JUMPDEST STOP JUMPDEST PUSH2 0x105 PUSH2 0x70D JUMP JUMPDEST PUSH1 0x40 MLOAD PUSH2 0x112 SWAP2 SWAP1 PUSH2 0xCE6 JUMP JUMPDEST PUSH1 0x40 MLOAD DUP1 SWAP2 SUB SWAP1 RETURN JUMPDEST PUSH2 0x135 PUSH1 0x4 DUP1 CALLDATASIZE SUB DUP2 ADD SWAP1 PUSH2 0x130 SWAP2 SWAP1 PUSH2 0xC60 JUMP JUMPDEST PUSH2 0x731 JUMP JUMPDEST PUSH1 0x40 MLOAD PUSH2 0x142 SWAP2 SWAP1 PUSH2 0xD0E JUMP JUMPDEST PUSH1 0x40 MLOAD DUP1 SWAP2 SUB SWAP1 RETURN JUMPDEST PUSH2 0x153 PUSH2 0x82C JUMP JUMPDEST PUSH1 0x40 MLOAD PUSH2 0x160 SWAP2 SWAP1 PUSH2 0xD0E JUMP JUMPDEST PUSH1 0x40 MLOAD DUP1 SWAP2 SUB SWAP1 RETURN JUMPDEST PUSH2 0x183 PUSH1 0x4 DUP1 CALLDATASIZE SUB DUP2 ADD SWAP1 PUSH2 0x17E SWAP2 SWAP1 PUSH2 0xC60 JUMP JUMPDEST PUSH2 0x838 JUMP JUMPDEST STOP JUMPDEST PUSH2 0x19F PUSH1 0x4 DUP1 CALLDATASIZE SUB DUP2 ADD SWAP1 PUSH2 0x19A SWAP2 SWAP1 PUSH2 0xC60 JUMP JUMPDEST PUSH2 0x951 JUMP JUMPDEST PUSH1 0x40 MLOAD PUSH2 0x1AD SWAP3 SWAP2 SWAP1 PUSH2 0xD36 JUMP JUMPDEST PUSH1 0x40 MLOAD DUP1 SWAP2 SUB SWAP1 RETURN JUMPDEST PUSH2 0x1BE PUSH2 0x98F JUMP JUMPDEST PUSH1 0x40 MLOAD PUSH2 0x1CB SWAP2 SWAP1 PUSH2 0xD7D JUMP JUMPDEST PUSH1 0x40 MLOAD DUP1 SWAP2 SUB SWAP1 RETURN JUMPDEST PUSH0 PUSH4 0x150B7A02 PUSH1 0xE0 SHL SWAP1 POP SWAP5 SWAP4 POP POP POP POP JUMP JUMPDEST PUSH0 PUSH0 PUSH0 DUP4 DUP2 MSTORE PUSH1 0x20 ADD SWAP1 DUP2 MSTORE PUSH1 0x20 ADD PUSH0 KECCAK256 SWAP1 POP CALLER PUSH20 0xFFFFFFFFFFFFFFFFFFFFFFFFFFFFFFFFFFFFFFFF AND DUP2 PUSH0 ADD PUSH0 SWAP1 SLOAD SWAP1 PUSH2 0x100 EXP SWAP1 DIV PUSH20 0xFFFFFFFFFFFFFFFFFFFFFFFFFFFFFFFFFFFFFFFF AND PUSH20 0xFFFFFFFFFFFFFFFFFFFFFFFFFFFFFFFFFFFFFFFF AND EQ PUSH2 0x28A JUMPI PUSH1 0x40 MLOAD PUSH32 0x8C379A000000000000000000000000000000000000000000000000000000000 DUP2 MSTORE PUSH1 0x4 ADD PUSH2 0x281 SWAP1 PUSH2 0xDF0 JUMP JUMPDEST PUSH1 0x40 MLOAD DUP1 SWAP2 SUB SWAP1 REVERT JUMPDEST PUSH0 PUSH2 0x294 DUP4 PUSH2 0x731 JUMP JUMPDEST SWAP1 POP PUSH0 PUSH0 DUP5 DUP2 MSTORE PUSH1 0x20 ADD SWAP1 DUP2 MSTORE PUSH1 0x20 ADD PUSH0 KECCAK256 PUSH0 PUSH0 DUP3 ADD PUSH0 PUSH2 0x100 EXP DUP2 SLOAD SWAP1 PUSH20 0xFFFFFFFFFFFFFFFFFFFFFFFFFFFFFFFFFFFFFFFF MUL NOT AND SWAP1 SSTORE PUSH1 0x1 DUP3 ADD PUSH0 SWAP1 SSTORE POP POP DUP1 PUSH32 0x0 PUSH20 0xFFFFFFFFFFFFFFFFFFFFFFFFFFFFFFFFFFFFFFFF AND PUSH4 0x70A08231 ADDRESS PUSH1 0x40 MLOAD DUP3 PUSH4 0xFFFFFFFF AND PUSH1 0xE0 SHL DUP2 MSTORE PUSH1 0x4 ADD PUSH2 0x32F SWAP2 SWAP1 PUSH2 0xE0E JUMP JUMPDEST PUSH1 0x20 PUSH1 0x40 MLOAD DUP1 DUP4 SUB DUP2 DUP7 GAS STATICCALL ISZERO DUP1 ISZERO PUSH2 0x34A JUMPI RETURNDATASIZE PUSH0 PUSH0 RETURNDATACOPY RETURNDATASIZE PUSH0 REVERT JUMPDEST POP POP POP POP PUSH1 0x40 MLOAD RETURNDATASIZE PUSH1 0x1F NOT PUSH1 0x1F DUP3 ADD AND DUP3 ADD DUP1 PUSH1 0x40 MSTORE POP DUP2 ADD SWAP1 PUSH2 0x36E SWAP2 SWAP1 PUSH2 0xE3B JUMP JUMPDEST LT ISZERO PUSH2 0x3AF JUMPI PUSH1 0x40 MLOAD PUSH32 0x8C379A000000000000000000000000000000000000000000000000000000000 DUP2 MSTORE PUSH1 0x4 ADD PUSH2 0x3A6 SWAP1 PUSH2 0xEB0 JUMP JUMPDEST PUSH1 0x40 MLOAD DUP1 SWAP2 SUB SWAP1 REVERT JUMPDEST PUSH32 0x0 PUSH20 0xFFFFFFFFFFFFFFFFFFFFFFFFFFFFFFFFFFFFFFFF AND PUSH4 0xA9059CBB CALLER DUP4 PUSH1 0x40 MLOAD DUP4 PUSH4 0xFFFFFFFF AND PUSH1 0xE0 SHL DUP2 MSTORE PUSH1 0x4 ADD PUSH2 0x40A SWAP3 SWAP2 SWAP1 PUSH2 0xD36 JUMP JUMPDEST PUSH1 0x20 PUSH1 0x40 MLOAD DUP1 DUP4 SUB DUP2 PUSH0 DUP8 GAS CALL ISZERO DUP1 ISZERO PUSH2 0x426 JUMPI RETURNDATASIZE PUSH0 PUSH0 RETURNDATACOPY RETURNDATASIZE PUSH0 REVERT JUMPDEST POP POP POP POP PUSH1 0x40 MLOAD RETURNDATASIZE PUSH1 0x1F NOT PUSH1 0x1F DUP3 ADD AND DUP3 ADD DUP1 PUSH1 0x40 MSTORE POP DUP2 ADD SWAP1 PUSH2 0x44A SWAP2 SWAP1 PUSH2 0xF03 JUMP JUMPDEST POP PUSH32 0x0 PUSH20 0xFFFFFFFFFFFFFFFFFFFFFFFFFFFFFFFFFFFFFFFF AND PUSH4 0x42842E0E ADDRESS CALLER DUP7 PUSH1 0x40 MLOAD DUP5 PUSH4 0xFFFFFFFF AND PUSH1 0xE0 SHL DUP2 MSTORE PUSH1 0x4 ADD PUSH2 0x4A8 SWAP4 SWAP3 SWAP2 SWAP1 PUSH2 0xF2E JUMP JUMPDEST PUSH0 PUSH1 0x40 MLOAD DUP1 DUP4 SUB DUP2 PUSH0 DUP8 DUP1 EXTCODESIZE ISZERO DUP1 ISZERO PUSH2 0x4BF JUMPI PUSH0 PUSH0 REVERT JUMPDEST POP GAS CALL ISZERO DUP1 ISZERO PUSH2 0x4D1 JUMPI RETURNDATASIZE PUSH0 PUSH0 RETURNDATACOPY RETURNDATASIZE PUSH0 REVERT JUMPDEST POP POP POP POP POP POP POP JUMP JUMPDEST PUSH0 PUSH0 PUSH0 DUP4 DUP2 MSTORE PUSH1 0x20 ADD SWAP1 DUP2 MSTORE PUSH1 0x20 ADD PUSH0 KECCAK256 SWAP1 POP CALLER PUSH20 0xFFFFFFFFFFFFFFFFFFFFFFFFFFFFFFFFFFFFFFFF AND DUP2 PUSH0 ADD PUSH0 SWAP1 SLOAD SWAP1 PUSH2 0x100 EXP SWAP1 DIV PUSH20 0xFFFFFFFFFFFFFFFFFFFFFFFFFFFFFFFFFFFFFFFF AND PUSH20 0xFFFFFFFFFFFFFFFFFFFFFFFFFFFFFFFFFFFFFFFF AND EQ PUSH2 0x57D JUMPI PUSH1 0x40 MLOAD PUSH32 0x8C379A000000000000000000000000000000000000000000000000000000000 DUP2 MSTORE PUSH1 0x4 ADD PUSH2 0x574 SWAP1 PUSH2 0xDF0 JUMP JUMPDEST PUSH1 0x40 MLOAD DUP1 SWAP2 SUB SWAP1 REVERT JUMPDEST PUSH0 PUSH2 0x587 DUP4 PUSH2 0x731 JUMP JUMPDEST SWAP1 POP DUP1 PUSH32 0x0 PUSH20 0xFFFFFFFFFFFFFFFFFFFFFFFFFFFFFFFFFFFFFFFF AND PUSH4 0x70A08231 ADDRESS PUSH1 0x40 MLOAD DUP3 PUSH4 0xFFFFFFFF AND PUSH1 0xE0 SHL DUP2 MSTORE PUSH1 0x4 ADD PUSH2 0x5E3 SWAP2 SWAP1 PUSH2 0xE0E JUMP JUMPDEST PUSH1 0x20 PUSH1 0x40 MLOAD DUP1 DUP4 SUB DUP2 DUP7 GAS STATICCALL ISZERO DUP1 ISZERO PUSH2 0x5FE JUMPI RETURNDATASIZE PUSH0 PUSH0 RETURNDATACOPY RETURNDATASIZE PUSH0 REVERT JUMPDEST POP POP POP POP PUSH1 0x40 MLOAD RETURNDATASIZE PUSH1 0x1F NOT PUSH1 0x1F DUP3 ADD AND DUP3 ADD DUP1 PUSH1 0x40 MSTORE POP DUP2 ADD SWAP1 PUSH2 0x622 SWAP2 SWAP1 PUSH2 0xE3B JUMP JUMPDEST LT ISZERO PUSH2 0x663 JUMPI PUSH1 0x40 MLOAD PUSH32 0x8C379A000000000000000000000000000000000000000000000000000000000 DUP2 MSTORE PUSH1 0x4 ADD PUSH2 0x65A SWAP1 PUSH2 0xEB0 JUMP JUMPDEST PUSH1 0x40 MLOAD DUP1 SWAP2 SUB SWAP1 REVERT JUMPDEST TIMESTAMP DUP3 PUSH1 0x1 ADD DUP2 SWAP1 SSTORE POP PUSH32 0x0 PUSH20 0xFFFFFFFFFFFFFFFFFFFFFFFFFFFFFFFFFFFFFFFF AND PUSH4 0xA9059CBB CALLER DUP4 PUSH1 0x40 MLOAD DUP4 PUSH4 0xFFFFFFFF AND PUSH1 0xE0 SHL DUP2 MSTORE PUSH1 0x4 ADD PUSH2 0x6C7 SWAP3 SWAP2 SWAP1 PUSH2 0xD36 JUMP JUMPDEST PUSH1 0x20 PUSH1 0x40 MLOAD DUP1 DUP4 SUB DUP2 PUSH0 DUP8 GAS CALL ISZERO DUP1 ISZERO PUSH2 0x6E3 JUMPI RETURNDATASIZE PUSH0 PUSH0 RETURNDATACOPY RETURNDATASIZE PUSH0 REVERT JUMPDEST POP POP POP POP PUSH1 0x40 MLOAD RETURNDATASIZE PUSH1 0x1F NOT PUSH1 0x1F DUP3 ADD AND DUP3 ADD DUP1 PUSH1 0x40 MSTORE POP DUP2 ADD SWAP1 PUSH2 0x707 SWAP2 SWAP1 PUSH2 0xF03 JUMP JUMPDEST POP POP POP POP JUMP JUMPDEST PUSH32 0x0 DUP2 JUMP JUMPDEST PUSH0 PUSH0 PUSH0 PUSH0 DUP5 DUP2 MSTORE PUSH1 0x20 ADD SWAP1 DUP2 MSTORE PUSH1 0x20 ADD PUSH0 KECCAK256 PUSH1 0x40 MLOAD DUP1 PUSH1 0x40 ADD PUSH1 0x40 MSTORE SWAP1 DUP2 PUSH0 DUP3 ADD PUSH0 SWAP1 SLOAD SWAP1 PUSH2 0x100 EXP SWAP1 DIV PUSH20 0xFFFFFFFFFFFFFFFFFFFFFFFFFFFFFFFFFFFFFFFF AND PUSH20 0xFFFFFFFFFFFFFFFFFFFFFFFFFFFFFFFFFFFFFFFF AND PUSH20 0xFFFFFFFFFFFFFFFFFFFFFFFFFFFFFFFFFFFFFFFF AND DUP2 MSTORE PUSH1 0x20 ADD PUSH1 0x1 DUP3 ADD SLOAD DUP2 MSTORE POP POP SWAP1 POP PUSH0 PUSH20 0xFFFFFFFFFFFFFFFFFFFFFFFFFFFFFFFFFFFFFFFF AND DUP2 PUSH0 ADD MLOAD PUSH20 0xFFFFFFFFFFFFFFFFFFFFFFFFFFFFFFFFFFFFFFFF AND SUB PUSH2 0x7ED JUMPI PUSH0 SWAP2 POP POP PUSH2 0x827 JUMP JUMPDEST PUSH0 DUP2 PUSH1 0x20 ADD MLOAD TIMESTAMP PUSH2 0x7FE SWAP2 SWAP1 PUSH2 0xF90 JUMP JUMPDEST SWAP1 POP PUSH3 0x15180 PUSH8 0x8AC7230489E80000 DUP3 PUSH2 0x818 SWAP2 SWAP1 PUSH2 0xFC3 JUMP JUMPDEST PUSH2 0x822 SWAP2 SWAP1 PUSH2 0x1031 JUMP JUMPDEST SWAP3 POP POP POP JUMPDEST SWAP2 SWAP1 POP JUMP JUMPDEST PUSH8 0x8AC7230489E80000 DUP2 JUMP JUMPDEST PUSH32 0x0 PUSH20 0xFFFFFFFFFFFFFFFFFFFFFFFFFFFFFFFFFFFFFFFF AND PUSH4 0x42842E0E CALLER ADDRESS DUP5 PUSH1 0x40 MLOAD DUP5 PUSH4 0xFFFFFFFF AND PUSH1 0xE0 SHL DUP2 MSTORE PUSH1 0x4 ADD PUSH2 0x895 SWAP4 SWAP3 SWAP2 SWAP1 PUSH2 0xF2E JUMP JUMPDEST PUSH0 PUSH1 0x40 MLOAD DUP1 DUP4 SUB DUP2 PUSH0 DUP8 DUP1 EXTCODESIZE ISZERO DUP1 ISZERO PUSH2 0x8AC JUMPI PUSH0 PUSH0 REVERT JUMPDEST POP GAS CALL ISZERO DUP1 ISZERO PUSH2 0x8BE JUMPI RETURNDATASIZE PUSH0 PUSH0 RETURNDATACOPY RETURNDATASIZE PUSH0 REVERT JUMPDEST POP POP POP POP PUSH1 0x40 MLOAD DUP1 PUSH1 0x40 ADD PUSH1 0x40 MSTORE DUP1 CALLER PUSH20 0xFFFFFFFFFFFFFFFFFFFFFFFFFFFFFFFFFFFFFFFF AND DUP2 MSTORE PUSH1 0x20 ADD TIMESTAMP DUP2 MSTORE POP PUSH0 PUSH0 DUP4 DUP2 MSTORE PUSH1 0x20 ADD SWAP1 DUP2 MSTORE PUSH1 0x20 ADD PUSH0 KECCAK256 PUSH0 DUP3 ADD MLOAD DUP2 PUSH0 ADD PUSH0 PUSH2 0x100 EXP DUP2 SLOAD DUP2 PUSH20 0xFFFFFFFFFFFFFFFFFFFFFFFFFFFFFFFFFFFFFFFF MUL NOT AND SWAP1 DUP4 PUSH20 0xFFFFFFFFFFFFFFFFFFFFFFFFFFFFFFFFFFFFFFFF AND MUL OR SWAP1 SSTORE POP PUSH1 0x20 DUP3 ADD MLOAD DUP2 PUSH1 0x1 ADD SSTORE SWAP1 POP POP POP JUMP JUMPDEST PUSH0 PUSH1 0x20 MSTORE DUP1 PUSH0 MSTORE PUSH1 0x40 PUSH0 KECCAK256 PUSH0 SWAP2 POP SWAP1 POP DUP1 PUSH0 ADD PUSH0 SWAP1 SLOAD SWAP1 PUSH2 0x100 EXP SWAP1 DIV PUSH20 0xFFFFFFFFFFFFFFFFFFFFFFFFFFFFFFFFFFFFFFFF AND SWAP1 DUP1 PUSH1 0x1 ADD SLOAD SWAP1 POP DUP3 JUMP JUMPDEST PUSH32 0x0 DUP2 JUMP JUMPDEST PUSH0 PUSH1 0x40 MLOAD SWAP1 POP SWAP1 JUMP JUMPDEST PUSH0 PUSH0 REVERT JUMPDEST PUSH0 PUSH0 REVERT JUMPDEST PUSH0 PUSH20 0xFFFFFFFFFFFFFFFFFFFFFFFFFFFFFFFFFFFFFFFF DUP3 AND SWAP1 POP SWAP2 SWAP1 POP JUMP JUMPDEST PUSH0 PUSH2 0x9ED DUP3 PUSH2 0x9C4 JUMP JUMPDEST SWAP1 POP SWAP2 SWAP1 POP JUMP JUMPDEST PUSH2 0x9FD DUP2 PUSH2 0x9E3 JUMP JUMPDEST DUP2 EQ PUSH2 0xA07 JUMPI PUSH0 PUSH0 REVERT JUMPDEST POP JUMP JUMPDEST PUSH0 DUP2 CALLDATALOAD SWAP1 POP PUSH2 0xA18 DUP2 PUSH2 0x9F4 JUMP JUMPDEST SWAP3 SWAP2 POP POP JUMP JUMPDEST PUSH0 DUP2 SWAP1 POP SWAP2 SWAP1 POP JUMP JUMPDEST PUSH2 0xA30 DUP2 PUSH2 0xA1E JUMP JUMPDEST DUP2 EQ PUSH2 0xA3A JUMPI PUSH0 PUSH0 REVERT JUMPDEST POP JUMP JUMPDEST PUSH0 DUP2 CALLDATALOAD SWAP1 POP PUSH2 0xA4B DUP2 PUSH2 0xA27 JUMP JUMPDEST SWAP3 SWAP2 POP POP JUMP JUMPDEST PUSH0 PUSH0 REVERT JUMPDEST PUSH0 PUSH0 REVERT JUMPDEST PUSH0 PUSH1 0x1F NOT PUSH1 0x1F DUP4 ADD AND SWAP1 POP SWAP2 SWAP1 POP JUMP JUMPDEST PUSH32 0x4E487B7100000000000000000000000000000000000000000000000000000000 PUSH0 MSTORE PUSH1 0x41 PUSH1 0x4 MSTORE PUSH1 0x24 PUSH0 REVERT JUMPDEST PUSH2 0xA9F DUP3 PUSH2 0xA59 JUMP JUMPDEST DUP2 ADD DUP2 DUP2 LT PUSH8 0xFFFFFFFFFFFFFFFF DUP3 GT OR ISZERO PUSH2 0xABE JUMPI PUSH2 0xABD PUSH2 0xA69 JUMP JUMPDEST JUMPDEST DUP1 PUSH1 0x40 MSTORE POP POP POP JUMP JUMPDEST PUSH0 PUSH2 0xAD0 PUSH2 0x9B3 JUMP JUMPDEST SWAP1 POP PUSH2 0xADC DUP3 DUP3 PUSH2 0xA96 JUMP JUMPDEST SWAP2 SWAP1 POP JUMP JUMPDEST PUSH0 PUSH8 0xFFFFFFFFFFFFFFFF DUP3 GT ISZERO PUSH2 0xAFB JUMPI PUSH2 0xAFA PUSH2 0xA69 JUMP JUMPDEST JUMPDEST PUSH2 0xB04 DUP3 PUSH2 0xA59 JUMP JUMPDEST SWAP1 POP PUSH1 0x20 DUP2 ADD SWAP1 POP SWAP2 SWAP1 POP JUMP JUMPDEST DUP3 DUP2 DUP4 CALLDATACOPY PUSH0 DUP4 DUP4 ADD MSTORE POP POP POP JUMP JUMPDEST PUSH0 PUSH2 0xB31 PUSH2 0xB2C DUP5 PUSH2 0xAE1 JUMP JUMPDEST PUSH2 0xAC7 JUMP JUMPDEST SWAP1 POP DUP3 DUP2 MSTORE PUSH1 0x20 DUP2 ADD DUP5 DUP5 DUP5 ADD GT ISZERO PUSH2 0xB4D JUMPI PUSH2 0xB4C PUSH2 0xA55 JUMP JUMPDEST JUMPDEST PUSH2 0xB58 DUP5 DUP3 DUP6 PUSH2 0xB11 JUMP JUMPDEST POP SWAP4 SWAP3 POP POP POP JUMP JUMPDEST PUSH0 DUP3 PUSH1 0x1F DUP4 ADD SLT PUSH2 0xB74 JUMPI PUSH2 0xB73 PUSH2 0xA51 JUMP JUMPDEST JUMPDEST DUP2 CALLDATALOAD PUSH2 0xB84 DUP5 DUP3 PUSH1 0x20 DUP7 ADD PUSH2 0xB1F JUMP JUMPDEST SWAP2 POP POP SWAP3 SWAP2 POP POP JUMP JUMPDEST PUSH0 PUSH0 PUSH0 PUSH0 PUSH1 0x80 DUP6 DUP8 SUB SLT ISZERO PUSH2 0xBA5 JUMPI PUSH2 0xBA4 PUSH2 0x9BC JUMP JUMPDEST JUMPDEST PUSH0 PUSH2 0xBB2 DUP8 DUP3 DUP9 ADD PUSH2 0xA0A JUMP JUMPDEST SWAP5 POP POP PUSH1 0x20 PUSH2 0xBC3 DUP8 DUP3 DUP9 ADD PUSH2 0xA0A JUMP JUMPDEST SWAP4 POP POP PUSH1 0x40 PUSH2 0xBD4 DUP8 DUP3 DUP9 ADD PUSH2 0xA3D JUMP JUMPDEST SWAP3 POP POP PUSH1 0x60 DUP6 ADD CALLDATALOAD PUSH8 0xFFFFFFFFFFFFFFFF DUP2 GT ISZERO PUSH2 0xBF5 JUMPI PUSH2 0xBF4 PUSH2 0x9C0 JUMP JUMPDEST JUMPDEST PUSH2 0xC01 DUP8 DUP3 DUP9 ADD PUSH2 0xB60 JUMP JUMPDEST SWAP2 POP POP SWAP3 SWAP6 SWAP2 SWAP5 POP SWAP3 POP JUMP JUMPDEST PUSH0 PUSH32 0xFFFFFFFF00000000000000000000000000000000000000000000000000000000 DUP3 AND SWAP1 POP SWAP2 SWAP1 POP JUMP JUMPDEST PUSH2 0xC41 DUP2 PUSH2 0xC0D JUMP JUMPDEST DUP3 MSTORE POP POP JUMP JUMPDEST PUSH0 PUSH1 0x20 DUP3 ADD SWAP1 POP PUSH2 0xC5A PUSH0 DUP4 ADD DUP5 PUSH2 0xC38 JUMP JUMPDEST SWAP3 SWAP2 POP POP JUMP JUMPDEST PUSH0 PUSH1 0x20 DUP3 DUP5 SUB SLT ISZERO PUSH2 0xC75 JUMPI PUSH2 0xC74 PUSH2 0x9BC JUMP JUMPDEST JUMPDEST PUSH0 PUSH2 0xC82 DUP5 DUP3 DUP6 ADD PUSH2 0xA3D JUMP JUMPDEST SWAP2 POP POP SWAP3 SWAP2 POP POP JUMP JUMPDEST PUSH0 DUP2 SWAP1 POP SWAP2 SWAP1 POP JUMP JUMPDEST PUSH0 PUSH2 0xCAE PUSH2 0xCA9 PUSH2 0xCA4 DUP5 PUSH2 0x9C4 JUMP JUMPDEST PUSH2 0xC8B JUMP JUMPDEST PUSH2 0x9C4 JUMP JUMPDEST SWAP1 POP SWAP2 SWAP1 POP JUMP JUMPDEST PUSH0 PUSH2 0xCBF DUP3 PUSH2 0xC94 JUMP JUMPDEST SWAP1 POP SWAP2 SWAP1 POP JUMP JUMPDEST PUSH0 PUSH2 0xCD0 DUP3 PUSH2 0xCB5 JUMP JUMPDEST SWAP1 POP SWAP2 SWAP1 POP JUMP JUMPDEST PUSH2 0xCE0 DUP2 PUSH2 0xCC6 JUMP JUMPDEST DUP3 MSTORE POP POP JUMP JUMPDEST PUSH0 PUSH1 0x20 DUP3 ADD SWAP1 POP PUSH2 0xCF9 PUSH0 DUP4 ADD DUP5 PUSH2 0xCD7 JUMP JUMPDEST SWAP3 SWAP2 POP POP JUMP JUMPDEST PUSH2 0xD08 DUP2 PUSH2 0xA1E JUMP JUMPDEST DUP3 MSTORE POP POP JUMP JUMPDEST PUSH0 PUSH1 0x20 DUP3 ADD SWAP1 POP PUSH2 0xD21 PUSH0 DUP4 ADD DUP5 PUSH2 0xCFF JUMP JUMPDEST SWAP3 SWAP2 POP POP JUMP JUMPDEST PUSH2 0xD30 DUP2 PUSH2 0x9E3 JUMP JUMPDEST DUP3 MSTORE POP POP JUMP JUMPDEST PUSH0 PUSH1 0x40 DUP3 ADD SWAP1 POP PUSH2 0xD49 PUSH0 DUP4 ADD DUP6 PUSH2 0xD27 JUMP JUMPDEST PUSH2 0xD56 PUSH1 0x20 DUP4 ADD DUP5 PUSH2 0xCFF JUMP JUMPDEST SWAP4 SWAP3 POP POP POP JUMP JUMPDEST PUSH0 PUSH2 0xD67 DUP3 PUSH2 0xCB5 JUMP JUMPDEST SWAP1 POP SWAP2 SWAP1 POP JUMP JUMPDEST PUSH2 0xD77 DUP2 PUSH2 0xD5D JUMP JUMPDEST DUP3 MSTORE POP POP JUMP JUMPDEST PUSH0 PUSH1 0x20 DUP3 ADD SWAP1 POP PUSH2 0xD90 PUSH0 DUP4 ADD DUP5 PUSH2 0xD6E JUMP JUMPDEST SWAP3 SWAP2 POP POP JUMP JUMPDEST PUSH0 DUP3 DUP3 MSTORE PUSH1 0x20 DUP3 ADD SWAP1 POP SWAP3 SWAP2 POP POP JUMP JUMPDEST PUSH32 0x4E6F74206F776E65720000000000000000000000000000000000000000000000 PUSH0 DUP3 ADD MSTORE POP JUMP JUMPDEST PUSH0 PUSH2 0xDDA PUSH1 0x9 DUP4 PUSH2 0xD96 JUMP JUMPDEST SWAP2 POP PUSH2 0xDE5 DUP3 PUSH2 0xDA6 JUMP JUMPDEST PUSH1 0x20 DUP3 ADD SWAP1 POP SWAP2 SWAP1 POP JUMP JUMPDEST PUSH0 PUSH1 0x20 DUP3 ADD SWAP1 POP DUP2 DUP2 SUB PUSH0 DUP4 ADD MSTORE PUSH2 0xE07 DUP2 PUSH2 0xDCE JUMP JUMPDEST SWAP1 POP SWAP2 SWAP1 POP JUMP JUMPDEST PUSH0 PUSH1 0x20 DUP3 ADD SWAP1 POP PUSH2 0xE21 PUSH0 DUP4 ADD DUP5 PUSH2 0xD27 JUMP JUMPDEST SWAP3 SWAP2 POP POP JUMP JUMPDEST PUSH0 DUP2 MLOAD SWAP1 POP PUSH2 0xE35 DUP2 PUSH2 0xA27 JUMP JUMPDEST SWAP3 SWAP2 POP POP JUMP JUMPDEST PUSH0 PUSH1 0x20 DUP3 DUP5 SUB SLT ISZERO PUSH2 0xE50 JUMPI PUSH2 0xE4F PUSH2 0x9BC JUMP JUMPDEST JUMPDEST PUSH0 PUSH2 0xE5D DUP5 DUP3 DUP6 ADD PUSH2 0xE27 JUMP JUMPDEST SWAP2 POP POP SWAP3 SWAP2 POP POP JUMP JUMPDEST PUSH32 0x496E73756666696369656E742072657761726420706F6F6C0000000000000000 PUSH0 DUP3 ADD MSTORE POP JUMP JUMPDEST PUSH0 PUSH2 0xE9A PUSH1 0x18 DUP4 PUSH2 0xD96 JUMP JUMPDEST SWAP2 POP PUSH2 0xEA5 DUP3 PUSH2 0xE66 JUMP JUMPDEST PUSH1 0x20 DUP3 ADD SWAP1 POP SWAP2 SWAP1 POP JUMP JUMPDEST PUSH0 PUSH1 0x20 DUP3 ADD SWAP1 POP DUP2 DUP2 SUB PUSH0 DUP4 ADD MSTORE PUSH2 0xEC7 DUP2 PUSH2 0xE8E JUMP JUMPDEST SWAP1 POP SWAP2 SWAP1 POP JUMP JUMPDEST PUSH0 DUP2 ISZERO ISZERO SWAP1 POP SWAP2 SWAP1 POP JUMP JUMPDEST PUSH2 0xEE2 DUP2 PUSH2 0xECE JUMP JUMPDEST DUP2 EQ PUSH2 0xEEC JUMPI PUSH0 PUSH0 REVERT JUMPDEST POP JUMP JUMPDEST PUSH0 DUP2 MLOAD SWAP1 POP PUSH2 0xEFD DUP2 PUSH2 0xED9 JUMP JUMPDEST SWAP3 SWAP2 POP POP JUMP JUMPDEST PUSH0 PUSH1 0x20 DUP3 DUP5 SUB SLT ISZERO PUSH2 0xF18 JUMPI PUSH2 0xF17 PUSH2 0x9BC JUMP JUMPDEST JUMPDEST PUSH0 PUSH2 0xF25 DUP5 DUP3 DUP6 ADD PUSH2 0xEEF JUMP JUMPDEST SWAP2 POP POP SWAP3 SWAP2 POP POP JUMP JUMPDEST PUSH0 PUSH1 0x60 DUP3 ADD SWAP1 POP PUSH2 0xF41 PUSH0 DUP4 ADD DUP7 PUSH2 0xD27 JUMP JUMPDEST PUSH2 0xF4E PUSH1 0x20 DUP4 ADD DUP6 PUSH2 0xD27 JUMP JUMPDEST PUSH2 0xF5B PUSH1 0x40 DUP4 ADD DUP5 PUSH2 0xCFF JUMP JUMPDEST SWAP5 SWAP4 POP POP POP POP JUMP JUMPDEST PUSH32 0x4E487B7100000000000000000000000000000000000000000000000000000000 PUSH0 MSTORE PUSH1 0x11 PUSH1 0x4 MSTORE PUSH1 0x24 PUSH0 REVERT JUMPDEST PUSH0 PUSH2 0xF9A DUP3 PUSH2 0xA1E JUMP JUMPDEST SWAP2 POP PUSH2 0xFA5 DUP4 PUSH2 0xA1E JUMP JUMPDEST SWAP3 POP DUP3 DUP3 SUB SWAP1 POP DUP2 DUP2 GT ISZERO PUSH2 0xFBD JUMPI PUSH2 0xFBC PUSH2 0xF63 JUMP JUMPDEST JUMPDEST SWAP3 SWAP2 POP POP JUMP JUMPDEST PUSH0 PUSH2 0xFCD DUP3 PUSH2 0xA1E JUMP JUMPDEST SWAP2 POP PUSH2 0xFD8 DUP4 PUSH2 0xA1E JUMP JUMPDEST SWAP3 POP DUP3 DUP3 MUL PUSH2 0xFE6 DUP2 PUSH2 0xA1E JUMP JUMPDEST SWAP2 POP DUP3 DUP3 DIV DUP5 EQ DUP4 ISZERO OR PUSH2 0xFFD JUMPI PUSH2 0xFFC PUSH2 0xF63 JUMP JUMPDEST JUMPDEST POP SWAP3 SWAP2 POP POP JUMP JUMPDEST PUSH32 0x4E487B7100000000000000000000000000000000000000000000000000000000 PUSH0 MSTORE PUSH1 0x12 PUSH1 0x4 MSTORE PUSH1 0x24 PUSH0 REVERT JUMPDEST PUSH0 PUSH2 0x103B DUP3 PUSH2 0xA1E JUMP JUMPDEST SWAP2 POP PUSH2 0x1046 DUP4 PUSH2 0xA1E JUMP JUMPDEST SWAP3 POP DUP3 PUSH2 0x1056 JUMPI PUSH2 0x1055 PUSH2 0x1004 JUMP JUMPDEST JUMPDEST DUP3 DUP3 DIV SWAP1 POP SWAP3 SWAP2 POP POP JUMP INVALID LOG2 PUSH5 0x6970667358 0x22 SLT KECCAK256 0xC8 LOG2 0xC1 0xDA SWAP16 0xB1 0xC7 0xC LT PC 0xD2 SHL 0xE2 0xB5 SWAP6 EXTCODECOPY INVALID PUSH7 0xFE1914B953A764 0x2A PUSH5 0x787BAC8C0C PUSH5 0x736F6C6343 STOP ADDMOD 0x1E STOP CALLER "
		},
		"gasEstimates": {
			"creation": {
				"codeDepositCost": "116400",
				"executionCost": "infinite",
				"totalCost": "infinite"
			},
			"external": {
				"nft()": "infinite",
				"staking()": "infinite",
				"token()": "infinite"
			}
		},
		"methodIdentifiers": {
			"nft()": "47ccca02",
			"staking()": "4cf088d9",
			"token()": "fc0c546a"
		}
	},
	"abi": [
		{
			"inputs": [],
			"stateMutability": "nonpayable",
			"type": "constructor"
		},
		{
			"inputs": [],
			"name": "nft",
			"outputs": [
				{
					"internalType": "contract MyNFT",
					"name": "",
					"type": "address"
				}
			],
			"stateMutability": "view",
			"type": "function"
		},
		{
			"inputs": [],
			"name": "staking",
			"outputs": [
				{
					"internalType": "contract NFTStaking",
					"name": "",
					"type": "address"
				}
			],
			"stateMutability": "view",
			"type": "function"
		},
		{
			"inputs": [],
			"name": "token",
			"outputs": [
				{
					"internalType": "contract RewardToken",
					"name": "",
					"type": "address"
				}
			],
			"stateMutability": "view",
			"type": "function"
		}
	]
}