{
	"data": {
		"bytecode": {
			"linkReferences": {},
			"object": "60c060405234801561000f575f5ffd5b5060405161121e38038061121e833981810160405281019061003191906100fe565b8173ffffffffffffffffffffffffffffffffffffffff1660808173ffffffffffffffffffffffffffffffffffffffff16815250508073ffffffffffffffffffffffffffffffffffffffff1660a08173ffffffffffffffffffffffffffffffffffffffff1681525050505061013c565b5f5ffd5b5f73ffffffffffffffffffffffffffffffffffffffff82169050919050565b5f6100cd826100a4565b9050919050565b6100dd816100c3565b81146100e7575f5ffd5b50565b5f815190506100f8816100d4565b92915050565b5f5f60408385031215610114576101136100a0565b5b5f610121858286016100ea565b9250506020610132858286016100ea565b9150509250929050565b60805160a0516110976101875f395f81816102d8015281816103b10152818161058c0152818161066e015261099101525f818161044d0152818161070f015261083a01526110975ff3fe608060405234801561000f575f5ffd5b5060043610610091575f3560e01c80637dcb2abf116100645780637dcb2abf1461011b5780638141feb31461014b578063a694fc3a14610169578063d5a44f8614610185578063f7c618c1146101b657610091565b8063150b7a02146100955780632e17de78146100c5578063379607f5146100e157806347ccca02146100fd575b5f5ffd5b6100af60048036038101906100aa9190610b8d565b6101d4565b6040516100bc9190610c47565b60405180910390f35b6100df60048036038101906100da9190610c60565b6101e7565b005b6100fb60048036038101906100f69190610c60565b6104da565b005b61010561070d565b6040516101129190610ce6565b60405180910390f35b61013560048036038101906101309190610c60565b610731565b6040516101429190610d0e565b60405180910390f35b61015361082c565b6040516101609190610d0e565b60405180910390f35b610183600480360381019061017e9190610c60565b610838565b005b61019f600480360381019061019a9190610c60565b610951565b6040516101ad929190610d36565b60405180910390f35b6101be61098f565b6040516101cb9190610d7d565b60405180910390f35b5f63150b7a0260e01b9050949350505050565b5f5f5f8381526020019081526020015f2090503373ffffffffffffffffffffffffffffffffffffffff16815f015f9054906101000a900473ffffffffffffffffffffffffffffffffffffffff1673ffffffffffffffffffffffffffffffffffffffff161461028a576040517f08c379a000000000000000000000000000000000000000000000000000000000815260040161028190610df0565b60405180910390fd5b5f61029483610731565b90505f5f8481526020019081526020015f205f5f82015f6101000a81549073ffffffffffffffffffffffffffffffffffffffff0219169055600182015f90555050807f000000000000000000000000000000000000000000000000000000000000000073ffffffffffffffffffffffffffffffffffffffff166370a08231306040518263ffffffff1660e01b815260040161032f9190610e0e565b602060405180830381865afa15801561034a573d5f5f3e3d5ffd5b505050506040513d601f19601f8201168201806040525081019061036e9190610e3b565b10156103af576040517f08c379a00000000000000000000000000000000000000000000000000000000081526004016103a690610eb0565b60405180910390fd5b7f000000000000000000000000000000000000000000000000000000000000000073ffffffffffffffffffffffffffffffffffffffff1663a9059cbb33836040518363ffffffff1660e01b815260040161040a929190610d36565b6020604051808303815f875af1158015610426573d5f5f3e3d5ffd5b505050506040513d601f19601f8201168201806040525081019061044a9190610f03565b507f000000000000000000000000000000000000000000000000000000000000000073ffffffffffffffffffffffffffffffffffffffff166342842e0e3033866040518463ffffffff1660e01b81526004016104a893929190610f2e565b5f604051808303815f87803b1580156104bf575f5ffd5b505af11580156104d1573d5f5f3e3d5ffd5b50505050505050565b5f5f5f8381526020019081526020015f2090503373ffffffffffffffffffffffffffffffffffffffff16815f015f9054906101000a900473ffffffffffffffffffffffffffffffffffffffff1673ffffffffffffffffffffffffffffffffffffffff161461057d576040517f08c379a000000000000000000000000000000000000000000000000000000000815260040161057490610df0565b60405180910390fd5b5f61058783610731565b9050807f000000000000000000000000000000000000000000000000000000000000000073ffffffffffffffffffffffffffffffffffffffff166370a08231306040518263ffffffff1660e01b81526004016105e39190610e0e565b602060405180830381865afa1580156105fe573d5f5f3e3d5ffd5b505050506040513d601f19601f820116820180604052508101906106229190610e3b565b1015610663576040517f08c379a000000000000000000000000000000000000000000000000000000000815260040161065a90610eb0565b60405180910390fd5b4282600101819055507f000000000000000000000000000000000000000000000000000000000000000073ffffffffffffffffffffffffffffffffffffffff1663a9059cbb33836040518363ffffffff1660e01b81526004016106c7929190610d36565b6020604051808303815f875af11580156106e3573d5f5f3e3d5ffd5b505050506040513d601f19601f820116820180604052508101906107079190610f03565b50505050565b7f000000000000000000000000000000000000000000000000000000000000000081565b5f5f5f5f8481526020019081526020015f206040518060400160405290815f82015f9054906101000a900473ffffffffffffffffffffffffffffffffffffffff1673ffffffffffffffffffffffffffffffffffffffff1673ffffffffffffffffffffffffffffffffffffffff16815260200160018201548152505090505f73ffffffffffffffffffffffffffffffffffffffff16815f015173ffffffffffffffffffffffffffffffffffffffff16036107ed575f915050610827565b5f8160200151426107fe9190610f90565b905062015180678ac7230489e80000826108189190610fc3565b6108229190611031565b925050505b919050565b678ac7230489e8000081565b7f000000000000000000000000000000000000000000000000000000000000000073ffffffffffffffffffffffffffffffffffffffff166342842e0e3330846040518463ffffffff1660e01b815260040161089593929190610f2e565b5f604051808303815f87803b1580156108ac575f5ffd5b505af11580156108be573d5f5f3e3d5ffd5b5050505060405180604001604052803373ffffffffffffffffffffffffffffffffffffffff168152602001428152505f5f8381526020019081526020015f205f820151815f015f6101000a81548173ffffffffffffffffffffffffffffffffffffffff021916908373ffffffffffffffffffffffffffffffffffffffff1602179055506020820151816001015590505050565b5f602052805f5260405f205f91509050805f015f9054906101000a900473ffffffffffffffffffffffffffffffffffffffff16908060010154905082565b7f000000000000000000000000000000000000000000000000000000000000000081565b5f604051905090565b5f5ffd5b5f5ffd5b5f73ffffffffffffffffffffffffffffffffffffffff82169050919050565b5f6109ed826109c4565b9050919050565b6109fd816109e3565b8114610a07575f5ffd5b50565b5f81359050610a18816109f4565b92915050565b5f819050919050565b610a3081610a1e565b8114610a3a575f5ffd5b50565b5f81359050610a4b81610a27565b92915050565b5f5ffd5b5f5ffd5b5f601f19601f8301169050919050565b7f4e487b71000000000000000000000000000000000000000000000000000000005f52604160045260245ffd5b610a9f82610a59565b810181811067ffffffffffffffff82111715610abe57610abd610a69565b5b80604052505050565b5f610ad06109b3565b9050610adc8282610a96565b919050565b5f67ffffffffffffffff821115610afb57610afa610a69565b5b610b0482610a59565b9050602081019050919050565b828183375f83830152505050565b5f610b31610b2c84610ae1565b610ac7565b905082815260208101848484011115610b4d57610b4c610a55565b5b610b58848285610b11565b509392505050565b5f82601f830112610b7457610b73610a51565b5b8135610b84848260208601610b1f565b91505092915050565b5f5f5f5f60808587031215610ba557610ba46109bc565b5b5f610bb287828801610a0a565b9450506020610bc387828801610a0a565b9350506040610bd487828801610a3d565b925050606085013567ffffffffffffffff811115610bf557610bf46109c0565b5b610c0187828801610b60565b91505092959194509250565b5f7fffffffff0000000000000000000000000000000000000000000000000000000082169050919050565b610c4181610c0d565b82525050565b5f602082019050610c5a5f830184610c38565b92915050565b5f60208284031215610c7557610c746109bc565b5b5f610c8284828501610a3d565b91505092915050565b5f819050919050565b5f610cae610ca9610ca4846109c4565b610c8b565b6109c4565b9050919050565b5f610cbf82610c94565b9050919050565b5f610cd082610cb5565b9050919050565b610ce081610cc6565b82525050565b5f602082019050610cf95f830184610cd7565b92915050565b610d0881610a1e565b82525050565b5f602082019050610d215f830184610cff565b92915050565b610d30816109e3565b82525050565b5f604082019050610d495f830185610d27565b610d566020830184610cff565b9392505050565b5f610d6782610cb5565b9050919050565b610d7781610d5d565b82525050565b5f602082019050610d905f830184610d6e565b92915050565b5f82825260208201905092915050565b7f4e6f74206f776e657200000000000000000000000000000000000000000000005f82015250565b5f610dda600983610d96565b9150610de582610da6565b602082019050919050565b5f6020820190508181035f830152610e0781610dce565b9050919050565b5f602082019050610e215f830184610d27565b92915050565b5f81519050610e3581610a27565b92915050565b5f60208284031215610e5057610e4f6109bc565b5b5f610e5d84828501610e27565b91505092915050565b7f496e73756666696369656e742072657761726420706f6f6c00000000000000005f82015250565b5f610e9a601883610d96565b9150610ea582610e66565b602082019050919050565b5f6020820190508181035f830152610ec781610e8e565b9050919050565b5f8115159050919050565b610ee281610ece565b8114610eec575f5ffd5b50565b5f81519050610efd81610ed9565b92915050565b5f60208284031215610f1857610f176109bc565b5b5f610f2584828501610eef565b91505092915050565b5f606082019050610f415f830186610d27565b610f4e6020830185610d27565b610f5b6040830184610cff565b949350505050565b7f4e487b71000000000000000000000000000000000000000000000000000000005f52601160045260245ffd5b5f610f9a82610a1e565b9150610fa583610a1e565b9250828203905081811115610fbd57610fbc610f63565b5b92915050565b5f610fcd82610a1e565b9150610fd883610a1e565b9250828202610fe681610a1e565b91508282048414831517610ffd57610ffc610f63565b5b5092915050565b7f4e487b71000000000000000000000000000000000000000000000000000000005f52601260045260245ffd5b5f61103b82610a1e565b915061104683610a1e565b92508261105657611055611004565b5b82820490509291505056fea26469706673582212209dd4bfa8fe1b407f36dbcd6de0966bad5995e7a993767fb26d0a4f7371080a7764736f6c634300081e0033",
			"opcodes": "PUSH1 0xC0 PUSH1 0x40 MSTORE CALLVALUE DUP1 ISZERO PUSH2 0xF JUMPI PUSH0 PUSH0 REVERT JUMPDEST POP PUSH1 0x40 MLOAD PUSH2 0x121E CODESIZE SUB DUP1 PUSH2 0x121E DUP4 CODECOPY DUP2 DUP2 ADD PUSH1 0x40 MSTORE DUP2 ADD SWAP1 PUSH2 0x31 SWAP2 SWAP1 PUSH2 0xFE JUMP JUMPDEST DUP2 PUSH20 0xFFFFFFFFFFFFFFFFFFFFFFFFFFFFFFFFFFFFFFFF AND PUSH1 0x80 DUP2 PUSH20 0xFFFFFFFFFFFFFFFFFFFFFFFFFFFFFFFFFFFFFFFF AND DUP2 MSTORE POP POP DUP1 PUSH20 0xFFFFFFFFFFFFFFFFFFFFFFFFFFFFFFFFFFFFFFFF AND PUSH1 0xA0 DUP2 PUSH20 0xFFFFFFFFFFFFFFFFFFFFFFFFFFFFFFFFFFFFFFFF AND DUP2 MSTORE POP POP POP POP PUSH2 0x13C JUMP JUMPDEST PUSH0 PUSH0 REVERT JUMPDEST PUSH0 PUSH20 0xFFFFFFFFFFFFFFFFFFFFFFFFFFFFFFFFFFFFFFFF DUP3 AND SWAP1 POP SWAP2 SWAP1 POP JUMP JUMPDEST PUSH0 PUSH2 0xCD DUP3 PUSH2 0xA4 JUMP JUMPDEST SWAP1 POP SWAP2 SWAP1 POP JUMP JUMPDEST PUSH2 0xDD DUP2 PUSH2 0xC3 JUMP JUMPDEST DUP2 EQ PUSH2 0xE7 JUMPI PUSH0 PUSH0 REVERT JUMPDEST POP JUMP JUMPDEST PUSH0 DUP2 MLOAD SWAP1 POP PUSH2 0xF8 DUP2 PUSH2 0xD4 JUMP JUMPDEST SWAP3 SWAP2 POP POP JUMP JUMPDEST PUSH0 PUSH0 PUSH1 0x40 DUP4 DUP6 SUB SLT ISZERO PUSH2 0x114 JUMPI PUSH2 0x113 PUSH2 0xA0 JUMP JUMPDEST JUMPDEST PUSH0 PUSH2 0x121 DUP6 DUP3 DUP7 ADD PUSH2 0xEA JUMP JUMPDEST SWAP3 POP POP PUSH1 0x20 PUSH2 0x132 DUP6 DUP3 DUP7 ADD PUSH2 0xEA JUMP JUMPDEST SWAP2 POP POP SWAP3 POP SWAP3 SWAP1 POP JUMP JUMPDEST PUSH1 0x80 MLOAD PUSH1 0xA0 MLOAD PUSH2 0x1097 PUSH2 0x187 PUSH0 CODECOPY PUSH0 DUP2 DUP2 PUSH2 0x2D8 ADD MSTORE DUP2 DUP2 PUSH2 0x3B1 ADD MSTORE DUP2 DUP2 PUSH2 0x58C ADD MSTORE DUP2 DUP2 PUSH2 0x66E ADD MSTORE PUSH2 0x991 ADD MSTORE PUSH0 DUP2 DUP2 PUSH2 0x44D ADD MSTORE DUP2 DUP2 PUSH2 0x70F ADD MSTORE PUSH2 0x83A ADD MSTORE PUSH2 0x1097 PUSH0 RETURN INVALID PUSH1 0x80 PUSH1 0x40 MSTORE CALLVALUE DUP1 ISZERO PUSH2 0xF JUMPI PUSH0 PUSH0 REVERT JUMPDEST POP PUSH1 0x4 CALLDATASIZE LT PUSH2 0x91 JUMPI PUSH0 CALLDATALOAD PUSH1 0xE0 SHR DUP1 PUSH4 0x7DCB2ABF GT PUSH2 0x64 JUMPI DUP1 PUSH4 0x7DCB2ABF EQ PUSH2 0x11B JUMPI DUP1 PUSH4 0x8141FEB3 EQ PUSH2 0x14B JUMPI DUP1 PUSH4 0xA694FC3A EQ PUSH2 0x169 JUMPI DUP1 PUSH4 0xD5A44F86 EQ PUSH2 0x185 JUMPI DUP1 PUSH4 0xF7C618C1 EQ PUSH2 0x1B6 JUMPI PUSH2 0x91 JUMP JUMPDEST DUP1 PUSH4 0x150B7A02 EQ PUSH2 0x95 JUMPI DUP1 PUSH4 0x2E17DE78 EQ PUSH2 0xC5 JUMPI DUP1 PUSH4 0x379607F5 EQ PUSH2 0xE1 JUMPI DUP1 PUSH4 0x47CCCA02 EQ PUSH2 0xFD JUMPI JUMPDEST PUSH0 PUSH0 REVERT JUMPDEST PUSH2 0xAF PUSH1 0x4 DUP1 CALLDATASIZE SUB DUP2 ADD SWAP1 PUSH2 0xAA SWAP2 SWAP1 PUSH2 0xB8D JUMP JUMPDEST PUSH2 0x1D4 JUMP JUMPDEST PUSH1 0x40 MLOAD PUSH2 0xBC SWAP2 SWAP1 PUSH2 0xC47 JUMP JUMPDEST PUSH1 0x40 MLOAD DUP1 SWAP2 SUB SWAP1 RETURN JUMPDEST PUSH2 0xDF PUSH1 0x4 DUP1 CALLDATASIZE SUB DUP2 ADD SWAP1 PUSH2 0xDA SWAP2 SWAP1 PUSH2 0xC60 JUMP JUMPDEST PUSH2 0x1E7 JUMP JUMPDEST STOP JUMPDEST PUSH2 0xFB PUSH1 0x4 DUP1 CALLDATASIZE SUB DUP2 ADD SWAP1 PUSH2 0xF6 SWAP2 SWAP1 PUSH2 0xC60 JUMP JUMPDEST PUSH2 0x4DA JUMP JUMPDEST STOP JUMPDEST PUSH2 0x105 PUSH2 0x70D JUMP JUMPDEST PUSH1 0x40 MLOAD PUSH2 0x112 SWAP2 SWAP1 PUSH2 0xCE6 JUMP JUMPDEST PUSH1 0x40 MLOAD DUP1 SWAP2 SUB SWAP1 RETURN JUMPDEST PUSH2 0x135 PUSH1 0x4 DUP1 CALLDATASIZE SUB DUP2 ADD SWAP1 PUSH2 0x130 SWAP2 SWAP1 PUSH2 0xC60 JUMP JUMPDEST PUSH2 0x731 JUMP JUMPDEST PUSH1 0x40 MLOAD PUSH2 0x142 SWAP2 SWAP1 PUSH2 0xD0E JUMP JUMPDEST PUSH1 0x40 MLOAD DUP1 SWAP2 SUB SWAP1 RETURN JUMPDEST PUSH2 0x153 PUSH2 0x82C JUMP JUMPDEST PUSH1 0x40 MLOAD PUSH2 0x160 SWAP2 SWAP1 PUSH2 0xD0E JUMP JUMPDEST PUSH1 0x40 MLOAD DUP1 SWAP2 SUB SWAP1 RETURN JUMPDEST PUSH2 0x183 PUSH1 0x4 DUP1 CALLDATASIZE SUB DUP2 ADD SWAP1 PUSH2 0x17E SWAP2 SWAP1 PUSH2 0xC60 JUMP JUMPDEST PUSH2 0x838 JUMP JUMPDEST STOP JUMPDEST PUSH2 0x19F PUSH1 0x4 DUP1 CALLDATASIZE SUB DUP2 ADD SWAP1 PUSH2 0x19A SWAP2 SWAP1 PUSH2 0xC60 JUMP JUMPDEST PUSH2 0x951 JUMP JUMPDEST PUSH1 0x40 MLOAD PUSH2 0x1AD SWAP3 SWAP2 SWAP1 PUSH2 0xD36 JUMP JUMPDEST PUSH1 0x40 MLOAD DUP1 SWAP2 SUB SWAP1 RETURN JUMPDEST PUSH2 0x1BE PUSH2 0x98F JUMP JUMPDEST PUSH1 0x40 MLOAD PUSH2 0x1CB SWAP2 SWAP1 PUSH2 0xD7D JUMP JUMPDEST PUSH1 0x40 MLOAD DUP1 SWAP2 SUB SWAP1 RETURN JUMPDEST PUSH0 PUSH4 0x150B7A02 PUSH1 0xE0 SHL SWAP1 POP SWAP5 SWAP4 POP POP POP POP JUMP JUMPDEST PUSH0 PUSH0 PUSH0 DUP4 DUP2 MSTORE PUSH1 0x20 ADD SWAP1 DUP2 MSTORE PUSH1 0x20 ADD PUSH0 KECCAK256 SWAP1 POP CALLER PUSH20 0xFFFFFFFFFFFFFFFFFFFFFFFFFFFFFFFFFFFFFFFF AND DUP2 PUSH0 ADD PUSH0 SWAP1 SLOAD SWAP1 PUSH2 0x100 EXP SWAP1 DIV PUSH20 0xFFFFFFFFFFFFFFFFFFFFFFFFFFFFFFFFFFFFFFFF AND PUSH20 0xFFFFFFFFFFFFFFFFFFFFFFFFFFFFFFFFFFFFFFFF AND EQ PUSH2 0x28A JUMPI PUSH1 0x40 MLOAD PUSH32 0x8C379A000000000000000000000000000000000000000000000000000000000 DUP2 MSTORE PUSH1 0x4 ADD PUSH2 0x281 SWAP1 PUSH2 0xDF0 JUMP JUMPDEST PUSH1 0x40 MLOAD DUP1 SWAP2 SUB SWAP1 REVERT JUMPDEST PUSH0 PUSH2 0x294 DUP4 PUSH2 0x731 JUMP JUMPDEST SWAP1 POP PUSH0 PUSH0 DUP5 DUP2 MSTORE PUSH1 0x20 ADD SWAP1 DUP2 MSTORE PUSH1 0x20 ADD PUSH0 KECCAK256 PUSH0 PUSH0 DUP3 ADD PUSH0 PUSH2 0x100 EXP DUP2 SLOAD SWAP1 PUSH20 0xFFFFFFFFFFFFFFFFFFFFFFFFFFFFFFFFFFFFFFFF MUL NOT AND SWAP1 SSTORE PUSH1 0x1 DUP3 ADD PUSH0 SWAP1 SSTORE POP POP DUP1 PUSH32 0x0 PUSH20 0xFFFFFFFFFFFFFFFFFFFFFFFFFFFFFFFFFFFFFFFF AND PUSH4 0x70A08231 ADDRESS PUSH1 0x40 MLOAD DUP3 PUSH4 0xFFFFFFFF AND PUSH1 0xE0 SHL DUP2 MSTORE PUSH1 0x4 ADD PUSH2 0x32F SWAP2 SWAP1 PUSH2 0xE0E JUMP JUMPDEST PUSH1 0x20 PUSH1 0x40 MLOAD DUP1 DUP4 SUB DUP2 DUP7 GAS STATICCALL ISZERO DUP1 ISZERO PUSH2 0x34A JUMPI RETURNDATASIZE PUSH0 PUSH0 RETURNDATACOPY RETURNDATASIZE PUSH0 REVERT JUMPDEST POP POP POP POP PUSH1 0x40 MLOAD RETURNDATASIZE PUSH1 0x1F NOT PUSH1 0x1F DUP3 ADD AND DUP3 ADD DUP1 PUSH1 0x40 MSTORE POP DUP2 ADD SWAP1 PUSH2 0x36E SWAP2 SWAP1 PUSH2 0xE3B JUMP JUMPDEST LT ISZERO PUSH2 0x3AF JUMPI PUSH1 0x40 MLOAD PUSH32 0x8C379A000000000000000000000000000000000000000000000000000000000 DUP2 MSTORE PUSH1 0x4 ADD PUSH2 0x3A6 SWAP1 PUSH2 0xEB0 JUMP JUMPDEST PUSH1 0x40 MLOAD DUP1 SWAP2 SUB SWAP1 REVERT JUMPDEST PUSH32 0x0 PUSH20 0xFFFFFFFFFFFFFFFFFFFFFFFFFFFFFFFFFFFFFFFF AND PUSH4 0xA9059CBB CALLER DUP4 PUSH1 0x40 MLOAD DUP4 PUSH4 0xFFFFFFFF AND PUSH1 0xE0 SHL DUP2 MSTORE PUSH1 0x4 ADD PUSH2 0x40A SWAP3 SWAP2 SWAP1 PUSH2 0xD36 JUMP JUMPDEST PUSH1 0x20 PUSH1 0x40 MLOAD DUP1 DUP4 SUB DUP2 PUSH0 DUP8 GAS CALL ISZERO DUP1 ISZERO PUSH2 0x426 JUMPI RETURNDATASIZE PUSH0 PUSH0 RETURNDATACOPY RETURNDATASIZE PUSH0 REVERT JUMPDEST POP POP POP POP PUSH1 0x40 MLOAD RETURNDATASIZE PUSH1 0x1F NOT PUSH1 0x1F DUP3 ADD AND DUP3 ADD DUP1 PUSH1 0x40 MSTORE POP DUP2 ADD SWAP1 PUSH2 0x44A SWAP2 SWAP1 PUSH2 0xF03 JUMP JUMPDEST POP PUSH32 0x0 PUSH20 0xFFFFFFFFFFFFFFFFFFFFFFFFFFFFFFFFFFFFFFFF AND PUSH4 0x42842E0E ADDRESS CALLER DUP7 PUSH1 0x40 MLOAD DUP5 PUSH4 0xFFFFFFFF AND PUSH1 0xE0 SHL DUP2 MSTORE PUSH1 0x4 ADD PUSH2 0x4A8 SWAP4 SWAP3 SWAP2 SWAP1 PUSH2 0xF2E JUMP JUMPDEST PUSH0 PUSH1 0x40 MLOAD DUP1 DUP4 SUB DUP2 PUSH0 DUP8 DUP1 EXTCODESIZE ISZERO DUP1 ISZERO PUSH2 0x4BF JUMPI PUSH0 PUSH0 REVERT JUMPDEST POP GAS CALL ISZERO DUP1 ISZERO PUSH2 0x4D1 JUMPI RETURNDATASIZE PUSH0 PUSH0 RETURNDATACOPY RETURNDATASIZE PUSH0 REVERT JUMPDEST POP POP POP POP POP POP POP JUMP JUMPDEST PUSH0 PUSH0 PUSH0 DUP4 DUP2 MSTORE PUSH1 0x20 ADD SWAP1 DUP2 MSTORE PUSH1 0x20 ADD PUSH0 KECCAK256 SWAP1 POP CALLER PUSH20 0xFFFFFFFFFFFFFFFFFFFFFFFFFFFFFFFFFFFFFFFF AND DUP2 PUSH0 ADD PUSH0 SWAP1 SLOAD SWAP1 PUSH2 0x100 EXP SWAP1 DIV PUSH20 0xFFFFFFFFFFFFFFFFFFFFFFFFFFFFFFFFFFFFFFFF AND PUSH20 0xFFFFFFFFFFFFFFFFFFFFFFFFFFFFFFFFFFFFFFFF AND EQ PUSH2 0x57D JUMPI PUSH1 0x40 MLOAD PUSH32 0x8C379A000000000000000000000000000000000000000000000000000000000 DUP2 MSTORE PUSH1 0x4 ADD PUSH2 0x574 SWAP1 PUSH2 0xDF0 JUMP JUMPDEST PUSH1 0x40 MLOAD DUP1 SWAP2 SUB SWAP1 REVERT JUMPDEST PUSH0 PUSH2 0x587 DUP4 PUSH2 0x731 JUMP JUMPDEST SWAP1 POP DUP1 PUSH32 0x0 PUSH20 0xFFFFFFFFFFFFFFFFFFFFFFFFFFFFFFFFFFFFFFFF AND PUSH4 0x70A08231 ADDRESS PUSH1 0x40 MLOAD DUP3 PUSH4 0xFFFFFFFF AND PUSH1 0xE0 SHL DUP2 MSTORE PUSH1 0x4 ADD PUSH2 0x5E3 SWAP2 SWAP1 PUSH2 0xE0E JUMP JUMPDEST PUSH1 0x20 PUSH1 0x40 MLOAD DUP1 DUP4 SUB DUP2 DUP7 GAS STATICCALL ISZERO DUP1 ISZERO PUSH2 0x5FE JUMPI RETURNDATASIZE PUSH0 PUSH0 RETURNDATACOPY RETURNDATASIZE PUSH0 REVERT JUMPDEST POP POP POP POP PUSH1 0x40 MLOAD RETURNDATASIZE PUSH1 0x1F NOT PUSH1 0x1F DUP3 ADD AND DUP3 ADD DUP1 PUSH1 0x40 MSTORE POP DUP2 ADD SWAP1 PUSH2 0x622 SWAP2 SWAP1 PUSH2 0xE3B JUMP JUMPDEST LT ISZERO PUSH2 0x663 JUMPI PUSH1 0x40 MLOAD PUSH32 0x8C379A000000000000000000000000000000000000000000000000000000000 DUP2 MSTORE PUSH1 0x4 ADD PUSH2 0x65A SWAP1 PUSH2 0xEB0 JUMP JUMPDEST PUSH1 0x40 MLOAD DUP1 SWAP2 SUB SWAP1 REVERT JUMPDEST TIMESTAMP DUP3 PUSH1 0x1 ADD DUP2 SWAP1 SSTORE POP PUSH32 0x0 PUSH20 0xFFFFFFFFFFFFFFFFFFFFFFFFFFFFFFFFFFFFFFFF AND PUSH4 0xA9059CBB CALLER DUP4 PUSH1 0x40 MLOAD DUP4 PUSH4 0xFFFFFFFF AND PUSH1 0xE0 SHL DUP2 MSTORE PUSH1 0x4 ADD PUSH2 0x6C7 SWAP3 SWAP2 SWAP1 PUSH2 0xD36 JUMP JUMPDEST PUSH1 0x20 PUSH1 0x40 MLOAD DUP1 DUP4 SUB DUP2 PUSH0 DUP8 GAS CALL ISZERO DUP1 ISZERO PUSH2 0x6E3 JUMPI RETURNDATASIZE PUSH0 PUSH0 RETURNDATACOPY RETURNDATASIZE PUSH0 REVERT JUMPDEST POP POP POP POP PUSH1 0x40 MLOAD RETURNDATASIZE PUSH1 0x1F NOT PUSH1 0x1F DUP3 ADD AND DUP3 ADD DUP1 PUSH1 0x40 MSTORE POP DUP2 ADD SWAP1 PUSH2 0x707 SWAP2 SWAP1 PUSH2 0xF03 JUMP JUMPDEST POP POP POP POP JUMP JUMPDEST PUSH32 0x0 DUP2 JUMP JUMPDEST PUSH0 PUSH0 PUSH0 PUSH0 DUP5 DUP2 MSTORE PUSH1 0x20 ADD SWAP1 DUP2 MSTORE PUSH1 0x20 ADD PUSH0 KECCAK256 PUSH1 0x40 MLOAD DUP1 PUSH1 0x40 ADD PUSH1 0x40 MSTORE SWAP1 DUP2 PUSH0 DUP3 ADD PUSH0 SWAP1 SLOAD SWAP1 PUSH2 0x100 EXP SWAP1 DIV PUSH20 0xFFFFFFFFFFFFFFFFFFFFFFFFFFFFFFFFFFFFFFFF AND PUSH20 0xFFFFFFFFFFFFFFFFFFFFFFFFFFFFFFFFFFFFFFFF AND PUSH20 0xFFFFFFFFFFFFFFFFFFFFFFFFFFFFFFFFFFFFFFFF AND DUP2 MSTORE PUSH1 0x20 ADD PUSH1 0x1 DUP3 ADD SLOAD DUP2 MSTORE POP POP SWAP1 POP PUSH0 PUSH20 0xFFFFFFFFFFFFFFFFFFFFFFFFFFFFFFFFFFFFFFFF AND DUP2 PUSH0 ADD MLOAD PUSH20 0xFFFFFFFFFFFFFFFFFFFFFFFFFFFFFFFFFFFFFFFF AND SUB PUSH2 0x7ED JUMPI PUSH0 SWAP2 POP POP PUSH2 0x827 JUMP JUMPDEST PUSH0 DUP2 PUSH1 0x20 ADD MLOAD TIMESTAMP PUSH2 0x7FE SWAP2 SWAP1 PUSH2 0xF90 JUMP JUMPDEST SWAP1 POP PUSH3 0x15180 PUSH8 0x8AC7230489E80000 DUP3 PUSH2 0x818 SWAP2 SWAP1 PUSH2 0xFC3 JUMP JUMPDEST PUSH2 0x822 SWAP2 SWAP1 PUSH2 0x1031 JUMP JUMPDEST SWAP3 POP POP POP JUMPDEST SWAP2 SWAP1 POP JUMP JUMPDEST PUSH8 0x8AC7230489E80000 DUP2 JUMP JUMPDEST PUSH32 0x0 PUSH20 0xFFFFFFFFFFFFFFFFFFFFFFFFFFFFFFFFFFFFFFFF AND PUSH4 0x42842E0E CALLER ADDRESS DUP5 PUSH1 0x40 MLOAD DUP5 PUSH4 0xFFFFFFFF AND PUSH1 0xE0 SHL DUP2 MSTORE PUSH1 0x4 ADD PUSH2 0x895 SWAP4 SWAP3 SWAP2 SWAP1 PUSH2 0xF2E JUMP JUMPDEST PUSH0 PUSH1 0x40 MLOAD DUP1 DUP4 SUB DUP2 PUSH0 DUP8 DUP1 EXTCODESIZE ISZERO DUP1 ISZERO PUSH2 0x8AC JUMPI PUSH0 PUSH0 REVERT JUMPDEST POP GAS CALL ISZERO DUP1 ISZERO PUSH2 0x8BE JUMPI RETURNDATASIZE PUSH0 PUSH0 RETURNDATACOPY RETURNDATASIZE PUSH0 REVERT JUMPDEST POP POP POP POP PUSH1 0x40 MLOAD DUP1 PUSH1 0x40 ADD PUSH1 0x40 MSTORE DUP1 CALLER PUSH20 0xFFFFFFFFFFFFFFFFFFFFFFFFFFFFFFFFFFFFFFFF AND DUP2 MSTORE PUSH1 0x20 ADD TIMESTAMP DUP2 MSTORE POP PUSH0 PUSH0 DUP4 DUP2 MSTORE PUSH1 0x20 ADD SWAP1 DUP2 MSTORE PUSH1 0x20 ADD PUSH0 KECCAK256 PUSH0 DUP3 ADD MLOAD DUP2 PUSH0 ADD PUSH0 PUSH2 0x100 EXP DUP2 SLOAD DUP2 PUSH20 0xFFFFFFFFFFFFFFFFFFFFFFFFFFFFFFFFFFFFFFFF MUL NOT AND SWAP1 DUP4 PUSH20 0xFFFFFFFFFFFFFFFFFFFFFFFFFFFFFFFFFFFFFFFF AND MUL OR SWAP1 SSTORE POP PUSH1 0x20 DUP3 ADD MLOAD DUP2 PUSH1 0x1 ADD SSTORE SWAP1 POP POP POP JUMP JUMPDEST PUSH0 PUSH1 0x20 MSTORE DUP1 PUSH0 MSTORE PUSH1 0x40 PUSH0 KECCAK256 PUSH0 SWAP2 POP SWAP1 POP DUP1 PUSH0 ADD PUSH0 SWAP1 SLOAD SWAP1 PUSH2 0x100 EXP SWAP1 DIV PUSH20 0xFFFFFFFFFFFFFFFFFFFFFFFFFFFFFFFFFFFFFFFF AND SWAP1 DUP1 PUSH1 0x1 ADD SLOAD SWAP1 POP DUP3 JUMP JUMPDEST PUSH32 0x0 DUP2 JUMP JUMPDEST PUSH0 PUSH1 0x40 MLOAD SWAP1 POP SWAP1 JUMP JUMPDEST PUSH0 PUSH0 REVERT JUMPDEST PUSH0 PUSH0 REVERT JUMPDEST PUSH0 PUSH20 0xFFFFFFFFFFFFFFFFFFFFFFFFFFFFFFFFFFFFFFFF DUP3 AND SWAP1 POP SWAP2 SWAP1 POP JUMP JUMPDEST PUSH0 PUSH2 0x9ED DUP3 PUSH2 0x9C4 JUMP JUMPDEST SWAP1 POP SWAP2 SWAP1 POP JUMP JUMPDEST PUSH2 0x9FD DUP2 PUSH2 0x9E3 JUMP JUMPDEST DUP2 EQ PUSH2 0xA07 JUMPI PUSH0 PUSH0 REVERT JUMPDEST POP JUMP JUMPDEST PUSH0 DUP2 CALLDATALOAD SWAP1 POP PUSH2 0xA18 DUP2 PUSH2 0x9F4 JUMP JUMPDEST SWAP3 SWAP2 POP POP JUMP JUMPDEST PUSH0 DUP2 SWAP1 POP SWAP2 SWAP1 POP JUMP JUMPDEST PUSH2 0xA30 DUP2 PUSH2 0xA1E JUMP JUMPDEST DUP2 EQ PUSH2 0xA3A JUMPI PUSH0 PUSH0 REVERT JUMPDEST POP JUMP JUMPDEST PUSH0 DUP2 CALLDATALOAD SWAP1 POP PUSH2 0xA4B DUP2 PUSH2 0xA27 JUMP JUMPDEST SWAP3 SWAP2 POP POP JUMP JUMPDEST PUSH0 PUSH0 REVERT JUMPDEST PUSH0 PUSH0 REVERT JUMPDEST PUSH0 PUSH1 0x1F NOT PUSH1 0x1F DUP4 ADD AND SWAP1 POP SWAP2 SWAP1 POP JUMP JUMPDEST PUSH32 0x4E487B7100000000000000000000000000000000000000000000000000000000 PUSH0 MSTORE PUSH1 0x41 PUSH1 0x4 MSTORE PUSH1 0x24 PUSH0 REVERT JUMPDEST PUSH2 0xA9F DUP3 PUSH2 0xA59 JUMP JUMPDEST DUP2 ADD DUP2 DUP2 LT PUSH8 0xFFFFFFFFFFFFFFFF DUP3 GT OR ISZERO PUSH2 0xABE JUMPI PUSH2 0xABD PUSH2 0xA69 JUMP JUMPDEST JUMPDEST DUP1 PUSH1 0x40 MSTORE POP POP POP JUMP JUMPDEST PUSH0 PUSH2 0xAD0 PUSH2 0x9B3 JUMP JUMPDEST SWAP1 POP PUSH2 0xADC DUP3 DUP3 PUSH2 0xA96 JUMP JUMPDEST SWAP2 SWAP1 POP JUMP JUMPDEST PUSH0 PUSH8 0xFFFFFFFFFFFFFFFF DUP3 GT ISZERO PUSH2 0xAFB JUMPI PUSH2 0xAFA PUSH2 0xA69 JUMP JUMPDEST JUMPDEST PUSH2 0xB04 DUP3 PUSH2 0xA59 JUMP JUMPDEST SWAP1 POP PUSH1 0x20 DUP2 ADD SWAP1 POP SWAP2 SWAP1 POP JUMP JUMPDEST DUP3 DUP2 DUP4 CALLDATACOPY PUSH0 DUP4 DUP4 ADD MSTORE POP POP POP JUMP JUMPDEST PUSH0 PUSH2 0xB31 PUSH2 0xB2C DUP5 PUSH2 0xAE1 JUMP JUMPDEST PUSH2 0xAC7 JUMP JUMPDEST SWAP1 POP DUP3 DUP2 MSTORE PUSH1 0x20 DUP2 ADD DUP5 DUP5 DUP5 ADD GT ISZERO PUSH2 0xB4D JUMPI PUSH2 0xB4C PUSH2 0xA55 JUMP JUMPDEST JUMPDEST PUSH2 0xB58 DUP5 DUP3 DUP6 PUSH2 0xB11 JUMP JUMPDEST POP SWAP4 SWAP3 POP POP POP JUMP JUMPDEST PUSH0 DUP3 PUSH1 0x1F DUP4 ADD SLT PUSH2 0xB74 JUMPI PUSH2 0xB73 PUSH2 0xA51 JUMP JUMPDEST JUMPDEST DUP2 CALLDATALOAD PUSH2 0xB84 DUP5 DUP3 PUSH1 0x20 DUP7 ADD PUSH2 0xB1F JUMP JUMPDEST SWAP2 POP POP SWAP3 SWAP2 POP POP JUMP JUMPDEST PUSH0 PUSH0 PUSH0 PUSH0 PUSH1 0x80 DUP6 DUP8 SUB SLT ISZERO PUSH2 0xBA5 JUMPI PUSH2 0xBA4 PUSH2 0x9BC JUMP JUMPDEST JUMPDEST PUSH0 PUSH2 0xBB2 DUP8 DUP3 DUP9 ADD PUSH2 0xA0A JUMP JUMPDEST SWAP5 POP POP PUSH1 0x20 PUSH2 0xBC3 DUP8 DUP3 DUP9 ADD PUSH2 0xA0A JUMP JUMPDEST SWAP4 POP POP PUSH1 0x40 PUSH2 0xBD4 DUP8 DUP3 DUP9 ADD PUSH2 0xA3D JUMP JUMPDEST SWAP3 POP POP PUSH1 0x60 DUP6 ADD CALLDATALOAD PUSH8 0xFFFFFFFFFFFFFFFF DUP2 GT ISZERO PUSH2 0xBF5 JUMPI PUSH2 0xBF4 PUSH2 0x9C0 JUMP JUMPDEST JUMPDEST PUSH2 0xC01 DUP8 DUP3 DUP9 ADD PUSH2 0xB60 JUMP JUMPDEST SWAP2 POP POP SWAP3 SWAP6 SWAP2 SWAP5 POP SWAP3 POP JUMP JUMPDEST PUSH0 PUSH32 0xFFFFFFFF00000000000000000000000000000000000000000000000000000000 DUP3 AND SWAP1 POP SWAP2 SWAP1 POP JUMP JUMPDEST PUSH2 0xC41 DUP2 PUSH2 0xC0D JUMP JUMPDEST DUP3 MSTORE POP POP JUMP JUMPDEST PUSH0 PUSH1 0x20 DUP3 ADD SWAP1 POP PUSH2 0xC5A PUSH0 DUP4 ADD DUP5 PUSH2 0xC38 JUMP JUMPDEST SWAP3 SWAP2 POP POP JUMP JUMPDEST PUSH0 PUSH1 0x20 DUP3 DUP5 SUB SLT ISZERO PUSH2 0xC75 JUMPI PUSH2 0xC74 PUSH2 0x9BC JUMP JUMPDEST JUMPDEST PUSH0 PUSH2 0xC82 DUP5 DUP3 DUP6 ADD PUSH2 0xA3D JUMP JUMPDEST SWAP2 POP POP SWAP3 SWAP2 POP POP JUMP JUMPDEST PUSH0 DUP2 SWAP1 POP SWAP2 SWAP1 POP JUMP JUMPDEST PUSH0 PUSH2 0xCAE PUSH2 0xCA9 PUSH2 0xCA4 DUP5 PUSH2 0x9C4 JUMP JUMPDEST PUSH2 0xC8B JUMP JUMPDEST PUSH2 0x9C4 JUMP JUMPDEST SWAP1 POP SWAP2 SWAP1 POP JUMP JUMPDEST PUSH0 PUSH2 0xCBF DUP3 PUSH2 0xC94 JUMP JUMPDEST SWAP1 POP SWAP2 SWAP1 POP JUMP JUMPDEST PUSH0 PUSH2 0xCD0 DUP3 PUSH2 0xCB5 JUMP JUMPDEST SWAP1 POP SWAP2 SWAP1 POP JUMP JUMPDEST PUSH2 0xCE0 DUP2 PUSH2 0xCC6 JUMP JUMPDEST DUP3 MSTORE POP POP JUMP JUMPDEST PUSH0 PUSH1 0x20 DUP3 ADD SWAP1 POP PUSH2 0xCF9 PUSH0 DUP4 ADD DUP5 PUSH2 0xCD7 JUMP JUMPDEST SWAP3 SWAP2 POP POP JUMP JUMPDEST PUSH2 0xD08 DUP2 PUSH2 0xA1E JUMP JUMPDEST DUP3 MSTORE POP POP JUMP JUMPDEST PUSH0 PUSH1 0x20 DUP3 ADD SWAP1 POP PUSH2 0xD21 PUSH0 DUP4 ADD DUP5 PUSH2 0xCFF JUMP JUMPDEST SWAP3 SWAP2 POP POP JUMP JUMPDEST PUSH2 0xD30 DUP2 PUSH2 0x9E3 JUMP JUMPDEST DUP3 MSTORE POP POP JUMP JUMPDEST PUSH0 PUSH1 0x40 DUP3 ADD SWAP1 POP PUSH2 0xD49 PUSH0 DUP4 ADD DUP6 PUSH2 0xD27 JUMP JUMPDEST PUSH2 0xD56 PUSH1 0x20 DUP4 ADD DUP5 PUSH2 0xCFF JUMP JUMPDEST SWAP4 SWAP3 POP POP POP JUMP JUMPDEST PUSH0 PUSH2 0xD67 DUP3 PUSH2 0xCB5 JUMP JUMPDEST SWAP1 POP SWAP2 SWAP1 POP JUMP JUMPDEST PUSH2 0xD77 DUP2 PUSH2 0xD5D JUMP JUMPDEST DUP3 MSTORE POP POP JUMP JUMPDEST PUSH0 PUSH1 0x20 DUP3 ADD SWAP1 POP PUSH2 0xD90 PUSH0 DUP4 ADD DUP5 PUSH2 0xD6E JUMP JUMPDEST SWAP3 SWAP2 POP POP JUMP JUMPDEST PUSH0 DUP3 DUP3 MSTORE PUSH1 0x20 DUP3 ADD SWAP1 POP SWAP3 SWAP2 POP POP JUMP JUMPDEST PUSH32 0x4E6F74206F776E65720000000000000000000000000000000000000000000000 PUSH0 DUP3 ADD MSTORE POP JUMP JUMPDEST PUSH0 PUSH2 0xDDA PUSH1 0x9 DUP4 PUSH2 0xD96 JUMP JUMPDEST SWAP2 POP PUSH2 0xDE5 DUP3 PUSH2 0xDA6 JUMP JUMPDEST PUSH1 0x20 DUP3 ADD SWAP1 POP SWAP2 SWAP1 POP JUMP JUMPDEST PUSH0 PUSH1 0x20 DUP3 ADD SWAP1 POP DUP2 DUP2 SUB PUSH0 DUP4 ADD MSTORE PUSH2 0xE07 DUP2 PUSH2 0xDCE JUMP JUMPDEST SWAP1 POP SWAP2 SWAP1 POP JUMP JUMPDEST PUSH0 PUSH1 0x20 DUP3 ADD SWAP1 POP PUSH2 0xE21 PUSH0 DUP4 ADD DUP5 PUSH2 0xD27 JUMP JUMPDEST SWAP3 SWAP2 POP POP JUMP JUMPDEST PUSH0 DUP2 MLOAD SWAP1 POP PUSH2 0xE35 DUP2 PUSH2 0xA27 JUMP JUMPDEST SWAP3 SWAP2 POP POP JUMP JUMPDEST PUSH0 PUSH1 0x20 DUP3 DUP5 SUB SLT ISZERO PUSH2 0xE50 JUMPI PUSH2 0xE4F PUSH2 0x9BC JUMP JUMPDEST JUMPDEST PUSH0 PUSH2 0xE5D DUP5 DUP3 DUP6 ADD PUSH2 0xE27 JUMP JUMPDEST SWAP2 POP POP SWAP3 SWAP2 POP POP JUMP JUMPDEST PUSH32 0x496E73756666696369656E742072657761726420706F6F6C0000000000000000 PUSH0 DUP3 ADD MSTORE POP JUMP JUMPDEST PUSH0 PUSH2 0xE9A PUSH1 0x18 DUP4 PUSH2 0xD96 JUMP JUMPDEST SWAP2 POP PUSH2 0xEA5 DUP3 PUSH2 0xE66 JUMP JUMPDEST PUSH1 0x20 DUP3 ADD SWAP1 POP SWAP2 SWAP1 POP JUMP JUMPDEST PUSH0 PUSH1 0x20 DUP3 ADD SWAP1 POP DUP2 DUP2 SUB PUSH0 DUP4 ADD MSTORE PUSH2 0xEC7 DUP2 PUSH2 0xE8E JUMP JUMPDEST SWAP1 POP SWAP2 SWAP1 POP JUMP JUMPDEST PUSH0 DUP2 ISZERO ISZERO SWAP1 POP SWAP2 SWAP1 POP JUMP JUMPDEST PUSH2 0xEE2 DUP2 PUSH2 0xECE JUMP JUMPDEST DUP2 EQ PUSH2 0xEEC JUMPI PUSH0 PUSH0 REVERT JUMPDEST POP JUMP JUMPDEST PUSH0 DUP2 MLOAD SWAP1 POP PUSH2 0xEFD DUP2 PUSH2 0xED9 JUMP JUMPDEST SWAP3 SWAP2 POP POP JUMP JUMPDEST PUSH0 PUSH1 0x20 DUP3 DUP5 SUB SLT ISZERO PUSH2 0xF18 JUMPI PUSH2 0xF17 PUSH2 0x9BC JUMP JUMPDEST JUMPDEST PUSH0 PUSH2 0xF25 DUP5 DUP3 DUP6 ADD PUSH2 0xEEF JUMP JUMPDEST SWAP2 POP POP SWAP3 SWAP2 POP POP JUMP JUMPDEST PUSH0 PUSH1 0x60 DUP3 ADD SWAP1 POP PUSH2 0xF41 PUSH0 DUP4 ADD DUP7 PUSH2 0xD27 JUMP JUMPDEST PUSH2 0xF4E PUSH1 0x20 DUP4 ADD DUP6 PUSH2 0xD27 JUMP JUMPDEST PUSH2 0xF5B PUSH1 0x40 DUP4 ADD DUP5 PUSH2 0xCFF JUMP JUMPDEST SWAP5 SWAP4 POP POP POP POP JUMP JUMPDEST PUSH32 0x4E487B7100000000000000000000000000000000000000000000000000000000 PUSH0 MSTORE PUSH1 0x11 PUSH1 0x4 MSTORE PUSH1 0x24 PUSH0 REVERT JUMPDEST PUSH0 PUSH2 0xF9A DUP3 PUSH2 0xA1E JUMP JUMPDEST SWAP2 POP PUSH2 0xFA5 DUP4 PUSH2 0xA1E JUMP JUMPDEST SWAP3 POP DUP3 DUP3 SUB SWAP1 POP DUP2 DUP2 GT ISZERO PUSH2 0xFBD JUMPI PUSH2 0xFBC PUSH2 0xF63 JUMP JUMPDEST JUMPDEST SWAP3 SWAP2 POP POP JUMP JUMPDEST PUSH0 PUSH2 0xFCD DUP3 PUSH2 0xA1E JUMP JUMPDEST SWAP2 POP PUSH2 0xFD8 DUP4 PUSH2 0xA1E JUMP JUMPDEST SWAP3 POP DUP3 DUP3 MUL PUSH2 0xFE6 DUP2 PUSH2 0xA1E JUMP JUMPDEST SWAP2 POP DUP3 DUP3 DIV DUP5 EQ DUP4 ISZERO OR PUSH2 0xFFD JUMPI PUSH2 0xFFC PUSH2 0xF63 JUMP JUMPDEST JUMPDEST POP SWAP3 SWAP2 POP POP JUMP JUMPDEST PUSH32 0x4E487B7100000000000000000000000000000000000000000000000000000000 PUSH0 MSTORE PUSH1 0x12 PUSH1 0x4 MSTORE PUSH1 0x24 PUSH0 REVERT JUMPDEST PUSH0 PUSH2 0x103B DUP3 PUSH2 0xA1E JUMP JUMPDEST SWAP2 POP PUSH2 0x1046 DUP4 PUSH2 0xA1E JUMP JUMPDEST SWAP3 POP DUP3 PUSH2 0x1056 JUMPI PUSH2 0x1055 PUSH2 0x1004 JUMP JUMPDEST JUMPDEST DUP3 DUP3 DIV SWAP1 POP SWAP3 SWAP2 POP POP JUMP INVALID LOG2 PUSH5 0x6970667358 0x22 SLT KECCAK256 SWAP14 0xD4 0xBF 0xA8 INVALID SHL BLOCKHASH PUSH32 0x36DBCD6DE0966BAD5995E7A993767FB26D0A4F7371080A7764736F6C63430008 0x1E STOP CALLER "
		},
		"gasEstimates": {
			"creation": {
				"codeDepositCost": "849400",
				"executionCost": "infinite",
				"totalCost": "infinite"
			},
			"external": {
				"REWARD_PER_DAY()": "347",
				"claim(uint256)": "infinite",
				"nft()": "infinite",
				"onERC721Received(address,address,uint256,bytes)": "infinite",
				"pendingRewards(uint256)": "infinite",
				"rewardToken()": "infinite",
				"stake(uint256)": "infinite",
				"stakes(uint256)": "infinite",
				"unstake(uint256)": "infinite"
			}
		},
		"methodIdentifiers": {
			"REWARD_PER_DAY()": "8141feb3",
			"claim(uint256)": "379607f5",
			"nft()": "47ccca02",
			"onERC721Received(address,address,uint256,bytes)": "150b7a02",
			"pendingRewards(uint256)": "7dcb2abf",
			"rewardToken()": "f7c618c1",
			"stake(uint256)": "a694fc3a",
			"stakes(uint256)": "d5a44f86",
			"unstake(uint256)": "2e17de78"
		}
	},
	"abi": [
		{
			"inputs": [
				{
					"internalType": "address",
					"name": "_nft",
					"type": "address"
				},
				{
					"internalType": "address",
					"name": "_rewardToken",
					"type": "address"
				}
			],
			"stateMutability": "nonpayable",
			"type": "constructor"
		},
		{
			"inputs": [],
			"name": "REWARD_PER_DAY",
			"outputs": [
				{
					"internalType": "uint256",
					"name": "",
					"type": "uint256"
				}
			],
			"stateMutability": "view",
			"type": "function"
		},
		{
			"inputs": [
				{
					"internalType": "uint256",
					"name": "tokenId",
					"type": "uint256"
				}
			],
			"name": "claim",
			"outputs": [],
			"stateMutability": "nonpayable",
			"type": "function"
		},
		{
			"inputs": [],
			"name": "nft",
			"outputs": [
				{
					"internalType": "contract IERC721",
					"name": "",
					"type": "address"
				}
			],
			"stateMutability": "view",
			"type": "function"
		},
		{
			"inputs": [
				{
					"internalType": "address",
					"name": "",
					"type": "address"
				},
				{
					"internalType": "address",
					"name": "",
					"type": "address"
				},
				{
					"internalType": "uint256",
					"name": "",
					"type": "uint256"
				},
				{
					"internalType": "bytes",
					"name": "",
					"type": "bytes"
				}
			],
			"name": "onERC721Received",
			"outputs": [
				{
					"internalType": "bytes4",
					"name": "",
					"type": "bytes4"
				}
			],
			"stateMutability": "nonpayable",
			"type": "function"
		},
		{
			"inputs": [
				{
					"internalType": "uint256",
					"name": "tokenId",
					"type": "uint256"
				}
			],
			"name": "pendingRewards",
			"outputs": [
				{
					"internalType": "uint256",
					"name": "",
					"type": "uint256"
				}
			],
			"stateMutability": "view",
			"type": "function"
		},
		{
			"inputs": [],
			"name": "rewardToken",
			"outputs": [
				{
					"internalType": "contract IERC20",
					"name": "",
					"type": "address"
				}
			],
			"stateMutability": "view",
			"type": "function"
		},
		{
			"inputs": [
				{
					"internalType": "uint256",
					"name": "tokenId",
					"type": "uint256"
				}
			],
			"name": "stake",
			"outputs": [],
			"stateMutability": "nonpayable",
			"type": "function"
		},
		{
			"inputs": [
				{
					"internalType": "uint256",
					"name": "",
					"type": "uint256"
				}
			],
			"name": "stakes",
			"outputs": [
				{
					"internalType": "address",
					"name": "owner",
					"type": "address"
				},
				{
					"internalType": "uint256",
					"name": "stakedAt",
					"type": "uint256"
				}
			],
			"stateMutability": "view",
			"type": "function"
		},
		{
			"inputs": [
				{
					"internalType": "uint256",
					"name": "tokenId",
					"type": "uint256"
				}
			],
			"name": "unstake",
			"outputs": [],
			"stateMutability": "nonpayable",
			"type": "function"
		}
	]
}